{"abi":[{"type":"constructor","inputs":[{"name":"initialOwner","type":"address","internalType":"address"},{"name":"daoAddress","type":"address","internalType":"address payable"},{"name":"urzTokenAddress","type":"address","internalType":"address payable"}],"stateMutability":"nonpayable"},{"type":"function","name":"appealToDAO","inputs":[{"name":"escrowId","type":"uint256","internalType":"uint256"}],"outputs":[],"stateMutability":"nonpayable"},{"type":"function","name":"createEscrow","inputs":[{"name":"landlord","type":"address","internalType":"address"},{"name":"amount","type":"uint256","internalType":"uint256"},{"name":"token","type":"address","internalType":"address"}],"outputs":[{"name":"id","type":"uint256","internalType":"uint256"}],"stateMutability":"nonpayable"},{"type":"function","name":"dao","inputs":[],"outputs":[{"name":"","type":"address","internalType":"contract UltraRentzDAO"}],"stateMutability":"view"},{"type":"function","name":"disputeReferred","inputs":[{"name":"","type":"uint256","internalType":"uint256"}],"outputs":[{"name":"","type":"bool","internalType":"bool"}],"stateMutability":"view"},{"type":"function","name":"escrowCounter","inputs":[],"outputs":[{"name":"","type":"uint256","internalType":"uint256"}],"stateMutability":"view"},{"type":"function","name":"escrows","inputs":[{"name":"","type":"uint256","internalType":"uint256"}],"outputs":[{"name":"tenant","type":"address","internalType":"address"},{"name":"landlord","type":"address","internalType":"address"},{"name":"token","type":"address","internalType":"address"},{"name":"disputeTimestamp","type":"uint32","internalType":"uint32"},{"name":"exists","type":"bool","internalType":"bool"},{"name":"state","type":"uint8","internalType":"enum EscrowStateMachine.EscrowState"},{"name":"amount","type":"uint256","internalType":"uint256"}],"stateMutability":"view"},{"type":"function","name":"fundEscrow","inputs":[{"name":"escrowId","type":"uint256","internalType":"uint256"}],"outputs":[],"stateMutability":"nonpayable"},{"type":"function","name":"owner","inputs":[],"outputs":[{"name":"","type":"address","internalType":"address"}],"stateMutability":"view"},{"type":"function","name":"raiseDispute","inputs":[{"name":"escrowId","type":"uint256","internalType":"uint256"}],"outputs":[],"stateMutability":"nonpayable"},{"type":"function","name":"referDisputeToDAO","inputs":[{"name":"escrowId","type":"uint256","internalType":"uint256"}],"outputs":[],"stateMutability":"nonpayable"},{"type":"function","name":"refundEscrow","inputs":[{"name":"escrowId","type":"uint256","internalType":"uint256"}],"outputs":[],"stateMutability":"nonpayable"},{"type":"function","name":"releaseEscrow","inputs":[{"name":"escrowId","type":"uint256","internalType":"uint256"}],"outputs":[],"stateMutability":"nonpayable"},{"type":"function","name":"renounceOwnership","inputs":[],"outputs":[],"stateMutability":"nonpayable"},{"type":"function","name":"resolveByDAO","inputs":[{"name":"escrowId","type":"uint256","internalType":"uint256"}],"outputs":[],"stateMutability":"nonpayable"},{"type":"function","name":"setTestBypassOnlyOwner","inputs":[{"name":"enabled","type":"bool","internalType":"bool"}],"outputs":[],"stateMutability":"nonpayable"},{"type":"function","name":"testBypassOnlyOwner","inputs":[],"outputs":[{"name":"","type":"bool","internalType":"bool"}],"stateMutability":"view"},{"type":"function","name":"transferOwnership","inputs":[{"name":"newOwner","type":"address","internalType":"address"}],"outputs":[],"stateMutability":"nonpayable"},{"type":"function","name":"urzToken","inputs":[],"outputs":[{"name":"","type":"address","internalType":"contract UltraRentzStable"}],"stateMutability":"view"},{"type":"event","name":"DAOAppeal","inputs":[{"name":"escrowId","type":"uint256","indexed":true,"internalType":"uint256"}],"anonymous":false},{"type":"event","name":"DAOResolved","inputs":[{"name":"escrowId","type":"uint256","indexed":true,"internalType":"uint256"},{"name":"decision","type":"uint8","indexed":false,"internalType":"enum UltraRentzDAO.Decision"},{"name":"amountReleased","type":"uint256","indexed":false,"internalType":"uint256"}],"anonymous":false},{"type":"event","name":"DepositBurned","inputs":[{"name":"escrowId","type":"uint256","indexed":true,"internalType":"uint256"},{"name":"user","type":"address","indexed":true,"internalType":"address"},{"name":"amount","type":"uint256","indexed":false,"internalType":"uint256"}],"anonymous":false},{"type":"event","name":"DepositTokenized","inputs":[{"name":"escrowId","type":"uint256","indexed":true,"internalType":"uint256"},{"name":"tenant","type":"address","indexed":true,"internalType":"address"},{"name":"amount","type":"uint256","indexed":false,"internalType":"uint256"}],"anonymous":false},{"type":"event","name":"DisputeReferredToDAO","inputs":[{"name":"escrowId","type":"uint256","indexed":true,"internalType":"uint256"}],"anonymous":false},{"type":"event","name":"EscrowCreated","inputs":[{"name":"escrowId","type":"uint256","indexed":true,"internalType":"uint256"},{"name":"tenant","type":"address","indexed":true,"internalType":"address"},{"name":"landlord","type":"address","indexed":false,"internalType":"address"},{"name":"token","type":"address","indexed":false,"internalType":"address"}],"anonymous":false},{"type":"event","name":"EscrowDisputed","inputs":[{"name":"escrowId","type":"uint256","indexed":true,"internalType":"uint256"}],"anonymous":false},{"type":"event","name":"EscrowFunded","inputs":[{"name":"escrowId","type":"uint256","indexed":true,"internalType":"uint256"},{"name":"amount","type":"uint256","indexed":false,"internalType":"uint256"}],"anonymous":false},{"type":"event","name":"EscrowRefunded","inputs":[{"name":"escrowId","type":"uint256","indexed":true,"internalType":"uint256"},{"name":"tenant","type":"address","indexed":false,"internalType":"address"},{"name":"token","type":"address","indexed":false,"internalType":"address"}],"anonymous":false},{"type":"event","name":"EscrowReleased","inputs":[{"name":"escrowId","type":"uint256","indexed":true,"internalType":"uint256"},{"name":"landlord","type":"address","indexed":false,"internalType":"address"},{"name":"token","type":"address","indexed":false,"internalType":"address"}],"anonymous":false},{"type":"event","name":"OwnershipTransferred","inputs":[{"name":"previousOwner","type":"address","indexed":true,"internalType":"address"},{"name":"newOwner","type":"address","indexed":true,"internalType":"address"}],"anonymous":false},{"type":"error","name":"OwnableInvalidOwner","inputs":[{"name":"owner","type":"address","internalType":"address"}]},{"type":"error","name":"OwnableUnauthorizedAccount","inputs":[{"name":"account","type":"address","internalType":"address"}]},{"type":"error","name":"ReentrancyGuardReentrantCall","inputs":[]},{"type":"error","name":"SafeCastOverflowedUintDowncast","inputs":[{"name":"bits","type":"uint8","internalType":"uint8"},{"name":"value","type":"uint256","internalType":"uint256"}]}],"bytecode":{"object":"0x60c060405234801561000f575f5ffd5b50604051613ad7380380613ad783398181016040528101906100319190610283565b825f73ffffffffffffffffffffffffffffffffffffffff168173ffffffffffffffffffffffffffffffffffffffff16036100a2575f6040517f1e4fbdf700000000000000000000000000000000000000000000000000000000815260040161009991906102e2565b60405180910390fd5b6100b18161012960201b60201c565b50600180819055508173ffffffffffffffffffffffffffffffffffffffff1660808173ffffffffffffffffffffffffffffffffffffffff16815250508073ffffffffffffffffffffffffffffffffffffffff1660a08173ffffffffffffffffffffffffffffffffffffffff16815250505050506102fb565b5f5f5f9054906101000a900473ffffffffffffffffffffffffffffffffffffffff169050815f5f6101000a81548173ffffffffffffffffffffffffffffffffffffffff021916908373ffffffffffffffffffffffffffffffffffffffff1602179055508173ffffffffffffffffffffffffffffffffffffffff168173ffffffffffffffffffffffffffffffffffffffff167f8be0079c531659141344cd1fd0a4f28419497f9722a3daafe3b4186f6b6457e060405160405180910390a35050565b5f5ffd5b5f73ffffffffffffffffffffffffffffffffffffffff82169050919050565b5f610217826101ee565b9050919050565b6102278161020d565b8114610231575f5ffd5b50565b5f815190506102428161021e565b92915050565b5f610252826101ee565b9050919050565b61026281610248565b811461026c575f5ffd5b50565b5f8151905061027d81610259565b92915050565b5f5f5f6060848603121561029a576102996101ea565b5b5f6102a786828701610234565b93505060206102b88682870161026f565b92505060406102c98682870161026f565b9150509250925092565b6102dc8161020d565b82525050565b5f6020820190506102f55f8301846102d3565b92915050565b60805160a0516137756103625f395f81816114b50152818161156601528181611ec401528181611f75015281816120e10152818161242401526124d501525f818161050201528181610d7301528181610e97015281816110db015261171401526137755ff3fe608060405234801561000f575f5ffd5b5060043610610114575f3560e01c80638da5cb5b116100a0578063c9c31af51161006f578063c9c31af5146102bc578063d1f14a59146102d8578063ded11325146102f6578063ed65316414610312578063f2fde38b1461032e57610114565b80638da5cb5b14610234578063a5c1674e14610252578063b6d6806c1461026e578063c7ceafea1461029e57610114565b806329e47ae5116100e757806329e47ae5146101a2578063356f9dfd146101d25780634162169f146101ee578063715018a61461020c5780637776480e1461021657610114565b8063012f52ee146101185780630f0134471461014e5780631ce59f021461016a578063254747d714610186575b5f5ffd5b610132600480360381019061012d9190612943565b61034a565b6040516101459796959493929190612a67565b60405180910390f35b61016860048036038101906101639190612943565b61040f565b005b610184600480360381019061017f9190612943565b610c71565b005b6101a0600480360381019061019b9190612943565b610f4e565b005b6101bc60048036038101906101b79190612943565b611209565b6040516101c99190612ad4565b60405180910390f35b6101ec60048036038101906101e79190612943565b611226565b005b6101f6611712565b6040516102039190612b48565b60405180910390f35b610214611736565b005b61021e611749565b60405161022b9190612ad4565b60405180910390f35b61023c61175b565b6040516102499190612b61565b60405180910390f35b61026c60048036038101906102679190612943565b611782565b005b61028860048036038101906102839190612ba4565b611938565b6040516102959190612bf4565b60405180910390f35b6102a6611c78565b6040516102b39190612bf4565b60405180910390f35b6102d660048036038101906102d19190612943565b611c7e565b005b6102e06120df565b6040516102ed9190612c2d565b60405180910390f35b610310600480360381019061030b9190612c70565b612103565b005b61032c60048036038101906103279190612943565b612194565b005b61034860048036038101906103439190612c9b565b612682565b005b6004602052805f5260405f205f91509050805f015f9054906101000a900473ffffffffffffffffffffffffffffffffffffffff1690806001015f9054906101000a900473ffffffffffffffffffffffffffffffffffffffff1690806002015f9054906101000a900473ffffffffffffffffffffffffffffffffffffffff16908060020160149054906101000a900463ffffffff16908060020160189054906101000a900460ff16908060020160199054906101000a900460ff16908060030154905087565b610417612706565b60025f9054906101000a900460ff166104a05761043261175b565b73ffffffffffffffffffffffffffffffffffffffff163373ffffffffffffffffffffffffffffffffffffffff161461049f576040517f08c379a000000000000000000000000000000000000000000000000000000000815260040161049690612d20565b60405180910390fd5b5b60055f8281526020019081526020015f205f9054906101000a900460ff166104fd576040517f08c379a00000000000000000000000000000000000000000000000000000000081526004016104f490612d88565b60405180910390fd5b5f5f5f7f000000000000000000000000000000000000000000000000000000000000000073ffffffffffffffffffffffffffffffffffffffff1663564a565d856040518263ffffffff1660e01b81526004016105599190612bf4565b61010060405180830381865afa158015610575573d5f5f3e3d5ffd5b505050506040513d601f19601f820116820180604052508101906105999190612e05565b97505050955095505050505f60045f8681526020019081526020015f209050600260048111156105cc576105cb6129e5565b5b8160020160199054906101000a900460ff1660048111156105f0576105ef6129e5565b5b14610630576040517f08c379a000000000000000000000000000000000000000000000000000000000815260040161062790612f00565b60405180910390fd5b81610670576040517f08c379a000000000000000000000000000000000000000000000000000000000815260040161066790612f68565b60405180910390fd5b60016003811115610684576106836129e5565b5b836003811115610697576106966129e5565b5b036106ce5760038160020160196101000a81548160ff021916908360048111156106c4576106c36129e5565b5b0217905550610787565b600260038111156106e2576106e16129e5565b5b8360038111156106f5576106f46129e5565b5b0361072c5760038160020160196101000a81548160ff02191690836004811115610722576107216129e5565b5b0217905550610786565b60038081111561073f5761073e6129e5565b5b836003811115610752576107516129e5565b5b036107855760048160020160196101000a81548160ff0219169083600481111561077f5761077e6129e5565b5b02179055505b5b5b6001600381111561079b5761079a6129e5565b5b8360038111156107ae576107ad6129e5565b5b036108b857806002015f9054906101000a900473ffffffffffffffffffffffffffffffffffffffff1673ffffffffffffffffffffffffffffffffffffffff1663a9059cbb826001015f9054906101000a900473ffffffffffffffffffffffffffffffffffffffff16866040518363ffffffff1660e01b8152600401610834929190612f86565b6020604051808303815f875af1158015610850573d5f5f3e3d5ffd5b505050506040513d601f19601f820116820180604052508101906108749190612fad565b6108b3576040517f08c379a00000000000000000000000000000000000000000000000000000000081526004016108aa90613022565b60405180910390fd5b610c28565b600260038111156108cc576108cb6129e5565b5b8360038111156108df576108de6129e5565b5b03610af757806002015f9054906101000a900473ffffffffffffffffffffffffffffffffffffffff1673ffffffffffffffffffffffffffffffffffffffff1663a9059cbb826001015f9054906101000a900473ffffffffffffffffffffffffffffffffffffffff16866040518363ffffffff1660e01b8152600401610965929190612f86565b6020604051808303815f875af1158015610981573d5f5f3e3d5ffd5b505050506040513d601f19601f820116820180604052508101906109a59190612fad565b6109e4576040517f08c379a00000000000000000000000000000000000000000000000000000000081526004016109db90613022565b60405180910390fd5b806002015f9054906101000a900473ffffffffffffffffffffffffffffffffffffffff1673ffffffffffffffffffffffffffffffffffffffff1663a9059cbb825f015f9054906101000a900473ffffffffffffffffffffffffffffffffffffffff16868460030154610a56919061306d565b6040518363ffffffff1660e01b8152600401610a73929190612f86565b6020604051808303815f875af1158015610a8f573d5f5f3e3d5ffd5b505050506040513d601f19601f82011682018060405250810190610ab39190612fad565b610af2576040517f08c379a0000000000000000000000000000000000000000000000000000000008152600401610ae990613022565b60405180910390fd5b610c27565b600380811115610b0a57610b096129e5565b5b836003811115610b1d57610b1c6129e5565b5b03610c2657806002015f9054906101000a900473ffffffffffffffffffffffffffffffffffffffff1673ffffffffffffffffffffffffffffffffffffffff1663a9059cbb825f015f9054906101000a900473ffffffffffffffffffffffffffffffffffffffff1683600301546040518363ffffffff1660e01b8152600401610ba6929190612f86565b6020604051808303815f875af1158015610bc2573d5f5f3e3d5ffd5b505050506040513d601f19601f82011682018060405250810190610be69190612fad565b610c25576040517f08c379a0000000000000000000000000000000000000000000000000000000008152600401610c1c90613022565b60405180910390fd5b5b5b5b847f2e83b5d139caed7c1480d9e4e8034eefc681b2da0d7d318eb720cad18f4fdda28486604051610c5a9291906130e6565b60405180910390a250505050610c6e61274c565b50565b8060045f8281526020019081526020015f205f015f9054906101000a900473ffffffffffffffffffffffffffffffffffffffff1673ffffffffffffffffffffffffffffffffffffffff163373ffffffffffffffffffffffffffffffffffffffff1614610d12576040517f08c379a0000000000000000000000000000000000000000000000000000000008152600401610d0990613157565b60405180910390fd5b60055f8381526020019081526020015f205f9054906101000a900460ff16610d6f576040517f08c379a0000000000000000000000000000000000000000000000000000000008152600401610d6690612d88565b60405180910390fd5b5f5f7f000000000000000000000000000000000000000000000000000000000000000073ffffffffffffffffffffffffffffffffffffffff1663564a565d856040518263ffffffff1660e01b8152600401610dca9190612bf4565b61010060405180830381865afa158015610de6573d5f5f3e3d5ffd5b505050506040513d601f19601f82011682018060405250810190610e0a9190612e05565b9750975050505050505080610e54576040517f08c379a0000000000000000000000000000000000000000000000000000000008152600401610e4b90612f68565b60405180910390fd5b8115610e95576040517f08c379a0000000000000000000000000000000000000000000000000000000008152600401610e8c906131bf565b60405180910390fd5b7f000000000000000000000000000000000000000000000000000000000000000073ffffffffffffffffffffffffffffffffffffffff166319dc88ae856040518263ffffffff1660e01b8152600401610eee9190612bf4565b5f604051808303815f87803b158015610f05575f5ffd5b505af1158015610f17573d5f5f3e3d5ffd5b50505050837f0652d6ec7fa8a251cd81f09b5226067ad35c399fa298288f8d23292b9467fe8d60405160405180910390a250505050565b8060045f8281526020019081526020015f205f015f9054906101000a900473ffffffffffffffffffffffffffffffffffffffff1673ffffffffffffffffffffffffffffffffffffffff163373ffffffffffffffffffffffffffffffffffffffff1614610fef576040517f08c379a0000000000000000000000000000000000000000000000000000000008152600401610fe690613157565b60405180910390fd5b5f60045f8481526020019081526020015f20905060026004811115611017576110166129e5565b5b8160020160199054906101000a900460ff16600481111561103b5761103a6129e5565b5b1461107b576040517f08c379a000000000000000000000000000000000000000000000000000000000815260040161107290612f00565b60405180910390fd5b60055f8481526020019081526020015f205f9054906101000a900460ff16156110d9576040517f08c379a00000000000000000000000000000000000000000000000000000000081526004016110d090613227565b60405180910390fd5b7f000000000000000000000000000000000000000000000000000000000000000073ffffffffffffffffffffffffffffffffffffffff16630d281f1384835f015f9054906101000a900473ffffffffffffffffffffffffffffffffffffffff16846001015f9054906101000a900473ffffffffffffffffffffffffffffffffffffffff1685600301546040518563ffffffff1660e01b81526004016111819493929190613245565b5f604051808303815f87803b158015611198575f5ffd5b505af11580156111aa573d5f5f3e3d5ffd5b50505050600160055f8581526020019081526020015f205f6101000a81548160ff021916908315150217905550827f487898c7ed9ced4044c84780144869d41fb0c9f052b46830514d0cd5c67b064d60405160405180910390a2505050565b6005602052805f5260405f205f915054906101000a900460ff1681565b61122e612706565b60025f9054906101000a900460ff166112b75761124961175b565b73ffffffffffffffffffffffffffffffffffffffff163373ffffffffffffffffffffffffffffffffffffffff16146112b6576040517f08c379a00000000000000000000000000000000000000000000000000000000081526004016112ad90612d20565b60405180910390fd5b5b5f60045f8381526020019081526020015f209050600160048111156112df576112de6129e5565b5b8160020160199054906101000a900460ff166004811115611303576113026129e5565b5b148061134457506002600481111561131e5761131d6129e5565b5b8160020160199054906101000a900460ff166004811115611342576113416129e5565b5b145b611383576040517f08c379a000000000000000000000000000000000000000000000000000000000815260040161137a906132d2565b60405180910390fd5b60048160020160196101000a81548160ff021916908360048111156113ab576113aa6129e5565b5b0217905550806002015f9054906101000a900473ffffffffffffffffffffffffffffffffffffffff1673ffffffffffffffffffffffffffffffffffffffff1663a9059cbb825f015f9054906101000a900473ffffffffffffffffffffffffffffffffffffffff1683600301546040518363ffffffff1660e01b8152600401611434929190612f86565b6020604051808303815f875af1158015611450573d5f5f3e3d5ffd5b505050506040513d601f19601f820116820180604052508101906114749190612fad565b6114b3576040517f08c379a00000000000000000000000000000000000000000000000000000000081526004016114aa90613022565b60405180910390fd5b7f000000000000000000000000000000000000000000000000000000000000000073ffffffffffffffffffffffffffffffffffffffff16816002015f9054906101000a900473ffffffffffffffffffffffffffffffffffffffff1673ffffffffffffffffffffffffffffffffffffffff1614611564576040517f08c379a000000000000000000000000000000000000000000000000000000000815260040161155b9061333a565b60405180910390fd5b7f000000000000000000000000000000000000000000000000000000000000000073ffffffffffffffffffffffffffffffffffffffff16639dc29fac825f015f9054906101000a900473ffffffffffffffffffffffffffffffffffffffff1683600301546040518363ffffffff1660e01b81526004016115e5929190612f86565b5f604051808303815f87803b1580156115fc575f5ffd5b505af115801561160e573d5f5f3e3d5ffd5b50505050817fcd0cf80e47d7155dd99224c3b23942de0ceca1a277e5e49a471ffb9a45ac1542825f015f9054906101000a900473ffffffffffffffffffffffffffffffffffffffff16836002015f9054906101000a900473ffffffffffffffffffffffffffffffffffffffff16604051611689929190613358565b60405180910390a2805f015f9054906101000a900473ffffffffffffffffffffffffffffffffffffffff1673ffffffffffffffffffffffffffffffffffffffff16827f67a7cfa50de7a64de0d81ae4cb43ecf172f424367737466e66eaa11a883bccb083600301546040516116fe9190612bf4565b60405180910390a35061170f61274c565b50565b7f000000000000000000000000000000000000000000000000000000000000000081565b61173e612755565b6117475f6127dc565b565b60025f9054906101000a900460ff1681565b5f5f5f9054906101000a900473ffffffffffffffffffffffffffffffffffffffff16905090565b8060045f8281526020019081526020015f205f015f9054906101000a900473ffffffffffffffffffffffffffffffffffffffff1673ffffffffffffffffffffffffffffffffffffffff163373ffffffffffffffffffffffffffffffffffffffff1614611823576040517f08c379a000000000000000000000000000000000000000000000000000000000815260040161181a90613157565b60405180910390fd5b5f60045f8481526020019081526020015f2090506001600481111561184b5761184a6129e5565b5b8160020160199054906101000a900460ff16600481111561186f5761186e6129e5565b5b146118af576040517f08c379a00000000000000000000000000000000000000000000000000000000081526004016118a6906133c9565b60405180910390fd5b60028160020160196101000a81548160ff021916908360048111156118d7576118d66129e5565b5b02179055506118e461289d565b8160020160146101000a81548163ffffffff021916908363ffffffff160217905550827f7ce7831fed9a800b1aa5e7ca21034bf7b95efc31a196459012cf8b8eb42b7dac60405160405180910390a2505050565b5f5f73ffffffffffffffffffffffffffffffffffffffff168473ffffffffffffffffffffffffffffffffffffffff16036119a7576040517f08c379a000000000000000000000000000000000000000000000000000000000815260040161199e90613431565b60405180910390fd5b5f73ffffffffffffffffffffffffffffffffffffffff168273ffffffffffffffffffffffffffffffffffffffff1603611a15576040517f08c379a0000000000000000000000000000000000000000000000000000000008152600401611a0c90613499565b60405180910390fd5b60035f8154611a23906134b7565b91905081905590506040518060e001604052803373ffffffffffffffffffffffffffffffffffffffff1681526020018573ffffffffffffffffffffffffffffffffffffffff1681526020018373ffffffffffffffffffffffffffffffffffffffff1681526020015f63ffffffff1681526020016001151581526020015f6004811115611ab257611ab16129e5565b5b81526020018481525060045f8381526020019081526020015f205f820151815f015f6101000a81548173ffffffffffffffffffffffffffffffffffffffff021916908373ffffffffffffffffffffffffffffffffffffffff1602179055506020820151816001015f6101000a81548173ffffffffffffffffffffffffffffffffffffffff021916908373ffffffffffffffffffffffffffffffffffffffff1602179055506040820151816002015f6101000a81548173ffffffffffffffffffffffffffffffffffffffff021916908373ffffffffffffffffffffffffffffffffffffffff16021790555060608201518160020160146101000a81548163ffffffff021916908363ffffffff16021790555060808201518160020160186101000a81548160ff02191690831515021790555060a08201518160020160196101000a81548160ff02191690836004811115611c0e57611c0d6129e5565b5b021790555060c082015181600301559050503373ffffffffffffffffffffffffffffffffffffffff16817fccab83b228b9f11d0f002db0d115fe84ab0bacbe475d1c28666963a66c20c4368685604051611c69929190613358565b60405180910390a39392505050565b60035481565b611c86612706565b8060045f8281526020019081526020015f205f015f9054906101000a900473ffffffffffffffffffffffffffffffffffffffff1673ffffffffffffffffffffffffffffffffffffffff163373ffffffffffffffffffffffffffffffffffffffff1614611d27576040517f08c379a0000000000000000000000000000000000000000000000000000000008152600401611d1e90613157565b60405180910390fd5b5f60045f8481526020019081526020015f2090505f6004811115611d4e57611d4d6129e5565b5b8160020160199054906101000a900460ff166004811115611d7257611d716129e5565b5b14611db2576040517f08c379a0000000000000000000000000000000000000000000000000000000008152600401611da990613548565b60405180910390fd5b60018160020160196101000a81548160ff02191690836004811115611dda57611dd96129e5565b5b0217905550806002015f9054906101000a900473ffffffffffffffffffffffffffffffffffffffff1673ffffffffffffffffffffffffffffffffffffffff166323b872dd333084600301546040518463ffffffff1660e01b8152600401611e4393929190613566565b6020604051808303815f875af1158015611e5f573d5f5f3e3d5ffd5b505050506040513d601f19601f82011682018060405250810190611e839190612fad565b611ec2576040517f08c379a0000000000000000000000000000000000000000000000000000000008152600401611eb990613022565b60405180910390fd5b7f000000000000000000000000000000000000000000000000000000000000000073ffffffffffffffffffffffffffffffffffffffff16816002015f9054906101000a900473ffffffffffffffffffffffffffffffffffffffff1673ffffffffffffffffffffffffffffffffffffffff1614611f73576040517f08c379a0000000000000000000000000000000000000000000000000000000008152600401611f6a906135e5565b60405180910390fd5b7f000000000000000000000000000000000000000000000000000000000000000073ffffffffffffffffffffffffffffffffffffffff166340c10f19825f015f9054906101000a900473ffffffffffffffffffffffffffffffffffffffff1683600301546040518363ffffffff1660e01b8152600401611ff4929190612f86565b5f604051808303815f87803b15801561200b575f5ffd5b505af115801561201d573d5f5f3e3d5ffd5b50505050827f911052e1be46242b46bf3c2762227ff37c000e5fe38727638096f3a17fbfe17082600301546040516120559190612bf4565b60405180910390a2805f015f9054906101000a900473ffffffffffffffffffffffffffffffffffffffff1673ffffffffffffffffffffffffffffffffffffffff16837f661aa0a74ab47b8350d45914acfebf4ee15676f5129b012cf5330fc420767b8283600301546040516120ca9190612bf4565b60405180910390a350506120dc61274c565b50565b7f000000000000000000000000000000000000000000000000000000000000000081565b61210b61175b565b73ffffffffffffffffffffffffffffffffffffffff163373ffffffffffffffffffffffffffffffffffffffff1614612178576040517f08c379a000000000000000000000000000000000000000000000000000000000815260040161216f9061364d565b60405180910390fd5b8060025f6101000a81548160ff02191690831515021790555050565b61219c612706565b60025f9054906101000a900460ff16612225576121b761175b565b73ffffffffffffffffffffffffffffffffffffffff163373ffffffffffffffffffffffffffffffffffffffff1614612224576040517f08c379a000000000000000000000000000000000000000000000000000000000815260040161221b90612d20565b60405180910390fd5b5b5f60045f8381526020019081526020015f2090506001600481111561224d5761224c6129e5565b5b8160020160199054906101000a900460ff166004811115612271576122706129e5565b5b14806122b257506002600481111561228c5761228b6129e5565b5b8160020160199054906101000a900460ff1660048111156122b0576122af6129e5565b5b145b6122f1576040517f08c379a00000000000000000000000000000000000000000000000000000000081526004016122e8906136b5565b60405180910390fd5b60038160020160196101000a81548160ff02191690836004811115612319576123186129e5565b5b0217905550806002015f9054906101000a900473ffffffffffffffffffffffffffffffffffffffff1673ffffffffffffffffffffffffffffffffffffffff1663a9059cbb826001015f9054906101000a900473ffffffffffffffffffffffffffffffffffffffff1683600301546040518363ffffffff1660e01b81526004016123a3929190612f86565b6020604051808303815f875af11580156123bf573d5f5f3e3d5ffd5b505050506040513d601f19601f820116820180604052508101906123e39190612fad565b612422576040517f08c379a000000000000000000000000000000000000000000000000000000000815260040161241990613022565b60405180910390fd5b7f000000000000000000000000000000000000000000000000000000000000000073ffffffffffffffffffffffffffffffffffffffff16816002015f9054906101000a900473ffffffffffffffffffffffffffffffffffffffff1673ffffffffffffffffffffffffffffffffffffffff16146124d3576040517f08c379a00000000000000000000000000000000000000000000000000000000081526004016124ca9061333a565b60405180910390fd5b7f000000000000000000000000000000000000000000000000000000000000000073ffffffffffffffffffffffffffffffffffffffff16639dc29fac825f015f9054906101000a900473ffffffffffffffffffffffffffffffffffffffff1683600301546040518363ffffffff1660e01b8152600401612554929190612f86565b5f604051808303815f87803b15801561256b575f5ffd5b505af115801561257d573d5f5f3e3d5ffd5b50505050817ffd7f9968b90c2f39997b08b69b3c78d40df681dec28b3eec202eff456c3ad2cb826001015f9054906101000a900473ffffffffffffffffffffffffffffffffffffffff16836002015f9054906101000a900473ffffffffffffffffffffffffffffffffffffffff166040516125f9929190613358565b60405180910390a2805f015f9054906101000a900473ffffffffffffffffffffffffffffffffffffffff1673ffffffffffffffffffffffffffffffffffffffff16827f67a7cfa50de7a64de0d81ae4cb43ecf172f424367737466e66eaa11a883bccb0836003015460405161266e9190612bf4565b60405180910390a35061267f61274c565b50565b61268a612755565b5f73ffffffffffffffffffffffffffffffffffffffff168173ffffffffffffffffffffffffffffffffffffffff16036126fa575f6040517f1e4fbdf70000000000000000000000000000000000000000000000000000000081526004016126f19190612b61565b60405180910390fd5b612703816127dc565b50565b600260015403612742576040517f3ee5aeb500000000000000000000000000000000000000000000000000000000815260040160405180910390fd5b6002600181905550565b60018081905550565b61275d6128ac565b73ffffffffffffffffffffffffffffffffffffffff1661277b61175b565b73ffffffffffffffffffffffffffffffffffffffff16146127da5761279e6128ac565b6040517f118cdaa70000000000000000000000000000000000000000000000000000000081526004016127d19190612b61565b60405180910390fd5b565b5f5f5f9054906101000a900473ffffffffffffffffffffffffffffffffffffffff169050815f5f6101000a81548173ffffffffffffffffffffffffffffffffffffffff021916908373ffffffffffffffffffffffffffffffffffffffff1602179055508173ffffffffffffffffffffffffffffffffffffffff168173ffffffffffffffffffffffffffffffffffffffff167f8be0079c531659141344cd1fd0a4f28419497f9722a3daafe3b4186f6b6457e060405160405180910390a35050565b5f6128a7426128b3565b905090565b5f33905090565b5f65ffffffffffff8016821115612904576030826040517f6dfcc6500000000000000000000000000000000000000000000000000000000081526004016128fb929190613718565b60405180910390fd5b819050919050565b5f5ffd5b5f819050919050565b61292281612910565b811461292c575f5ffd5b50565b5f8135905061293d81612919565b92915050565b5f602082840312156129585761295761290c565b5b5f6129658482850161292f565b91505092915050565b5f73ffffffffffffffffffffffffffffffffffffffff82169050919050565b5f6129978261296e565b9050919050565b6129a78161298d565b82525050565b5f63ffffffff82169050919050565b6129c5816129ad565b82525050565b5f8115159050919050565b6129df816129cb565b82525050565b7f4e487b71000000000000000000000000000000000000000000000000000000005f52602160045260245ffd5b60058110612a2357612a226129e5565b5b50565b5f819050612a3382612a12565b919050565b5f612a4282612a26565b9050919050565b612a5281612a38565b82525050565b612a6181612910565b82525050565b5f60e082019050612a7a5f83018a61299e565b612a87602083018961299e565b612a94604083018861299e565b612aa160608301876129bc565b612aae60808301866129d6565b612abb60a0830185612a49565b612ac860c0830184612a58565b98975050505050505050565b5f602082019050612ae75f8301846129d6565b92915050565b5f819050919050565b5f612b10612b0b612b068461296e565b612aed565b61296e565b9050919050565b5f612b2182612af6565b9050919050565b5f612b3282612b17565b9050919050565b612b4281612b28565b82525050565b5f602082019050612b5b5f830184612b39565b92915050565b5f602082019050612b745f83018461299e565b92915050565b612b838161298d565b8114612b8d575f5ffd5b50565b5f81359050612b9e81612b7a565b92915050565b5f5f5f60608486031215612bbb57612bba61290c565b5b5f612bc886828701612b90565b9350506020612bd98682870161292f565b9250506040612bea86828701612b90565b9150509250925092565b5f602082019050612c075f830184612a58565b92915050565b5f612c1782612b17565b9050919050565b612c2781612c0d565b82525050565b5f602082019050612c405f830184612c1e565b92915050565b612c4f816129cb565b8114612c59575f5ffd5b50565b5f81359050612c6a81612c46565b92915050565b5f60208284031215612c8557612c8461290c565b5b5f612c9284828501612c5c565b91505092915050565b5f60208284031215612cb057612caf61290c565b5b5f612cbd84828501612b90565b91505092915050565b5f82825260208201905092915050565b7f4f776e61626c653a2063616c6c6572206973206e6f7420746865206f776e65725f82015250565b5f612d0a602083612cc6565b9150612d1582612cd6565b602082019050919050565b5f6020820190508181035f830152612d3781612cfe565b9050919050565b7f4e6f7420726566657272656400000000000000000000000000000000000000005f82015250565b5f612d72600c83612cc6565b9150612d7d82612d3e565b602082019050919050565b5f6020820190508181035f830152612d9f81612d66565b9050919050565b5f81519050612db481612919565b92915050565b5f81519050612dc881612b7a565b92915050565b60048110612dda575f5ffd5b50565b5f81519050612deb81612dce565b92915050565b5f81519050612dff81612c46565b92915050565b5f5f5f5f5f5f5f5f610100898b031215612e2257612e2161290c565b5b5f612e2f8b828c01612da6565b9850506020612e408b828c01612dba565b9750506040612e518b828c01612dba565b9650506060612e628b828c01612da6565b9550506080612e738b828c01612ddd565b94505060a0612e848b828c01612da6565b93505060c0612e958b828c01612df1565b92505060e0612ea68b828c01612df1565b9150509295985092959890939650565b7f4e6f7420696e20646973707574650000000000000000000000000000000000005f82015250565b5f612eea600e83612cc6565b9150612ef582612eb6565b602082019050919050565b5f6020820190508181035f830152612f1781612ede565b9050919050565b7f44414f206e6f74207265736f6c766564000000000000000000000000000000005f82015250565b5f612f52601083612cc6565b9150612f5d82612f1e565b602082019050919050565b5f6020820190508181035f830152612f7f81612f46565b9050919050565b5f604082019050612f995f83018561299e565b612fa66020830184612a58565b9392505050565b5f60208284031215612fc257612fc161290c565b5b5f612fcf84828501612df1565b91505092915050565b7f5472616e73666572206661696c656400000000000000000000000000000000005f82015250565b5f61300c600f83612cc6565b915061301782612fd8565b602082019050919050565b5f6020820190508181035f83015261303981613000565b9050919050565b7f4e487b71000000000000000000000000000000000000000000000000000000005f52601160045260245ffd5b5f61307782612910565b915061308283612910565b925082820390508181111561309a57613099613040565b5b92915050565b600481106130b1576130b06129e5565b5b50565b5f8190506130c1826130a0565b919050565b5f6130d0826130b4565b9050919050565b6130e0816130c6565b82525050565b5f6040820190506130f95f8301856130d7565b6131066020830184612a58565b9392505050565b7f4e6f742074656e616e74000000000000000000000000000000000000000000005f82015250565b5f613141600a83612cc6565b915061314c8261310d565b602082019050919050565b5f6020820190508181035f83015261316e81613135565b9050919050565b7f416c72656164792061707065616c6564000000000000000000000000000000005f82015250565b5f6131a9601083612cc6565b91506131b482613175565b602082019050919050565b5f6020820190508181035f8301526131d68161319d565b9050919050565b7f416c7265616479207265666572726564000000000000000000000000000000005f82015250565b5f613211601083612cc6565b915061321c826131dd565b602082019050919050565b5f6020820190508181035f83015261323e81613205565b9050919050565b5f6080820190506132585f830187612a58565b613265602083018661299e565b613272604083018561299e565b61327f6060830184612a58565b95945050505050565b7f4e6f7420726566756e6461626c650000000000000000000000000000000000005f82015250565b5f6132bc600e83612cc6565b91506132c782613288565b602082019050919050565b5f6020820190508181035f8301526132e9816132b0565b9050919050565b7f546f6b656e206d7573742062652055525a20666f72206275726e0000000000005f82015250565b5f613324601a83612cc6565b915061332f826132f0565b602082019050919050565b5f6020820190508181035f83015261335181613318565b9050919050565b5f60408201905061336b5f83018561299e565b613378602083018461299e565b9392505050565b7f43616e6e6f7420646973707574650000000000000000000000000000000000005f82015250565b5f6133b3600e83612cc6565b91506133be8261337f565b602082019050919050565b5f6020820190508181035f8301526133e0816133a7565b9050919050565b7f496e76616c6964206c616e646c6f7264000000000000000000000000000000005f82015250565b5f61341b601083612cc6565b9150613426826133e7565b602082019050919050565b5f6020820190508181035f8301526134488161340f565b9050919050565b7f496e76616c696420746f6b656e000000000000000000000000000000000000005f82015250565b5f613483600d83612cc6565b915061348e8261344f565b602082019050919050565b5f6020820190508181035f8301526134b081613477565b9050919050565b5f6134c182612910565b91507fffffffffffffffffffffffffffffffffffffffffffffffffffffffffffffffff82036134f3576134f2613040565b5b600182019050919050565b7f457363726f77206973206e6f742066756e6461626c65000000000000000000005f82015250565b5f613532601683612cc6565b915061353d826134fe565b602082019050919050565b5f6020820190508181035f83015261355f81613526565b9050919050565b5f6060820190506135795f83018661299e565b613586602083018561299e565b6135936040830184612a58565b949350505050565b7f546f6b656e206d7573742062652055525a20666f72206d696e740000000000005f82015250565b5f6135cf601a83612cc6565b91506135da8261359b565b602082019050919050565b5f6020820190508181035f8301526135fc816135c3565b9050919050565b7f4f6e6c79206f776e65722063616e2073657420627970617373000000000000005f82015250565b5f613637601983612cc6565b915061364282613603565b602082019050919050565b5f6020820190508181035f8301526136648161362b565b9050919050565b7f4e6f742072656c65617361626c650000000000000000000000000000000000005f82015250565b5f61369f600e83612cc6565b91506136aa8261366b565b602082019050919050565b5f6020820190508181035f8301526136cc81613693565b9050919050565b5f819050919050565b5f60ff82169050919050565b5f6137026136fd6136f8846136d3565b612aed565b6136dc565b9050919050565b613712816136e8565b82525050565b5f60408201905061372b5f830185613709565b6137386020830184612a58565b939250505056fea2646970667358221220656d7e920eeabfdf8f62459d78071480b550decdaa77e9ba96424a62267e623664736f6c63430008210033","linkReferences":{}},"methodIdentifiers":{"appealToDAO(uint256)":"1ce59f02","createEscrow(address,uint256,address)":"b6d6806c","dao()":"4162169f","disputeReferred(uint256)":"29e47ae5","escrowCounter()":"c7ceafea","escrows(uint256)":"012f52ee","fundEscrow(uint256)":"c9c31af5","owner()":"8da5cb5b","raiseDispute(uint256)":"a5c1674e","referDisputeToDAO(uint256)":"254747d7","refundEscrow(uint256)":"356f9dfd","releaseEscrow(uint256)":"ed653164","renounceOwnership()":"715018a6","resolveByDAO(uint256)":"0f013447","setTestBypassOnlyOwner(bool)":"ded11325","testBypassOnlyOwner()":"7776480e","transferOwnership(address)":"f2fde38b","urzToken()":"d1f14a59"},"id":32}