{"abi":[{"type":"constructor","inputs":[{"name":"initialOwner","type":"address","internalType":"address"},{"name":"daoAddress","type":"address","internalType":"address payable"},{"name":"urzTokenAddress","type":"address","internalType":"address payable"}],"stateMutability":"nonpayable"},{"type":"function","name":"appealToDAO","inputs":[{"name":"escrowId","type":"uint256","internalType":"uint256"}],"outputs":[],"stateMutability":"nonpayable"},{"type":"function","name":"createEscrow","inputs":[{"name":"landlord","type":"address","internalType":"address"},{"name":"amount","type":"uint256","internalType":"uint256"},{"name":"token","type":"address","internalType":"address"}],"outputs":[{"name":"id","type":"uint256","internalType":"uint256"}],"stateMutability":"nonpayable"},{"type":"function","name":"disputeReferred","inputs":[{"name":"","type":"uint256","internalType":"uint256"}],"outputs":[{"name":"","type":"bool","internalType":"bool"}],"stateMutability":"view"},{"type":"function","name":"escrowCounter","inputs":[],"outputs":[{"name":"","type":"uint256","internalType":"uint256"}],"stateMutability":"view"},{"type":"function","name":"escrows","inputs":[{"name":"","type":"uint256","internalType":"uint256"}],"outputs":[{"name":"tenant","type":"address","internalType":"address"},{"name":"landlord","type":"address","internalType":"address"},{"name":"token","type":"address","internalType":"address"},{"name":"disputeTimestamp","type":"uint32","internalType":"uint32"},{"name":"exists","type":"bool","internalType":"bool"},{"name":"state","type":"uint8","internalType":"enum EscrowStateMachine.EscrowState"},{"name":"amount","type":"uint256","internalType":"uint256"}],"stateMutability":"view"},{"type":"function","name":"fundEscrow","inputs":[{"name":"escrowId","type":"uint256","internalType":"uint256"}],"outputs":[],"stateMutability":"nonpayable"},{"type":"function","name":"owner","inputs":[],"outputs":[{"name":"","type":"address","internalType":"address"}],"stateMutability":"view"},{"type":"function","name":"raiseDispute","inputs":[{"name":"escrowId","type":"uint256","internalType":"uint256"}],"outputs":[],"stateMutability":"nonpayable"},{"type":"function","name":"referDisputeToDAO","inputs":[{"name":"escrowId","type":"uint256","internalType":"uint256"}],"outputs":[],"stateMutability":"nonpayable"},{"type":"function","name":"refundEscrow","inputs":[{"name":"escrowId","type":"uint256","internalType":"uint256"}],"outputs":[],"stateMutability":"nonpayable"},{"type":"function","name":"releaseEscrow","inputs":[{"name":"escrowId","type":"uint256","internalType":"uint256"}],"outputs":[],"stateMutability":"nonpayable"},{"type":"function","name":"renounceOwnership","inputs":[],"outputs":[],"stateMutability":"nonpayable"},{"type":"function","name":"resolveByDAO","inputs":[{"name":"escrowId","type":"uint256","internalType":"uint256"}],"outputs":[],"stateMutability":"nonpayable"},{"type":"function","name":"setTestBypassOnlyOwner","inputs":[{"name":"enabled","type":"bool","internalType":"bool"}],"outputs":[],"stateMutability":"nonpayable"},{"type":"function","name":"testBypassOnlyOwner","inputs":[],"outputs":[{"name":"","type":"bool","internalType":"bool"}],"stateMutability":"view"},{"type":"function","name":"transferOwnership","inputs":[{"name":"newOwner","type":"address","internalType":"address"}],"outputs":[],"stateMutability":"nonpayable"},{"type":"event","name":"DAOAppeal","inputs":[{"name":"escrowId","type":"uint256","indexed":true,"internalType":"uint256"}],"anonymous":false},{"type":"event","name":"DAOResolved","inputs":[{"name":"escrowId","type":"uint256","indexed":true,"internalType":"uint256"},{"name":"decision","type":"uint8","indexed":false,"internalType":"enum UltraRentzDAO.Decision"},{"name":"amountReleased","type":"uint256","indexed":false,"internalType":"uint256"}],"anonymous":false},{"type":"event","name":"DepositBurned","inputs":[{"name":"escrowId","type":"uint256","indexed":true,"internalType":"uint256"},{"name":"user","type":"address","indexed":true,"internalType":"address"},{"name":"amount","type":"uint256","indexed":false,"internalType":"uint256"}],"anonymous":false},{"type":"event","name":"DepositTokenized","inputs":[{"name":"escrowId","type":"uint256","indexed":true,"internalType":"uint256"},{"name":"tenant","type":"address","indexed":true,"internalType":"address"},{"name":"amount","type":"uint256","indexed":false,"internalType":"uint256"}],"anonymous":false},{"type":"event","name":"DisputeReferredToDAO","inputs":[{"name":"escrowId","type":"uint256","indexed":true,"internalType":"uint256"}],"anonymous":false},{"type":"event","name":"EscrowCreated","inputs":[{"name":"escrowId","type":"uint256","indexed":true,"internalType":"uint256"},{"name":"tenant","type":"address","indexed":true,"internalType":"address"},{"name":"landlord","type":"address","indexed":false,"internalType":"address"},{"name":"token","type":"address","indexed":false,"internalType":"address"}],"anonymous":false},{"type":"event","name":"EscrowDisputed","inputs":[{"name":"escrowId","type":"uint256","indexed":true,"internalType":"uint256"}],"anonymous":false},{"type":"event","name":"EscrowFunded","inputs":[{"name":"escrowId","type":"uint256","indexed":true,"internalType":"uint256"},{"name":"amount","type":"uint256","indexed":false,"internalType":"uint256"}],"anonymous":false},{"type":"event","name":"EscrowRefunded","inputs":[{"name":"escrowId","type":"uint256","indexed":true,"internalType":"uint256"},{"name":"tenant","type":"address","indexed":false,"internalType":"address"},{"name":"token","type":"address","indexed":false,"internalType":"address"}],"anonymous":false},{"type":"event","name":"EscrowReleased","inputs":[{"name":"escrowId","type":"uint256","indexed":true,"internalType":"uint256"},{"name":"landlord","type":"address","indexed":false,"internalType":"address"},{"name":"token","type":"address","indexed":false,"internalType":"address"}],"anonymous":false},{"type":"event","name":"OwnershipTransferred","inputs":[{"name":"previousOwner","type":"address","indexed":true,"internalType":"address"},{"name":"newOwner","type":"address","indexed":true,"internalType":"address"}],"anonymous":false},{"type":"error","name":"OwnableInvalidOwner","inputs":[{"name":"owner","type":"address","internalType":"address"}]},{"type":"error","name":"OwnableUnauthorizedAccount","inputs":[{"name":"account","type":"address","internalType":"address"}]},{"type":"error","name":"ReentrancyGuardReentrantCall","inputs":[]}],"bytecode":{"object":"0x60c060405234801561000f575f5ffd5b506040516134e33803806134e383398181016040528101906100319190610283565b825f73ffffffffffffffffffffffffffffffffffffffff168173ffffffffffffffffffffffffffffffffffffffff16036100a2575f6040517f1e4fbdf700000000000000000000000000000000000000000000000000000000815260040161009991906102e2565b60405180910390fd5b6100b18161012960201b60201c565b50600180819055508173ffffffffffffffffffffffffffffffffffffffff1660808173ffffffffffffffffffffffffffffffffffffffff16815250508073ffffffffffffffffffffffffffffffffffffffff1660a08173ffffffffffffffffffffffffffffffffffffffff16815250505050506102fb565b5f5f5f9054906101000a900473ffffffffffffffffffffffffffffffffffffffff169050815f5f6101000a81548173ffffffffffffffffffffffffffffffffffffffff021916908373ffffffffffffffffffffffffffffffffffffffff1602179055508173ffffffffffffffffffffffffffffffffffffffff168173ffffffffffffffffffffffffffffffffffffffff167f8be0079c531659141344cd1fd0a4f28419497f9722a3daafe3b4186f6b6457e060405160405180910390a35050565b5f5ffd5b5f73ffffffffffffffffffffffffffffffffffffffff82169050919050565b5f610217826101ee565b9050919050565b6102278161020d565b8114610231575f5ffd5b50565b5f815190506102428161021e565b92915050565b5f610252826101ee565b9050919050565b61026281610248565b811461026c575f5ffd5b50565b5f8151905061027d81610259565b92915050565b5f5f5f6060848603121561029a576102996101ea565b5b5f6102a786828701610234565b93505060206102b88682870161026f565b92505060406102c98682870161026f565b9150509250925092565b6102dc8161020d565b82525050565b5f6020820190506102f55f8301846102d3565b92915050565b60805160a05161318f6103545f395f81816111830152818161123401528181611b2901528181611bda0152818161202701526120d801525f818161041f01528181610b0001528181610c240152610e68015261318f5ff3fe608060405234801561000f575f5ffd5b50600436106100fe575f3560e01c80638da5cb5b11610095578063c9c31af511610064578063c9c31af514610288578063ded11325146102a4578063ed653164146102c0578063f2fde38b146102dc576100fe565b80638da5cb5b14610200578063a5c1674e1461021e578063b6d6806c1461023a578063c7ceafea1461026a576100fe565b806329e47ae5116100d157806329e47ae51461018c578063356f9dfd146101bc578063715018a6146101d85780637776480e146101e2576100fe565b8063012f52ee146101025780630f013447146101385780631ce59f0214610154578063254747d714610170575b5f5ffd5b61011c600480360381019061011791906124de565b6102f8565b60405161012f9796959493929190612602565b60405180910390f35b610152600480360381019061014d91906124de565b6103bd565b005b61016e600480360381019061016991906124de565b6109fe565b005b61018a600480360381019061018591906124de565b610cdb565b005b6101a660048036038101906101a191906124de565b610f96565b6040516101b3919061266f565b60405180910390f35b6101d660048036038101906101d191906124de565b610fb3565b005b6101e06113e0565b005b6101ea6113f3565b6040516101f7919061266f565b60405180910390f35b610208611405565b6040516102159190612688565b60405180910390f35b610238600480360381019061023391906124de565b61142c565b005b610254600480360381019061024f91906126cb565b6115db565b604051610261919061271b565b60405180910390f35b61027261191b565b60405161027f919061271b565b60405180910390f35b6102a2600480360381019061029d91906124de565b611921565b005b6102be60048036038101906102b9919061275e565b611d44565b005b6102da60048036038101906102d591906124de565b611dd5565b005b6102f660048036038101906102f19190612789565b612285565b005b6004602052805f5260405f205f91509050805f015f9054906101000a900473ffffffffffffffffffffffffffffffffffffffff1690806001015f9054906101000a900473ffffffffffffffffffffffffffffffffffffffff1690806002015f9054906101000a900473ffffffffffffffffffffffffffffffffffffffff16908060020160149054906101000a900463ffffffff16908060020160189054906101000a900460ff16908060020160199054906101000a900460ff16908060030154905087565b60055f8281526020019081526020015f205f9054906101000a900460ff1661041a576040517f08c379a00000000000000000000000000000000000000000000000000000000081526004016104119061280e565b60405180910390fd5b5f5f5f7f000000000000000000000000000000000000000000000000000000000000000073ffffffffffffffffffffffffffffffffffffffff1663564a565d856040518263ffffffff1660e01b8152600401610476919061271b565b61010060405180830381865afa158015610492573d5f5f3e3d5ffd5b505050506040513d601f19601f820116820180604052508101906104b6919061288b565b97505050955095505050505f60045f8681526020019081526020015f209050600260048111156104e9576104e8612580565b5b8160020160199054906101000a900460ff16600481111561050d5761050c612580565b5b1461054d576040517f08c379a000000000000000000000000000000000000000000000000000000000815260040161054490612986565b60405180910390fd5b8161058d576040517f08c379a0000000000000000000000000000000000000000000000000000000008152600401610584906129ee565b60405180910390fd5b600160038111156105a1576105a0612580565b5b8360038111156105b4576105b3612580565b5b036106ad5760038160020160196101000a81548160ff021916908360048111156105e1576105e0612580565b5b0217905550806002015f9054906101000a900473ffffffffffffffffffffffffffffffffffffffff1673ffffffffffffffffffffffffffffffffffffffff1663a9059cbb826001015f9054906101000a900473ffffffffffffffffffffffffffffffffffffffff16866040518363ffffffff1660e01b8152600401610667929190612a0c565b6020604051808303815f875af1158015610683573d5f5f3e3d5ffd5b505050506040513d601f19601f820116820180604052508101906106a79190612a33565b506109bd565b600260038111156106c1576106c0612580565b5b8360038111156106d4576106d3612580565b5b0361089d5760038160020160196101000a81548160ff0219169083600481111561070157610700612580565b5b0217905550806002015f9054906101000a900473ffffffffffffffffffffffffffffffffffffffff1673ffffffffffffffffffffffffffffffffffffffff1663a9059cbb826001015f9054906101000a900473ffffffffffffffffffffffffffffffffffffffff16866040518363ffffffff1660e01b8152600401610787929190612a0c565b6020604051808303815f875af11580156107a3573d5f5f3e3d5ffd5b505050506040513d601f19601f820116820180604052508101906107c79190612a33565b50806002015f9054906101000a900473ffffffffffffffffffffffffffffffffffffffff1673ffffffffffffffffffffffffffffffffffffffff1663a9059cbb825f015f9054906101000a900473ffffffffffffffffffffffffffffffffffffffff1686846003015461083a9190612a8b565b6040518363ffffffff1660e01b8152600401610857929190612a0c565b6020604051808303815f875af1158015610873573d5f5f3e3d5ffd5b505050506040513d601f19601f820116820180604052508101906108979190612a33565b506109bc565b6003808111156108b0576108af612580565b5b8360038111156108c3576108c2612580565b5b036109bb5760048160020160196101000a81548160ff021916908360048111156108f0576108ef612580565b5b0217905550806002015f9054906101000a900473ffffffffffffffffffffffffffffffffffffffff1673ffffffffffffffffffffffffffffffffffffffff1663a9059cbb825f015f9054906101000a900473ffffffffffffffffffffffffffffffffffffffff1683600301546040518363ffffffff1660e01b8152600401610979929190612a0c565b6020604051808303815f875af1158015610995573d5f5f3e3d5ffd5b505050506040513d601f19601f820116820180604052508101906109b99190612a33565b505b5b5b847f2e83b5d139caed7c1480d9e4e8034eefc681b2da0d7d318eb720cad18f4fdda284866040516109ef929190612b04565b60405180910390a25050505050565b8060045f8281526020019081526020015f205f015f9054906101000a900473ffffffffffffffffffffffffffffffffffffffff1673ffffffffffffffffffffffffffffffffffffffff163373ffffffffffffffffffffffffffffffffffffffff1614610a9f576040517f08c379a0000000000000000000000000000000000000000000000000000000008152600401610a9690612b75565b60405180910390fd5b60055f8381526020019081526020015f205f9054906101000a900460ff16610afc576040517f08c379a0000000000000000000000000000000000000000000000000000000008152600401610af39061280e565b60405180910390fd5b5f5f7f000000000000000000000000000000000000000000000000000000000000000073ffffffffffffffffffffffffffffffffffffffff1663564a565d856040518263ffffffff1660e01b8152600401610b57919061271b565b61010060405180830381865afa158015610b73573d5f5f3e3d5ffd5b505050506040513d601f19601f82011682018060405250810190610b97919061288b565b9750975050505050505080610be1576040517f08c379a0000000000000000000000000000000000000000000000000000000008152600401610bd8906129ee565b60405180910390fd5b8115610c22576040517f08c379a0000000000000000000000000000000000000000000000000000000008152600401610c1990612bdd565b60405180910390fd5b7f000000000000000000000000000000000000000000000000000000000000000073ffffffffffffffffffffffffffffffffffffffff166319dc88ae856040518263ffffffff1660e01b8152600401610c7b919061271b565b5f604051808303815f87803b158015610c92575f5ffd5b505af1158015610ca4573d5f5f3e3d5ffd5b50505050837f0652d6ec7fa8a251cd81f09b5226067ad35c399fa298288f8d23292b9467fe8d60405160405180910390a250505050565b8060045f8281526020019081526020015f205f015f9054906101000a900473ffffffffffffffffffffffffffffffffffffffff1673ffffffffffffffffffffffffffffffffffffffff163373ffffffffffffffffffffffffffffffffffffffff1614610d7c576040517f08c379a0000000000000000000000000000000000000000000000000000000008152600401610d7390612b75565b60405180910390fd5b5f60045f8481526020019081526020015f20905060026004811115610da457610da3612580565b5b8160020160199054906101000a900460ff166004811115610dc857610dc7612580565b5b14610e08576040517f08c379a0000000000000000000000000000000000000000000000000000000008152600401610dff90612986565b60405180910390fd5b60055f8481526020019081526020015f205f9054906101000a900460ff1615610e66576040517f08c379a0000000000000000000000000000000000000000000000000000000008152600401610e5d90612c45565b60405180910390fd5b7f000000000000000000000000000000000000000000000000000000000000000073ffffffffffffffffffffffffffffffffffffffff16630d281f1384835f015f9054906101000a900473ffffffffffffffffffffffffffffffffffffffff16846001015f9054906101000a900473ffffffffffffffffffffffffffffffffffffffff1685600301546040518563ffffffff1660e01b8152600401610f0e9493929190612c63565b5f604051808303815f87803b158015610f25575f5ffd5b505af1158015610f37573d5f5f3e3d5ffd5b50505050600160055f8581526020019081526020015f205f6101000a81548160ff021916908315150217905550827f487898c7ed9ced4044c84780144869d41fb0c9f052b46830514d0cd5c67b064d60405160405180910390a2505050565b6005602052805f5260405f205f915054906101000a900460ff1681565b610fbb612309565b610fc3612390565b5f60045f8381526020019081526020015f20905060016004811115610feb57610fea612580565b5b8160020160199054906101000a900460ff16600481111561100f5761100e612580565b5b148061105057506002600481111561102a57611029612580565b5b8160020160199054906101000a900460ff16600481111561104e5761104d612580565b5b145b61108f576040517f08c379a000000000000000000000000000000000000000000000000000000000815260040161108690612cf0565b60405180910390fd5b60048160020160196101000a81548160ff021916908360048111156110b7576110b6612580565b5b0217905550806002015f9054906101000a900473ffffffffffffffffffffffffffffffffffffffff1673ffffffffffffffffffffffffffffffffffffffff1663a9059cbb825f015f9054906101000a900473ffffffffffffffffffffffffffffffffffffffff1683600301546040518363ffffffff1660e01b8152600401611140929190612a0c565b6020604051808303815f875af115801561115c573d5f5f3e3d5ffd5b505050506040513d601f19601f820116820180604052508101906111809190612a33565b507f000000000000000000000000000000000000000000000000000000000000000073ffffffffffffffffffffffffffffffffffffffff16816002015f9054906101000a900473ffffffffffffffffffffffffffffffffffffffff1673ffffffffffffffffffffffffffffffffffffffff1614611232576040517f08c379a000000000000000000000000000000000000000000000000000000000815260040161122990612d58565b60405180910390fd5b7f000000000000000000000000000000000000000000000000000000000000000073ffffffffffffffffffffffffffffffffffffffff16639dc29fac825f015f9054906101000a900473ffffffffffffffffffffffffffffffffffffffff1683600301546040518363ffffffff1660e01b81526004016112b3929190612a0c565b5f604051808303815f87803b1580156112ca575f5ffd5b505af11580156112dc573d5f5f3e3d5ffd5b50505050817fcd0cf80e47d7155dd99224c3b23942de0ceca1a277e5e49a471ffb9a45ac1542825f015f9054906101000a900473ffffffffffffffffffffffffffffffffffffffff16836002015f9054906101000a900473ffffffffffffffffffffffffffffffffffffffff16604051611357929190612d76565b60405180910390a2805f015f9054906101000a900473ffffffffffffffffffffffffffffffffffffffff1673ffffffffffffffffffffffffffffffffffffffff16827f67a7cfa50de7a64de0d81ae4cb43ecf172f424367737466e66eaa11a883bccb083600301546040516113cc919061271b565b60405180910390a3506113dd6123d6565b50565b6113e8612309565b6113f15f6123df565b565b60025f9054906101000a900460ff1681565b5f5f5f9054906101000a900473ffffffffffffffffffffffffffffffffffffffff16905090565b8060045f8281526020019081526020015f205f015f9054906101000a900473ffffffffffffffffffffffffffffffffffffffff1673ffffffffffffffffffffffffffffffffffffffff163373ffffffffffffffffffffffffffffffffffffffff16146114cd576040517f08c379a00000000000000000000000000000000000000000000000000000000081526004016114c490612b75565b60405180910390fd5b5f60045f8481526020019081526020015f209050600160048111156114f5576114f4612580565b5b8160020160199054906101000a900460ff16600481111561151957611518612580565b5b14611559576040517f08c379a000000000000000000000000000000000000000000000000000000000815260040161155090612de7565b60405180910390fd5b60028160020160196101000a81548160ff0219169083600481111561158157611580612580565b5b0217905550428160020160146101000a81548163ffffffff021916908363ffffffff160217905550827f7ce7831fed9a800b1aa5e7ca21034bf7b95efc31a196459012cf8b8eb42b7dac60405160405180910390a2505050565b5f5f73ffffffffffffffffffffffffffffffffffffffff168473ffffffffffffffffffffffffffffffffffffffff160361164a576040517f08c379a000000000000000000000000000000000000000000000000000000000815260040161164190612e4f565b60405180910390fd5b5f73ffffffffffffffffffffffffffffffffffffffff168273ffffffffffffffffffffffffffffffffffffffff16036116b8576040517f08c379a00000000000000000000000000000000000000000000000000000000081526004016116af90612eb7565b60405180910390fd5b60035f81546116c690612ed5565b91905081905590506040518060e001604052803373ffffffffffffffffffffffffffffffffffffffff1681526020018573ffffffffffffffffffffffffffffffffffffffff1681526020018373ffffffffffffffffffffffffffffffffffffffff1681526020015f63ffffffff1681526020016001151581526020015f600481111561175557611754612580565b5b81526020018481525060045f8381526020019081526020015f205f820151815f015f6101000a81548173ffffffffffffffffffffffffffffffffffffffff021916908373ffffffffffffffffffffffffffffffffffffffff1602179055506020820151816001015f6101000a81548173ffffffffffffffffffffffffffffffffffffffff021916908373ffffffffffffffffffffffffffffffffffffffff1602179055506040820151816002015f6101000a81548173ffffffffffffffffffffffffffffffffffffffff021916908373ffffffffffffffffffffffffffffffffffffffff16021790555060608201518160020160146101000a81548163ffffffff021916908363ffffffff16021790555060808201518160020160186101000a81548160ff02191690831515021790555060a08201518160020160196101000a81548160ff021916908360048111156118b1576118b0612580565b5b021790555060c082015181600301559050503373ffffffffffffffffffffffffffffffffffffffff16817fccab83b228b9f11d0f002db0d115fe84ab0bacbe475d1c28666963a66c20c436868560405161190c929190612d76565b60405180910390a39392505050565b60035481565b8060045f8281526020019081526020015f205f015f9054906101000a900473ffffffffffffffffffffffffffffffffffffffff1673ffffffffffffffffffffffffffffffffffffffff163373ffffffffffffffffffffffffffffffffffffffff16146119c2576040517f08c379a00000000000000000000000000000000000000000000000000000000081526004016119b990612b75565b60405180910390fd5b6119ca612390565b5f60045f8481526020019081526020015f2090505f60048111156119f1576119f0612580565b5b8160020160199054906101000a900460ff166004811115611a1557611a14612580565b5b14611a55576040517f08c379a0000000000000000000000000000000000000000000000000000000008152600401611a4c90612f66565b60405180910390fd5b806002015f9054906101000a900473ffffffffffffffffffffffffffffffffffffffff1673ffffffffffffffffffffffffffffffffffffffff166323b872dd333084600301546040518463ffffffff1660e01b8152600401611ab993929190612f84565b6020604051808303815f875af1158015611ad5573d5f5f3e3d5ffd5b505050506040513d601f19601f82011682018060405250810190611af99190612a33565b5060018160020160196101000a81548160ff02191690836004811115611b2257611b21612580565b5b02179055507f000000000000000000000000000000000000000000000000000000000000000073ffffffffffffffffffffffffffffffffffffffff16816002015f9054906101000a900473ffffffffffffffffffffffffffffffffffffffff1673ffffffffffffffffffffffffffffffffffffffff1614611bd8576040517f08c379a0000000000000000000000000000000000000000000000000000000008152600401611bcf90613003565b60405180910390fd5b7f000000000000000000000000000000000000000000000000000000000000000073ffffffffffffffffffffffffffffffffffffffff166340c10f19825f015f9054906101000a900473ffffffffffffffffffffffffffffffffffffffff1683600301546040518363ffffffff1660e01b8152600401611c59929190612a0c565b5f604051808303815f87803b158015611c70575f5ffd5b505af1158015611c82573d5f5f3e3d5ffd5b50505050827f911052e1be46242b46bf3c2762227ff37c000e5fe38727638096f3a17fbfe1708260030154604051611cba919061271b565b60405180910390a2805f015f9054906101000a900473ffffffffffffffffffffffffffffffffffffffff1673ffffffffffffffffffffffffffffffffffffffff16837f661aa0a74ab47b8350d45914acfebf4ee15676f5129b012cf5330fc420767b828360030154604051611d2f919061271b565b60405180910390a350611d406123d6565b5050565b611d4c611405565b73ffffffffffffffffffffffffffffffffffffffff163373ffffffffffffffffffffffffffffffffffffffff1614611db9576040517f08c379a0000000000000000000000000000000000000000000000000000000008152600401611db09061306b565b60405180910390fd5b8060025f6101000a81548160ff02191690831515021790555050565b611ddd612390565b60025f9054906101000a900460ff16611e6657611df8611405565b73ffffffffffffffffffffffffffffffffffffffff163373ffffffffffffffffffffffffffffffffffffffff1614611e65576040517f08c379a0000000000000000000000000000000000000000000000000000000008152600401611e5c906130d3565b60405180910390fd5b5b5f60045f8381526020019081526020015f20905060016004811115611e8e57611e8d612580565b5b8160020160199054906101000a900460ff166004811115611eb257611eb1612580565b5b1480611ef3575060026004811115611ecd57611ecc612580565b5b8160020160199054906101000a900460ff166004811115611ef157611ef0612580565b5b145b611f32576040517f08c379a0000000000000000000000000000000000000000000000000000000008152600401611f299061313b565b60405180910390fd5b60038160020160196101000a81548160ff02191690836004811115611f5a57611f59612580565b5b0217905550806002015f9054906101000a900473ffffffffffffffffffffffffffffffffffffffff1673ffffffffffffffffffffffffffffffffffffffff1663a9059cbb826001015f9054906101000a900473ffffffffffffffffffffffffffffffffffffffff1683600301546040518363ffffffff1660e01b8152600401611fe4929190612a0c565b6020604051808303815f875af1158015612000573d5f5f3e3d5ffd5b505050506040513d601f19601f820116820180604052508101906120249190612a33565b507f000000000000000000000000000000000000000000000000000000000000000073ffffffffffffffffffffffffffffffffffffffff16816002015f9054906101000a900473ffffffffffffffffffffffffffffffffffffffff1673ffffffffffffffffffffffffffffffffffffffff16146120d6576040517f08c379a00000000000000000000000000000000000000000000000000000000081526004016120cd90612d58565b60405180910390fd5b7f000000000000000000000000000000000000000000000000000000000000000073ffffffffffffffffffffffffffffffffffffffff16639dc29fac825f015f9054906101000a900473ffffffffffffffffffffffffffffffffffffffff1683600301546040518363ffffffff1660e01b8152600401612157929190612a0c565b5f604051808303815f87803b15801561216e575f5ffd5b505af1158015612180573d5f5f3e3d5ffd5b50505050817ffd7f9968b90c2f39997b08b69b3c78d40df681dec28b3eec202eff456c3ad2cb826001015f9054906101000a900473ffffffffffffffffffffffffffffffffffffffff16836002015f9054906101000a900473ffffffffffffffffffffffffffffffffffffffff166040516121fc929190612d76565b60405180910390a2805f015f9054906101000a900473ffffffffffffffffffffffffffffffffffffffff1673ffffffffffffffffffffffffffffffffffffffff16827f67a7cfa50de7a64de0d81ae4cb43ecf172f424367737466e66eaa11a883bccb08360030154604051612271919061271b565b60405180910390a3506122826123d6565b50565b61228d612309565b5f73ffffffffffffffffffffffffffffffffffffffff168173ffffffffffffffffffffffffffffffffffffffff16036122fd575f6040517f1e4fbdf70000000000000000000000000000000000000000000000000000000081526004016122f49190612688565b60405180910390fd5b612306816123df565b50565b6123116124a0565b73ffffffffffffffffffffffffffffffffffffffff1661232f611405565b73ffffffffffffffffffffffffffffffffffffffff161461238e576123526124a0565b6040517f118cdaa70000000000000000000000000000000000000000000000000000000081526004016123859190612688565b60405180910390fd5b565b6002600154036123cc576040517f3ee5aeb500000000000000000000000000000000000000000000000000000000815260040160405180910390fd5b6002600181905550565b60018081905550565b5f5f5f9054906101000a900473ffffffffffffffffffffffffffffffffffffffff169050815f5f6101000a81548173ffffffffffffffffffffffffffffffffffffffff021916908373ffffffffffffffffffffffffffffffffffffffff1602179055508173ffffffffffffffffffffffffffffffffffffffff168173ffffffffffffffffffffffffffffffffffffffff167f8be0079c531659141344cd1fd0a4f28419497f9722a3daafe3b4186f6b6457e060405160405180910390a35050565b5f33905090565b5f5ffd5b5f819050919050565b6124bd816124ab565b81146124c7575f5ffd5b50565b5f813590506124d8816124b4565b92915050565b5f602082840312156124f3576124f26124a7565b5b5f612500848285016124ca565b91505092915050565b5f73ffffffffffffffffffffffffffffffffffffffff82169050919050565b5f61253282612509565b9050919050565b61254281612528565b82525050565b5f63ffffffff82169050919050565b61256081612548565b82525050565b5f8115159050919050565b61257a81612566565b82525050565b7f4e487b71000000000000000000000000000000000000000000000000000000005f52602160045260245ffd5b600581106125be576125bd612580565b5b50565b5f8190506125ce826125ad565b919050565b5f6125dd826125c1565b9050919050565b6125ed816125d3565b82525050565b6125fc816124ab565b82525050565b5f60e0820190506126155f83018a612539565b6126226020830189612539565b61262f6040830188612539565b61263c6060830187612557565b6126496080830186612571565b61265660a08301856125e4565b61266360c08301846125f3565b98975050505050505050565b5f6020820190506126825f830184612571565b92915050565b5f60208201905061269b5f830184612539565b92915050565b6126aa81612528565b81146126b4575f5ffd5b50565b5f813590506126c5816126a1565b92915050565b5f5f5f606084860312156126e2576126e16124a7565b5b5f6126ef868287016126b7565b9350506020612700868287016124ca565b9250506040612711868287016126b7565b9150509250925092565b5f60208201905061272e5f8301846125f3565b92915050565b61273d81612566565b8114612747575f5ffd5b50565b5f8135905061275881612734565b92915050565b5f60208284031215612773576127726124a7565b5b5f6127808482850161274a565b91505092915050565b5f6020828403121561279e5761279d6124a7565b5b5f6127ab848285016126b7565b91505092915050565b5f82825260208201905092915050565b7f4e6f7420726566657272656400000000000000000000000000000000000000005f82015250565b5f6127f8600c836127b4565b9150612803826127c4565b602082019050919050565b5f6020820190508181035f830152612825816127ec565b9050919050565b5f8151905061283a816124b4565b92915050565b5f8151905061284e816126a1565b92915050565b60048110612860575f5ffd5b50565b5f8151905061287181612854565b92915050565b5f8151905061288581612734565b92915050565b5f5f5f5f5f5f5f5f610100898b0312156128a8576128a76124a7565b5b5f6128b58b828c0161282c565b98505060206128c68b828c01612840565b97505060406128d78b828c01612840565b96505060606128e88b828c0161282c565b95505060806128f98b828c01612863565b94505060a061290a8b828c0161282c565b93505060c061291b8b828c01612877565b92505060e061292c8b828c01612877565b9150509295985092959890939650565b7f4e6f7420696e20646973707574650000000000000000000000000000000000005f82015250565b5f612970600e836127b4565b915061297b8261293c565b602082019050919050565b5f6020820190508181035f83015261299d81612964565b9050919050565b7f44414f206e6f74207265736f6c766564000000000000000000000000000000005f82015250565b5f6129d86010836127b4565b91506129e3826129a4565b602082019050919050565b5f6020820190508181035f830152612a05816129cc565b9050919050565b5f604082019050612a1f5f830185612539565b612a2c60208301846125f3565b9392505050565b5f60208284031215612a4857612a476124a7565b5b5f612a5584828501612877565b91505092915050565b7f4e487b71000000000000000000000000000000000000000000000000000000005f52601160045260245ffd5b5f612a95826124ab565b9150612aa0836124ab565b9250828203905081811115612ab857612ab7612a5e565b5b92915050565b60048110612acf57612ace612580565b5b50565b5f819050612adf82612abe565b919050565b5f612aee82612ad2565b9050919050565b612afe81612ae4565b82525050565b5f604082019050612b175f830185612af5565b612b2460208301846125f3565b9392505050565b7f4e6f742074656e616e74000000000000000000000000000000000000000000005f82015250565b5f612b5f600a836127b4565b9150612b6a82612b2b565b602082019050919050565b5f6020820190508181035f830152612b8c81612b53565b9050919050565b7f416c72656164792061707065616c6564000000000000000000000000000000005f82015250565b5f612bc76010836127b4565b9150612bd282612b93565b602082019050919050565b5f6020820190508181035f830152612bf481612bbb565b9050919050565b7f416c7265616479207265666572726564000000000000000000000000000000005f82015250565b5f612c2f6010836127b4565b9150612c3a82612bfb565b602082019050919050565b5f6020820190508181035f830152612c5c81612c23565b9050919050565b5f608082019050612c765f8301876125f3565b612c836020830186612539565b612c906040830185612539565b612c9d60608301846125f3565b95945050505050565b7f4e6f7420726566756e6461626c650000000000000000000000000000000000005f82015250565b5f612cda600e836127b4565b9150612ce582612ca6565b602082019050919050565b5f6020820190508181035f830152612d0781612cce565b9050919050565b7f546f6b656e206d7573742062652055525a20666f72206275726e0000000000005f82015250565b5f612d42601a836127b4565b9150612d4d82612d0e565b602082019050919050565b5f6020820190508181035f830152612d6f81612d36565b9050919050565b5f604082019050612d895f830185612539565b612d966020830184612539565b9392505050565b7f43616e6e6f7420646973707574650000000000000000000000000000000000005f82015250565b5f612dd1600e836127b4565b9150612ddc82612d9d565b602082019050919050565b5f6020820190508181035f830152612dfe81612dc5565b9050919050565b7f496e76616c6964206c616e646c6f7264000000000000000000000000000000005f82015250565b5f612e396010836127b4565b9150612e4482612e05565b602082019050919050565b5f6020820190508181035f830152612e6681612e2d565b9050919050565b7f496e76616c696420746f6b656e000000000000000000000000000000000000005f82015250565b5f612ea1600d836127b4565b9150612eac82612e6d565b602082019050919050565b5f6020820190508181035f830152612ece81612e95565b9050919050565b5f612edf826124ab565b91507fffffffffffffffffffffffffffffffffffffffffffffffffffffffffffffffff8203612f1157612f10612a5e565b5b600182019050919050565b7f457363726f77206973206e6f742066756e6461626c65000000000000000000005f82015250565b5f612f506016836127b4565b9150612f5b82612f1c565b602082019050919050565b5f6020820190508181035f830152612f7d81612f44565b9050919050565b5f606082019050612f975f830186612539565b612fa46020830185612539565b612fb160408301846125f3565b949350505050565b7f546f6b656e206d7573742062652055525a20666f72206d696e740000000000005f82015250565b5f612fed601a836127b4565b9150612ff882612fb9565b602082019050919050565b5f6020820190508181035f83015261301a81612fe1565b9050919050565b7f4f6e6c79206f776e65722063616e2073657420627970617373000000000000005f82015250565b5f6130556019836127b4565b915061306082613021565b602082019050919050565b5f6020820190508181035f83015261308281613049565b9050919050565b7f4f776e61626c653a2063616c6c6572206973206e6f7420746865206f776e65725f82015250565b5f6130bd6020836127b4565b91506130c882613089565b602082019050919050565b5f6020820190508181035f8301526130ea816130b1565b9050919050565b7f4e6f742072656c65617361626c650000000000000000000000000000000000005f82015250565b5f613125600e836127b4565b9150613130826130f1565b602082019050919050565b5f6020820190508181035f83015261315281613119565b905091905056fea26469706673582212200973c08a22c37995586958bdf120771df20ddf4a5aec7d35162d4d82d5ad13dd64736f6c634300081e0033","linkReferences":{}},"methodIdentifiers":{"appealToDAO(uint256)":"1ce59f02","createEscrow(address,uint256,address)":"b6d6806c","disputeReferred(uint256)":"29e47ae5","escrowCounter()":"c7ceafea","escrows(uint256)":"012f52ee","fundEscrow(uint256)":"c9c31af5","owner()":"8da5cb5b","raiseDispute(uint256)":"a5c1674e","referDisputeToDAO(uint256)":"254747d7","refundEscrow(uint256)":"356f9dfd","releaseEscrow(uint256)":"ed653164","renounceOwnership()":"715018a6","resolveByDAO(uint256)":"0f013447","setTestBypassOnlyOwner(bool)":"ded11325","testBypassOnlyOwner()":"7776480e","transferOwnership(address)":"f2fde38b"},"id":28}