{"abi":[{"type":"constructor","inputs":[{"name":"initialOwner","type":"address","internalType":"address"},{"name":"daoAddress","type":"address","internalType":"address payable"},{"name":"urzTokenAddress","type":"address","internalType":"address payable"}],"stateMutability":"nonpayable"},{"type":"function","name":"appealToDAO","inputs":[{"name":"escrowId","type":"uint256","internalType":"uint256"}],"outputs":[],"stateMutability":"nonpayable"},{"type":"function","name":"createEscrow","inputs":[{"name":"landlord","type":"address","internalType":"address"},{"name":"amount","type":"uint256","internalType":"uint256"},{"name":"token","type":"address","internalType":"address"}],"outputs":[{"name":"id","type":"uint256","internalType":"uint256"}],"stateMutability":"nonpayable"},{"type":"function","name":"dao","inputs":[],"outputs":[{"name":"","type":"address","internalType":"contract UltraRentzDAO"}],"stateMutability":"view"},{"type":"function","name":"disputeReferred","inputs":[{"name":"","type":"uint256","internalType":"uint256"}],"outputs":[{"name":"","type":"bool","internalType":"bool"}],"stateMutability":"view"},{"type":"function","name":"escrowCounter","inputs":[],"outputs":[{"name":"","type":"uint256","internalType":"uint256"}],"stateMutability":"view"},{"type":"function","name":"escrows","inputs":[{"name":"","type":"uint256","internalType":"uint256"}],"outputs":[{"name":"tenant","type":"address","internalType":"address"},{"name":"landlord","type":"address","internalType":"address"},{"name":"token","type":"address","internalType":"address"},{"name":"disputeTimestamp","type":"uint32","internalType":"uint32"},{"name":"exists","type":"bool","internalType":"bool"},{"name":"state","type":"uint8","internalType":"enum EscrowStateMachine.EscrowState"},{"name":"amount","type":"uint256","internalType":"uint256"}],"stateMutability":"view"},{"type":"function","name":"fundEscrow","inputs":[{"name":"escrowId","type":"uint256","internalType":"uint256"}],"outputs":[],"stateMutability":"nonpayable"},{"type":"function","name":"owner","inputs":[],"outputs":[{"name":"","type":"address","internalType":"address"}],"stateMutability":"view"},{"type":"function","name":"raiseDispute","inputs":[{"name":"escrowId","type":"uint256","internalType":"uint256"}],"outputs":[],"stateMutability":"nonpayable"},{"type":"function","name":"referDisputeToDAO","inputs":[{"name":"escrowId","type":"uint256","internalType":"uint256"}],"outputs":[],"stateMutability":"nonpayable"},{"type":"function","name":"refundEscrow","inputs":[{"name":"escrowId","type":"uint256","internalType":"uint256"}],"outputs":[],"stateMutability":"nonpayable"},{"type":"function","name":"releaseEscrow","inputs":[{"name":"escrowId","type":"uint256","internalType":"uint256"}],"outputs":[],"stateMutability":"nonpayable"},{"type":"function","name":"renounceOwnership","inputs":[],"outputs":[],"stateMutability":"nonpayable"},{"type":"function","name":"resolveByDAO","inputs":[{"name":"escrowId","type":"uint256","internalType":"uint256"}],"outputs":[],"stateMutability":"nonpayable"},{"type":"function","name":"setTestBypassOnlyOwner","inputs":[{"name":"enabled","type":"bool","internalType":"bool"}],"outputs":[],"stateMutability":"nonpayable"},{"type":"function","name":"testBypassOnlyOwner","inputs":[],"outputs":[{"name":"","type":"bool","internalType":"bool"}],"stateMutability":"view"},{"type":"function","name":"transferOwnership","inputs":[{"name":"newOwner","type":"address","internalType":"address"}],"outputs":[],"stateMutability":"nonpayable"},{"type":"function","name":"urzToken","inputs":[],"outputs":[{"name":"","type":"address","internalType":"contract UltraRentzStable"}],"stateMutability":"view"},{"type":"event","name":"DAOAppeal","inputs":[{"name":"escrowId","type":"uint256","indexed":true,"internalType":"uint256"}],"anonymous":false},{"type":"event","name":"DAOResolved","inputs":[{"name":"escrowId","type":"uint256","indexed":true,"internalType":"uint256"},{"name":"decision","type":"uint8","indexed":false,"internalType":"enum UltraRentzDAO.Decision"},{"name":"amountReleased","type":"uint256","indexed":false,"internalType":"uint256"}],"anonymous":false},{"type":"event","name":"DepositBurned","inputs":[{"name":"escrowId","type":"uint256","indexed":true,"internalType":"uint256"},{"name":"user","type":"address","indexed":true,"internalType":"address"},{"name":"amount","type":"uint256","indexed":false,"internalType":"uint256"}],"anonymous":false},{"type":"event","name":"DepositTokenized","inputs":[{"name":"escrowId","type":"uint256","indexed":true,"internalType":"uint256"},{"name":"tenant","type":"address","indexed":true,"internalType":"address"},{"name":"amount","type":"uint256","indexed":false,"internalType":"uint256"}],"anonymous":false},{"type":"event","name":"DisputeReferredToDAO","inputs":[{"name":"escrowId","type":"uint256","indexed":true,"internalType":"uint256"}],"anonymous":false},{"type":"event","name":"EscrowCreated","inputs":[{"name":"escrowId","type":"uint256","indexed":true,"internalType":"uint256"},{"name":"tenant","type":"address","indexed":true,"internalType":"address"},{"name":"landlord","type":"address","indexed":false,"internalType":"address"},{"name":"token","type":"address","indexed":false,"internalType":"address"}],"anonymous":false},{"type":"event","name":"EscrowDisputed","inputs":[{"name":"escrowId","type":"uint256","indexed":true,"internalType":"uint256"}],"anonymous":false},{"type":"event","name":"EscrowFunded","inputs":[{"name":"escrowId","type":"uint256","indexed":true,"internalType":"uint256"},{"name":"amount","type":"uint256","indexed":false,"internalType":"uint256"}],"anonymous":false},{"type":"event","name":"EscrowRefunded","inputs":[{"name":"escrowId","type":"uint256","indexed":true,"internalType":"uint256"},{"name":"tenant","type":"address","indexed":false,"internalType":"address"},{"name":"token","type":"address","indexed":false,"internalType":"address"}],"anonymous":false},{"type":"event","name":"EscrowReleased","inputs":[{"name":"escrowId","type":"uint256","indexed":true,"internalType":"uint256"},{"name":"landlord","type":"address","indexed":false,"internalType":"address"},{"name":"token","type":"address","indexed":false,"internalType":"address"}],"anonymous":false},{"type":"event","name":"OwnershipTransferred","inputs":[{"name":"previousOwner","type":"address","indexed":true,"internalType":"address"},{"name":"newOwner","type":"address","indexed":true,"internalType":"address"}],"anonymous":false},{"type":"error","name":"OwnableInvalidOwner","inputs":[{"name":"owner","type":"address","internalType":"address"}]},{"type":"error","name":"OwnableUnauthorizedAccount","inputs":[{"name":"account","type":"address","internalType":"address"}]},{"type":"error","name":"ReentrancyGuardReentrantCall","inputs":[]},{"type":"error","name":"SafeCastOverflowedUintDowncast","inputs":[{"name":"bits","type":"uint8","internalType":"uint8"},{"name":"value","type":"uint256","internalType":"uint256"}]}],"bytecode":{"object":"0x60c060405234801561000f575f5ffd5b506040516139cd3803806139cd83398181016040528101906100319190610283565b825f73ffffffffffffffffffffffffffffffffffffffff168173ffffffffffffffffffffffffffffffffffffffff16036100a2575f6040517f1e4fbdf700000000000000000000000000000000000000000000000000000000815260040161009991906102e2565b60405180910390fd5b6100b18161012960201b60201c565b50600180819055508173ffffffffffffffffffffffffffffffffffffffff1660808173ffffffffffffffffffffffffffffffffffffffff16815250508073ffffffffffffffffffffffffffffffffffffffff1660a08173ffffffffffffffffffffffffffffffffffffffff16815250505050506102fb565b5f5f5f9054906101000a900473ffffffffffffffffffffffffffffffffffffffff169050815f5f6101000a81548173ffffffffffffffffffffffffffffffffffffffff021916908373ffffffffffffffffffffffffffffffffffffffff1602179055508173ffffffffffffffffffffffffffffffffffffffff168173ffffffffffffffffffffffffffffffffffffffff167f8be0079c531659141344cd1fd0a4f28419497f9722a3daafe3b4186f6b6457e060405160405180910390a35050565b5f5ffd5b5f73ffffffffffffffffffffffffffffffffffffffff82169050919050565b5f610217826101ee565b9050919050565b6102278161020d565b8114610231575f5ffd5b50565b5f815190506102428161021e565b92915050565b5f610252826101ee565b9050919050565b61026281610248565b811461026c575f5ffd5b50565b5f8151905061027d81610259565b92915050565b5f5f5f6060848603121561029a576102996101ea565b5b5f6102a786828701610234565b93505060206102b88682870161026f565b92505060406102c98682870161026f565b9150509250925092565b6102dc8161020d565b82525050565b5f6020820190506102f55f8301846102d3565b92915050565b60805160a05161366b6103625f395f81816113ab0152818161145c01528181611dba01528181611e6b01528181611fd70152818161231a01526123cb01525f818161047901528181610cea01528181610e0e01528181611052015261160a015261366b5ff3fe608060405234801561000f575f5ffd5b5060043610610114575f3560e01c80638da5cb5b116100a0578063c9c31af51161006f578063c9c31af5146102bc578063d1f14a59146102d8578063ded11325146102f6578063ed65316414610312578063f2fde38b1461032e57610114565b80638da5cb5b14610234578063a5c1674e14610252578063b6d6806c1461026e578063c7ceafea1461029e57610114565b806329e47ae5116100e757806329e47ae5146101a2578063356f9dfd146101d25780634162169f146101ee578063715018a61461020c5780637776480e1461021657610114565b8063012f52ee146101185780630f0134471461014e5780631ce59f021461016a578063254747d714610186575b5f5ffd5b610132600480360381019061012d9190612839565b61034a565b604051610145979695949392919061295d565b60405180910390f35b61016860048036038101906101639190612839565b61040f565b005b610184600480360381019061017f9190612839565b610be8565b005b6101a0600480360381019061019b9190612839565b610ec5565b005b6101bc60048036038101906101b79190612839565b611180565b6040516101c991906129ca565b60405180910390f35b6101ec60048036038101906101e79190612839565b61119d565b005b6101f6611608565b6040516102039190612a3e565b60405180910390f35b61021461162c565b005b61021e61163f565b60405161022b91906129ca565b60405180910390f35b61023c611651565b6040516102499190612a57565b60405180910390f35b61026c60048036038101906102679190612839565b611678565b005b61028860048036038101906102839190612a9a565b61182e565b6040516102959190612aea565b60405180910390f35b6102a6611b6e565b6040516102b39190612aea565b60405180910390f35b6102d660048036038101906102d19190612839565b611b74565b005b6102e0611fd5565b6040516102ed9190612b23565b60405180910390f35b610310600480360381019061030b9190612b66565b611ff9565b005b61032c60048036038101906103279190612839565b61208a565b005b61034860048036038101906103439190612b91565b612578565b005b6004602052805f5260405f205f91509050805f015f9054906101000a900473ffffffffffffffffffffffffffffffffffffffff1690806001015f9054906101000a900473ffffffffffffffffffffffffffffffffffffffff1690806002015f9054906101000a900473ffffffffffffffffffffffffffffffffffffffff16908060020160149054906101000a900463ffffffff16908060020160189054906101000a900460ff16908060020160199054906101000a900460ff16908060030154905087565b6104176125fc565b60055f8281526020019081526020015f205f9054906101000a900460ff16610474576040517f08c379a000000000000000000000000000000000000000000000000000000000815260040161046b90612c16565b60405180910390fd5b5f5f5f7f000000000000000000000000000000000000000000000000000000000000000073ffffffffffffffffffffffffffffffffffffffff1663564a565d856040518263ffffffff1660e01b81526004016104d09190612aea565b61010060405180830381865afa1580156104ec573d5f5f3e3d5ffd5b505050506040513d601f19601f820116820180604052508101906105109190612c93565b97505050955095505050505f60045f8681526020019081526020015f20905060026004811115610543576105426128db565b5b8160020160199054906101000a900460ff166004811115610567576105666128db565b5b146105a7576040517f08c379a000000000000000000000000000000000000000000000000000000000815260040161059e90612d8e565b60405180910390fd5b816105e7576040517f08c379a00000000000000000000000000000000000000000000000000000000081526004016105de90612df6565b60405180910390fd5b600160038111156105fb576105fa6128db565b5b83600381111561060e5761060d6128db565b5b036106455760038160020160196101000a81548160ff0219169083600481111561063b5761063a6128db565b5b02179055506106fe565b60026003811115610659576106586128db565b5b83600381111561066c5761066b6128db565b5b036106a35760038160020160196101000a81548160ff02191690836004811115610699576106986128db565b5b02179055506106fd565b6003808111156106b6576106b56128db565b5b8360038111156106c9576106c86128db565b5b036106fc5760048160020160196101000a81548160ff021916908360048111156106f6576106f56128db565b5b02179055505b5b5b60016003811115610712576107116128db565b5b836003811115610725576107246128db565b5b0361082f57806002015f9054906101000a900473ffffffffffffffffffffffffffffffffffffffff1673ffffffffffffffffffffffffffffffffffffffff1663a9059cbb826001015f9054906101000a900473ffffffffffffffffffffffffffffffffffffffff16866040518363ffffffff1660e01b81526004016107ab929190612e14565b6020604051808303815f875af11580156107c7573d5f5f3e3d5ffd5b505050506040513d601f19601f820116820180604052508101906107eb9190612e3b565b61082a576040517f08c379a000000000000000000000000000000000000000000000000000000000815260040161082190612eb0565b60405180910390fd5b610b9f565b60026003811115610843576108426128db565b5b836003811115610856576108556128db565b5b03610a6e57806002015f9054906101000a900473ffffffffffffffffffffffffffffffffffffffff1673ffffffffffffffffffffffffffffffffffffffff1663a9059cbb826001015f9054906101000a900473ffffffffffffffffffffffffffffffffffffffff16866040518363ffffffff1660e01b81526004016108dc929190612e14565b6020604051808303815f875af11580156108f8573d5f5f3e3d5ffd5b505050506040513d601f19601f8201168201806040525081019061091c9190612e3b565b61095b576040517f08c379a000000000000000000000000000000000000000000000000000000000815260040161095290612eb0565b60405180910390fd5b806002015f9054906101000a900473ffffffffffffffffffffffffffffffffffffffff1673ffffffffffffffffffffffffffffffffffffffff1663a9059cbb825f015f9054906101000a900473ffffffffffffffffffffffffffffffffffffffff168684600301546109cd9190612efb565b6040518363ffffffff1660e01b81526004016109ea929190612e14565b6020604051808303815f875af1158015610a06573d5f5f3e3d5ffd5b505050506040513d601f19601f82011682018060405250810190610a2a9190612e3b565b610a69576040517f08c379a0000000000000000000000000000000000000000000000000000000008152600401610a6090612eb0565b60405180910390fd5b610b9e565b600380811115610a8157610a806128db565b5b836003811115610a9457610a936128db565b5b03610b9d57806002015f9054906101000a900473ffffffffffffffffffffffffffffffffffffffff1673ffffffffffffffffffffffffffffffffffffffff1663a9059cbb825f015f9054906101000a900473ffffffffffffffffffffffffffffffffffffffff1683600301546040518363ffffffff1660e01b8152600401610b1d929190612e14565b6020604051808303815f875af1158015610b39573d5f5f3e3d5ffd5b505050506040513d601f19601f82011682018060405250810190610b5d9190612e3b565b610b9c576040517f08c379a0000000000000000000000000000000000000000000000000000000008152600401610b9390612eb0565b60405180910390fd5b5b5b5b847f2e83b5d139caed7c1480d9e4e8034eefc681b2da0d7d318eb720cad18f4fdda28486604051610bd1929190612f74565b60405180910390a250505050610be5612642565b50565b8060045f8281526020019081526020015f205f015f9054906101000a900473ffffffffffffffffffffffffffffffffffffffff1673ffffffffffffffffffffffffffffffffffffffff163373ffffffffffffffffffffffffffffffffffffffff1614610c89576040517f08c379a0000000000000000000000000000000000000000000000000000000008152600401610c8090612fe5565b60405180910390fd5b60055f8381526020019081526020015f205f9054906101000a900460ff16610ce6576040517f08c379a0000000000000000000000000000000000000000000000000000000008152600401610cdd90612c16565b60405180910390fd5b5f5f7f000000000000000000000000000000000000000000000000000000000000000073ffffffffffffffffffffffffffffffffffffffff1663564a565d856040518263ffffffff1660e01b8152600401610d419190612aea565b61010060405180830381865afa158015610d5d573d5f5f3e3d5ffd5b505050506040513d601f19601f82011682018060405250810190610d819190612c93565b9750975050505050505080610dcb576040517f08c379a0000000000000000000000000000000000000000000000000000000008152600401610dc290612df6565b60405180910390fd5b8115610e0c576040517f08c379a0000000000000000000000000000000000000000000000000000000008152600401610e039061304d565b60405180910390fd5b7f000000000000000000000000000000000000000000000000000000000000000073ffffffffffffffffffffffffffffffffffffffff166319dc88ae856040518263ffffffff1660e01b8152600401610e659190612aea565b5f604051808303815f87803b158015610e7c575f5ffd5b505af1158015610e8e573d5f5f3e3d5ffd5b50505050837f0652d6ec7fa8a251cd81f09b5226067ad35c399fa298288f8d23292b9467fe8d60405160405180910390a250505050565b8060045f8281526020019081526020015f205f015f9054906101000a900473ffffffffffffffffffffffffffffffffffffffff1673ffffffffffffffffffffffffffffffffffffffff163373ffffffffffffffffffffffffffffffffffffffff1614610f66576040517f08c379a0000000000000000000000000000000000000000000000000000000008152600401610f5d90612fe5565b60405180910390fd5b5f60045f8481526020019081526020015f20905060026004811115610f8e57610f8d6128db565b5b8160020160199054906101000a900460ff166004811115610fb257610fb16128db565b5b14610ff2576040517f08c379a0000000000000000000000000000000000000000000000000000000008152600401610fe990612d8e565b60405180910390fd5b60055f8481526020019081526020015f205f9054906101000a900460ff1615611050576040517f08c379a0000000000000000000000000000000000000000000000000000000008152600401611047906130b5565b60405180910390fd5b7f000000000000000000000000000000000000000000000000000000000000000073ffffffffffffffffffffffffffffffffffffffff16630d281f1384835f015f9054906101000a900473ffffffffffffffffffffffffffffffffffffffff16846001015f9054906101000a900473ffffffffffffffffffffffffffffffffffffffff1685600301546040518563ffffffff1660e01b81526004016110f894939291906130d3565b5f604051808303815f87803b15801561110f575f5ffd5b505af1158015611121573d5f5f3e3d5ffd5b50505050600160055f8581526020019081526020015f205f6101000a81548160ff021916908315150217905550827f487898c7ed9ced4044c84780144869d41fb0c9f052b46830514d0cd5c67b064d60405160405180910390a2505050565b6005602052805f5260405f205f915054906101000a900460ff1681565b6111a561264b565b6111ad6125fc565b5f60045f8381526020019081526020015f209050600160048111156111d5576111d46128db565b5b8160020160199054906101000a900460ff1660048111156111f9576111f86128db565b5b148061123a575060026004811115611214576112136128db565b5b8160020160199054906101000a900460ff166004811115611238576112376128db565b5b145b611279576040517f08c379a000000000000000000000000000000000000000000000000000000000815260040161127090613160565b60405180910390fd5b60048160020160196101000a81548160ff021916908360048111156112a1576112a06128db565b5b0217905550806002015f9054906101000a900473ffffffffffffffffffffffffffffffffffffffff1673ffffffffffffffffffffffffffffffffffffffff1663a9059cbb825f015f9054906101000a900473ffffffffffffffffffffffffffffffffffffffff1683600301546040518363ffffffff1660e01b815260040161132a929190612e14565b6020604051808303815f875af1158015611346573d5f5f3e3d5ffd5b505050506040513d601f19601f8201168201806040525081019061136a9190612e3b565b6113a9576040517f08c379a00000000000000000000000000000000000000000000000000000000081526004016113a090612eb0565b60405180910390fd5b7f000000000000000000000000000000000000000000000000000000000000000073ffffffffffffffffffffffffffffffffffffffff16816002015f9054906101000a900473ffffffffffffffffffffffffffffffffffffffff1673ffffffffffffffffffffffffffffffffffffffff161461145a576040517f08c379a0000000000000000000000000000000000000000000000000000000008152600401611451906131c8565b60405180910390fd5b7f000000000000000000000000000000000000000000000000000000000000000073ffffffffffffffffffffffffffffffffffffffff16639dc29fac825f015f9054906101000a900473ffffffffffffffffffffffffffffffffffffffff1683600301546040518363ffffffff1660e01b81526004016114db929190612e14565b5f604051808303815f87803b1580156114f2575f5ffd5b505af1158015611504573d5f5f3e3d5ffd5b50505050817fcd0cf80e47d7155dd99224c3b23942de0ceca1a277e5e49a471ffb9a45ac1542825f015f9054906101000a900473ffffffffffffffffffffffffffffffffffffffff16836002015f9054906101000a900473ffffffffffffffffffffffffffffffffffffffff1660405161157f9291906131e6565b60405180910390a2805f015f9054906101000a900473ffffffffffffffffffffffffffffffffffffffff1673ffffffffffffffffffffffffffffffffffffffff16827f67a7cfa50de7a64de0d81ae4cb43ecf172f424367737466e66eaa11a883bccb083600301546040516115f49190612aea565b60405180910390a350611605612642565b50565b7f000000000000000000000000000000000000000000000000000000000000000081565b61163461264b565b61163d5f6126d2565b565b60025f9054906101000a900460ff1681565b5f5f5f9054906101000a900473ffffffffffffffffffffffffffffffffffffffff16905090565b8060045f8281526020019081526020015f205f015f9054906101000a900473ffffffffffffffffffffffffffffffffffffffff1673ffffffffffffffffffffffffffffffffffffffff163373ffffffffffffffffffffffffffffffffffffffff1614611719576040517f08c379a000000000000000000000000000000000000000000000000000000000815260040161171090612fe5565b60405180910390fd5b5f60045f8481526020019081526020015f20905060016004811115611741576117406128db565b5b8160020160199054906101000a900460ff166004811115611765576117646128db565b5b146117a5576040517f08c379a000000000000000000000000000000000000000000000000000000000815260040161179c90613257565b60405180910390fd5b60028160020160196101000a81548160ff021916908360048111156117cd576117cc6128db565b5b02179055506117da612793565b8160020160146101000a81548163ffffffff021916908363ffffffff160217905550827f7ce7831fed9a800b1aa5e7ca21034bf7b95efc31a196459012cf8b8eb42b7dac60405160405180910390a2505050565b5f5f73ffffffffffffffffffffffffffffffffffffffff168473ffffffffffffffffffffffffffffffffffffffff160361189d576040517f08c379a0000000000000000000000000000000000000000000000000000000008152600401611894906132bf565b60405180910390fd5b5f73ffffffffffffffffffffffffffffffffffffffff168273ffffffffffffffffffffffffffffffffffffffff160361190b576040517f08c379a000000000000000000000000000000000000000000000000000000000815260040161190290613327565b60405180910390fd5b60035f815461191990613345565b91905081905590506040518060e001604052803373ffffffffffffffffffffffffffffffffffffffff1681526020018573ffffffffffffffffffffffffffffffffffffffff1681526020018373ffffffffffffffffffffffffffffffffffffffff1681526020015f63ffffffff1681526020016001151581526020015f60048111156119a8576119a76128db565b5b81526020018481525060045f8381526020019081526020015f205f820151815f015f6101000a81548173ffffffffffffffffffffffffffffffffffffffff021916908373ffffffffffffffffffffffffffffffffffffffff1602179055506020820151816001015f6101000a81548173ffffffffffffffffffffffffffffffffffffffff021916908373ffffffffffffffffffffffffffffffffffffffff1602179055506040820151816002015f6101000a81548173ffffffffffffffffffffffffffffffffffffffff021916908373ffffffffffffffffffffffffffffffffffffffff16021790555060608201518160020160146101000a81548163ffffffff021916908363ffffffff16021790555060808201518160020160186101000a81548160ff02191690831515021790555060a08201518160020160196101000a81548160ff02191690836004811115611b0457611b036128db565b5b021790555060c082015181600301559050503373ffffffffffffffffffffffffffffffffffffffff16817fccab83b228b9f11d0f002db0d115fe84ab0bacbe475d1c28666963a66c20c4368685604051611b5f9291906131e6565b60405180910390a39392505050565b60035481565b611b7c6125fc565b8060045f8281526020019081526020015f205f015f9054906101000a900473ffffffffffffffffffffffffffffffffffffffff1673ffffffffffffffffffffffffffffffffffffffff163373ffffffffffffffffffffffffffffffffffffffff1614611c1d576040517f08c379a0000000000000000000000000000000000000000000000000000000008152600401611c1490612fe5565b60405180910390fd5b5f60045f8481526020019081526020015f2090505f6004811115611c4457611c436128db565b5b8160020160199054906101000a900460ff166004811115611c6857611c676128db565b5b14611ca8576040517f08c379a0000000000000000000000000000000000000000000000000000000008152600401611c9f906133d6565b60405180910390fd5b60018160020160196101000a81548160ff02191690836004811115611cd057611ccf6128db565b5b0217905550806002015f9054906101000a900473ffffffffffffffffffffffffffffffffffffffff1673ffffffffffffffffffffffffffffffffffffffff166323b872dd333084600301546040518463ffffffff1660e01b8152600401611d39939291906133f4565b6020604051808303815f875af1158015611d55573d5f5f3e3d5ffd5b505050506040513d601f19601f82011682018060405250810190611d799190612e3b565b611db8576040517f08c379a0000000000000000000000000000000000000000000000000000000008152600401611daf90612eb0565b60405180910390fd5b7f000000000000000000000000000000000000000000000000000000000000000073ffffffffffffffffffffffffffffffffffffffff16816002015f9054906101000a900473ffffffffffffffffffffffffffffffffffffffff1673ffffffffffffffffffffffffffffffffffffffff1614611e69576040517f08c379a0000000000000000000000000000000000000000000000000000000008152600401611e6090613473565b60405180910390fd5b7f000000000000000000000000000000000000000000000000000000000000000073ffffffffffffffffffffffffffffffffffffffff166340c10f19825f015f9054906101000a900473ffffffffffffffffffffffffffffffffffffffff1683600301546040518363ffffffff1660e01b8152600401611eea929190612e14565b5f604051808303815f87803b158015611f01575f5ffd5b505af1158015611f13573d5f5f3e3d5ffd5b50505050827f911052e1be46242b46bf3c2762227ff37c000e5fe38727638096f3a17fbfe1708260030154604051611f4b9190612aea565b60405180910390a2805f015f9054906101000a900473ffffffffffffffffffffffffffffffffffffffff1673ffffffffffffffffffffffffffffffffffffffff16837f661aa0a74ab47b8350d45914acfebf4ee15676f5129b012cf5330fc420767b828360030154604051611fc09190612aea565b60405180910390a35050611fd2612642565b50565b7f000000000000000000000000000000000000000000000000000000000000000081565b612001611651565b73ffffffffffffffffffffffffffffffffffffffff163373ffffffffffffffffffffffffffffffffffffffff161461206e576040517f08c379a0000000000000000000000000000000000000000000000000000000008152600401612065906134db565b60405180910390fd5b8060025f6101000a81548160ff02191690831515021790555050565b6120926125fc565b60025f9054906101000a900460ff1661211b576120ad611651565b73ffffffffffffffffffffffffffffffffffffffff163373ffffffffffffffffffffffffffffffffffffffff161461211a576040517f08c379a000000000000000000000000000000000000000000000000000000000815260040161211190613543565b60405180910390fd5b5b5f60045f8381526020019081526020015f20905060016004811115612143576121426128db565b5b8160020160199054906101000a900460ff166004811115612167576121666128db565b5b14806121a8575060026004811115612182576121816128db565b5b8160020160199054906101000a900460ff1660048111156121a6576121a56128db565b5b145b6121e7576040517f08c379a00000000000000000000000000000000000000000000000000000000081526004016121de906135ab565b60405180910390fd5b60038160020160196101000a81548160ff0219169083600481111561220f5761220e6128db565b5b0217905550806002015f9054906101000a900473ffffffffffffffffffffffffffffffffffffffff1673ffffffffffffffffffffffffffffffffffffffff1663a9059cbb826001015f9054906101000a900473ffffffffffffffffffffffffffffffffffffffff1683600301546040518363ffffffff1660e01b8152600401612299929190612e14565b6020604051808303815f875af11580156122b5573d5f5f3e3d5ffd5b505050506040513d601f19601f820116820180604052508101906122d99190612e3b565b612318576040517f08c379a000000000000000000000000000000000000000000000000000000000815260040161230f90612eb0565b60405180910390fd5b7f000000000000000000000000000000000000000000000000000000000000000073ffffffffffffffffffffffffffffffffffffffff16816002015f9054906101000a900473ffffffffffffffffffffffffffffffffffffffff1673ffffffffffffffffffffffffffffffffffffffff16146123c9576040517f08c379a00000000000000000000000000000000000000000000000000000000081526004016123c0906131c8565b60405180910390fd5b7f000000000000000000000000000000000000000000000000000000000000000073ffffffffffffffffffffffffffffffffffffffff16639dc29fac825f015f9054906101000a900473ffffffffffffffffffffffffffffffffffffffff1683600301546040518363ffffffff1660e01b815260040161244a929190612e14565b5f604051808303815f87803b158015612461575f5ffd5b505af1158015612473573d5f5f3e3d5ffd5b50505050817ffd7f9968b90c2f39997b08b69b3c78d40df681dec28b3eec202eff456c3ad2cb826001015f9054906101000a900473ffffffffffffffffffffffffffffffffffffffff16836002015f9054906101000a900473ffffffffffffffffffffffffffffffffffffffff166040516124ef9291906131e6565b60405180910390a2805f015f9054906101000a900473ffffffffffffffffffffffffffffffffffffffff1673ffffffffffffffffffffffffffffffffffffffff16827f67a7cfa50de7a64de0d81ae4cb43ecf172f424367737466e66eaa11a883bccb083600301546040516125649190612aea565b60405180910390a350612575612642565b50565b61258061264b565b5f73ffffffffffffffffffffffffffffffffffffffff168173ffffffffffffffffffffffffffffffffffffffff16036125f0575f6040517f1e4fbdf70000000000000000000000000000000000000000000000000000000081526004016125e79190612a57565b60405180910390fd5b6125f9816126d2565b50565b600260015403612638576040517f3ee5aeb500000000000000000000000000000000000000000000000000000000815260040160405180910390fd5b6002600181905550565b60018081905550565b6126536127a2565b73ffffffffffffffffffffffffffffffffffffffff16612671611651565b73ffffffffffffffffffffffffffffffffffffffff16146126d0576126946127a2565b6040517f118cdaa70000000000000000000000000000000000000000000000000000000081526004016126c79190612a57565b60405180910390fd5b565b5f5f5f9054906101000a900473ffffffffffffffffffffffffffffffffffffffff169050815f5f6101000a81548173ffffffffffffffffffffffffffffffffffffffff021916908373ffffffffffffffffffffffffffffffffffffffff1602179055508173ffffffffffffffffffffffffffffffffffffffff168173ffffffffffffffffffffffffffffffffffffffff167f8be0079c531659141344cd1fd0a4f28419497f9722a3daafe3b4186f6b6457e060405160405180910390a35050565b5f61279d426127a9565b905090565b5f33905090565b5f65ffffffffffff80168211156127fa576030826040517f6dfcc6500000000000000000000000000000000000000000000000000000000081526004016127f192919061360e565b60405180910390fd5b819050919050565b5f5ffd5b5f819050919050565b61281881612806565b8114612822575f5ffd5b50565b5f813590506128338161280f565b92915050565b5f6020828403121561284e5761284d612802565b5b5f61285b84828501612825565b91505092915050565b5f73ffffffffffffffffffffffffffffffffffffffff82169050919050565b5f61288d82612864565b9050919050565b61289d81612883565b82525050565b5f63ffffffff82169050919050565b6128bb816128a3565b82525050565b5f8115159050919050565b6128d5816128c1565b82525050565b7f4e487b71000000000000000000000000000000000000000000000000000000005f52602160045260245ffd5b60058110612919576129186128db565b5b50565b5f81905061292982612908565b919050565b5f6129388261291c565b9050919050565b6129488161292e565b82525050565b61295781612806565b82525050565b5f60e0820190506129705f83018a612894565b61297d6020830189612894565b61298a6040830188612894565b61299760608301876128b2565b6129a460808301866128cc565b6129b160a083018561293f565b6129be60c083018461294e565b98975050505050505050565b5f6020820190506129dd5f8301846128cc565b92915050565b5f819050919050565b5f612a06612a016129fc84612864565b6129e3565b612864565b9050919050565b5f612a17826129ec565b9050919050565b5f612a2882612a0d565b9050919050565b612a3881612a1e565b82525050565b5f602082019050612a515f830184612a2f565b92915050565b5f602082019050612a6a5f830184612894565b92915050565b612a7981612883565b8114612a83575f5ffd5b50565b5f81359050612a9481612a70565b92915050565b5f5f5f60608486031215612ab157612ab0612802565b5b5f612abe86828701612a86565b9350506020612acf86828701612825565b9250506040612ae086828701612a86565b9150509250925092565b5f602082019050612afd5f83018461294e565b92915050565b5f612b0d82612a0d565b9050919050565b612b1d81612b03565b82525050565b5f602082019050612b365f830184612b14565b92915050565b612b45816128c1565b8114612b4f575f5ffd5b50565b5f81359050612b6081612b3c565b92915050565b5f60208284031215612b7b57612b7a612802565b5b5f612b8884828501612b52565b91505092915050565b5f60208284031215612ba657612ba5612802565b5b5f612bb384828501612a86565b91505092915050565b5f82825260208201905092915050565b7f4e6f7420726566657272656400000000000000000000000000000000000000005f82015250565b5f612c00600c83612bbc565b9150612c0b82612bcc565b602082019050919050565b5f6020820190508181035f830152612c2d81612bf4565b9050919050565b5f81519050612c428161280f565b92915050565b5f81519050612c5681612a70565b92915050565b60048110612c68575f5ffd5b50565b5f81519050612c7981612c5c565b92915050565b5f81519050612c8d81612b3c565b92915050565b5f5f5f5f5f5f5f5f610100898b031215612cb057612caf612802565b5b5f612cbd8b828c01612c34565b9850506020612cce8b828c01612c48565b9750506040612cdf8b828c01612c48565b9650506060612cf08b828c01612c34565b9550506080612d018b828c01612c6b565b94505060a0612d128b828c01612c34565b93505060c0612d238b828c01612c7f565b92505060e0612d348b828c01612c7f565b9150509295985092959890939650565b7f4e6f7420696e20646973707574650000000000000000000000000000000000005f82015250565b5f612d78600e83612bbc565b9150612d8382612d44565b602082019050919050565b5f6020820190508181035f830152612da581612d6c565b9050919050565b7f44414f206e6f74207265736f6c766564000000000000000000000000000000005f82015250565b5f612de0601083612bbc565b9150612deb82612dac565b602082019050919050565b5f6020820190508181035f830152612e0d81612dd4565b9050919050565b5f604082019050612e275f830185612894565b612e34602083018461294e565b9392505050565b5f60208284031215612e5057612e4f612802565b5b5f612e5d84828501612c7f565b91505092915050565b7f5472616e73666572206661696c656400000000000000000000000000000000005f82015250565b5f612e9a600f83612bbc565b9150612ea582612e66565b602082019050919050565b5f6020820190508181035f830152612ec781612e8e565b9050919050565b7f4e487b71000000000000000000000000000000000000000000000000000000005f52601160045260245ffd5b5f612f0582612806565b9150612f1083612806565b9250828203905081811115612f2857612f27612ece565b5b92915050565b60048110612f3f57612f3e6128db565b5b50565b5f819050612f4f82612f2e565b919050565b5f612f5e82612f42565b9050919050565b612f6e81612f54565b82525050565b5f604082019050612f875f830185612f65565b612f94602083018461294e565b9392505050565b7f4e6f742074656e616e74000000000000000000000000000000000000000000005f82015250565b5f612fcf600a83612bbc565b9150612fda82612f9b565b602082019050919050565b5f6020820190508181035f830152612ffc81612fc3565b9050919050565b7f416c72656164792061707065616c6564000000000000000000000000000000005f82015250565b5f613037601083612bbc565b915061304282613003565b602082019050919050565b5f6020820190508181035f8301526130648161302b565b9050919050565b7f416c7265616479207265666572726564000000000000000000000000000000005f82015250565b5f61309f601083612bbc565b91506130aa8261306b565b602082019050919050565b5f6020820190508181035f8301526130cc81613093565b9050919050565b5f6080820190506130e65f83018761294e565b6130f36020830186612894565b6131006040830185612894565b61310d606083018461294e565b95945050505050565b7f4e6f7420726566756e6461626c650000000000000000000000000000000000005f82015250565b5f61314a600e83612bbc565b915061315582613116565b602082019050919050565b5f6020820190508181035f8301526131778161313e565b9050919050565b7f546f6b656e206d7573742062652055525a20666f72206275726e0000000000005f82015250565b5f6131b2601a83612bbc565b91506131bd8261317e565b602082019050919050565b5f6020820190508181035f8301526131df816131a6565b9050919050565b5f6040820190506131f95f830185612894565b6132066020830184612894565b9392505050565b7f43616e6e6f7420646973707574650000000000000000000000000000000000005f82015250565b5f613241600e83612bbc565b915061324c8261320d565b602082019050919050565b5f6020820190508181035f83015261326e81613235565b9050919050565b7f496e76616c6964206c616e646c6f7264000000000000000000000000000000005f82015250565b5f6132a9601083612bbc565b91506132b482613275565b602082019050919050565b5f6020820190508181035f8301526132d68161329d565b9050919050565b7f496e76616c696420746f6b656e000000000000000000000000000000000000005f82015250565b5f613311600d83612bbc565b915061331c826132dd565b602082019050919050565b5f6020820190508181035f83015261333e81613305565b9050919050565b5f61334f82612806565b91507fffffffffffffffffffffffffffffffffffffffffffffffffffffffffffffffff820361338157613380612ece565b5b600182019050919050565b7f457363726f77206973206e6f742066756e6461626c65000000000000000000005f82015250565b5f6133c0601683612bbc565b91506133cb8261338c565b602082019050919050565b5f6020820190508181035f8301526133ed816133b4565b9050919050565b5f6060820190506134075f830186612894565b6134146020830185612894565b613421604083018461294e565b949350505050565b7f546f6b656e206d7573742062652055525a20666f72206d696e740000000000005f82015250565b5f61345d601a83612bbc565b915061346882613429565b602082019050919050565b5f6020820190508181035f83015261348a81613451565b9050919050565b7f4f6e6c79206f776e65722063616e2073657420627970617373000000000000005f82015250565b5f6134c5601983612bbc565b91506134d082613491565b602082019050919050565b5f6020820190508181035f8301526134f2816134b9565b9050919050565b7f4f776e61626c653a2063616c6c6572206973206e6f7420746865206f776e65725f82015250565b5f61352d602083612bbc565b9150613538826134f9565b602082019050919050565b5f6020820190508181035f83015261355a81613521565b9050919050565b7f4e6f742072656c65617361626c650000000000000000000000000000000000005f82015250565b5f613595600e83612bbc565b91506135a082613561565b602082019050919050565b5f6020820190508181035f8301526135c281613589565b9050919050565b5f819050919050565b5f60ff82169050919050565b5f6135f86135f36135ee846135c9565b6129e3565b6135d2565b9050919050565b613608816135de565b82525050565b5f6040820190506136215f8301856135ff565b61362e602083018461294e565b939250505056fea26469706673582212204a40063cae7d7123738823522920781a8f6a9e27209cf16133b95c14d065b2ce64736f6c63430008210033","linkReferences":{}},"methodIdentifiers":{"appealToDAO(uint256)":"1ce59f02","createEscrow(address,uint256,address)":"b6d6806c","dao()":"4162169f","disputeReferred(uint256)":"29e47ae5","escrowCounter()":"c7ceafea","escrows(uint256)":"012f52ee","fundEscrow(uint256)":"c9c31af5","owner()":"8da5cb5b","raiseDispute(uint256)":"a5c1674e","referDisputeToDAO(uint256)":"254747d7","refundEscrow(uint256)":"356f9dfd","releaseEscrow(uint256)":"ed653164","renounceOwnership()":"715018a6","resolveByDAO(uint256)":"0f013447","setTestBypassOnlyOwner(bool)":"ded11325","testBypassOnlyOwner()":"7776480e","transferOwnership(address)":"f2fde38b","urzToken()":"d1f14a59"},"id":41}