{"abi":[{"type":"constructor","inputs":[{"name":"initialOwner","type":"address","internalType":"address"},{"name":"daoAddress","type":"address","internalType":"address"},{"name":"urzTokenAddress","type":"address","internalType":"address"}],"stateMutability":"nonpayable"},{"type":"function","name":"appealToDAO","inputs":[{"name":"escrowId","type":"uint256","internalType":"uint256"}],"outputs":[],"stateMutability":"nonpayable"},{"type":"function","name":"createEscrow","inputs":[{"name":"landlord","type":"address","internalType":"address"},{"name":"amount","type":"uint256","internalType":"uint256"},{"name":"token","type":"address","internalType":"address"}],"outputs":[{"name":"id","type":"uint256","internalType":"uint256"}],"stateMutability":"nonpayable"},{"type":"function","name":"dao","inputs":[],"outputs":[{"name":"","type":"address","internalType":"contract UltraRentzDAO"}],"stateMutability":"view"},{"type":"function","name":"disputeReferred","inputs":[{"name":"","type":"uint256","internalType":"uint256"}],"outputs":[{"name":"","type":"bool","internalType":"bool"}],"stateMutability":"view"},{"type":"function","name":"escrowCounter","inputs":[],"outputs":[{"name":"","type":"uint256","internalType":"uint256"}],"stateMutability":"view"},{"type":"function","name":"escrows","inputs":[{"name":"","type":"uint256","internalType":"uint256"}],"outputs":[{"name":"tenant","type":"address","internalType":"address"},{"name":"landlord","type":"address","internalType":"address"},{"name":"amount","type":"uint256","internalType":"uint256"},{"name":"token","type":"address","internalType":"address"},{"name":"state","type":"uint8","internalType":"enum EscrowStateMachine.EscrowState"},{"name":"disputeTimestamp","type":"uint256","internalType":"uint256"},{"name":"exists","type":"bool","internalType":"bool"}],"stateMutability":"view"},{"type":"function","name":"fundEscrow","inputs":[{"name":"escrowId","type":"uint256","internalType":"uint256"}],"outputs":[],"stateMutability":"nonpayable"},{"type":"function","name":"owner","inputs":[],"outputs":[{"name":"","type":"address","internalType":"address"}],"stateMutability":"view"},{"type":"function","name":"raiseDispute","inputs":[{"name":"escrowId","type":"uint256","internalType":"uint256"}],"outputs":[],"stateMutability":"nonpayable"},{"type":"function","name":"referDisputeToDAO","inputs":[{"name":"escrowId","type":"uint256","internalType":"uint256"}],"outputs":[],"stateMutability":"nonpayable"},{"type":"function","name":"refundEscrow","inputs":[{"name":"escrowId","type":"uint256","internalType":"uint256"}],"outputs":[],"stateMutability":"nonpayable"},{"type":"function","name":"releaseEscrow","inputs":[{"name":"escrowId","type":"uint256","internalType":"uint256"}],"outputs":[],"stateMutability":"nonpayable"},{"type":"function","name":"renounceOwnership","inputs":[],"outputs":[],"stateMutability":"nonpayable"},{"type":"function","name":"resolveByDAO","inputs":[{"name":"escrowId","type":"uint256","internalType":"uint256"}],"outputs":[],"stateMutability":"nonpayable"},{"type":"function","name":"transferOwnership","inputs":[{"name":"newOwner","type":"address","internalType":"address"}],"outputs":[],"stateMutability":"nonpayable"},{"type":"function","name":"urzToken","inputs":[],"outputs":[{"name":"","type":"address","internalType":"contract UltraRentzStable"}],"stateMutability":"view"},{"type":"event","name":"DAOAppeal","inputs":[{"name":"escrowId","type":"uint256","indexed":true,"internalType":"uint256"}],"anonymous":false},{"type":"event","name":"DAOResolved","inputs":[{"name":"escrowId","type":"uint256","indexed":true,"internalType":"uint256"},{"name":"decision","type":"uint8","indexed":false,"internalType":"enum UltraRentzDAO.Decision"},{"name":"amountReleased","type":"uint256","indexed":false,"internalType":"uint256"}],"anonymous":false},{"type":"event","name":"DepositBurned","inputs":[{"name":"escrowId","type":"uint256","indexed":true,"internalType":"uint256"},{"name":"user","type":"address","indexed":true,"internalType":"address"},{"name":"amount","type":"uint256","indexed":false,"internalType":"uint256"}],"anonymous":false},{"type":"event","name":"DepositTokenized","inputs":[{"name":"escrowId","type":"uint256","indexed":true,"internalType":"uint256"},{"name":"tenant","type":"address","indexed":true,"internalType":"address"},{"name":"amount","type":"uint256","indexed":false,"internalType":"uint256"}],"anonymous":false},{"type":"event","name":"DisputeReferredToDAO","inputs":[{"name":"escrowId","type":"uint256","indexed":true,"internalType":"uint256"}],"anonymous":false},{"type":"event","name":"EscrowCreated","inputs":[{"name":"escrowId","type":"uint256","indexed":true,"internalType":"uint256"},{"name":"tenant","type":"address","indexed":true,"internalType":"address"},{"name":"landlord","type":"address","indexed":false,"internalType":"address"},{"name":"token","type":"address","indexed":false,"internalType":"address"}],"anonymous":false},{"type":"event","name":"EscrowDisputed","inputs":[{"name":"escrowId","type":"uint256","indexed":true,"internalType":"uint256"}],"anonymous":false},{"type":"event","name":"EscrowFunded","inputs":[{"name":"escrowId","type":"uint256","indexed":true,"internalType":"uint256"},{"name":"amount","type":"uint256","indexed":false,"internalType":"uint256"}],"anonymous":false},{"type":"event","name":"EscrowRefunded","inputs":[{"name":"escrowId","type":"uint256","indexed":true,"internalType":"uint256"},{"name":"tenant","type":"address","indexed":false,"internalType":"address"},{"name":"token","type":"address","indexed":false,"internalType":"address"}],"anonymous":false},{"type":"event","name":"EscrowReleased","inputs":[{"name":"escrowId","type":"uint256","indexed":true,"internalType":"uint256"},{"name":"landlord","type":"address","indexed":false,"internalType":"address"},{"name":"token","type":"address","indexed":false,"internalType":"address"}],"anonymous":false},{"type":"event","name":"OwnershipTransferred","inputs":[{"name":"previousOwner","type":"address","indexed":true,"internalType":"address"},{"name":"newOwner","type":"address","indexed":true,"internalType":"address"}],"anonymous":false},{"type":"error","name":"OwnableInvalidOwner","inputs":[{"name":"owner","type":"address","internalType":"address"}]},{"type":"error","name":"OwnableUnauthorizedAccount","inputs":[{"name":"account","type":"address","internalType":"address"}]},{"type":"error","name":"ReentrancyGuardReentrantCall","inputs":[]}],"bytecode":{"object":"0x608060405234801561000f575f5ffd5b50604051612fad380380612fad83398181016040528101906100319190610260565b825f73ffffffffffffffffffffffffffffffffffffffff168173ffffffffffffffffffffffffffffffffffffffff16036100a2575f6040517f1e4fbdf700000000000000000000000000000000000000000000000000000000815260040161009991906102bf565b60405180910390fd5b6100b18161014160201b60201c565b50600180819055508160045f6101000a81548173ffffffffffffffffffffffffffffffffffffffff021916908373ffffffffffffffffffffffffffffffffffffffff1602179055508060055f6101000a81548173ffffffffffffffffffffffffffffffffffffffff021916908373ffffffffffffffffffffffffffffffffffffffff1602179055505050506102d8565b5f5f5f9054906101000a900473ffffffffffffffffffffffffffffffffffffffff169050815f5f6101000a81548173ffffffffffffffffffffffffffffffffffffffff021916908373ffffffffffffffffffffffffffffffffffffffff1602179055508173ffffffffffffffffffffffffffffffffffffffff168173ffffffffffffffffffffffffffffffffffffffff167f8be0079c531659141344cd1fd0a4f28419497f9722a3daafe3b4186f6b6457e060405160405180910390a35050565b5f5ffd5b5f73ffffffffffffffffffffffffffffffffffffffff82169050919050565b5f61022f82610206565b9050919050565b61023f81610225565b8114610249575f5ffd5b50565b5f8151905061025a81610236565b92915050565b5f5f5f6060848603121561027757610276610202565b5b5f6102848682870161024c565b93505060206102958682870161024c565b92505060406102a68682870161024c565b9150509250925092565b6102b981610225565b82525050565b5f6020820190506102d25f8301846102b0565b92915050565b612cc8806102e55f395ff3fe608060405234801561000f575f5ffd5b50600436106100fe575f3560e01c80638da5cb5b11610095578063c9c31af511610064578063c9c31af514610288578063d1f14a59146102a4578063ed653164146102c2578063f2fde38b146102de576100fe565b80638da5cb5b14610200578063a5c1674e1461021e578063b6d6806c1461023a578063c7ceafea1461026a576100fe565b806329e47ae5116100d157806329e47ae51461018c578063356f9dfd146101bc5780634162169f146101d8578063715018a6146101f6576100fe565b8063012f52ee146101025780630f013447146101385780631ce59f0214610154578063254747d714610170575b5f5ffd5b61011c60048036038101906101179190612167565b6102fa565b60405161012f979695949392919061226d565b60405180910390f35b610152600480360381019061014d9190612167565b6103ae565b005b61016e60048036038101906101699190612167565b6109f0565b005b61018a60048036038101906101859190612167565b610ccf565b005b6101a660048036038101906101a19190612167565b610f8b565b6040516101b391906122da565b60405180910390f35b6101d660048036038101906101d19190612167565b610fa8565b005b6101e0611325565b6040516101ed919061234e565b60405180910390f35b6101fe61134a565b005b61020861135d565b6040516102159190612367565b60405180910390f35b61023860048036038101906102339190612167565b611384565b005b610254600480360381019061024f91906123aa565b611519565b60405161026191906123fa565b60405180910390f35b610272611835565b60405161027f91906123fa565b60405180910390f35b6102a2600480360381019061029d9190612167565b61183b565b005b6102ac611b6a565b6040516102b99190612433565b60405180910390f35b6102dc60048036038101906102d79190612167565b611b8f565b005b6102f860048036038101906102f3919061244c565b611f0e565b005b6003602052805f5260405f205f91509050805f015f9054906101000a900473ffffffffffffffffffffffffffffffffffffffff1690806001015f9054906101000a900473ffffffffffffffffffffffffffffffffffffffff1690806002015490806003015f9054906101000a900473ffffffffffffffffffffffffffffffffffffffff16908060030160149054906101000a900460ff1690806004015490806005015f9054906101000a900460ff16905087565b60065f8281526020019081526020015f205f9054906101000a900460ff1661040b576040517f08c379a0000000000000000000000000000000000000000000000000000000008152600401610402906124d1565b60405180910390fd5b5f5f5f60045f9054906101000a900473ffffffffffffffffffffffffffffffffffffffff1673ffffffffffffffffffffffffffffffffffffffff1663564a565d856040518263ffffffff1660e01b815260040161046891906123fa565b61010060405180830381865afa158015610484573d5f5f3e3d5ffd5b505050506040513d601f19601f820116820180604052508101906104a89190612564565b97505050955095505050505f60035f8681526020019081526020015f209050600260048111156104db576104da6121e0565b5b8160030160149054906101000a900460ff1660048111156104ff576104fe6121e0565b5b1461053f576040517f08c379a00000000000000000000000000000000000000000000000000000000081526004016105369061265f565b60405180910390fd5b8161057f576040517f08c379a0000000000000000000000000000000000000000000000000000000008152600401610576906126c7565b60405180910390fd5b60016003811115610593576105926121e0565b5b8360038111156105a6576105a56121e0565b5b0361069f5760038160030160146101000a81548160ff021916908360048111156105d3576105d26121e0565b5b0217905550806003015f9054906101000a900473ffffffffffffffffffffffffffffffffffffffff1673ffffffffffffffffffffffffffffffffffffffff1663a9059cbb826001015f9054906101000a900473ffffffffffffffffffffffffffffffffffffffff16866040518363ffffffff1660e01b81526004016106599291906126e5565b6020604051808303815f875af1158015610675573d5f5f3e3d5ffd5b505050506040513d601f19601f82011682018060405250810190610699919061270c565b506109af565b600260038111156106b3576106b26121e0565b5b8360038111156106c6576106c56121e0565b5b0361088f5760038160030160146101000a81548160ff021916908360048111156106f3576106f26121e0565b5b0217905550806003015f9054906101000a900473ffffffffffffffffffffffffffffffffffffffff1673ffffffffffffffffffffffffffffffffffffffff1663a9059cbb826001015f9054906101000a900473ffffffffffffffffffffffffffffffffffffffff16866040518363ffffffff1660e01b81526004016107799291906126e5565b6020604051808303815f875af1158015610795573d5f5f3e3d5ffd5b505050506040513d601f19601f820116820180604052508101906107b9919061270c565b50806003015f9054906101000a900473ffffffffffffffffffffffffffffffffffffffff1673ffffffffffffffffffffffffffffffffffffffff1663a9059cbb825f015f9054906101000a900473ffffffffffffffffffffffffffffffffffffffff1686846002015461082c9190612764565b6040518363ffffffff1660e01b81526004016108499291906126e5565b6020604051808303815f875af1158015610865573d5f5f3e3d5ffd5b505050506040513d601f19601f82011682018060405250810190610889919061270c565b506109ae565b6003808111156108a2576108a16121e0565b5b8360038111156108b5576108b46121e0565b5b036109ad5760048160030160146101000a81548160ff021916908360048111156108e2576108e16121e0565b5b0217905550806003015f9054906101000a900473ffffffffffffffffffffffffffffffffffffffff1673ffffffffffffffffffffffffffffffffffffffff1663a9059cbb825f015f9054906101000a900473ffffffffffffffffffffffffffffffffffffffff1683600201546040518363ffffffff1660e01b815260040161096b9291906126e5565b6020604051808303815f875af1158015610987573d5f5f3e3d5ffd5b505050506040513d601f19601f820116820180604052508101906109ab919061270c565b505b5b5b847f2e83b5d139caed7c1480d9e4e8034eefc681b2da0d7d318eb720cad18f4fdda284866040516109e19291906127dd565b60405180910390a25050505050565b8060035f8281526020019081526020015f205f015f9054906101000a900473ffffffffffffffffffffffffffffffffffffffff1673ffffffffffffffffffffffffffffffffffffffff163373ffffffffffffffffffffffffffffffffffffffff1614610a91576040517f08c379a0000000000000000000000000000000000000000000000000000000008152600401610a889061284e565b60405180910390fd5b60065f8381526020019081526020015f205f9054906101000a900460ff16610aee576040517f08c379a0000000000000000000000000000000000000000000000000000000008152600401610ae5906124d1565b60405180910390fd5b5f5f60045f9054906101000a900473ffffffffffffffffffffffffffffffffffffffff1673ffffffffffffffffffffffffffffffffffffffff1663564a565d856040518263ffffffff1660e01b8152600401610b4a91906123fa565b61010060405180830381865afa158015610b66573d5f5f3e3d5ffd5b505050506040513d601f19601f82011682018060405250810190610b8a9190612564565b9750975050505050505080610bd4576040517f08c379a0000000000000000000000000000000000000000000000000000000008152600401610bcb906126c7565b60405180910390fd5b8115610c15576040517f08c379a0000000000000000000000000000000000000000000000000000000008152600401610c0c906128b6565b60405180910390fd5b60045f9054906101000a900473ffffffffffffffffffffffffffffffffffffffff1673ffffffffffffffffffffffffffffffffffffffff166319dc88ae856040518263ffffffff1660e01b8152600401610c6f91906123fa565b5f604051808303815f87803b158015610c86575f5ffd5b505af1158015610c98573d5f5f3e3d5ffd5b50505050837f0652d6ec7fa8a251cd81f09b5226067ad35c399fa298288f8d23292b9467fe8d60405160405180910390a250505050565b8060035f8281526020019081526020015f205f015f9054906101000a900473ffffffffffffffffffffffffffffffffffffffff1673ffffffffffffffffffffffffffffffffffffffff163373ffffffffffffffffffffffffffffffffffffffff1614610d70576040517f08c379a0000000000000000000000000000000000000000000000000000000008152600401610d679061284e565b60405180910390fd5b5f60035f8481526020019081526020015f20905060026004811115610d9857610d976121e0565b5b8160030160149054906101000a900460ff166004811115610dbc57610dbb6121e0565b5b14610dfc576040517f08c379a0000000000000000000000000000000000000000000000000000000008152600401610df39061265f565b60405180910390fd5b60065f8481526020019081526020015f205f9054906101000a900460ff1615610e5a576040517f08c379a0000000000000000000000000000000000000000000000000000000008152600401610e519061291e565b60405180910390fd5b60045f9054906101000a900473ffffffffffffffffffffffffffffffffffffffff1673ffffffffffffffffffffffffffffffffffffffff16630d281f1384835f015f9054906101000a900473ffffffffffffffffffffffffffffffffffffffff16846001015f9054906101000a900473ffffffffffffffffffffffffffffffffffffffff1685600201546040518563ffffffff1660e01b8152600401610f03949392919061293c565b5f604051808303815f87803b158015610f1a575f5ffd5b505af1158015610f2c573d5f5f3e3d5ffd5b50505050600160065f8581526020019081526020015f205f6101000a81548160ff021916908315150217905550827f487898c7ed9ced4044c84780144869d41fb0c9f052b46830514d0cd5c67b064d60405160405180910390a2505050565b6006602052805f5260405f205f915054906101000a900460ff1681565b610fb0611f92565b610fb8612019565b5f60035f8381526020019081526020015f20905060016004811115610fe057610fdf6121e0565b5b8160030160149054906101000a900460ff166004811115611004576110036121e0565b5b148061104557506002600481111561101f5761101e6121e0565b5b8160030160149054906101000a900460ff166004811115611043576110426121e0565b5b145b611084576040517f08c379a000000000000000000000000000000000000000000000000000000000815260040161107b906129c9565b60405180910390fd5b60048160030160146101000a81548160ff021916908360048111156110ac576110ab6121e0565b5b0217905550806003015f9054906101000a900473ffffffffffffffffffffffffffffffffffffffff1673ffffffffffffffffffffffffffffffffffffffff1663a9059cbb825f015f9054906101000a900473ffffffffffffffffffffffffffffffffffffffff1683600201546040518363ffffffff1660e01b81526004016111359291906126e5565b6020604051808303815f875af1158015611151573d5f5f3e3d5ffd5b505050506040513d601f19601f82011682018060405250810190611175919061270c565b5060055f9054906101000a900473ffffffffffffffffffffffffffffffffffffffff1673ffffffffffffffffffffffffffffffffffffffff16639dc29fac825f015f9054906101000a900473ffffffffffffffffffffffffffffffffffffffff1683600201546040518363ffffffff1660e01b81526004016111f89291906126e5565b5f604051808303815f87803b15801561120f575f5ffd5b505af1158015611221573d5f5f3e3d5ffd5b50505050817fcd0cf80e47d7155dd99224c3b23942de0ceca1a277e5e49a471ffb9a45ac1542825f015f9054906101000a900473ffffffffffffffffffffffffffffffffffffffff16836003015f9054906101000a900473ffffffffffffffffffffffffffffffffffffffff1660405161129c9291906129e7565b60405180910390a2805f015f9054906101000a900473ffffffffffffffffffffffffffffffffffffffff1673ffffffffffffffffffffffffffffffffffffffff16827f67a7cfa50de7a64de0d81ae4cb43ecf172f424367737466e66eaa11a883bccb0836002015460405161131191906123fa565b60405180910390a35061132261205f565b50565b60045f9054906101000a900473ffffffffffffffffffffffffffffffffffffffff1681565b611352611f92565b61135b5f612068565b565b5f5f5f9054906101000a900473ffffffffffffffffffffffffffffffffffffffff16905090565b8060035f8281526020019081526020015f205f015f9054906101000a900473ffffffffffffffffffffffffffffffffffffffff1673ffffffffffffffffffffffffffffffffffffffff163373ffffffffffffffffffffffffffffffffffffffff1614611425576040517f08c379a000000000000000000000000000000000000000000000000000000000815260040161141c9061284e565b60405180910390fd5b5f60035f8481526020019081526020015f2090506001600481111561144d5761144c6121e0565b5b8160030160149054906101000a900460ff166004811115611471576114706121e0565b5b146114b1576040517f08c379a00000000000000000000000000000000000000000000000000000000081526004016114a890612a58565b60405180910390fd5b60028160030160146101000a81548160ff021916908360048111156114d9576114d86121e0565b5b0217905550428160040181905550827f7ce7831fed9a800b1aa5e7ca21034bf7b95efc31a196459012cf8b8eb42b7dac60405160405180910390a2505050565b5f5f73ffffffffffffffffffffffffffffffffffffffff168473ffffffffffffffffffffffffffffffffffffffff1603611588576040517f08c379a000000000000000000000000000000000000000000000000000000000815260040161157f90612ac0565b60405180910390fd5b5f73ffffffffffffffffffffffffffffffffffffffff168273ffffffffffffffffffffffffffffffffffffffff16036115f6576040517f08c379a00000000000000000000000000000000000000000000000000000000081526004016115ed90612b28565b60405180910390fd5b60025f815461160490612b46565b91905081905590506040518060e001604052803373ffffffffffffffffffffffffffffffffffffffff1681526020018573ffffffffffffffffffffffffffffffffffffffff1681526020018481526020018373ffffffffffffffffffffffffffffffffffffffff1681526020015f6004811115611684576116836121e0565b5b81526020015f81526020016001151581525060035f8381526020019081526020015f205f820151815f015f6101000a81548173ffffffffffffffffffffffffffffffffffffffff021916908373ffffffffffffffffffffffffffffffffffffffff1602179055506020820151816001015f6101000a81548173ffffffffffffffffffffffffffffffffffffffff021916908373ffffffffffffffffffffffffffffffffffffffff160217905550604082015181600201556060820151816003015f6101000a81548173ffffffffffffffffffffffffffffffffffffffff021916908373ffffffffffffffffffffffffffffffffffffffff16021790555060808201518160030160146101000a81548160ff021916908360048111156117ac576117ab6121e0565b5b021790555060a0820151816004015560c0820151816005015f6101000a81548160ff0219169083151502179055509050503373ffffffffffffffffffffffffffffffffffffffff16817fccab83b228b9f11d0f002db0d115fe84ab0bacbe475d1c28666963a66c20c43686856040516118269291906129e7565b60405180910390a39392505050565b60025481565b8060035f8281526020019081526020015f205f015f9054906101000a900473ffffffffffffffffffffffffffffffffffffffff1673ffffffffffffffffffffffffffffffffffffffff163373ffffffffffffffffffffffffffffffffffffffff16146118dc576040517f08c379a00000000000000000000000000000000000000000000000000000000081526004016118d39061284e565b60405180910390fd5b6118e4612019565b5f60035f8481526020019081526020015f2090505f600481111561190b5761190a6121e0565b5b8160030160149054906101000a900460ff16600481111561192f5761192e6121e0565b5b1461196f576040517f08c379a000000000000000000000000000000000000000000000000000000000815260040161196690612bd7565b60405180910390fd5b806003015f9054906101000a900473ffffffffffffffffffffffffffffffffffffffff1673ffffffffffffffffffffffffffffffffffffffff166323b872dd333084600201546040518463ffffffff1660e01b81526004016119d393929190612bf5565b6020604051808303815f875af11580156119ef573d5f5f3e3d5ffd5b505050506040513d601f19601f82011682018060405250810190611a13919061270c565b5060018160030160146101000a81548160ff02191690836004811115611a3c57611a3b6121e0565b5b021790555060055f9054906101000a900473ffffffffffffffffffffffffffffffffffffffff1673ffffffffffffffffffffffffffffffffffffffff166340c10f193383600201546040518363ffffffff1660e01b8152600401611aa19291906126e5565b5f604051808303815f87803b158015611ab8575f5ffd5b505af1158015611aca573d5f5f3e3d5ffd5b50505050827f911052e1be46242b46bf3c2762227ff37c000e5fe38727638096f3a17fbfe1708260020154604051611b0291906123fa565b60405180910390a23373ffffffffffffffffffffffffffffffffffffffff16837f661aa0a74ab47b8350d45914acfebf4ee15676f5129b012cf5330fc420767b828360020154604051611b5591906123fa565b60405180910390a350611b6661205f565b5050565b60055f9054906101000a900473ffffffffffffffffffffffffffffffffffffffff1681565b611b97611f92565b611b9f612019565b5f60035f8381526020019081526020015f20905060016004811115611bc757611bc66121e0565b5b8160030160149054906101000a900460ff166004811115611beb57611bea6121e0565b5b1480611c2c575060026004811115611c0657611c056121e0565b5b8160030160149054906101000a900460ff166004811115611c2a57611c296121e0565b5b145b611c6b576040517f08c379a0000000000000000000000000000000000000000000000000000000008152600401611c6290612c74565b60405180910390fd5b60038160030160146101000a81548160ff02191690836004811115611c9357611c926121e0565b5b0217905550806003015f9054906101000a900473ffffffffffffffffffffffffffffffffffffffff1673ffffffffffffffffffffffffffffffffffffffff1663a9059cbb826001015f9054906101000a900473ffffffffffffffffffffffffffffffffffffffff1683600201546040518363ffffffff1660e01b8152600401611d1d9291906126e5565b6020604051808303815f875af1158015611d39573d5f5f3e3d5ffd5b505050506040513d601f19601f82011682018060405250810190611d5d919061270c565b5060055f9054906101000a900473ffffffffffffffffffffffffffffffffffffffff1673ffffffffffffffffffffffffffffffffffffffff16639dc29fac825f015f9054906101000a900473ffffffffffffffffffffffffffffffffffffffff1683600201546040518363ffffffff1660e01b8152600401611de09291906126e5565b5f604051808303815f87803b158015611df7575f5ffd5b505af1158015611e09573d5f5f3e3d5ffd5b50505050817ffd7f9968b90c2f39997b08b69b3c78d40df681dec28b3eec202eff456c3ad2cb826001015f9054906101000a900473ffffffffffffffffffffffffffffffffffffffff16836003015f9054906101000a900473ffffffffffffffffffffffffffffffffffffffff16604051611e859291906129e7565b60405180910390a2805f015f9054906101000a900473ffffffffffffffffffffffffffffffffffffffff1673ffffffffffffffffffffffffffffffffffffffff16827f67a7cfa50de7a64de0d81ae4cb43ecf172f424367737466e66eaa11a883bccb08360020154604051611efa91906123fa565b60405180910390a350611f0b61205f565b50565b611f16611f92565b5f73ffffffffffffffffffffffffffffffffffffffff168173ffffffffffffffffffffffffffffffffffffffff1603611f86575f6040517f1e4fbdf7000000000000000000000000000000000000000000000000000000008152600401611f7d9190612367565b60405180910390fd5b611f8f81612068565b50565b611f9a612129565b73ffffffffffffffffffffffffffffffffffffffff16611fb861135d565b73ffffffffffffffffffffffffffffffffffffffff161461201757611fdb612129565b6040517f118cdaa700000000000000000000000000000000000000000000000000000000815260040161200e9190612367565b60405180910390fd5b565b600260015403612055576040517f3ee5aeb500000000000000000000000000000000000000000000000000000000815260040160405180910390fd5b6002600181905550565b60018081905550565b5f5f5f9054906101000a900473ffffffffffffffffffffffffffffffffffffffff169050815f5f6101000a81548173ffffffffffffffffffffffffffffffffffffffff021916908373ffffffffffffffffffffffffffffffffffffffff1602179055508173ffffffffffffffffffffffffffffffffffffffff168173ffffffffffffffffffffffffffffffffffffffff167f8be0079c531659141344cd1fd0a4f28419497f9722a3daafe3b4186f6b6457e060405160405180910390a35050565b5f33905090565b5f5ffd5b5f819050919050565b61214681612134565b8114612150575f5ffd5b50565b5f813590506121618161213d565b92915050565b5f6020828403121561217c5761217b612130565b5b5f61218984828501612153565b91505092915050565b5f73ffffffffffffffffffffffffffffffffffffffff82169050919050565b5f6121bb82612192565b9050919050565b6121cb816121b1565b82525050565b6121da81612134565b82525050565b7f4e487b71000000000000000000000000000000000000000000000000000000005f52602160045260245ffd5b6005811061221e5761221d6121e0565b5b50565b5f81905061222e8261220d565b919050565b5f61223d82612221565b9050919050565b61224d81612233565b82525050565b5f8115159050919050565b61226781612253565b82525050565b5f60e0820190506122805f83018a6121c2565b61228d60208301896121c2565b61229a60408301886121d1565b6122a760608301876121c2565b6122b46080830186612244565b6122c160a08301856121d1565b6122ce60c083018461225e565b98975050505050505050565b5f6020820190506122ed5f83018461225e565b92915050565b5f819050919050565b5f61231661231161230c84612192565b6122f3565b612192565b9050919050565b5f612327826122fc565b9050919050565b5f6123388261231d565b9050919050565b6123488161232e565b82525050565b5f6020820190506123615f83018461233f565b92915050565b5f60208201905061237a5f8301846121c2565b92915050565b612389816121b1565b8114612393575f5ffd5b50565b5f813590506123a481612380565b92915050565b5f5f5f606084860312156123c1576123c0612130565b5b5f6123ce86828701612396565b93505060206123df86828701612153565b92505060406123f086828701612396565b9150509250925092565b5f60208201905061240d5f8301846121d1565b92915050565b5f61241d8261231d565b9050919050565b61242d81612413565b82525050565b5f6020820190506124465f830184612424565b92915050565b5f6020828403121561246157612460612130565b5b5f61246e84828501612396565b91505092915050565b5f82825260208201905092915050565b7f4e6f7420726566657272656400000000000000000000000000000000000000005f82015250565b5f6124bb600c83612477565b91506124c682612487565b602082019050919050565b5f6020820190508181035f8301526124e8816124af565b9050919050565b5f815190506124fd8161213d565b92915050565b5f8151905061251181612380565b92915050565b60048110612523575f5ffd5b50565b5f8151905061253481612517565b92915050565b61254381612253565b811461254d575f5ffd5b50565b5f8151905061255e8161253a565b92915050565b5f5f5f5f5f5f5f5f610100898b03121561258157612580612130565b5b5f61258e8b828c016124ef565b985050602061259f8b828c01612503565b97505060406125b08b828c01612503565b96505060606125c18b828c016124ef565b95505060806125d28b828c01612526565b94505060a06125e38b828c016124ef565b93505060c06125f48b828c01612550565b92505060e06126058b828c01612550565b9150509295985092959890939650565b7f4e6f7420696e20646973707574650000000000000000000000000000000000005f82015250565b5f612649600e83612477565b915061265482612615565b602082019050919050565b5f6020820190508181035f8301526126768161263d565b9050919050565b7f44414f206e6f74207265736f6c766564000000000000000000000000000000005f82015250565b5f6126b1601083612477565b91506126bc8261267d565b602082019050919050565b5f6020820190508181035f8301526126de816126a5565b9050919050565b5f6040820190506126f85f8301856121c2565b61270560208301846121d1565b9392505050565b5f6020828403121561272157612720612130565b5b5f61272e84828501612550565b91505092915050565b7f4e487b71000000000000000000000000000000000000000000000000000000005f52601160045260245ffd5b5f61276e82612134565b915061277983612134565b925082820390508181111561279157612790612737565b5b92915050565b600481106127a8576127a76121e0565b5b50565b5f8190506127b882612797565b919050565b5f6127c7826127ab565b9050919050565b6127d7816127bd565b82525050565b5f6040820190506127f05f8301856127ce565b6127fd60208301846121d1565b9392505050565b7f4e6f742074656e616e74000000000000000000000000000000000000000000005f82015250565b5f612838600a83612477565b915061284382612804565b602082019050919050565b5f6020820190508181035f8301526128658161282c565b9050919050565b7f416c72656164792061707065616c6564000000000000000000000000000000005f82015250565b5f6128a0601083612477565b91506128ab8261286c565b602082019050919050565b5f6020820190508181035f8301526128cd81612894565b9050919050565b7f416c7265616479207265666572726564000000000000000000000000000000005f82015250565b5f612908601083612477565b9150612913826128d4565b602082019050919050565b5f6020820190508181035f830152612935816128fc565b9050919050565b5f60808201905061294f5f8301876121d1565b61295c60208301866121c2565b61296960408301856121c2565b61297660608301846121d1565b95945050505050565b7f4e6f7420726566756e6461626c650000000000000000000000000000000000005f82015250565b5f6129b3600e83612477565b91506129be8261297f565b602082019050919050565b5f6020820190508181035f8301526129e0816129a7565b9050919050565b5f6040820190506129fa5f8301856121c2565b612a0760208301846121c2565b9392505050565b7f43616e6e6f7420646973707574650000000000000000000000000000000000005f82015250565b5f612a42600e83612477565b9150612a4d82612a0e565b602082019050919050565b5f6020820190508181035f830152612a6f81612a36565b9050919050565b7f496e76616c6964206c616e646c6f7264000000000000000000000000000000005f82015250565b5f612aaa601083612477565b9150612ab582612a76565b602082019050919050565b5f6020820190508181035f830152612ad781612a9e565b9050919050565b7f496e76616c696420746f6b656e000000000000000000000000000000000000005f82015250565b5f612b12600d83612477565b9150612b1d82612ade565b602082019050919050565b5f6020820190508181035f830152612b3f81612b06565b9050919050565b5f612b5082612134565b91507fffffffffffffffffffffffffffffffffffffffffffffffffffffffffffffffff8203612b8257612b81612737565b5b600182019050919050565b7f4e6f742066756e6461626c6500000000000000000000000000000000000000005f82015250565b5f612bc1600c83612477565b9150612bcc82612b8d565b602082019050919050565b5f6020820190508181035f830152612bee81612bb5565b9050919050565b5f606082019050612c085f8301866121c2565b612c1560208301856121c2565b612c2260408301846121d1565b949350505050565b7f4e6f742072656c65617361626c650000000000000000000000000000000000005f82015250565b5f612c5e600e83612477565b9150612c6982612c2a565b602082019050919050565b5f6020820190508181035f830152612c8b81612c52565b905091905056fea26469706673582212207e0c8941349b54ac9c1fb4e7bef2ee0a45a99b84dbcf66796b6499d08c6e6af964736f6c634300081e0033","linkReferences":{}},"methodIdentifiers":{"appealToDAO(uint256)":"1ce59f02","createEscrow(address,uint256,address)":"b6d6806c","dao()":"4162169f","disputeReferred(uint256)":"29e47ae5","escrowCounter()":"c7ceafea","escrows(uint256)":"012f52ee","fundEscrow(uint256)":"c9c31af5","owner()":"8da5cb5b","raiseDispute(uint256)":"a5c1674e","referDisputeToDAO(uint256)":"254747d7","refundEscrow(uint256)":"356f9dfd","releaseEscrow(uint256)":"ed653164","renounceOwnership()":"715018a6","resolveByDAO(uint256)":"0f013447","transferOwnership(address)":"f2fde38b","urzToken()":"d1f14a59"},"id":28}