{"abi":[{"type":"constructor","inputs":[{"name":"initialOwner","type":"address","internalType":"address"}],"stateMutability":"nonpayable"},{"type":"receive","stateMutability":"payable"},{"type":"function","name":"INITIAL_SUPPLY","inputs":[],"outputs":[{"name":"","type":"uint256","internalType":"uint256"}],"stateMutability":"view"},{"type":"function","name":"addLiquidity","inputs":[{"name":"otherToken","type":"address","internalType":"address"},{"name":"urzAmount","type":"uint256","internalType":"uint256"},{"name":"otherTokenAmount","type":"uint256","internalType":"uint256"}],"outputs":[],"stateMutability":"nonpayable"},{"type":"function","name":"allowance","inputs":[{"name":"owner","type":"address","internalType":"address"},{"name":"spender","type":"address","internalType":"address"}],"outputs":[{"name":"","type":"uint256","internalType":"uint256"}],"stateMutability":"view"},{"type":"function","name":"approve","inputs":[{"name":"spender","type":"address","internalType":"address"},{"name":"value","type":"uint256","internalType":"uint256"}],"outputs":[{"name":"","type":"bool","internalType":"bool"}],"stateMutability":"nonpayable"},{"type":"function","name":"arbitrage","inputs":[{"name":"tokenA","type":"address","internalType":"address"},{"name":"tokenB","type":"address","internalType":"address"},{"name":"amount","type":"uint256","internalType":"uint256"}],"outputs":[{"name":"profit","type":"uint256","internalType":"uint256"}],"stateMutability":"nonpayable"},{"type":"function","name":"balanceOf","inputs":[{"name":"account","type":"address","internalType":"address"}],"outputs":[{"name":"","type":"uint256","internalType":"uint256"}],"stateMutability":"view"},{"type":"function","name":"burn","inputs":[{"name":"from","type":"address","internalType":"address"},{"name":"amount","type":"uint256","internalType":"uint256"}],"outputs":[],"stateMutability":"nonpayable"},{"type":"function","name":"decimals","inputs":[],"outputs":[{"name":"","type":"uint8","internalType":"uint8"}],"stateMutability":"view"},{"type":"function","name":"flashLoan","inputs":[{"name":"urzAmount","type":"uint256","internalType":"uint256"}],"outputs":[],"stateMutability":"nonpayable"},{"type":"function","name":"mint","inputs":[{"name":"to","type":"address","internalType":"address"},{"name":"amount","type":"uint256","internalType":"uint256"}],"outputs":[],"stateMutability":"nonpayable"},{"type":"function","name":"name","inputs":[],"outputs":[{"name":"","type":"string","internalType":"string"}],"stateMutability":"view"},{"type":"function","name":"owner","inputs":[],"outputs":[{"name":"","type":"address","internalType":"address"}],"stateMutability":"view"},{"type":"function","name":"pause","inputs":[],"outputs":[],"stateMutability":"nonpayable"},{"type":"function","name":"paused","inputs":[],"outputs":[{"name":"","type":"bool","internalType":"bool"}],"stateMutability":"view"},{"type":"function","name":"removeLiquidity","inputs":[{"name":"otherToken","type":"address","internalType":"address"},{"name":"lpTokens","type":"uint256","internalType":"uint256"}],"outputs":[],"stateMutability":"nonpayable"},{"type":"function","name":"renounceOwnership","inputs":[],"outputs":[],"stateMutability":"nonpayable"},{"type":"function","name":"swap","inputs":[{"name":"tokenOut","type":"address","internalType":"address"},{"name":"amountIn","type":"uint256","internalType":"uint256"}],"outputs":[{"name":"amountOut","type":"uint256","internalType":"uint256"}],"stateMutability":"nonpayable"},{"type":"function","name":"symbol","inputs":[],"outputs":[{"name":"","type":"string","internalType":"string"}],"stateMutability":"view"},{"type":"function","name":"totalSupply","inputs":[],"outputs":[{"name":"","type":"uint256","internalType":"uint256"}],"stateMutability":"view"},{"type":"function","name":"transfer","inputs":[{"name":"to","type":"address","internalType":"address"},{"name":"value","type":"uint256","internalType":"uint256"}],"outputs":[{"name":"","type":"bool","internalType":"bool"}],"stateMutability":"nonpayable"},{"type":"function","name":"transferFrom","inputs":[{"name":"from","type":"address","internalType":"address"},{"name":"to","type":"address","internalType":"address"},{"name":"value","type":"uint256","internalType":"uint256"}],"outputs":[{"name":"","type":"bool","internalType":"bool"}],"stateMutability":"nonpayable"},{"type":"function","name":"transferOwnership","inputs":[{"name":"newOwner","type":"address","internalType":"address"}],"outputs":[],"stateMutability":"nonpayable"},{"type":"function","name":"unpause","inputs":[],"outputs":[],"stateMutability":"nonpayable"},{"type":"function","name":"yieldFarm","inputs":[{"name":"urzAmount","type":"uint256","internalType":"uint256"}],"outputs":[{"name":"reward","type":"uint256","internalType":"uint256"}],"stateMutability":"nonpayable"},{"type":"event","name":"Approval","inputs":[{"name":"owner","type":"address","indexed":true,"internalType":"address"},{"name":"spender","type":"address","indexed":true,"internalType":"address"},{"name":"value","type":"uint256","indexed":false,"internalType":"uint256"}],"anonymous":false},{"type":"event","name":"Arbitrage","inputs":[{"name":"user","type":"address","indexed":true,"internalType":"address"},{"name":"profit","type":"uint256","indexed":false,"internalType":"uint256"}],"anonymous":false},{"type":"event","name":"FlashLoan","inputs":[{"name":"borrower","type":"address","indexed":true,"internalType":"address"},{"name":"urzAmount","type":"uint256","indexed":false,"internalType":"uint256"}],"anonymous":false},{"type":"event","name":"LiquidityAdded","inputs":[{"name":"provider","type":"address","indexed":true,"internalType":"address"},{"name":"urzAmount","type":"uint256","indexed":false,"internalType":"uint256"},{"name":"otherTokenAmount","type":"uint256","indexed":false,"internalType":"uint256"}],"anonymous":false},{"type":"event","name":"LiquidityRemoved","inputs":[{"name":"provider","type":"address","indexed":true,"internalType":"address"},{"name":"urzAmount","type":"uint256","indexed":false,"internalType":"uint256"},{"name":"otherTokenAmount","type":"uint256","indexed":false,"internalType":"uint256"}],"anonymous":false},{"type":"event","name":"OwnershipTransferred","inputs":[{"name":"previousOwner","type":"address","indexed":true,"internalType":"address"},{"name":"newOwner","type":"address","indexed":true,"internalType":"address"}],"anonymous":false},{"type":"event","name":"Paused","inputs":[{"name":"account","type":"address","indexed":false,"internalType":"address"}],"anonymous":false},{"type":"event","name":"Swap","inputs":[{"name":"user","type":"address","indexed":true,"internalType":"address"},{"name":"tokenIn","type":"address","indexed":false,"internalType":"address"},{"name":"tokenOut","type":"address","indexed":false,"internalType":"address"},{"name":"amountIn","type":"uint256","indexed":false,"internalType":"uint256"},{"name":"amountOut","type":"uint256","indexed":false,"internalType":"uint256"}],"anonymous":false},{"type":"event","name":"Transfer","inputs":[{"name":"from","type":"address","indexed":true,"internalType":"address"},{"name":"to","type":"address","indexed":true,"internalType":"address"},{"name":"value","type":"uint256","indexed":false,"internalType":"uint256"}],"anonymous":false},{"type":"event","name":"Unpaused","inputs":[{"name":"account","type":"address","indexed":false,"internalType":"address"}],"anonymous":false},{"type":"event","name":"YieldFarmed","inputs":[{"name":"user","type":"address","indexed":true,"internalType":"address"},{"name":"urzAmount","type":"uint256","indexed":false,"internalType":"uint256"},{"name":"reward","type":"uint256","indexed":false,"internalType":"uint256"}],"anonymous":false},{"type":"error","name":"ERC20InsufficientAllowance","inputs":[{"name":"spender","type":"address","internalType":"address"},{"name":"allowance","type":"uint256","internalType":"uint256"},{"name":"needed","type":"uint256","internalType":"uint256"}]},{"type":"error","name":"ERC20InsufficientBalance","inputs":[{"name":"sender","type":"address","internalType":"address"},{"name":"balance","type":"uint256","internalType":"uint256"},{"name":"needed","type":"uint256","internalType":"uint256"}]},{"type":"error","name":"ERC20InvalidApprover","inputs":[{"name":"approver","type":"address","internalType":"address"}]},{"type":"error","name":"ERC20InvalidReceiver","inputs":[{"name":"receiver","type":"address","internalType":"address"}]},{"type":"error","name":"ERC20InvalidSender","inputs":[{"name":"sender","type":"address","internalType":"address"}]},{"type":"error","name":"ERC20InvalidSpender","inputs":[{"name":"spender","type":"address","internalType":"address"}]},{"type":"error","name":"EnforcedPause","inputs":[]},{"type":"error","name":"ExpectedPause","inputs":[]},{"type":"error","name":"OwnableInvalidOwner","inputs":[{"name":"owner","type":"address","internalType":"address"}]},{"type":"error","name":"OwnableUnauthorizedAccount","inputs":[{"name":"account","type":"address","internalType":"address"}]}],"bytecode":{"object":"0x608060405234801561000f575f5ffd5b50604051612c3a380380612c3a8339818101604052810190610031919061059e565b806040518060400160405280601181526020017f556c74726152656e747a20537461626c650000000000000000000000000000008152506040518060400160405280600381526020017f55525a000000000000000000000000000000000000000000000000000000000081525081600390816100ad9190610806565b5080600490816100bd9190610806565b5050505f73ffffffffffffffffffffffffffffffffffffffff168173ffffffffffffffffffffffffffffffffffffffff1603610130575f6040517f1e4fbdf700000000000000000000000000000000000000000000000000000000815260040161012791906108e4565b60405180910390fd5b61013f816101df60201b60201c565b505f73ffffffffffffffffffffffffffffffffffffffff168173ffffffffffffffffffffffffffffffffffffffff16036101ae576040517f08c379a00000000000000000000000000000000000000000000000000000000081526004016101a59061097d565b60405180910390fd5b6101d9336012600a6101c09190610b03565b620f42406101ce9190610b4d565b6102a260201b60201c565b50610c1e565b5f60055f9054906101000a900473ffffffffffffffffffffffffffffffffffffffff1690508160055f6101000a81548173ffffffffffffffffffffffffffffffffffffffff021916908373ffffffffffffffffffffffffffffffffffffffff1602179055508173ffffffffffffffffffffffffffffffffffffffff168173ffffffffffffffffffffffffffffffffffffffff167f8be0079c531659141344cd1fd0a4f28419497f9722a3daafe3b4186f6b6457e060405160405180910390a35050565b5f73ffffffffffffffffffffffffffffffffffffffff168273ffffffffffffffffffffffffffffffffffffffff1603610312575f6040517fec442f0500000000000000000000000000000000000000000000000000000000815260040161030991906108e4565b60405180910390fd5b6103235f838361032760201b60201c565b5050565b5f73ffffffffffffffffffffffffffffffffffffffff168373ffffffffffffffffffffffffffffffffffffffff1603610377578060025f82825461036b9190610b8e565b92505081905550610445565b5f5f5f8573ffffffffffffffffffffffffffffffffffffffff1673ffffffffffffffffffffffffffffffffffffffff1681526020019081526020015f2054905081811015610400578381836040517fe450d38c0000000000000000000000000000000000000000000000000000000081526004016103f793929190610bd0565b60405180910390fd5b8181035f5f8673ffffffffffffffffffffffffffffffffffffffff1673ffffffffffffffffffffffffffffffffffffffff1681526020019081526020015f2081905550505b5f73ffffffffffffffffffffffffffffffffffffffff168273ffffffffffffffffffffffffffffffffffffffff160361048c578060025f82825403925050819055506104d6565b805f5f8473ffffffffffffffffffffffffffffffffffffffff1673ffffffffffffffffffffffffffffffffffffffff1681526020019081526020015f205f82825401925050819055505b8173ffffffffffffffffffffffffffffffffffffffff168373ffffffffffffffffffffffffffffffffffffffff167fddf252ad1be2c89b69c2b068fc378daa952ba7f163c4a11628f55a4df523b3ef836040516105339190610c05565b60405180910390a3505050565b5f5ffd5b5f73ffffffffffffffffffffffffffffffffffffffff82169050919050565b5f61056d82610544565b9050919050565b61057d81610563565b8114610587575f5ffd5b50565b5f8151905061059881610574565b92915050565b5f602082840312156105b3576105b2610540565b5b5f6105c08482850161058a565b91505092915050565b5f81519050919050565b7f4e487b71000000000000000000000000000000000000000000000000000000005f52604160045260245ffd5b7f4e487b71000000000000000000000000000000000000000000000000000000005f52602260045260245ffd5b5f600282049050600182168061064457607f821691505b60208210810361065757610656610600565b5b50919050565b5f819050815f5260205f209050919050565b5f6020601f8301049050919050565b5f82821b905092915050565b5f600883026106b97fffffffffffffffffffffffffffffffffffffffffffffffffffffffffffffffff8261067e565b6106c3868361067e565b95508019841693508086168417925050509392505050565b5f819050919050565b5f819050919050565b5f6107076107026106fd846106db565b6106e4565b6106db565b9050919050565b5f819050919050565b610720836106ed565b61073461072c8261070e565b84845461068a565b825550505050565b5f5f905090565b61074b61073c565b610756818484610717565b505050565b5b818110156107795761076e5f82610743565b60018101905061075c565b5050565b601f8211156107be5761078f8161065d565b6107988461066f565b810160208510156107a7578190505b6107bb6107b38561066f565b83018261075b565b50505b505050565b5f82821c905092915050565b5f6107de5f19846008026107c3565b1980831691505092915050565b5f6107f683836107cf565b9150826002028217905092915050565b61080f826105c9565b67ffffffffffffffff811115610828576108276105d3565b5b610832825461062d565b61083d82828561077d565b5f60209050601f83116001811461086e575f841561085c578287015190505b61086685826107eb565b8655506108cd565b601f19841661087c8661065d565b5f5b828110156108a35784890151825560018201915060208501945060208101905061087e565b868310156108c057848901516108bc601f8916826107cf565b8355505b6001600288020188555050505b505050505050565b6108de81610563565b82525050565b5f6020820190506108f75f8301846108d5565b92915050565b5f82825260208201905092915050565b7f537461626c653a206f776e65722063616e6e6f74206265207a65726f206164645f8201527f7265737300000000000000000000000000000000000000000000000000000000602082015250565b5f6109676024836108fd565b91506109728261090d565b604082019050919050565b5f6020820190508181035f8301526109948161095b565b9050919050565b7f4e487b71000000000000000000000000000000000000000000000000000000005f52601160045260245ffd5b5f8160011c9050919050565b5f5f8291508390505b6001851115610a1d578086048111156109f9576109f861099b565b5b6001851615610a085780820291505b8081029050610a16856109c8565b94506109dd565b94509492505050565b5f82610a355760019050610af0565b81610a42575f9050610af0565b8160018114610a585760028114610a6257610a91565b6001915050610af0565b60ff841115610a7457610a7361099b565b5b8360020a915084821115610a8b57610a8a61099b565b5b50610af0565b5060208310610133831016604e8410600b8410161715610ac65782820a905083811115610ac157610ac061099b565b5b610af0565b610ad384848460016109d4565b92509050818404811115610aea57610ae961099b565b5b81810290505b9392505050565b5f60ff82169050919050565b5f610b0d826106db565b9150610b1883610af7565b9250610b457fffffffffffffffffffffffffffffffffffffffffffffffffffffffffffffffff8484610a26565b905092915050565b5f610b57826106db565b9150610b62836106db565b9250828202610b70816106db565b91508282048414831517610b8757610b8661099b565b5b5092915050565b5f610b98826106db565b9150610ba3836106db565b9250828201905080821115610bbb57610bba61099b565b5b92915050565b610bca816106db565b82525050565b5f606082019050610be35f8301866108d5565b610bf06020830185610bc1565b610bfd6040830184610bc1565b949350505050565b5f602082019050610c185f830184610bc1565b92915050565b61200f80610c2b5f395ff3fe60806040526004361061014e575f3560e01c8063715018a6116100b5578063a201ccf61161006e578063a201ccf61461048a578063a9059cbb146104b2578063b09de2f9146104ee578063d004f0f71461052a578063dd62ed3e14610566578063f2fde38b146105a25761018e565b8063715018a6146103ba5780638456cb59146103d05780638da5cb5b146103e657806395d89b41146104105780639ab603b91461043a5780639dc29fac146104625761018e565b80633f4ba83a116101075780633f4ba83a146102b257806340c10f19146102c857806355776b77146102f05780635c975abb1461031857806369dd4bf31461034257806370a082311461037e5761018e565b806306fdde0314610192578063095ea7b3146101bc57806318160ddd146101f857806323b872dd146102225780632ff2e9dc1461025e578063313ce567146102885761018e565b3661018e576040517f08c379a00000000000000000000000000000000000000000000000000000000081526004016101859061158b565b60405180910390fd5b5f5ffd5b34801561019d575f5ffd5b506101a66105ca565b6040516101b39190611609565b60405180910390f35b3480156101c7575f5ffd5b506101e260048036038101906101dd91906116ba565b61065a565b6040516101ef9190611712565b60405180910390f35b348015610203575f5ffd5b5061020c61067c565b604051610219919061173a565b60405180910390f35b34801561022d575f5ffd5b5061024860048036038101906102439190611753565b610685565b6040516102559190611712565b60405180910390f35b348015610269575f5ffd5b506102726106b3565b60405161027f919061173a565b60405180910390f35b348015610293575f5ffd5b5061029c6106d2565b6040516102a991906117be565b60405180910390f35b3480156102bd575f5ffd5b506102c66106da565b005b3480156102d3575f5ffd5b506102ee60048036038101906102e991906116ba565b6106ec565b005b3480156102fb575f5ffd5b50610316600480360381019061031191906117d7565b610778565b005b348015610323575f5ffd5b5061032c6107bb565b6040516103399190611712565b60405180910390f35b34801561034d575f5ffd5b5061036860048036038101906103639190611827565b6107d1565b604051610375919061173a565b60405180910390f35b348015610389575f5ffd5b506103a4600480360381019061039f9190611852565b610815565b6040516103b1919061173a565b60405180910390f35b3480156103c5575f5ffd5b506103ce61085a565b005b3480156103db575f5ffd5b506103e461086d565b005b3480156103f1575f5ffd5b506103fa61087f565b604051610407919061188c565b60405180910390f35b34801561041b575f5ffd5b506104246108a7565b6040516104319190611609565b60405180910390f35b348015610445575f5ffd5b50610460600480360381019061045b9190611827565b610937565b005b34801561046d575f5ffd5b50610488600480360381019061048391906116ba565b61097a565b005b348015610495575f5ffd5b506104b060048036038101906104ab91906116ba565b610a06565b005b3480156104bd575f5ffd5b506104d860048036038101906104d391906116ba565b610a49565b6040516104e59190611712565b60405180910390f35b3480156104f9575f5ffd5b50610514600480360381019061050f9190611753565b610a6b565b604051610521919061173a565b60405180910390f35b348015610535575f5ffd5b50610550600480360381019061054b91906116ba565b610aaf565b60405161055d919061173a565b60405180910390f35b348015610571575f5ffd5b5061058c600480360381019061058791906118a5565b610af3565b604051610599919061173a565b60405180910390f35b3480156105ad575f5ffd5b506105c860048036038101906105c39190611852565b610b75565b005b6060600380546105d990611910565b80601f016020809104026020016040519081016040528092919081815260200182805461060590611910565b80156106505780601f1061062757610100808354040283529160200191610650565b820191905f5260205f20905b81548152906001019060200180831161063357829003601f168201915b5050505050905090565b5f5f610664610bf9565b9050610671818585610c00565b600191505092915050565b5f600254905090565b5f5f61068f610bf9565b905061069c858285610c12565b6106a7858585610ca5565b60019150509392505050565b6012600a6106c19190611a9c565b620f42406106cf9190611ae6565b81565b5f6012905090565b6106e2610d95565b6106ea610e1c565b565b6106f4610d95565b6106fc610e7e565b5f73ffffffffffffffffffffffffffffffffffffffff168273ffffffffffffffffffffffffffffffffffffffff160361076a576040517f08c379a000000000000000000000000000000000000000000000000000000000815260040161076190611b97565b60405180910390fd5b6107748282610ebf565b5050565b610780610e7e565b6040517f08c379a00000000000000000000000000000000000000000000000000000000081526004016107b290611c25565b60405180910390fd5b5f600560149054906101000a900460ff16905090565b5f6107da610e7e565b6040517f08c379a000000000000000000000000000000000000000000000000000000000815260040161080c90611cb3565b60405180910390fd5b5f5f5f8373ffffffffffffffffffffffffffffffffffffffff1673ffffffffffffffffffffffffffffffffffffffff1681526020019081526020015f20549050919050565b610862610d95565b61086b5f610f3e565b565b610875610d95565b61087d611001565b565b5f60055f9054906101000a900473ffffffffffffffffffffffffffffffffffffffff16905090565b6060600480546108b690611910565b80601f01602080910402602001604051908101604052809291908181526020018280546108e290611910565b801561092d5780601f106109045761010080835404028352916020019161092d565b820191905f5260205f20905b81548152906001019060200180831161091057829003601f168201915b5050505050905090565b61093f610e7e565b6040517f08c379a000000000000000000000000000000000000000000000000000000000815260040161097190611d41565b60405180910390fd5b610982610d95565b61098a610e7e565b5f73ffffffffffffffffffffffffffffffffffffffff168273ffffffffffffffffffffffffffffffffffffffff16036109f8576040517f08c379a00000000000000000000000000000000000000000000000000000000081526004016109ef90611dcf565b60405180910390fd5b610a028282611064565b5050565b610a0e610e7e565b6040517f08c379a0000000000000000000000000000000000000000000000000000000008152600401610a4090611e5d565b60405180910390fd5b5f5f610a53610bf9565b9050610a60818585610ca5565b600191505092915050565b5f610a74610e7e565b6040517f08c379a0000000000000000000000000000000000000000000000000000000008152600401610aa690611eeb565b60405180910390fd5b5f610ab8610e7e565b6040517f08c379a0000000000000000000000000000000000000000000000000000000008152600401610aea90611f53565b60405180910390fd5b5f60015f8473ffffffffffffffffffffffffffffffffffffffff1673ffffffffffffffffffffffffffffffffffffffff1681526020019081526020015f205f8373ffffffffffffffffffffffffffffffffffffffff1673ffffffffffffffffffffffffffffffffffffffff1681526020019081526020015f2054905092915050565b610b7d610d95565b5f73ffffffffffffffffffffffffffffffffffffffff168173ffffffffffffffffffffffffffffffffffffffff1603610bed575f6040517f1e4fbdf7000000000000000000000000000000000000000000000000000000008152600401610be4919061188c565b60405180910390fd5b610bf681610f3e565b50565b5f33905090565b610c0d83838360016110e3565b505050565b5f610c1d8484610af3565b90507fffffffffffffffffffffffffffffffffffffffffffffffffffffffffffffffff811015610c9f5781811015610c90578281836040517ffb8f41b2000000000000000000000000000000000000000000000000000000008152600401610c8793929190611f71565b60405180910390fd5b610c9e84848484035f6110e3565b5b50505050565b5f73ffffffffffffffffffffffffffffffffffffffff168373ffffffffffffffffffffffffffffffffffffffff1603610d15575f6040517f96c6fd1e000000000000000000000000000000000000000000000000000000008152600401610d0c919061188c565b60405180910390fd5b5f73ffffffffffffffffffffffffffffffffffffffff168273ffffffffffffffffffffffffffffffffffffffff1603610d85575f6040517fec442f05000000000000000000000000000000000000000000000000000000008152600401610d7c919061188c565b60405180910390fd5b610d908383836112b2565b505050565b610d9d610bf9565b73ffffffffffffffffffffffffffffffffffffffff16610dbb61087f565b73ffffffffffffffffffffffffffffffffffffffff1614610e1a57610dde610bf9565b6040517f118cdaa7000000000000000000000000000000000000000000000000000000008152600401610e11919061188c565b60405180910390fd5b565b610e246114cb565b5f600560146101000a81548160ff0219169083151502179055507f5db9ee0a495bf2e6ff9c91a7834c1ba4fdd244a5e8aa4e537bd38aeae4b073aa610e67610bf9565b604051610e74919061188c565b60405180910390a1565b610e866107bb565b15610ebd576040517fd93c066500000000000000000000000000000000000000000000000000000000815260040160405180910390fd5b565b5f73ffffffffffffffffffffffffffffffffffffffff168273ffffffffffffffffffffffffffffffffffffffff1603610f2f575f6040517fec442f05000000000000000000000000000000000000000000000000000000008152600401610f26919061188c565b60405180910390fd5b610f3a5f83836112b2565b5050565b5f60055f9054906101000a900473ffffffffffffffffffffffffffffffffffffffff1690508160055f6101000a81548173ffffffffffffffffffffffffffffffffffffffff021916908373ffffffffffffffffffffffffffffffffffffffff1602179055508173ffffffffffffffffffffffffffffffffffffffff168173ffffffffffffffffffffffffffffffffffffffff167f8be0079c531659141344cd1fd0a4f28419497f9722a3daafe3b4186f6b6457e060405160405180910390a35050565b611009610e7e565b6001600560146101000a81548160ff0219169083151502179055507f62e78cea01bee320cd4e420270b5ea74000d11b0c9f74754ebdbfc544b05a25861104d610bf9565b60405161105a919061188c565b60405180910390a1565b5f73ffffffffffffffffffffffffffffffffffffffff168273ffffffffffffffffffffffffffffffffffffffff16036110d4575f6040517f96c6fd1e0000000000000000000000000000000000000000000000000000000081526004016110cb919061188c565b60405180910390fd5b6110df825f836112b2565b5050565b5f73ffffffffffffffffffffffffffffffffffffffff168473ffffffffffffffffffffffffffffffffffffffff1603611153575f6040517fe602df0500000000000000000000000000000000000000000000000000000000815260040161114a919061188c565b60405180910390fd5b5f73ffffffffffffffffffffffffffffffffffffffff168373ffffffffffffffffffffffffffffffffffffffff16036111c3575f6040517f94280d620000000000000000000000000000000000000000000000000000000081526004016111ba919061188c565b60405180910390fd5b8160015f8673ffffffffffffffffffffffffffffffffffffffff1673ffffffffffffffffffffffffffffffffffffffff1681526020019081526020015f205f8573ffffffffffffffffffffffffffffffffffffffff1673ffffffffffffffffffffffffffffffffffffffff1681526020019081526020015f208190555080156112ac578273ffffffffffffffffffffffffffffffffffffffff168473ffffffffffffffffffffffffffffffffffffffff167f8c5be1e5ebec7d5bd14f71427d1e84f3dd0314c0f7b2291e5b200ac8c7c3b925846040516112a3919061173a565b60405180910390a35b50505050565b5f73ffffffffffffffffffffffffffffffffffffffff168373ffffffffffffffffffffffffffffffffffffffff1603611302578060025f8282546112f69190611fa6565b925050819055506113d0565b5f5f5f8573ffffffffffffffffffffffffffffffffffffffff1673ffffffffffffffffffffffffffffffffffffffff1681526020019081526020015f205490508181101561138b578381836040517fe450d38c00000000000000000000000000000000000000000000000000000000815260040161138293929190611f71565b60405180910390fd5b8181035f5f8673ffffffffffffffffffffffffffffffffffffffff1673ffffffffffffffffffffffffffffffffffffffff1681526020019081526020015f2081905550505b5f73ffffffffffffffffffffffffffffffffffffffff168273ffffffffffffffffffffffffffffffffffffffff1603611417578060025f8282540392505081905550611461565b805f5f8473ffffffffffffffffffffffffffffffffffffffff1673ffffffffffffffffffffffffffffffffffffffff1681526020019081526020015f205f82825401925050819055505b8173ffffffffffffffffffffffffffffffffffffffff168373ffffffffffffffffffffffffffffffffffffffff167fddf252ad1be2c89b69c2b068fc378daa952ba7f163c4a11628f55a4df523b3ef836040516114be919061173a565b60405180910390a3505050565b6114d36107bb565b611509576040517f8dfc202b00000000000000000000000000000000000000000000000000000000815260040160405180910390fd5b565b5f82825260208201905092915050565b7f556c74726152656e747a537461626c6520646f6573206e6f74206163636570745f8201527f2045746865720000000000000000000000000000000000000000000000000000602082015250565b5f61157560268361150b565b91506115808261151b565b604082019050919050565b5f6020820190508181035f8301526115a281611569565b9050919050565b5f81519050919050565b8281835e5f83830152505050565b5f601f19601f8301169050919050565b5f6115db826115a9565b6115e5818561150b565b93506115f58185602086016115b3565b6115fe816115c1565b840191505092915050565b5f6020820190508181035f83015261162181846115d1565b905092915050565b5f5ffd5b5f73ffffffffffffffffffffffffffffffffffffffff82169050919050565b5f6116568261162d565b9050919050565b6116668161164c565b8114611670575f5ffd5b50565b5f813590506116818161165d565b92915050565b5f819050919050565b61169981611687565b81146116a3575f5ffd5b50565b5f813590506116b481611690565b92915050565b5f5f604083850312156116d0576116cf611629565b5b5f6116dd85828601611673565b92505060206116ee858286016116a6565b9150509250929050565b5f8115159050919050565b61170c816116f8565b82525050565b5f6020820190506117255f830184611703565b92915050565b61173481611687565b82525050565b5f60208201905061174d5f83018461172b565b92915050565b5f5f5f6060848603121561176a57611769611629565b5b5f61177786828701611673565b935050602061178886828701611673565b9250506040611799868287016116a6565b9150509250925092565b5f60ff82169050919050565b6117b8816117a3565b82525050565b5f6020820190506117d15f8301846117af565b92915050565b5f5f5f606084860312156117ee576117ed611629565b5b5f6117fb86828701611673565b935050602061180c868287016116a6565b925050604061181d868287016116a6565b9150509250925092565b5f6020828403121561183c5761183b611629565b5b5f611849848285016116a6565b91505092915050565b5f6020828403121561186757611866611629565b5b5f61187484828501611673565b91505092915050565b6118868161164c565b82525050565b5f60208201905061189f5f83018461187d565b92915050565b5f5f604083850312156118bb576118ba611629565b5b5f6118c885828601611673565b92505060206118d985828601611673565b9150509250929050565b7f4e487b71000000000000000000000000000000000000000000000000000000005f52602260045260245ffd5b5f600282049050600182168061192757607f821691505b60208210810361193a576119396118e3565b5b50919050565b7f4e487b71000000000000000000000000000000000000000000000000000000005f52601160045260245ffd5b5f8160011c9050919050565b5f5f8291508390505b60018511156119c25780860481111561199e5761199d611940565b5b60018516156119ad5780820291505b80810290506119bb8561196d565b9450611982565b94509492505050565b5f826119da5760019050611a95565b816119e7575f9050611a95565b81600181146119fd5760028114611a0757611a36565b6001915050611a95565b60ff841115611a1957611a18611940565b5b8360020a915084821115611a3057611a2f611940565b5b50611a95565b5060208310610133831016604e8410600b8410161715611a6b5782820a905083811115611a6657611a65611940565b5b611a95565b611a788484846001611979565b92509050818404811115611a8f57611a8e611940565b5b81810290505b9392505050565b5f611aa682611687565b9150611ab1836117a3565b9250611ade7fffffffffffffffffffffffffffffffffffffffffffffffffffffffffffffffff84846119cb565b905092915050565b5f611af082611687565b9150611afb83611687565b9250828202611b0981611687565b91508282048414831517611b2057611b1f611940565b5b5092915050565b7f537461626c653a2063616e6e6f74206d696e7420746f207a65726f20616464725f8201527f6573730000000000000000000000000000000000000000000000000000000000602082015250565b5f611b8160238361150b565b9150611b8c82611b27565b604082019050919050565b5f6020820190508181035f830152611bae81611b75565b9050919050565b7f537461626c653a20416464206c6971756964697479206e6f7420696d706c656d5f8201527f656e746564000000000000000000000000000000000000000000000000000000602082015250565b5f611c0f60258361150b565b9150611c1a82611bb5565b604082019050919050565b5f6020820190508181035f830152611c3c81611c03565b9050919050565b7f537461626c653a205969656c64206661726d696e67206e6f7420696d706c656d5f8201527f656e746564000000000000000000000000000000000000000000000000000000602082015250565b5f611c9d60258361150b565b9150611ca882611c43565b604082019050919050565b5f6020820190508181035f830152611cca81611c91565b9050919050565b7f537461626c653a20466c617368206c6f616e206e6f7420696d706c656d656e745f8201527f6564000000000000000000000000000000000000000000000000000000000000602082015250565b5f611d2b60228361150b565b9150611d3682611cd1565b604082019050919050565b5f6020820190508181035f830152611d5881611d1f565b9050919050565b7f537461626c653a2063616e6e6f74206275726e2066726f6d207a65726f2061645f8201527f6472657373000000000000000000000000000000000000000000000000000000602082015250565b5f611db960258361150b565b9150611dc482611d5f565b604082019050919050565b5f6020820190508181035f830152611de681611dad565b9050919050565b7f537461626c653a2052656d6f7665206c6971756964697479206e6f7420696d705f8201527f6c656d656e746564000000000000000000000000000000000000000000000000602082015250565b5f611e4760288361150b565b9150611e5282611ded565b604082019050919050565b5f6020820190508181035f830152611e7481611e3b565b9050919050565b7f537461626c653a20417262697472616765206e6f7420696d706c656d656e74655f8201527f6400000000000000000000000000000000000000000000000000000000000000602082015250565b5f611ed560218361150b565b9150611ee082611e7b565b604082019050919050565b5f6020820190508181035f830152611f0281611ec9565b9050919050565b7f537461626c653a2053776170206e6f7420696d706c656d656e746564000000005f82015250565b5f611f3d601c8361150b565b9150611f4882611f09565b602082019050919050565b5f6020820190508181035f830152611f6a81611f31565b9050919050565b5f606082019050611f845f83018661187d565b611f91602083018561172b565b611f9e604083018461172b565b949350505050565b5f611fb082611687565b9150611fbb83611687565b9250828201905080821115611fd357611fd2611940565b5b9291505056fea2646970667358221220a0d227966bcaa8fa0e07384e96c3449111cd1b79303e8218882e710b7fc37e4664736f6c634300081e0033","linkReferences":{}},"methodIdentifiers":{"INITIAL_SUPPLY()":"2ff2e9dc","addLiquidity(address,uint256,uint256)":"55776b77","allowance(address,address)":"dd62ed3e","approve(address,uint256)":"095ea7b3","arbitrage(address,address,uint256)":"b09de2f9","balanceOf(address)":"70a08231","burn(address,uint256)":"9dc29fac","decimals()":"313ce567","flashLoan(uint256)":"9ab603b9","mint(address,uint256)":"40c10f19","name()":"06fdde03","owner()":"8da5cb5b","pause()":"8456cb59","paused()":"5c975abb","removeLiquidity(address,uint256)":"a201ccf6","renounceOwnership()":"715018a6","swap(address,uint256)":"d004f0f7","symbol()":"95d89b41","totalSupply()":"18160ddd","transfer(address,uint256)":"a9059cbb","transferFrom(address,address,uint256)":"23b872dd","transferOwnership(address)":"f2fde38b","unpause()":"3f4ba83a","yieldFarm(uint256)":"69dd4bf3"},"id":40}