{"abi":[{"type":"constructor","inputs":[{"name":"initialOwner","type":"address","internalType":"address"}],"stateMutability":"nonpayable"},{"type":"receive","stateMutability":"payable"},{"type":"function","name":"INITIAL_SUPPLY","inputs":[],"outputs":[{"name":"","type":"uint256","internalType":"uint256"}],"stateMutability":"view"},{"type":"function","name":"addLiquidity","inputs":[{"name":"otherToken","type":"address","internalType":"address"},{"name":"urzAmount","type":"uint256","internalType":"uint256"},{"name":"otherTokenAmount","type":"uint256","internalType":"uint256"}],"outputs":[],"stateMutability":"nonpayable"},{"type":"function","name":"allowance","inputs":[{"name":"owner","type":"address","internalType":"address"},{"name":"spender","type":"address","internalType":"address"}],"outputs":[{"name":"","type":"uint256","internalType":"uint256"}],"stateMutability":"view"},{"type":"function","name":"approve","inputs":[{"name":"spender","type":"address","internalType":"address"},{"name":"value","type":"uint256","internalType":"uint256"}],"outputs":[{"name":"","type":"bool","internalType":"bool"}],"stateMutability":"nonpayable"},{"type":"function","name":"arbitrage","inputs":[{"name":"tokenA","type":"address","internalType":"address"},{"name":"tokenB","type":"address","internalType":"address"},{"name":"amount","type":"uint256","internalType":"uint256"}],"outputs":[{"name":"profit","type":"uint256","internalType":"uint256"}],"stateMutability":"nonpayable"},{"type":"function","name":"balanceOf","inputs":[{"name":"account","type":"address","internalType":"address"}],"outputs":[{"name":"","type":"uint256","internalType":"uint256"}],"stateMutability":"view"},{"type":"function","name":"burn","inputs":[{"name":"from","type":"address","internalType":"address"},{"name":"amount","type":"uint256","internalType":"uint256"}],"outputs":[],"stateMutability":"nonpayable"},{"type":"function","name":"decimals","inputs":[],"outputs":[{"name":"","type":"uint8","internalType":"uint8"}],"stateMutability":"view"},{"type":"function","name":"flashLoan","inputs":[{"name":"urzAmount","type":"uint256","internalType":"uint256"}],"outputs":[],"stateMutability":"nonpayable"},{"type":"function","name":"mint","inputs":[{"name":"to","type":"address","internalType":"address"},{"name":"amount","type":"uint256","internalType":"uint256"}],"outputs":[],"stateMutability":"nonpayable"},{"type":"function","name":"name","inputs":[],"outputs":[{"name":"","type":"string","internalType":"string"}],"stateMutability":"view"},{"type":"function","name":"owner","inputs":[],"outputs":[{"name":"","type":"address","internalType":"address"}],"stateMutability":"view"},{"type":"function","name":"pause","inputs":[],"outputs":[],"stateMutability":"nonpayable"},{"type":"function","name":"paused","inputs":[],"outputs":[{"name":"","type":"bool","internalType":"bool"}],"stateMutability":"view"},{"type":"function","name":"removeLiquidity","inputs":[{"name":"otherToken","type":"address","internalType":"address"},{"name":"lpTokens","type":"uint256","internalType":"uint256"}],"outputs":[],"stateMutability":"nonpayable"},{"type":"function","name":"renounceOwnership","inputs":[],"outputs":[],"stateMutability":"nonpayable"},{"type":"function","name":"swap","inputs":[{"name":"tokenOut","type":"address","internalType":"address"},{"name":"amountIn","type":"uint256","internalType":"uint256"}],"outputs":[{"name":"amountOut","type":"uint256","internalType":"uint256"}],"stateMutability":"nonpayable"},{"type":"function","name":"symbol","inputs":[],"outputs":[{"name":"","type":"string","internalType":"string"}],"stateMutability":"view"},{"type":"function","name":"totalSupply","inputs":[],"outputs":[{"name":"","type":"uint256","internalType":"uint256"}],"stateMutability":"view"},{"type":"function","name":"transfer","inputs":[{"name":"to","type":"address","internalType":"address"},{"name":"value","type":"uint256","internalType":"uint256"}],"outputs":[{"name":"","type":"bool","internalType":"bool"}],"stateMutability":"nonpayable"},{"type":"function","name":"transferFrom","inputs":[{"name":"from","type":"address","internalType":"address"},{"name":"to","type":"address","internalType":"address"},{"name":"value","type":"uint256","internalType":"uint256"}],"outputs":[{"name":"","type":"bool","internalType":"bool"}],"stateMutability":"nonpayable"},{"type":"function","name":"transferOwnership","inputs":[{"name":"newOwner","type":"address","internalType":"address"}],"outputs":[],"stateMutability":"nonpayable"},{"type":"function","name":"unpause","inputs":[],"outputs":[],"stateMutability":"nonpayable"},{"type":"function","name":"withdrawEther","inputs":[{"name":"to","type":"address","internalType":"address payable"}],"outputs":[],"stateMutability":"nonpayable"},{"type":"function","name":"yieldFarm","inputs":[{"name":"urzAmount","type":"uint256","internalType":"uint256"}],"outputs":[{"name":"reward","type":"uint256","internalType":"uint256"}],"stateMutability":"nonpayable"},{"type":"event","name":"Approval","inputs":[{"name":"owner","type":"address","indexed":true,"internalType":"address"},{"name":"spender","type":"address","indexed":true,"internalType":"address"},{"name":"value","type":"uint256","indexed":false,"internalType":"uint256"}],"anonymous":false},{"type":"event","name":"Arbitrage","inputs":[{"name":"user","type":"address","indexed":true,"internalType":"address"},{"name":"profit","type":"uint256","indexed":false,"internalType":"uint256"}],"anonymous":false},{"type":"event","name":"FlashLoan","inputs":[{"name":"borrower","type":"address","indexed":true,"internalType":"address"},{"name":"urzAmount","type":"uint256","indexed":false,"internalType":"uint256"}],"anonymous":false},{"type":"event","name":"LiquidityAdded","inputs":[{"name":"provider","type":"address","indexed":true,"internalType":"address"},{"name":"urzAmount","type":"uint256","indexed":false,"internalType":"uint256"},{"name":"otherTokenAmount","type":"uint256","indexed":false,"internalType":"uint256"}],"anonymous":false},{"type":"event","name":"LiquidityRemoved","inputs":[{"name":"provider","type":"address","indexed":true,"internalType":"address"},{"name":"urzAmount","type":"uint256","indexed":false,"internalType":"uint256"},{"name":"otherTokenAmount","type":"uint256","indexed":false,"internalType":"uint256"}],"anonymous":false},{"type":"event","name":"OwnershipTransferred","inputs":[{"name":"previousOwner","type":"address","indexed":true,"internalType":"address"},{"name":"newOwner","type":"address","indexed":true,"internalType":"address"}],"anonymous":false},{"type":"event","name":"Paused","inputs":[{"name":"account","type":"address","indexed":false,"internalType":"address"}],"anonymous":false},{"type":"event","name":"Swap","inputs":[{"name":"user","type":"address","indexed":true,"internalType":"address"},{"name":"tokenIn","type":"address","indexed":false,"internalType":"address"},{"name":"tokenOut","type":"address","indexed":false,"internalType":"address"},{"name":"amountIn","type":"uint256","indexed":false,"internalType":"uint256"},{"name":"amountOut","type":"uint256","indexed":false,"internalType":"uint256"}],"anonymous":false},{"type":"event","name":"Transfer","inputs":[{"name":"from","type":"address","indexed":true,"internalType":"address"},{"name":"to","type":"address","indexed":true,"internalType":"address"},{"name":"value","type":"uint256","indexed":false,"internalType":"uint256"}],"anonymous":false},{"type":"event","name":"Unpaused","inputs":[{"name":"account","type":"address","indexed":false,"internalType":"address"}],"anonymous":false},{"type":"event","name":"YieldFarmed","inputs":[{"name":"user","type":"address","indexed":true,"internalType":"address"},{"name":"urzAmount","type":"uint256","indexed":false,"internalType":"uint256"},{"name":"reward","type":"uint256","indexed":false,"internalType":"uint256"}],"anonymous":false},{"type":"error","name":"ERC20InsufficientAllowance","inputs":[{"name":"spender","type":"address","internalType":"address"},{"name":"allowance","type":"uint256","internalType":"uint256"},{"name":"needed","type":"uint256","internalType":"uint256"}]},{"type":"error","name":"ERC20InsufficientBalance","inputs":[{"name":"sender","type":"address","internalType":"address"},{"name":"balance","type":"uint256","internalType":"uint256"},{"name":"needed","type":"uint256","internalType":"uint256"}]},{"type":"error","name":"ERC20InvalidApprover","inputs":[{"name":"approver","type":"address","internalType":"address"}]},{"type":"error","name":"ERC20InvalidReceiver","inputs":[{"name":"receiver","type":"address","internalType":"address"}]},{"type":"error","name":"ERC20InvalidSender","inputs":[{"name":"sender","type":"address","internalType":"address"}]},{"type":"error","name":"ERC20InvalidSpender","inputs":[{"name":"spender","type":"address","internalType":"address"}]},{"type":"error","name":"EnforcedPause","inputs":[]},{"type":"error","name":"ExpectedPause","inputs":[]},{"type":"error","name":"OwnableInvalidOwner","inputs":[{"name":"owner","type":"address","internalType":"address"}]},{"type":"error","name":"OwnableUnauthorizedAccount","inputs":[{"name":"account","type":"address","internalType":"address"}]}],"bytecode":{"object":"0x608060405234801561000f575f5ffd5b50604051612e19380380612e198339818101604052810190610031919061059e565b806040518060400160405280601181526020017f556c74726152656e747a20537461626c650000000000000000000000000000008152506040518060400160405280600381526020017f55525a000000000000000000000000000000000000000000000000000000000081525081600390816100ad9190610817565b5080600490816100bd9190610817565b5050505f73ffffffffffffffffffffffffffffffffffffffff168173ffffffffffffffffffffffffffffffffffffffff1603610130575f6040517f1e4fbdf700000000000000000000000000000000000000000000000000000000815260040161012791906108f5565b60405180910390fd5b61013f816101df60201b60201c565b505f73ffffffffffffffffffffffffffffffffffffffff168173ffffffffffffffffffffffffffffffffffffffff16036101ae576040517f08c379a00000000000000000000000000000000000000000000000000000000081526004016101a59061098e565b60405180910390fd5b6101d9336012600a6101c09190610b14565b620f42406101ce9190610b5e565b6102a260201b60201c565b50610c2f565b5f60055f9054906101000a900473ffffffffffffffffffffffffffffffffffffffff1690508160055f6101000a81548173ffffffffffffffffffffffffffffffffffffffff021916908373ffffffffffffffffffffffffffffffffffffffff1602179055508173ffffffffffffffffffffffffffffffffffffffff168173ffffffffffffffffffffffffffffffffffffffff167f8be0079c531659141344cd1fd0a4f28419497f9722a3daafe3b4186f6b6457e060405160405180910390a35050565b5f73ffffffffffffffffffffffffffffffffffffffff168273ffffffffffffffffffffffffffffffffffffffff1603610312575f6040517fec442f0500000000000000000000000000000000000000000000000000000000815260040161030991906108f5565b60405180910390fd5b6103235f838361032760201b60201c565b5050565b5f73ffffffffffffffffffffffffffffffffffffffff168373ffffffffffffffffffffffffffffffffffffffff1603610377578060025f82825461036b9190610b9f565b92505081905550610445565b5f5f5f8573ffffffffffffffffffffffffffffffffffffffff1673ffffffffffffffffffffffffffffffffffffffff1681526020019081526020015f2054905081811015610400578381836040517fe450d38c0000000000000000000000000000000000000000000000000000000081526004016103f793929190610be1565b60405180910390fd5b8181035f5f8673ffffffffffffffffffffffffffffffffffffffff1673ffffffffffffffffffffffffffffffffffffffff1681526020019081526020015f2081905550505b5f73ffffffffffffffffffffffffffffffffffffffff168273ffffffffffffffffffffffffffffffffffffffff160361048c578060025f82825403925050819055506104d6565b805f5f8473ffffffffffffffffffffffffffffffffffffffff1673ffffffffffffffffffffffffffffffffffffffff1681526020019081526020015f205f82825401925050819055505b8173ffffffffffffffffffffffffffffffffffffffff168373ffffffffffffffffffffffffffffffffffffffff167fddf252ad1be2c89b69c2b068fc378daa952ba7f163c4a11628f55a4df523b3ef836040516105339190610c16565b60405180910390a3505050565b5f5ffd5b5f73ffffffffffffffffffffffffffffffffffffffff82169050919050565b5f61056d82610544565b9050919050565b61057d81610563565b8114610587575f5ffd5b50565b5f8151905061059881610574565b92915050565b5f602082840312156105b3576105b2610540565b5b5f6105c08482850161058a565b91505092915050565b5f81519050919050565b7f4e487b71000000000000000000000000000000000000000000000000000000005f52604160045260245ffd5b7f4e487b71000000000000000000000000000000000000000000000000000000005f52602260045260245ffd5b5f600282049050600182168061064457607f821691505b60208210810361065757610656610600565b5b50919050565b5f819050815f5260205f209050919050565b5f6020601f8301049050919050565b5f82821b905092915050565b5f600883026106b97fffffffffffffffffffffffffffffffffffffffffffffffffffffffffffffffff8261067e565b6106c3868361067e565b95508019841693508086168417925050509392505050565b5f819050919050565b5f819050919050565b5f6107076107026106fd846106db565b6106e4565b6106db565b9050919050565b5f819050919050565b610720836106ed565b61073461072c8261070e565b84845461068a565b825550505050565b5f5f905090565b61074b61073c565b610756818484610717565b505050565b5f5b8281101561077c576107715f828401610743565b60018101905061075d565b505050565b601f8211156107cf57828211156107ce5761079b8161065d565b6107a48361066f565b6107ad8561066f565b60208610156107ba575f90505b8083016107c98284038261075b565b505050505b5b505050565b5f82821c905092915050565b5f6107ef5f19846008026107d4565b1980831691505092915050565b5f61080783836107e0565b9150826002028217905092915050565b610820826105c9565b67ffffffffffffffff811115610839576108386105d3565b5b610843825461062d565b61084e828285610781565b5f60209050601f83116001811461087f575f841561086d578287015190505b61087785826107fc565b8655506108de565b601f19841661088d8661065d565b5f5b828110156108b45784890151825560018201915060208501945060208101905061088f565b868310156108d157848901516108cd601f8916826107e0565b8355505b6001600288020188555050505b505050505050565b6108ef81610563565b82525050565b5f6020820190506109085f8301846108e6565b92915050565b5f82825260208201905092915050565b7f537461626c653a206f776e65722063616e6e6f74206265207a65726f206164645f8201527f7265737300000000000000000000000000000000000000000000000000000000602082015250565b5f61097860248361090e565b91506109838261091e565b604082019050919050565b5f6020820190508181035f8301526109a58161096c565b9050919050565b7f4e487b71000000000000000000000000000000000000000000000000000000005f52601160045260245ffd5b5f8160011c9050919050565b5f5f8291508390505b6001851115610a2e57808604811115610a0a57610a096109ac565b5b6001851615610a195780820291505b8081029050610a27856109d9565b94506109ee565b94509492505050565b5f82610a465760019050610b01565b81610a53575f9050610b01565b8160018114610a695760028114610a7357610aa2565b6001915050610b01565b60ff841115610a8557610a846109ac565b5b8360020a915084821115610a9c57610a9b6109ac565b5b50610b01565b5060208310610133831016604e8410600b8410161715610ad75782820a905083811115610ad257610ad16109ac565b5b610b01565b610ae484848460016109e5565b92509050818404811115610afb57610afa6109ac565b5b81810290505b9392505050565b5f60ff82169050919050565b5f610b1e826106db565b9150610b2983610b08565b9250610b567fffffffffffffffffffffffffffffffffffffffffffffffffffffffffffffffff8484610a37565b905092915050565b5f610b68826106db565b9150610b73836106db565b9250828202610b81816106db565b91508282048414831517610b9857610b976109ac565b5b5092915050565b5f610ba9826106db565b9150610bb4836106db565b9250828201905080821115610bcc57610bcb6109ac565b5b92915050565b610bdb816106db565b82525050565b5f606082019050610bf45f8301866108e6565b610c016020830185610bd2565b610c0e6040830184610bd2565b949350505050565b5f602082019050610c295f830184610bd2565b92915050565b6121dd80610c3c5f395ff3fe608060405260043610610169575f3560e01c8063715018a6116100d0578063a201ccf611610089578063b09de2f911610063578063b09de2f914610531578063d004f0f71461056d578063dd62ed3e146105a9578063f2fde38b146105e5576101a9565b8063a201ccf6146104a5578063a9059cbb146104cd578063af933b5714610509576101a9565b8063715018a6146103d55780638456cb59146103eb5780638da5cb5b1461040157806395d89b411461042b5780639ab603b9146104555780639dc29fac1461047d576101a9565b80633f4ba83a116101225780633f4ba83a146102cd57806340c10f19146102e357806355776b771461030b5780635c975abb1461033357806369dd4bf31461035d57806370a0823114610399576101a9565b806306fdde03146101ad578063095ea7b3146101d757806318160ddd1461021357806323b872dd1461023d5780632ff2e9dc14610279578063313ce567146102a3576101a9565b366101a9576040517f08c379a00000000000000000000000000000000000000000000000000000000081526004016101a09061168b565b60405180910390fd5b5f5ffd5b3480156101b8575f5ffd5b506101c161060d565b6040516101ce9190611709565b60405180910390f35b3480156101e2575f5ffd5b506101fd60048036038101906101f891906117ba565b61069d565b60405161020a9190611812565b60405180910390f35b34801561021e575f5ffd5b506102276106bf565b604051610234919061183a565b60405180910390f35b348015610248575f5ffd5b50610263600480360381019061025e9190611853565b6106c8565b6040516102709190611812565b60405180910390f35b348015610284575f5ffd5b5061028d6106f6565b60405161029a919061183a565b60405180910390f35b3480156102ae575f5ffd5b506102b7610715565b6040516102c491906118be565b60405180910390f35b3480156102d8575f5ffd5b506102e161071d565b005b3480156102ee575f5ffd5b50610309600480360381019061030491906117ba565b61072f565b005b348015610316575f5ffd5b50610331600480360381019061032c91906118d7565b6107bb565b005b34801561033e575f5ffd5b506103476107fe565b6040516103549190611812565b60405180910390f35b348015610368575f5ffd5b50610383600480360381019061037e9190611927565b610814565b604051610390919061183a565b60405180910390f35b3480156103a4575f5ffd5b506103bf60048036038101906103ba9190611952565b610858565b6040516103cc919061183a565b60405180910390f35b3480156103e0575f5ffd5b506103e961089d565b005b3480156103f6575f5ffd5b506103ff6108b0565b005b34801561040c575f5ffd5b506104156108c2565b604051610422919061198c565b60405180910390f35b348015610436575f5ffd5b5061043f6108ea565b60405161044c9190611709565b60405180910390f35b348015610460575f5ffd5b5061047b60048036038101906104769190611927565b61097a565b005b348015610488575f5ffd5b506104a3600480360381019061049e91906117ba565b6109bd565b005b3480156104b0575f5ffd5b506104cb60048036038101906104c691906117ba565b610a49565b005b3480156104d8575f5ffd5b506104f360048036038101906104ee91906117ba565b610a8c565b6040516105009190611812565b60405180910390f35b348015610514575f5ffd5b5061052f600480360381019061052a91906119e0565b610aae565b005b34801561053c575f5ffd5b5061055760048036038101906105529190611853565b610b6b565b604051610564919061183a565b60405180910390f35b348015610578575f5ffd5b50610593600480360381019061058e91906117ba565b610baf565b6040516105a0919061183a565b60405180910390f35b3480156105b4575f5ffd5b506105cf60048036038101906105ca9190611a0b565b610bf3565b6040516105dc919061183a565b60405180910390f35b3480156105f0575f5ffd5b5061060b60048036038101906106069190611952565b610c75565b005b60606003805461061c90611a76565b80601f016020809104026020016040519081016040528092919081815260200182805461064890611a76565b80156106935780601f1061066a57610100808354040283529160200191610693565b820191905f5260205f20905b81548152906001019060200180831161067657829003601f168201915b5050505050905090565b5f5f6106a7610cf9565b90506106b4818585610d00565b600191505092915050565b5f600254905090565b5f5f6106d2610cf9565b90506106df858285610d12565b6106ea858585610da5565b60019150509392505050565b6012600a6107049190611c02565b620f42406107129190611c4c565b81565b5f6012905090565b610725610e95565b61072d610f1c565b565b610737610e95565b61073f610f7e565b5f73ffffffffffffffffffffffffffffffffffffffff168273ffffffffffffffffffffffffffffffffffffffff16036107ad576040517f08c379a00000000000000000000000000000000000000000000000000000000081526004016107a490611cfd565b60405180910390fd5b6107b78282610fbf565b5050565b6107c3610f7e565b6040517f08c379a00000000000000000000000000000000000000000000000000000000081526004016107f590611d8b565b60405180910390fd5b5f600560149054906101000a900460ff16905090565b5f61081d610f7e565b6040517f08c379a000000000000000000000000000000000000000000000000000000000815260040161084f90611e19565b60405180910390fd5b5f5f5f8373ffffffffffffffffffffffffffffffffffffffff1673ffffffffffffffffffffffffffffffffffffffff1681526020019081526020015f20549050919050565b6108a5610e95565b6108ae5f61103e565b565b6108b8610e95565b6108c0611101565b565b5f60055f9054906101000a900473ffffffffffffffffffffffffffffffffffffffff16905090565b6060600480546108f990611a76565b80601f016020809104026020016040519081016040528092919081815260200182805461092590611a76565b80156109705780601f1061094757610100808354040283529160200191610970565b820191905f5260205f20905b81548152906001019060200180831161095357829003601f168201915b5050505050905090565b610982610f7e565b6040517f08c379a00000000000000000000000000000000000000000000000000000000081526004016109b490611ea7565b60405180910390fd5b6109c5610e95565b6109cd610f7e565b5f73ffffffffffffffffffffffffffffffffffffffff168273ffffffffffffffffffffffffffffffffffffffff1603610a3b576040517f08c379a0000000000000000000000000000000000000000000000000000000008152600401610a3290611f35565b60405180910390fd5b610a458282611164565b5050565b610a51610f7e565b6040517f08c379a0000000000000000000000000000000000000000000000000000000008152600401610a8390611fc3565b60405180910390fd5b5f5f610a96610cf9565b9050610aa3818585610da5565b600191505092915050565b610ab6610e95565b5f73ffffffffffffffffffffffffffffffffffffffff168173ffffffffffffffffffffffffffffffffffffffff1603610b24576040517f08c379a0000000000000000000000000000000000000000000000000000000008152600401610b1b9061202b565b60405180910390fd5b8073ffffffffffffffffffffffffffffffffffffffff166108fc4790811502906040515f60405180830381858888f19350505050158015610b67573d5f5f3e3d5ffd5b5050565b5f610b74610f7e565b6040517f08c379a0000000000000000000000000000000000000000000000000000000008152600401610ba6906120b9565b60405180910390fd5b5f610bb8610f7e565b6040517f08c379a0000000000000000000000000000000000000000000000000000000008152600401610bea90612121565b60405180910390fd5b5f60015f8473ffffffffffffffffffffffffffffffffffffffff1673ffffffffffffffffffffffffffffffffffffffff1681526020019081526020015f205f8373ffffffffffffffffffffffffffffffffffffffff1673ffffffffffffffffffffffffffffffffffffffff1681526020019081526020015f2054905092915050565b610c7d610e95565b5f73ffffffffffffffffffffffffffffffffffffffff168173ffffffffffffffffffffffffffffffffffffffff1603610ced575f6040517f1e4fbdf7000000000000000000000000000000000000000000000000000000008152600401610ce4919061198c565b60405180910390fd5b610cf68161103e565b50565b5f33905090565b610d0d83838360016111e3565b505050565b5f610d1d8484610bf3565b90507fffffffffffffffffffffffffffffffffffffffffffffffffffffffffffffffff811015610d9f5781811015610d90578281836040517ffb8f41b2000000000000000000000000000000000000000000000000000000008152600401610d879392919061213f565b60405180910390fd5b610d9e84848484035f6111e3565b5b50505050565b5f73ffffffffffffffffffffffffffffffffffffffff168373ffffffffffffffffffffffffffffffffffffffff1603610e15575f6040517f96c6fd1e000000000000000000000000000000000000000000000000000000008152600401610e0c919061198c565b60405180910390fd5b5f73ffffffffffffffffffffffffffffffffffffffff168273ffffffffffffffffffffffffffffffffffffffff1603610e85575f6040517fec442f05000000000000000000000000000000000000000000000000000000008152600401610e7c919061198c565b60405180910390fd5b610e908383836113b2565b505050565b610e9d610cf9565b73ffffffffffffffffffffffffffffffffffffffff16610ebb6108c2565b73ffffffffffffffffffffffffffffffffffffffff1614610f1a57610ede610cf9565b6040517f118cdaa7000000000000000000000000000000000000000000000000000000008152600401610f11919061198c565b60405180910390fd5b565b610f246115cb565b5f600560146101000a81548160ff0219169083151502179055507f5db9ee0a495bf2e6ff9c91a7834c1ba4fdd244a5e8aa4e537bd38aeae4b073aa610f67610cf9565b604051610f74919061198c565b60405180910390a1565b610f866107fe565b15610fbd576040517fd93c066500000000000000000000000000000000000000000000000000000000815260040160405180910390fd5b565b5f73ffffffffffffffffffffffffffffffffffffffff168273ffffffffffffffffffffffffffffffffffffffff160361102f575f6040517fec442f05000000000000000000000000000000000000000000000000000000008152600401611026919061198c565b60405180910390fd5b61103a5f83836113b2565b5050565b5f60055f9054906101000a900473ffffffffffffffffffffffffffffffffffffffff1690508160055f6101000a81548173ffffffffffffffffffffffffffffffffffffffff021916908373ffffffffffffffffffffffffffffffffffffffff1602179055508173ffffffffffffffffffffffffffffffffffffffff168173ffffffffffffffffffffffffffffffffffffffff167f8be0079c531659141344cd1fd0a4f28419497f9722a3daafe3b4186f6b6457e060405160405180910390a35050565b611109610f7e565b6001600560146101000a81548160ff0219169083151502179055507f62e78cea01bee320cd4e420270b5ea74000d11b0c9f74754ebdbfc544b05a25861114d610cf9565b60405161115a919061198c565b60405180910390a1565b5f73ffffffffffffffffffffffffffffffffffffffff168273ffffffffffffffffffffffffffffffffffffffff16036111d4575f6040517f96c6fd1e0000000000000000000000000000000000000000000000000000000081526004016111cb919061198c565b60405180910390fd5b6111df825f836113b2565b5050565b5f73ffffffffffffffffffffffffffffffffffffffff168473ffffffffffffffffffffffffffffffffffffffff1603611253575f6040517fe602df0500000000000000000000000000000000000000000000000000000000815260040161124a919061198c565b60405180910390fd5b5f73ffffffffffffffffffffffffffffffffffffffff168373ffffffffffffffffffffffffffffffffffffffff16036112c3575f6040517f94280d620000000000000000000000000000000000000000000000000000000081526004016112ba919061198c565b60405180910390fd5b8160015f8673ffffffffffffffffffffffffffffffffffffffff1673ffffffffffffffffffffffffffffffffffffffff1681526020019081526020015f205f8573ffffffffffffffffffffffffffffffffffffffff1673ffffffffffffffffffffffffffffffffffffffff1681526020019081526020015f208190555080156113ac578273ffffffffffffffffffffffffffffffffffffffff168473ffffffffffffffffffffffffffffffffffffffff167f8c5be1e5ebec7d5bd14f71427d1e84f3dd0314c0f7b2291e5b200ac8c7c3b925846040516113a3919061183a565b60405180910390a35b50505050565b5f73ffffffffffffffffffffffffffffffffffffffff168373ffffffffffffffffffffffffffffffffffffffff1603611402578060025f8282546113f69190612174565b925050819055506114d0565b5f5f5f8573ffffffffffffffffffffffffffffffffffffffff1673ffffffffffffffffffffffffffffffffffffffff1681526020019081526020015f205490508181101561148b578381836040517fe450d38c0000000000000000000000000000000000000000000000000000000081526004016114829392919061213f565b60405180910390fd5b8181035f5f8673ffffffffffffffffffffffffffffffffffffffff1673ffffffffffffffffffffffffffffffffffffffff1681526020019081526020015f2081905550505b5f73ffffffffffffffffffffffffffffffffffffffff168273ffffffffffffffffffffffffffffffffffffffff1603611517578060025f8282540392505081905550611561565b805f5f8473ffffffffffffffffffffffffffffffffffffffff1673ffffffffffffffffffffffffffffffffffffffff1681526020019081526020015f205f82825401925050819055505b8173ffffffffffffffffffffffffffffffffffffffff168373ffffffffffffffffffffffffffffffffffffffff167fddf252ad1be2c89b69c2b068fc378daa952ba7f163c4a11628f55a4df523b3ef836040516115be919061183a565b60405180910390a3505050565b6115d36107fe565b611609576040517f8dfc202b00000000000000000000000000000000000000000000000000000000815260040160405180910390fd5b565b5f82825260208201905092915050565b7f556c74726152656e747a537461626c6520646f6573206e6f74206163636570745f8201527f2045746865720000000000000000000000000000000000000000000000000000602082015250565b5f61167560268361160b565b91506116808261161b565b604082019050919050565b5f6020820190508181035f8301526116a281611669565b9050919050565b5f81519050919050565b8281835e5f83830152505050565b5f601f19601f8301169050919050565b5f6116db826116a9565b6116e5818561160b565b93506116f58185602086016116b3565b6116fe816116c1565b840191505092915050565b5f6020820190508181035f83015261172181846116d1565b905092915050565b5f5ffd5b5f73ffffffffffffffffffffffffffffffffffffffff82169050919050565b5f6117568261172d565b9050919050565b6117668161174c565b8114611770575f5ffd5b50565b5f813590506117818161175d565b92915050565b5f819050919050565b61179981611787565b81146117a3575f5ffd5b50565b5f813590506117b481611790565b92915050565b5f5f604083850312156117d0576117cf611729565b5b5f6117dd85828601611773565b92505060206117ee858286016117a6565b9150509250929050565b5f8115159050919050565b61180c816117f8565b82525050565b5f6020820190506118255f830184611803565b92915050565b61183481611787565b82525050565b5f60208201905061184d5f83018461182b565b92915050565b5f5f5f6060848603121561186a57611869611729565b5b5f61187786828701611773565b935050602061188886828701611773565b9250506040611899868287016117a6565b9150509250925092565b5f60ff82169050919050565b6118b8816118a3565b82525050565b5f6020820190506118d15f8301846118af565b92915050565b5f5f5f606084860312156118ee576118ed611729565b5b5f6118fb86828701611773565b935050602061190c868287016117a6565b925050604061191d868287016117a6565b9150509250925092565b5f6020828403121561193c5761193b611729565b5b5f611949848285016117a6565b91505092915050565b5f6020828403121561196757611966611729565b5b5f61197484828501611773565b91505092915050565b6119868161174c565b82525050565b5f60208201905061199f5f83018461197d565b92915050565b5f6119af8261172d565b9050919050565b6119bf816119a5565b81146119c9575f5ffd5b50565b5f813590506119da816119b6565b92915050565b5f602082840312156119f5576119f4611729565b5b5f611a02848285016119cc565b91505092915050565b5f5f60408385031215611a2157611a20611729565b5b5f611a2e85828601611773565b9250506020611a3f85828601611773565b9150509250929050565b7f4e487b71000000000000000000000000000000000000000000000000000000005f52602260045260245ffd5b5f6002820490506001821680611a8d57607f821691505b602082108103611aa057611a9f611a49565b5b50919050565b7f4e487b71000000000000000000000000000000000000000000000000000000005f52601160045260245ffd5b5f8160011c9050919050565b5f5f8291508390505b6001851115611b2857808604811115611b0457611b03611aa6565b5b6001851615611b135780820291505b8081029050611b2185611ad3565b9450611ae8565b94509492505050565b5f82611b405760019050611bfb565b81611b4d575f9050611bfb565b8160018114611b635760028114611b6d57611b9c565b6001915050611bfb565b60ff841115611b7f57611b7e611aa6565b5b8360020a915084821115611b9657611b95611aa6565b5b50611bfb565b5060208310610133831016604e8410600b8410161715611bd15782820a905083811115611bcc57611bcb611aa6565b5b611bfb565b611bde8484846001611adf565b92509050818404811115611bf557611bf4611aa6565b5b81810290505b9392505050565b5f611c0c82611787565b9150611c17836118a3565b9250611c447fffffffffffffffffffffffffffffffffffffffffffffffffffffffffffffffff8484611b31565b905092915050565b5f611c5682611787565b9150611c6183611787565b9250828202611c6f81611787565b91508282048414831517611c8657611c85611aa6565b5b5092915050565b7f537461626c653a2063616e6e6f74206d696e7420746f207a65726f20616464725f8201527f6573730000000000000000000000000000000000000000000000000000000000602082015250565b5f611ce760238361160b565b9150611cf282611c8d565b604082019050919050565b5f6020820190508181035f830152611d1481611cdb565b9050919050565b7f537461626c653a20416464206c6971756964697479206e6f7420696d706c656d5f8201527f656e746564000000000000000000000000000000000000000000000000000000602082015250565b5f611d7560258361160b565b9150611d8082611d1b565b604082019050919050565b5f6020820190508181035f830152611da281611d69565b9050919050565b7f537461626c653a205969656c64206661726d696e67206e6f7420696d706c656d5f8201527f656e746564000000000000000000000000000000000000000000000000000000602082015250565b5f611e0360258361160b565b9150611e0e82611da9565b604082019050919050565b5f6020820190508181035f830152611e3081611df7565b9050919050565b7f537461626c653a20466c617368206c6f616e206e6f7420696d706c656d656e745f8201527f6564000000000000000000000000000000000000000000000000000000000000602082015250565b5f611e9160228361160b565b9150611e9c82611e37565b604082019050919050565b5f6020820190508181035f830152611ebe81611e85565b9050919050565b7f537461626c653a2063616e6e6f74206275726e2066726f6d207a65726f2061645f8201527f6472657373000000000000000000000000000000000000000000000000000000602082015250565b5f611f1f60258361160b565b9150611f2a82611ec5565b604082019050919050565b5f6020820190508181035f830152611f4c81611f13565b9050919050565b7f537461626c653a2052656d6f7665206c6971756964697479206e6f7420696d705f8201527f6c656d656e746564000000000000000000000000000000000000000000000000602082015250565b5f611fad60288361160b565b9150611fb882611f53565b604082019050919050565b5f6020820190508181035f830152611fda81611fa1565b9050919050565b7f496e76616c6964206164647265737300000000000000000000000000000000005f82015250565b5f612015600f8361160b565b915061202082611fe1565b602082019050919050565b5f6020820190508181035f83015261204281612009565b9050919050565b7f537461626c653a20417262697472616765206e6f7420696d706c656d656e74655f8201527f6400000000000000000000000000000000000000000000000000000000000000602082015250565b5f6120a360218361160b565b91506120ae82612049565b604082019050919050565b5f6020820190508181035f8301526120d081612097565b9050919050565b7f537461626c653a2053776170206e6f7420696d706c656d656e746564000000005f82015250565b5f61210b601c8361160b565b9150612116826120d7565b602082019050919050565b5f6020820190508181035f830152612138816120ff565b9050919050565b5f6060820190506121525f83018661197d565b61215f602083018561182b565b61216c604083018461182b565b949350505050565b5f61217e82611787565b915061218983611787565b92508282019050808211156121a1576121a0611aa6565b5b9291505056fea2646970667358221220811c2678ad2889133535adbd3836c5dd9541fd9ec56123b0617f834c698c8e8064736f6c63430008210033","linkReferences":{}},"methodIdentifiers":{"INITIAL_SUPPLY()":"2ff2e9dc","addLiquidity(address,uint256,uint256)":"55776b77","allowance(address,address)":"dd62ed3e","approve(address,uint256)":"095ea7b3","arbitrage(address,address,uint256)":"b09de2f9","balanceOf(address)":"70a08231","burn(address,uint256)":"9dc29fac","decimals()":"313ce567","flashLoan(uint256)":"9ab603b9","mint(address,uint256)":"40c10f19","name()":"06fdde03","owner()":"8da5cb5b","pause()":"8456cb59","paused()":"5c975abb","removeLiquidity(address,uint256)":"a201ccf6","renounceOwnership()":"715018a6","swap(address,uint256)":"d004f0f7","symbol()":"95d89b41","totalSupply()":"18160ddd","transfer(address,uint256)":"a9059cbb","transferFrom(address,address,uint256)":"23b872dd","transferOwnership(address)":"f2fde38b","unpause()":"3f4ba83a","withdrawEther(address)":"af933b57","yieldFarm(uint256)":"69dd4bf3"},"id":45}