{"abi":[{"type":"constructor","inputs":[{"name":"initialOwner","type":"address","internalType":"address"}],"stateMutability":"nonpayable"},{"type":"function","name":"INITIAL_SUPPLY","inputs":[],"outputs":[{"name":"","type":"uint256","internalType":"uint256"}],"stateMutability":"view"},{"type":"function","name":"addLiquidity","inputs":[{"name":"otherToken","type":"address","internalType":"address"},{"name":"urzAmount","type":"uint256","internalType":"uint256"},{"name":"otherTokenAmount","type":"uint256","internalType":"uint256"}],"outputs":[],"stateMutability":"nonpayable"},{"type":"function","name":"allowance","inputs":[{"name":"owner","type":"address","internalType":"address"},{"name":"spender","type":"address","internalType":"address"}],"outputs":[{"name":"","type":"uint256","internalType":"uint256"}],"stateMutability":"view"},{"type":"function","name":"approve","inputs":[{"name":"spender","type":"address","internalType":"address"},{"name":"value","type":"uint256","internalType":"uint256"}],"outputs":[{"name":"","type":"bool","internalType":"bool"}],"stateMutability":"nonpayable"},{"type":"function","name":"arbitrage","inputs":[{"name":"tokenA","type":"address","internalType":"address"},{"name":"tokenB","type":"address","internalType":"address"},{"name":"amount","type":"uint256","internalType":"uint256"}],"outputs":[{"name":"profit","type":"uint256","internalType":"uint256"}],"stateMutability":"nonpayable"},{"type":"function","name":"balanceOf","inputs":[{"name":"account","type":"address","internalType":"address"}],"outputs":[{"name":"","type":"uint256","internalType":"uint256"}],"stateMutability":"view"},{"type":"function","name":"burn","inputs":[{"name":"from","type":"address","internalType":"address"},{"name":"amount","type":"uint256","internalType":"uint256"}],"outputs":[],"stateMutability":"nonpayable"},{"type":"function","name":"decimals","inputs":[],"outputs":[{"name":"","type":"uint8","internalType":"uint8"}],"stateMutability":"view"},{"type":"function","name":"flashLoan","inputs":[{"name":"urzAmount","type":"uint256","internalType":"uint256"}],"outputs":[],"stateMutability":"nonpayable"},{"type":"function","name":"mint","inputs":[{"name":"to","type":"address","internalType":"address"},{"name":"amount","type":"uint256","internalType":"uint256"}],"outputs":[],"stateMutability":"nonpayable"},{"type":"function","name":"name","inputs":[],"outputs":[{"name":"","type":"string","internalType":"string"}],"stateMutability":"view"},{"type":"function","name":"owner","inputs":[],"outputs":[{"name":"","type":"address","internalType":"address"}],"stateMutability":"view"},{"type":"function","name":"removeLiquidity","inputs":[{"name":"otherToken","type":"address","internalType":"address"},{"name":"lpTokens","type":"uint256","internalType":"uint256"}],"outputs":[],"stateMutability":"nonpayable"},{"type":"function","name":"renounceOwnership","inputs":[],"outputs":[],"stateMutability":"nonpayable"},{"type":"function","name":"swap","inputs":[{"name":"tokenOut","type":"address","internalType":"address"},{"name":"amountIn","type":"uint256","internalType":"uint256"}],"outputs":[{"name":"amountOut","type":"uint256","internalType":"uint256"}],"stateMutability":"nonpayable"},{"type":"function","name":"symbol","inputs":[],"outputs":[{"name":"","type":"string","internalType":"string"}],"stateMutability":"view"},{"type":"function","name":"totalSupply","inputs":[],"outputs":[{"name":"","type":"uint256","internalType":"uint256"}],"stateMutability":"view"},{"type":"function","name":"transfer","inputs":[{"name":"to","type":"address","internalType":"address"},{"name":"value","type":"uint256","internalType":"uint256"}],"outputs":[{"name":"","type":"bool","internalType":"bool"}],"stateMutability":"nonpayable"},{"type":"function","name":"transferFrom","inputs":[{"name":"from","type":"address","internalType":"address"},{"name":"to","type":"address","internalType":"address"},{"name":"value","type":"uint256","internalType":"uint256"}],"outputs":[{"name":"","type":"bool","internalType":"bool"}],"stateMutability":"nonpayable"},{"type":"function","name":"transferOwnership","inputs":[{"name":"newOwner","type":"address","internalType":"address"}],"outputs":[],"stateMutability":"nonpayable"},{"type":"function","name":"yieldFarm","inputs":[{"name":"urzAmount","type":"uint256","internalType":"uint256"}],"outputs":[{"name":"reward","type":"uint256","internalType":"uint256"}],"stateMutability":"nonpayable"},{"type":"event","name":"Approval","inputs":[{"name":"owner","type":"address","indexed":true,"internalType":"address"},{"name":"spender","type":"address","indexed":true,"internalType":"address"},{"name":"value","type":"uint256","indexed":false,"internalType":"uint256"}],"anonymous":false},{"type":"event","name":"Arbitrage","inputs":[{"name":"user","type":"address","indexed":true,"internalType":"address"},{"name":"profit","type":"uint256","indexed":false,"internalType":"uint256"}],"anonymous":false},{"type":"event","name":"FlashLoan","inputs":[{"name":"borrower","type":"address","indexed":true,"internalType":"address"},{"name":"urzAmount","type":"uint256","indexed":false,"internalType":"uint256"}],"anonymous":false},{"type":"event","name":"LiquidityAdded","inputs":[{"name":"provider","type":"address","indexed":true,"internalType":"address"},{"name":"urzAmount","type":"uint256","indexed":false,"internalType":"uint256"},{"name":"otherTokenAmount","type":"uint256","indexed":false,"internalType":"uint256"}],"anonymous":false},{"type":"event","name":"LiquidityRemoved","inputs":[{"name":"provider","type":"address","indexed":true,"internalType":"address"},{"name":"urzAmount","type":"uint256","indexed":false,"internalType":"uint256"},{"name":"otherTokenAmount","type":"uint256","indexed":false,"internalType":"uint256"}],"anonymous":false},{"type":"event","name":"OwnershipTransferred","inputs":[{"name":"previousOwner","type":"address","indexed":true,"internalType":"address"},{"name":"newOwner","type":"address","indexed":true,"internalType":"address"}],"anonymous":false},{"type":"event","name":"Swap","inputs":[{"name":"user","type":"address","indexed":true,"internalType":"address"},{"name":"tokenIn","type":"address","indexed":false,"internalType":"address"},{"name":"tokenOut","type":"address","indexed":false,"internalType":"address"},{"name":"amountIn","type":"uint256","indexed":false,"internalType":"uint256"},{"name":"amountOut","type":"uint256","indexed":false,"internalType":"uint256"}],"anonymous":false},{"type":"event","name":"Transfer","inputs":[{"name":"from","type":"address","indexed":true,"internalType":"address"},{"name":"to","type":"address","indexed":true,"internalType":"address"},{"name":"value","type":"uint256","indexed":false,"internalType":"uint256"}],"anonymous":false},{"type":"event","name":"YieldFarmed","inputs":[{"name":"user","type":"address","indexed":true,"internalType":"address"},{"name":"urzAmount","type":"uint256","indexed":false,"internalType":"uint256"},{"name":"reward","type":"uint256","indexed":false,"internalType":"uint256"}],"anonymous":false},{"type":"error","name":"ERC20InsufficientAllowance","inputs":[{"name":"spender","type":"address","internalType":"address"},{"name":"allowance","type":"uint256","internalType":"uint256"},{"name":"needed","type":"uint256","internalType":"uint256"}]},{"type":"error","name":"ERC20InsufficientBalance","inputs":[{"name":"sender","type":"address","internalType":"address"},{"name":"balance","type":"uint256","internalType":"uint256"},{"name":"needed","type":"uint256","internalType":"uint256"}]},{"type":"error","name":"ERC20InvalidApprover","inputs":[{"name":"approver","type":"address","internalType":"address"}]},{"type":"error","name":"ERC20InvalidReceiver","inputs":[{"name":"receiver","type":"address","internalType":"address"}]},{"type":"error","name":"ERC20InvalidSender","inputs":[{"name":"sender","type":"address","internalType":"address"}]},{"type":"error","name":"ERC20InvalidSpender","inputs":[{"name":"spender","type":"address","internalType":"address"}]},{"type":"error","name":"OwnableInvalidOwner","inputs":[{"name":"owner","type":"address","internalType":"address"}]},{"type":"error","name":"OwnableUnauthorizedAccount","inputs":[{"name":"account","type":"address","internalType":"address"}]}],"bytecode":{"object":"0x608060405234801561000f575f5ffd5b5060405161247f38038061247f83398181016040528101906100319190610530565b806040518060400160405280601181526020017f556c74726152656e747a20537461626c650000000000000000000000000000008152506040518060400160405280600381526020017f55525a000000000000000000000000000000000000000000000000000000000081525081600390816100ad9190610798565b5080600490816100bd9190610798565b5050505f73ffffffffffffffffffffffffffffffffffffffff168173ffffffffffffffffffffffffffffffffffffffff1603610130575f6040517f1e4fbdf70000000000000000000000000000000000000000000000000000000081526004016101279190610876565b60405180910390fd5b61013f8161017160201b60201c565b5061016b336012600a61015291906109f7565b620f42406101609190610a41565b61023460201b60201c565b50610b12565b5f60055f9054906101000a900473ffffffffffffffffffffffffffffffffffffffff1690508160055f6101000a81548173ffffffffffffffffffffffffffffffffffffffff021916908373ffffffffffffffffffffffffffffffffffffffff1602179055508173ffffffffffffffffffffffffffffffffffffffff168173ffffffffffffffffffffffffffffffffffffffff167f8be0079c531659141344cd1fd0a4f28419497f9722a3daafe3b4186f6b6457e060405160405180910390a35050565b5f73ffffffffffffffffffffffffffffffffffffffff168273ffffffffffffffffffffffffffffffffffffffff16036102a4575f6040517fec442f0500000000000000000000000000000000000000000000000000000000815260040161029b9190610876565b60405180910390fd5b6102b55f83836102b960201b60201c565b5050565b5f73ffffffffffffffffffffffffffffffffffffffff168373ffffffffffffffffffffffffffffffffffffffff1603610309578060025f8282546102fd9190610a82565b925050819055506103d7565b5f5f5f8573ffffffffffffffffffffffffffffffffffffffff1673ffffffffffffffffffffffffffffffffffffffff1681526020019081526020015f2054905081811015610392578381836040517fe450d38c00000000000000000000000000000000000000000000000000000000815260040161038993929190610ac4565b60405180910390fd5b8181035f5f8673ffffffffffffffffffffffffffffffffffffffff1673ffffffffffffffffffffffffffffffffffffffff1681526020019081526020015f2081905550505b5f73ffffffffffffffffffffffffffffffffffffffff168273ffffffffffffffffffffffffffffffffffffffff160361041e578060025f8282540392505081905550610468565b805f5f8473ffffffffffffffffffffffffffffffffffffffff1673ffffffffffffffffffffffffffffffffffffffff1681526020019081526020015f205f82825401925050819055505b8173ffffffffffffffffffffffffffffffffffffffff168373ffffffffffffffffffffffffffffffffffffffff167fddf252ad1be2c89b69c2b068fc378daa952ba7f163c4a11628f55a4df523b3ef836040516104c59190610af9565b60405180910390a3505050565b5f5ffd5b5f73ffffffffffffffffffffffffffffffffffffffff82169050919050565b5f6104ff826104d6565b9050919050565b61050f816104f5565b8114610519575f5ffd5b50565b5f8151905061052a81610506565b92915050565b5f60208284031215610545576105446104d2565b5b5f6105528482850161051c565b91505092915050565b5f81519050919050565b7f4e487b71000000000000000000000000000000000000000000000000000000005f52604160045260245ffd5b7f4e487b71000000000000000000000000000000000000000000000000000000005f52602260045260245ffd5b5f60028204905060018216806105d657607f821691505b6020821081036105e9576105e8610592565b5b50919050565b5f819050815f5260205f209050919050565b5f6020601f8301049050919050565b5f82821b905092915050565b5f6008830261064b7fffffffffffffffffffffffffffffffffffffffffffffffffffffffffffffffff82610610565b6106558683610610565b95508019841693508086168417925050509392505050565b5f819050919050565b5f819050919050565b5f61069961069461068f8461066d565b610676565b61066d565b9050919050565b5f819050919050565b6106b28361067f565b6106c66106be826106a0565b84845461061c565b825550505050565b5f5f905090565b6106dd6106ce565b6106e88184846106a9565b505050565b5b8181101561070b576107005f826106d5565b6001810190506106ee565b5050565b601f82111561075057610721816105ef565b61072a84610601565b81016020851015610739578190505b61074d61074585610601565b8301826106ed565b50505b505050565b5f82821c905092915050565b5f6107705f1984600802610755565b1980831691505092915050565b5f6107888383610761565b9150826002028217905092915050565b6107a18261055b565b67ffffffffffffffff8111156107ba576107b9610565565b5b6107c482546105bf565b6107cf82828561070f565b5f60209050601f831160018114610800575f84156107ee578287015190505b6107f8858261077d565b86555061085f565b601f19841661080e866105ef565b5f5b8281101561083557848901518255600182019150602085019450602081019050610810565b86831015610852578489015161084e601f891682610761565b8355505b6001600288020188555050505b505050505050565b610870816104f5565b82525050565b5f6020820190506108895f830184610867565b92915050565b7f4e487b71000000000000000000000000000000000000000000000000000000005f52601160045260245ffd5b5f8160011c9050919050565b5f5f8291508390505b6001851115610911578086048111156108ed576108ec61088f565b5b60018516156108fc5780820291505b808102905061090a856108bc565b94506108d1565b94509492505050565b5f8261092957600190506109e4565b81610936575f90506109e4565b816001811461094c576002811461095657610985565b60019150506109e4565b60ff8411156109685761096761088f565b5b8360020a91508482111561097f5761097e61088f565b5b506109e4565b5060208310610133831016604e8410600b84101617156109ba5782820a9050838111156109b5576109b461088f565b5b6109e4565b6109c784848460016108c8565b925090508184048111156109de576109dd61088f565b5b81810290505b9392505050565b5f60ff82169050919050565b5f610a018261066d565b9150610a0c836109eb565b9250610a397fffffffffffffffffffffffffffffffffffffffffffffffffffffffffffffffff848461091a565b905092915050565b5f610a4b8261066d565b9150610a568361066d565b9250828202610a648161066d565b91508282048414831517610a7b57610a7a61088f565b5b5092915050565b5f610a8c8261066d565b9150610a978361066d565b9250828201905080821115610aaf57610aae61088f565b5b92915050565b610abe8161066d565b82525050565b5f606082019050610ad75f830186610867565b610ae46020830185610ab5565b610af16040830184610ab5565b949350505050565b5f602082019050610b0c5f830184610ab5565b92915050565b61196080610b1f5f395ff3fe608060405234801561000f575f5ffd5b5060043610610135575f3560e01c8063715018a6116100b6578063a201ccf61161007a578063a201ccf614610327578063a9059cbb14610343578063b09de2f914610373578063d004f0f7146103a3578063dd62ed3e146103d3578063f2fde38b1461040357610135565b8063715018a6146102a95780638da5cb5b146102b357806395d89b41146102d15780639ab603b9146102ef5780639dc29fac1461030b57610135565b8063313ce567116100fd578063313ce567146101f357806340c10f191461021157806355776b771461022d57806369dd4bf31461024957806370a082311461027957610135565b806306fdde0314610139578063095ea7b31461015757806318160ddd1461018757806323b872dd146101a55780632ff2e9dc146101d5575b5f5ffd5b61014161041f565b60405161014e9190611134565b60405180910390f35b610171600480360381019061016c91906111e5565b6104af565b60405161017e919061123d565b60405180910390f35b61018f6104d1565b60405161019c9190611265565b60405180910390f35b6101bf60048036038101906101ba919061127e565b6104da565b6040516101cc919061123d565b60405180910390f35b6101dd610508565b6040516101ea9190611265565b60405180910390f35b6101fb610527565b60405161020891906112e9565b60405180910390f35b61022b600480360381019061022691906111e5565b61052f565b005b61024760048036038101906102429190611302565b610545565b005b610263600480360381019061025e9190611352565b610580565b6040516102709190611265565b60405180910390f35b610293600480360381019061028e919061137d565b6105bc565b6040516102a09190611265565b60405180910390f35b6102b1610601565b005b6102bb610614565b6040516102c891906113b7565b60405180910390f35b6102d961063c565b6040516102e69190611134565b60405180910390f35b61030960048036038101906103049190611352565b6106cc565b005b610325600480360381019061032091906111e5565b610707565b005b610341600480360381019061033c91906111e5565b61071d565b005b61035d600480360381019061035891906111e5565b610758565b60405161036a919061123d565b60405180910390f35b61038d6004803603810190610388919061127e565b61077a565b60405161039a9190611265565b60405180910390f35b6103bd60048036038101906103b891906111e5565b6107b6565b6040516103ca9190611265565b60405180910390f35b6103ed60048036038101906103e891906113d0565b6107f2565b6040516103fa9190611265565b60405180910390f35b61041d6004803603810190610418919061137d565b610874565b005b60606003805461042e9061143b565b80601f016020809104026020016040519081016040528092919081815260200182805461045a9061143b565b80156104a55780601f1061047c576101008083540402835291602001916104a5565b820191905f5260205f20905b81548152906001019060200180831161048857829003601f168201915b5050505050905090565b5f5f6104b96108f8565b90506104c68185856108ff565b600191505092915050565b5f600254905090565b5f5f6104e46108f8565b90506104f1858285610911565b6104fc8585856109a4565b60019150509392505050565b6012600a61051691906115c7565b620f42406105249190611611565b81565b5f6012905090565b610537610a94565b6105418282610b1b565b5050565b6040517f08c379a00000000000000000000000000000000000000000000000000000000081526004016105779061169c565b60405180910390fd5b5f6040517f08c379a00000000000000000000000000000000000000000000000000000000081526004016105b390611704565b60405180910390fd5b5f5f5f8373ffffffffffffffffffffffffffffffffffffffff1673ffffffffffffffffffffffffffffffffffffffff1681526020019081526020015f20549050919050565b610609610a94565b6106125f610b9a565b565b5f60055f9054906101000a900473ffffffffffffffffffffffffffffffffffffffff16905090565b60606004805461064b9061143b565b80601f01602080910402602001604051908101604052809291908181526020018280546106779061143b565b80156106c25780601f10610699576101008083540402835291602001916106c2565b820191905f5260205f20905b8154815290600101906020018083116106a557829003601f168201915b5050505050905090565b6040517f08c379a00000000000000000000000000000000000000000000000000000000081526004016106fe9061176c565b60405180910390fd5b61070f610a94565b6107198282610c5d565b5050565b6040517f08c379a000000000000000000000000000000000000000000000000000000000815260040161074f906117d4565b60405180910390fd5b5f5f6107626108f8565b905061076f8185856109a4565b600191505092915050565b5f6040517f08c379a00000000000000000000000000000000000000000000000000000000081526004016107ad9061183c565b60405180910390fd5b5f6040517f08c379a00000000000000000000000000000000000000000000000000000000081526004016107e9906118a4565b60405180910390fd5b5f60015f8473ffffffffffffffffffffffffffffffffffffffff1673ffffffffffffffffffffffffffffffffffffffff1681526020019081526020015f205f8373ffffffffffffffffffffffffffffffffffffffff1673ffffffffffffffffffffffffffffffffffffffff1681526020019081526020015f2054905092915050565b61087c610a94565b5f73ffffffffffffffffffffffffffffffffffffffff168173ffffffffffffffffffffffffffffffffffffffff16036108ec575f6040517f1e4fbdf70000000000000000000000000000000000000000000000000000000081526004016108e391906113b7565b60405180910390fd5b6108f581610b9a565b50565b5f33905090565b61090c8383836001610cdc565b505050565b5f61091c84846107f2565b90507fffffffffffffffffffffffffffffffffffffffffffffffffffffffffffffffff81101561099e578181101561098f578281836040517ffb8f41b2000000000000000000000000000000000000000000000000000000008152600401610986939291906118c2565b60405180910390fd5b61099d84848484035f610cdc565b5b50505050565b5f73ffffffffffffffffffffffffffffffffffffffff168373ffffffffffffffffffffffffffffffffffffffff1603610a14575f6040517f96c6fd1e000000000000000000000000000000000000000000000000000000008152600401610a0b91906113b7565b60405180910390fd5b5f73ffffffffffffffffffffffffffffffffffffffff168273ffffffffffffffffffffffffffffffffffffffff1603610a84575f6040517fec442f05000000000000000000000000000000000000000000000000000000008152600401610a7b91906113b7565b60405180910390fd5b610a8f838383610eab565b505050565b610a9c6108f8565b73ffffffffffffffffffffffffffffffffffffffff16610aba610614565b73ffffffffffffffffffffffffffffffffffffffff1614610b1957610add6108f8565b6040517f118cdaa7000000000000000000000000000000000000000000000000000000008152600401610b1091906113b7565b60405180910390fd5b565b5f73ffffffffffffffffffffffffffffffffffffffff168273ffffffffffffffffffffffffffffffffffffffff1603610b8b575f6040517fec442f05000000000000000000000000000000000000000000000000000000008152600401610b8291906113b7565b60405180910390fd5b610b965f8383610eab565b5050565b5f60055f9054906101000a900473ffffffffffffffffffffffffffffffffffffffff1690508160055f6101000a81548173ffffffffffffffffffffffffffffffffffffffff021916908373ffffffffffffffffffffffffffffffffffffffff1602179055508173ffffffffffffffffffffffffffffffffffffffff168173ffffffffffffffffffffffffffffffffffffffff167f8be0079c531659141344cd1fd0a4f28419497f9722a3daafe3b4186f6b6457e060405160405180910390a35050565b5f73ffffffffffffffffffffffffffffffffffffffff168273ffffffffffffffffffffffffffffffffffffffff1603610ccd575f6040517f96c6fd1e000000000000000000000000000000000000000000000000000000008152600401610cc491906113b7565b60405180910390fd5b610cd8825f83610eab565b5050565b5f73ffffffffffffffffffffffffffffffffffffffff168473ffffffffffffffffffffffffffffffffffffffff1603610d4c575f6040517fe602df05000000000000000000000000000000000000000000000000000000008152600401610d4391906113b7565b60405180910390fd5b5f73ffffffffffffffffffffffffffffffffffffffff168373ffffffffffffffffffffffffffffffffffffffff1603610dbc575f6040517f94280d62000000000000000000000000000000000000000000000000000000008152600401610db391906113b7565b60405180910390fd5b8160015f8673ffffffffffffffffffffffffffffffffffffffff1673ffffffffffffffffffffffffffffffffffffffff1681526020019081526020015f205f8573ffffffffffffffffffffffffffffffffffffffff1673ffffffffffffffffffffffffffffffffffffffff1681526020019081526020015f20819055508015610ea5578273ffffffffffffffffffffffffffffffffffffffff168473ffffffffffffffffffffffffffffffffffffffff167f8c5be1e5ebec7d5bd14f71427d1e84f3dd0314c0f7b2291e5b200ac8c7c3b92584604051610e9c9190611265565b60405180910390a35b50505050565b5f73ffffffffffffffffffffffffffffffffffffffff168373ffffffffffffffffffffffffffffffffffffffff1603610efb578060025f828254610eef91906118f7565b92505081905550610fc9565b5f5f5f8573ffffffffffffffffffffffffffffffffffffffff1673ffffffffffffffffffffffffffffffffffffffff1681526020019081526020015f2054905081811015610f84578381836040517fe450d38c000000000000000000000000000000000000000000000000000000008152600401610f7b939291906118c2565b60405180910390fd5b8181035f5f8673ffffffffffffffffffffffffffffffffffffffff1673ffffffffffffffffffffffffffffffffffffffff1681526020019081526020015f2081905550505b5f73ffffffffffffffffffffffffffffffffffffffff168273ffffffffffffffffffffffffffffffffffffffff1603611010578060025f828254039250508190555061105a565b805f5f8473ffffffffffffffffffffffffffffffffffffffff1673ffffffffffffffffffffffffffffffffffffffff1681526020019081526020015f205f82825401925050819055505b8173ffffffffffffffffffffffffffffffffffffffff168373ffffffffffffffffffffffffffffffffffffffff167fddf252ad1be2c89b69c2b068fc378daa952ba7f163c4a11628f55a4df523b3ef836040516110b79190611265565b60405180910390a3505050565b5f81519050919050565b5f82825260208201905092915050565b8281835e5f83830152505050565b5f601f19601f8301169050919050565b5f611106826110c4565b61111081856110ce565b93506111208185602086016110de565b611129816110ec565b840191505092915050565b5f6020820190508181035f83015261114c81846110fc565b905092915050565b5f5ffd5b5f73ffffffffffffffffffffffffffffffffffffffff82169050919050565b5f61118182611158565b9050919050565b61119181611177565b811461119b575f5ffd5b50565b5f813590506111ac81611188565b92915050565b5f819050919050565b6111c4816111b2565b81146111ce575f5ffd5b50565b5f813590506111df816111bb565b92915050565b5f5f604083850312156111fb576111fa611154565b5b5f6112088582860161119e565b9250506020611219858286016111d1565b9150509250929050565b5f8115159050919050565b61123781611223565b82525050565b5f6020820190506112505f83018461122e565b92915050565b61125f816111b2565b82525050565b5f6020820190506112785f830184611256565b92915050565b5f5f5f6060848603121561129557611294611154565b5b5f6112a28682870161119e565b93505060206112b38682870161119e565b92505060406112c4868287016111d1565b9150509250925092565b5f60ff82169050919050565b6112e3816112ce565b82525050565b5f6020820190506112fc5f8301846112da565b92915050565b5f5f5f6060848603121561131957611318611154565b5b5f6113268682870161119e565b9350506020611337868287016111d1565b9250506040611348868287016111d1565b9150509250925092565b5f6020828403121561136757611366611154565b5b5f611374848285016111d1565b91505092915050565b5f6020828403121561139257611391611154565b5b5f61139f8482850161119e565b91505092915050565b6113b181611177565b82525050565b5f6020820190506113ca5f8301846113a8565b92915050565b5f5f604083850312156113e6576113e5611154565b5b5f6113f38582860161119e565b92505060206114048582860161119e565b9150509250929050565b7f4e487b71000000000000000000000000000000000000000000000000000000005f52602260045260245ffd5b5f600282049050600182168061145257607f821691505b6020821081036114655761146461140e565b5b50919050565b7f4e487b71000000000000000000000000000000000000000000000000000000005f52601160045260245ffd5b5f8160011c9050919050565b5f5f8291508390505b60018511156114ed578086048111156114c9576114c861146b565b5b60018516156114d85780820291505b80810290506114e685611498565b94506114ad565b94509492505050565b5f8261150557600190506115c0565b81611512575f90506115c0565b8160018114611528576002811461153257611561565b60019150506115c0565b60ff8411156115445761154361146b565b5b8360020a91508482111561155b5761155a61146b565b5b506115c0565b5060208310610133831016604e8410600b84101617156115965782820a9050838111156115915761159061146b565b5b6115c0565b6115a384848460016114a4565b925090508184048111156115ba576115b961146b565b5b81810290505b9392505050565b5f6115d1826111b2565b91506115dc836112ce565b92506116097fffffffffffffffffffffffffffffffffffffffffffffffffffffffffffffffff84846114f6565b905092915050565b5f61161b826111b2565b9150611626836111b2565b9250828202611634816111b2565b9150828204841483151761164b5761164a61146b565b5b5092915050565b7f416464206c6971756964697479206e6f7420696d706c656d656e7465640000005f82015250565b5f611686601d836110ce565b915061169182611652565b602082019050919050565b5f6020820190508181035f8301526116b38161167a565b9050919050565b7f5969656c64206661726d696e67206e6f7420696d706c656d656e7465640000005f82015250565b5f6116ee601d836110ce565b91506116f9826116ba565b602082019050919050565b5f6020820190508181035f83015261171b816116e2565b9050919050565b7f466c617368206c6f616e206e6f7420696d706c656d656e7465640000000000005f82015250565b5f611756601a836110ce565b915061176182611722565b602082019050919050565b5f6020820190508181035f8301526117838161174a565b9050919050565b7f52656d6f7665206c6971756964697479206e6f7420696d706c656d656e7465645f82015250565b5f6117be6020836110ce565b91506117c98261178a565b602082019050919050565b5f6020820190508181035f8301526117eb816117b2565b9050919050565b7f417262697472616765206e6f7420696d706c656d656e746564000000000000005f82015250565b5f6118266019836110ce565b9150611831826117f2565b602082019050919050565b5f6020820190508181035f8301526118538161181a565b9050919050565b7f53776170206e6f7420696d706c656d656e7465640000000000000000000000005f82015250565b5f61188e6014836110ce565b91506118998261185a565b602082019050919050565b5f6020820190508181035f8301526118bb81611882565b9050919050565b5f6060820190506118d55f8301866113a8565b6118e26020830185611256565b6118ef6040830184611256565b949350505050565b5f611901826111b2565b915061190c836111b2565b92508282019050808211156119245761192361146b565b5b9291505056fea264697066735822122070709cfb3639c5ad2d88ba65550bfe61f81749fb9e0a77c0687d3b2c06bc865664736f6c634300081e0033","linkReferences":{}},"methodIdentifiers":{"INITIAL_SUPPLY()":"2ff2e9dc","addLiquidity(address,uint256,uint256)":"55776b77","allowance(address,address)":"dd62ed3e","approve(address,uint256)":"095ea7b3","arbitrage(address,address,uint256)":"b09de2f9","balanceOf(address)":"70a08231","burn(address,uint256)":"9dc29fac","decimals()":"313ce567","flashLoan(uint256)":"9ab603b9","mint(address,uint256)":"40c10f19","name()":"06fdde03","owner()":"8da5cb5b","removeLiquidity(address,uint256)":"a201ccf6","renounceOwnership()":"715018a6","swap(address,uint256)":"d004f0f7","symbol()":"95d89b41","totalSupply()":"18160ddd","transfer(address,uint256)":"a9059cbb","transferFrom(address,address,uint256)":"23b872dd","transferOwnership(address)":"f2fde38b","yieldFarm(uint256)":"69dd4bf3"},"id":31}