{"abi":[{"type":"constructor","inputs":[{"name":"initialOwner","type":"address","internalType":"address"}],"stateMutability":"nonpayable"},{"type":"receive","stateMutability":"payable"},{"type":"function","name":"AAVE_ATOKEN","inputs":[],"outputs":[{"name":"","type":"address","internalType":"address"}],"stateMutability":"view"},{"type":"function","name":"AAVE_POOL","inputs":[],"outputs":[{"name":"","type":"address","internalType":"address"}],"stateMutability":"view"},{"type":"function","name":"INITIAL_SUPPLY","inputs":[],"outputs":[{"name":"","type":"uint256","internalType":"uint256"}],"stateMutability":"view"},{"type":"function","name":"addLiquidity","inputs":[{"name":"otherToken","type":"address","internalType":"address"},{"name":"urzAmount","type":"uint256","internalType":"uint256"},{"name":"otherTokenAmount","type":"uint256","internalType":"uint256"}],"outputs":[],"stateMutability":"nonpayable"},{"type":"function","name":"allowance","inputs":[{"name":"owner","type":"address","internalType":"address"},{"name":"spender","type":"address","internalType":"address"}],"outputs":[{"name":"","type":"uint256","internalType":"uint256"}],"stateMutability":"view"},{"type":"function","name":"approve","inputs":[{"name":"spender","type":"address","internalType":"address"},{"name":"value","type":"uint256","internalType":"uint256"}],"outputs":[{"name":"","type":"bool","internalType":"bool"}],"stateMutability":"nonpayable"},{"type":"function","name":"arbitrage","inputs":[{"name":"tokenA","type":"address","internalType":"address"},{"name":"tokenB","type":"address","internalType":"address"},{"name":"amount","type":"uint256","internalType":"uint256"}],"outputs":[{"name":"profit","type":"uint256","internalType":"uint256"}],"stateMutability":"nonpayable"},{"type":"function","name":"balanceOf","inputs":[{"name":"account","type":"address","internalType":"address"}],"outputs":[{"name":"","type":"uint256","internalType":"uint256"}],"stateMutability":"view"},{"type":"function","name":"burn","inputs":[{"name":"from","type":"address","internalType":"address"},{"name":"amount","type":"uint256","internalType":"uint256"}],"outputs":[],"stateMutability":"nonpayable"},{"type":"function","name":"decimals","inputs":[],"outputs":[{"name":"","type":"uint8","internalType":"uint8"}],"stateMutability":"view"},{"type":"function","name":"flashLoan","inputs":[{"name":"urzAmount","type":"uint256","internalType":"uint256"}],"outputs":[],"stateMutability":"nonpayable"},{"type":"function","name":"getUserYield","inputs":[{"name":"user","type":"address","internalType":"address"}],"outputs":[{"name":"","type":"uint256","internalType":"uint256"}],"stateMutability":"view"},{"type":"function","name":"mint","inputs":[{"name":"to","type":"address","internalType":"address"},{"name":"amount","type":"uint256","internalType":"uint256"}],"outputs":[],"stateMutability":"nonpayable"},{"type":"function","name":"name","inputs":[],"outputs":[{"name":"","type":"string","internalType":"string"}],"stateMutability":"view"},{"type":"function","name":"owner","inputs":[],"outputs":[{"name":"","type":"address","internalType":"address"}],"stateMutability":"view"},{"type":"function","name":"pause","inputs":[],"outputs":[],"stateMutability":"nonpayable"},{"type":"function","name":"paused","inputs":[],"outputs":[{"name":"","type":"bool","internalType":"bool"}],"stateMutability":"view"},{"type":"function","name":"removeLiquidity","inputs":[{"name":"otherToken","type":"address","internalType":"address"},{"name":"lpTokens","type":"uint256","internalType":"uint256"}],"outputs":[],"stateMutability":"nonpayable"},{"type":"function","name":"renounceOwnership","inputs":[],"outputs":[],"stateMutability":"nonpayable"},{"type":"function","name":"swap","inputs":[{"name":"tokenOut","type":"address","internalType":"address"},{"name":"amountIn","type":"uint256","internalType":"uint256"}],"outputs":[{"name":"amountOut","type":"uint256","internalType":"uint256"}],"stateMutability":"nonpayable"},{"type":"function","name":"symbol","inputs":[],"outputs":[{"name":"","type":"string","internalType":"string"}],"stateMutability":"view"},{"type":"function","name":"totalSupply","inputs":[],"outputs":[{"name":"","type":"uint256","internalType":"uint256"}],"stateMutability":"view"},{"type":"function","name":"transfer","inputs":[{"name":"to","type":"address","internalType":"address"},{"name":"value","type":"uint256","internalType":"uint256"}],"outputs":[{"name":"","type":"bool","internalType":"bool"}],"stateMutability":"nonpayable"},{"type":"function","name":"transferFrom","inputs":[{"name":"from","type":"address","internalType":"address"},{"name":"to","type":"address","internalType":"address"},{"name":"value","type":"uint256","internalType":"uint256"}],"outputs":[{"name":"","type":"bool","internalType":"bool"}],"stateMutability":"nonpayable"},{"type":"function","name":"transferOwnership","inputs":[{"name":"newOwner","type":"address","internalType":"address"}],"outputs":[],"stateMutability":"nonpayable"},{"type":"function","name":"unpause","inputs":[],"outputs":[],"stateMutability":"nonpayable"},{"type":"function","name":"userATokenBalances","inputs":[{"name":"","type":"address","internalType":"address"}],"outputs":[{"name":"","type":"uint256","internalType":"uint256"}],"stateMutability":"view"},{"type":"function","name":"userDeposits","inputs":[{"name":"","type":"address","internalType":"address"}],"outputs":[{"name":"","type":"uint256","internalType":"uint256"}],"stateMutability":"view"},{"type":"function","name":"withdrawEther","inputs":[{"name":"to","type":"address","internalType":"address payable"}],"outputs":[],"stateMutability":"nonpayable"},{"type":"function","name":"withdrawYield","inputs":[{"name":"urzAmount","type":"uint256","internalType":"uint256"}],"outputs":[],"stateMutability":"nonpayable"},{"type":"function","name":"yieldFarm","inputs":[{"name":"urzAmount","type":"uint256","internalType":"uint256"}],"outputs":[{"name":"reward","type":"uint256","internalType":"uint256"}],"stateMutability":"nonpayable"},{"type":"event","name":"Approval","inputs":[{"name":"owner","type":"address","indexed":true,"internalType":"address"},{"name":"spender","type":"address","indexed":true,"internalType":"address"},{"name":"value","type":"uint256","indexed":false,"internalType":"uint256"}],"anonymous":false},{"type":"event","name":"Arbitrage","inputs":[{"name":"user","type":"address","indexed":true,"internalType":"address"},{"name":"profit","type":"uint256","indexed":false,"internalType":"uint256"}],"anonymous":false},{"type":"event","name":"FlashLoan","inputs":[{"name":"borrower","type":"address","indexed":true,"internalType":"address"},{"name":"urzAmount","type":"uint256","indexed":false,"internalType":"uint256"}],"anonymous":false},{"type":"event","name":"LiquidityAdded","inputs":[{"name":"provider","type":"address","indexed":true,"internalType":"address"},{"name":"urzAmount","type":"uint256","indexed":false,"internalType":"uint256"},{"name":"otherTokenAmount","type":"uint256","indexed":false,"internalType":"uint256"}],"anonymous":false},{"type":"event","name":"LiquidityRemoved","inputs":[{"name":"provider","type":"address","indexed":true,"internalType":"address"},{"name":"urzAmount","type":"uint256","indexed":false,"internalType":"uint256"},{"name":"otherTokenAmount","type":"uint256","indexed":false,"internalType":"uint256"}],"anonymous":false},{"type":"event","name":"OwnershipTransferred","inputs":[{"name":"previousOwner","type":"address","indexed":true,"internalType":"address"},{"name":"newOwner","type":"address","indexed":true,"internalType":"address"}],"anonymous":false},{"type":"event","name":"Paused","inputs":[{"name":"account","type":"address","indexed":false,"internalType":"address"}],"anonymous":false},{"type":"event","name":"Swap","inputs":[{"name":"user","type":"address","indexed":true,"internalType":"address"},{"name":"tokenIn","type":"address","indexed":false,"internalType":"address"},{"name":"tokenOut","type":"address","indexed":false,"internalType":"address"},{"name":"amountIn","type":"uint256","indexed":false,"internalType":"uint256"},{"name":"amountOut","type":"uint256","indexed":false,"internalType":"uint256"}],"anonymous":false},{"type":"event","name":"Transfer","inputs":[{"name":"from","type":"address","indexed":true,"internalType":"address"},{"name":"to","type":"address","indexed":true,"internalType":"address"},{"name":"value","type":"uint256","indexed":false,"internalType":"uint256"}],"anonymous":false},{"type":"event","name":"Unpaused","inputs":[{"name":"account","type":"address","indexed":false,"internalType":"address"}],"anonymous":false},{"type":"event","name":"YieldFarmed","inputs":[{"name":"user","type":"address","indexed":true,"internalType":"address"},{"name":"urzAmount","type":"uint256","indexed":false,"internalType":"uint256"},{"name":"reward","type":"uint256","indexed":false,"internalType":"uint256"}],"anonymous":false},{"type":"error","name":"ERC20InsufficientAllowance","inputs":[{"name":"spender","type":"address","internalType":"address"},{"name":"allowance","type":"uint256","internalType":"uint256"},{"name":"needed","type":"uint256","internalType":"uint256"}]},{"type":"error","name":"ERC20InsufficientBalance","inputs":[{"name":"sender","type":"address","internalType":"address"},{"name":"balance","type":"uint256","internalType":"uint256"},{"name":"needed","type":"uint256","internalType":"uint256"}]},{"type":"error","name":"ERC20InvalidApprover","inputs":[{"name":"approver","type":"address","internalType":"address"}]},{"type":"error","name":"ERC20InvalidReceiver","inputs":[{"name":"receiver","type":"address","internalType":"address"}]},{"type":"error","name":"ERC20InvalidSender","inputs":[{"name":"sender","type":"address","internalType":"address"}]},{"type":"error","name":"ERC20InvalidSpender","inputs":[{"name":"spender","type":"address","internalType":"address"}]},{"type":"error","name":"EnforcedPause","inputs":[]},{"type":"error","name":"ExpectedPause","inputs":[]},{"type":"error","name":"OwnableInvalidOwner","inputs":[{"name":"owner","type":"address","internalType":"address"}]},{"type":"error","name":"OwnableUnauthorizedAccount","inputs":[{"name":"account","type":"address","internalType":"address"}]}],"bytecode":{"object":"0x608060405234801561000f575f5ffd5b50604051611d1f380380611d1f83398101604081905261002e91610305565b8060405180604001604052806011815260200170556c74726152656e747a20537461626c6560781b815250604051806040016040528060038152602001622aa92d60e91b815250816003908161008491906103d5565b50600461009182826103d5565b5050506001600160a01b0381166100c257604051631e4fbdf760e01b81525f60048201526024015b60405180910390fd5b6100cb81610156565b506001600160a01b03811661012e5760405162461bcd60e51b8152602060048201526024808201527f537461626c653a206f776e65722063616e6e6f74206265207a65726f206164646044820152637265737360e01b60648201526084016100b9565b6101503361013e6012600a61058c565b61014b90620f424061059a565b6101a7565b506105c4565b600580546001600160a01b038381166001600160a01b0319831681179093556040519116919082907f8be0079c531659141344cd1fd0a4f28419497f9722a3daafe3b4186f6b6457e0905f90a35050565b6001600160a01b0382166101d05760405163ec442f0560e01b81525f60048201526024016100b9565b6101db5f83836101df565b5050565b6001600160a01b038316610209578060025f8282546101fe91906105b1565b909155506102799050565b6001600160a01b0383165f908152602081905260409020548181101561025b5760405163391434e360e21b81526001600160a01b038516600482015260248101829052604481018390526064016100b9565b6001600160a01b0384165f9081526020819052604090209082900390555b6001600160a01b038216610295576002805482900390556102b3565b6001600160a01b0382165f9081526020819052604090208054820190555b816001600160a01b0316836001600160a01b03167fddf252ad1be2c89b69c2b068fc378daa952ba7f163c4a11628f55a4df523b3ef836040516102f891815260200190565b60405180910390a3505050565b5f60208284031215610315575f5ffd5b81516001600160a01b038116811461032b575f5ffd5b9392505050565b634e487b7160e01b5f52604160045260245ffd5b600181811c9082168061035a57607f821691505b60208210810361037857634e487b7160e01b5f52602260045260245ffd5b50919050565b601f8211156103d057828211156103d057805f5260205f20601f840160051c60208510156103a957505f5b90810190601f840160051c035f5b818110156103cc575f838201556001016103b7565b5050505b505050565b81516001600160401b038111156103ee576103ee610332565b610402816103fc8454610346565b8461037e565b6020601f821160018114610434575f831561041d5750848201515b5f19600385901b1c1916600184901b17845561048c565b5f84815260208120601f198516915b828110156104635787850151825560209485019460019092019101610443565b508482101561048057868401515f19600387901b60f8161c191681555b505060018360011b0184555b5050505050565b634e487b7160e01b5f52601160045260245ffd5b6001815b60018411156104e2578085048111156104c6576104c6610493565b60018416156104d457908102905b60019390931c9280026104ab565b935093915050565b5f826104f857506001610586565b8161050457505f610586565b816001811461051a576002811461052457610540565b6001915050610586565b60ff84111561053557610535610493565b50506001821b610586565b5060208310610133831016604e8410600b8410161715610563575081810a610586565b61056f5f1984846104a7565b805f190482111561058257610582610493565b0290505b92915050565b5f61032b60ff8416836104ea565b808202811582820484141761058657610586610493565b8082018082111561058657610586610493565b61174e806105d15f395ff3fe6080604052600436106101d3575f3560e01c806370a08231116100fd578063a201ccf611610092578063b09de2f911610062578063b09de2f914610579578063d004f0f714610598578063dd62ed3e146105b7578063f2fde38b146105fb575f5ffd5b8063a201ccf6146104fd578063a9059cbb1461051c578063ab31978f1461053b578063af933b571461055a575f5ffd5b806395d89b41116100cd57806395d89b41146104ab578063969d89f9146102625780639ab603b9146104bf5780639dc29fac146104de575f5ffd5b806370a0823114610432578063715018a6146104665780638456cb591461047a5780638da5cb5b1461048e575f5ffd5b80632ff2e9dc116101735780634229abdd116101435780634229abdd146103b757806355776b77146103d65780635c975abb146103f557806369dd4bf314610413575f5ffd5b80632ff2e9dc14610353578063313ce567146103675780633f4ba83a1461038257806340c10f1914610398575f5ffd5b80630ba36dcd116101ae5780630ba36dcd146102bc5780630d919b06146102f557806318160ddd1461032057806323b872dd14610334575f5ffd5b806306fdde031461023857806308a0167514610262578063095ea7b31461028d575f5ffd5b366102345760405162461bcd60e51b815260206004820152602660248201527f556c74726152656e747a537461626c6520646f6573206e6f74206163636570746044820152651022ba3432b960d11b60648201526084015b60405180910390fd5b5f5ffd5b348015610243575f5ffd5b5061024c61061a565b6040516102599190611415565b60405180910390f35b34801561026d575f5ffd5b506102755f81565b6040516001600160a01b039091168152602001610259565b348015610298575f5ffd5b506102ac6102a736600461145e565b6106aa565b6040519015158152602001610259565b3480156102c7575f5ffd5b506102e76102d6366004611488565b60066020525f908152604090205481565b604051908152602001610259565b348015610300575f5ffd5b506102e761030f366004611488565b60076020525f908152604090205481565b34801561032b575f5ffd5b506002546102e7565b34801561033f575f5ffd5b506102ac61034e3660046114aa565b6106c3565b34801561035e575f5ffd5b506102e76106e6565b348015610372575f5ffd5b5060405160128152602001610259565b34801561038d575f5ffd5b50610396610702565b005b3480156103a3575f5ffd5b506103966103b236600461145e565b610714565b3480156103c2575f5ffd5b506102e76103d1366004611488565b610794565b3480156103e1575f5ffd5b506103966103f03660046114e8565b61082f565b348015610400575f5ffd5b50600554600160a01b900460ff166102ac565b34801561041e575f5ffd5b506102e761042d36600461151a565b61088d565b34801561043d575f5ffd5b506102e761044c366004611488565b6001600160a01b03165f9081526020819052604090205490565b348015610471575f5ffd5b50610396610a84565b348015610485575f5ffd5b50610396610a95565b348015610499575f5ffd5b506005546001600160a01b0316610275565b3480156104b6575f5ffd5b5061024c610aa5565b3480156104ca575f5ffd5b506103966104d936600461151a565b610ab4565b3480156104e9575f5ffd5b506103966104f836600461145e565b610b0f565b348015610508575f5ffd5b5061039661051736600461145e565b610b8d565b348015610527575f5ffd5b506102ac61053636600461145e565b610bee565b348015610546575f5ffd5b5061039661055536600461151a565b610bfb565b348015610565575f5ffd5b50610396610574366004611488565b610df4565b348015610584575f5ffd5b506102e76105933660046114aa565b610e76565b3480156105a3575f5ffd5b506102e76105b236600461145e565b610ed1565b3480156105c2575f5ffd5b506102e76105d1366004611531565b6001600160a01b039182165f90815260016020908152604080832093909416825291909152205490565b348015610606575f5ffd5b50610396610615366004611488565b610f22565b60606003805461062990611568565b80601f016020809104026020016040519081016040528092919081815260200182805461065590611568565b80156106a05780601f10610677576101008083540402835291602001916106a0565b820191905f5260205f20905b81548152906001019060200180831161068357829003601f168201915b5050505050905090565b5f336106b7818585610f5f565b60019150505b92915050565b5f336106d0858285610f71565b6106db858585610fed565b506001949350505050565b6106f26012600a611697565b6106ff90620f42406116a5565b81565b61070a61104a565b610712611077565b565b61071c61104a565b6107246110cc565b6001600160a01b0382166107865760405162461bcd60e51b815260206004820152602360248201527f537461626c653a2063616e6e6f74206d696e7420746f207a65726f206164647260448201526265737360e81b606482015260840161022b565b61079082826110f7565b5050565b6040516370a0823160e01b81523060048201525f90819081906370a0823190602401602060405180830381865afa1580156107d1573d5f5f3e3d5ffd5b505050506040513d601f19601f820116820180604052508101906107f591906116bc565b6001600160a01b0384165f9081526006602052604090205490915080821161081d575f610827565b61082781836116d3565b949350505050565b6108376110cc565b60405162461bcd60e51b815260206004820152602560248201527f537461626c653a20416464206c6971756964697479206e6f7420696d706c656d604482015264195b9d195960da1b606482015260840161022b565b5f6108966110cc565b5f82116108da5760405162461bcd60e51b81526020600482015260126024820152710416d6f756e74206d757374206265203e20360741b604482015260640161022b565b335f9081526020819052604090205482111561092b5760405162461bcd60e51b815260206004820152601060248201526f24b739bab33334b1b4b2b73a102aa92d60811b604482015260640161022b565b610936333084610fed565b60405163095ea7b360e01b81525f600482015260248101839052309063095ea7b3906044016020604051808303815f875af1158015610977573d5f5f3e3d5ffd5b505050506040513d601f19601f8201168201806040525081019061099b91906116e6565b5060405163617ba03760e01b815230600482018190526024820184905260448201525f606482018190529063617ba037906084015f604051808303815f87803b1580156109e6575f5ffd5b505af11580156109f8573d5f5f3e3d5ffd5b5050335f9081526006602052604081208054869450909250610a1b908490611705565b9091555050335f9081526007602052604081208054849290610a3e908490611705565b9091555050604080518381525f602082015233917f3cfe5abbc8ba0a72684be20ad6a5d477bb3f7f28e1ace97a849b380907faa646910160405180910390a2505f919050565b610a8c61104a565b6107125f61112b565b610a9d61104a565b61071261117c565b60606004805461062990611568565b610abc6110cc565b60405162461bcd60e51b815260206004820152602260248201527f537461626c653a20466c617368206c6f616e206e6f7420696d706c656d656e74604482015261195960f21b606482015260840161022b565b610b1761104a565b610b1f6110cc565b6001600160a01b038216610b835760405162461bcd60e51b815260206004820152602560248201527f537461626c653a2063616e6e6f74206275726e2066726f6d207a65726f206164604482015264647265737360d81b606482015260840161022b565b61079082826111bf565b610b956110cc565b60405162461bcd60e51b815260206004820152602860248201527f537461626c653a2052656d6f7665206c6971756964697479206e6f7420696d706044820152671b195b595b9d195960c21b606482015260840161022b565b5f336106b7818585610fed565b610c036110cc565b335f90815260066020526040902054811115610c585760405162461bcd60e51b8152602060048201526014602482015273139bdd08195b9bdd59da0819195c1bdcda5d195960621b604482015260640161022b565b604051631a4ca37b60e21b815230600482018190526024820183905260448201525f9081906369328dec906064016020604051808303815f875af1158015610ca2573d5f5f3e3d5ffd5b505050506040513d601f19601f82011682018060405250810190610cc691906116bc565b9050610cd3303383610fed565b335f9081526006602052604081208054849290610cf19084906116d3565b9091555050335f9081526007602052604081208054849290610d149084906116d3565b90915550506040516370a0823160e01b81523060048201525f9081906370a0823190602401602060405180830381865afa158015610d54573d5f5f3e3d5ffd5b505050506040513d601f19601f82011682018060405250810190610d7891906116bc565b335f90815260066020526040812054919250908211610d97575f610db0565b335f90815260066020526040902054610db090836116d3565b604080518681526020810183905291925033917f3cfe5abbc8ba0a72684be20ad6a5d477bb3f7f28e1ace97a849b380907faa646910160405180910390a250505050565b610dfc61104a565b6001600160a01b038116610e445760405162461bcd60e51b815260206004820152600f60248201526e496e76616c6964206164647265737360881b604482015260640161022b565b6040516001600160a01b038216904780156108fc02915f818181858888f19350505050158015610790573d5f5f3e3d5ffd5b5f610e7f6110cc565b60405162461bcd60e51b815260206004820152602160248201527f537461626c653a20417262697472616765206e6f7420696d706c656d656e74656044820152601960fa1b606482015260840161022b565b5f610eda6110cc565b60405162461bcd60e51b815260206004820152601c60248201527f537461626c653a2053776170206e6f7420696d706c656d656e74656400000000604482015260640161022b565b610f2a61104a565b6001600160a01b038116610f5357604051631e4fbdf760e01b81525f600482015260240161022b565b610f5c8161112b565b50565b610f6c83838360016111f3565b505050565b6001600160a01b038381165f908152600160209081526040808320938616835292905220545f19811015610fe75781811015610fd957604051637dc7a0d960e11b81526001600160a01b0384166004820152602481018290526044810183905260640161022b565b610fe784848484035f6111f3565b50505050565b6001600160a01b03831661101657604051634b637e8f60e11b81525f600482015260240161022b565b6001600160a01b03821661103f5760405163ec442f0560e01b81525f600482015260240161022b565b610f6c8383836112c5565b6005546001600160a01b031633146107125760405163118cdaa760e01b815233600482015260240161022b565b61107f6113eb565b6005805460ff60a01b191690557f5db9ee0a495bf2e6ff9c91a7834c1ba4fdd244a5e8aa4e537bd38aeae4b073aa335b6040516001600160a01b03909116815260200160405180910390a1565b600554600160a01b900460ff16156107125760405163d93c066560e01b815260040160405180910390fd5b6001600160a01b0382166111205760405163ec442f0560e01b81525f600482015260240161022b565b6107905f83836112c5565b600580546001600160a01b038381166001600160a01b0319831681179093556040519116919082907f8be0079c531659141344cd1fd0a4f28419497f9722a3daafe3b4186f6b6457e0905f90a35050565b6111846110cc565b6005805460ff60a01b1916600160a01b1790557f62e78cea01bee320cd4e420270b5ea74000d11b0c9f74754ebdbfc544b05a2586110af3390565b6001600160a01b0382166111e857604051634b637e8f60e11b81525f600482015260240161022b565b610790825f836112c5565b6001600160a01b03841661121c5760405163e602df0560e01b81525f600482015260240161022b565b6001600160a01b03831661124557604051634a1406b160e11b81525f600482015260240161022b565b6001600160a01b038085165f9081526001602090815260408083209387168352929052208290558015610fe757826001600160a01b0316846001600160a01b03167f8c5be1e5ebec7d5bd14f71427d1e84f3dd0314c0f7b2291e5b200ac8c7c3b925846040516112b791815260200190565b60405180910390a350505050565b6001600160a01b0383166112ef578060025f8282546112e49190611705565b9091555061135f9050565b6001600160a01b0383165f90815260208190526040902054818110156113415760405163391434e360e21b81526001600160a01b0385166004820152602481018290526044810183905260640161022b565b6001600160a01b0384165f9081526020819052604090209082900390555b6001600160a01b03821661137b57600280548290039055611399565b6001600160a01b0382165f9081526020819052604090208054820190555b816001600160a01b0316836001600160a01b03167fddf252ad1be2c89b69c2b068fc378daa952ba7f163c4a11628f55a4df523b3ef836040516113de91815260200190565b60405180910390a3505050565b600554600160a01b900460ff1661071257604051638dfc202b60e01b815260040160405180910390fd5b602081525f82518060208401528060208501604085015e5f604082850101526040601f19601f83011684010191505092915050565b6001600160a01b0381168114610f5c575f5ffd5b5f5f6040838503121561146f575f5ffd5b823561147a8161144a565b946020939093013593505050565b5f60208284031215611498575f5ffd5b81356114a38161144a565b9392505050565b5f5f5f606084860312156114bc575f5ffd5b83356114c78161144a565b925060208401356114d78161144a565b929592945050506040919091013590565b5f5f5f606084860312156114fa575f5ffd5b83356115058161144a565b95602085013595506040909401359392505050565b5f6020828403121561152a575f5ffd5b5035919050565b5f5f60408385031215611542575f5ffd5b823561154d8161144a565b9150602083013561155d8161144a565b809150509250929050565b600181811c9082168061157c57607f821691505b60208210810361159a57634e487b7160e01b5f52602260045260245ffd5b50919050565b634e487b7160e01b5f52601160045260245ffd5b6001815b60018411156115ef578085048111156115d3576115d36115a0565b60018416156115e157908102905b60019390931c9280026115b8565b935093915050565b5f82611605575060016106bd565b8161161157505f6106bd565b816001811461162757600281146116315761164d565b60019150506106bd565b60ff841115611642576116426115a0565b50506001821b6106bd565b5060208310610133831016604e8410600b8410161715611670575081810a6106bd565b61167c5f1984846115b4565b805f190482111561168f5761168f6115a0565b029392505050565b5f6114a360ff8416836115f7565b80820281158282048414176106bd576106bd6115a0565b5f602082840312156116cc575f5ffd5b5051919050565b818103818111156106bd576106bd6115a0565b5f602082840312156116f6575f5ffd5b815180151581146114a3575f5ffd5b808201808211156106bd576106bd6115a056fea26469706673582212203a741f00dc87f318ad264a2d08de7f67297f35b16812963cadab5e5d2f07270c64736f6c63430008210033","linkReferences":{}},"methodIdentifiers":{"AAVE_ATOKEN()":"969d89f9","AAVE_POOL()":"08a01675","INITIAL_SUPPLY()":"2ff2e9dc","addLiquidity(address,uint256,uint256)":"55776b77","allowance(address,address)":"dd62ed3e","approve(address,uint256)":"095ea7b3","arbitrage(address,address,uint256)":"b09de2f9","balanceOf(address)":"70a08231","burn(address,uint256)":"9dc29fac","decimals()":"313ce567","flashLoan(uint256)":"9ab603b9","getUserYield(address)":"4229abdd","mint(address,uint256)":"40c10f19","name()":"06fdde03","owner()":"8da5cb5b","pause()":"8456cb59","paused()":"5c975abb","removeLiquidity(address,uint256)":"a201ccf6","renounceOwnership()":"715018a6","swap(address,uint256)":"d004f0f7","symbol()":"95d89b41","totalSupply()":"18160ddd","transfer(address,uint256)":"a9059cbb","transferFrom(address,address,uint256)":"23b872dd","transferOwnership(address)":"f2fde38b","unpause()":"3f4ba83a","userATokenBalances(address)":"0d919b06","userDeposits(address)":"0ba36dcd","withdrawEther(address)":"af933b57","withdrawYield(uint256)":"ab31978f","yieldFarm(uint256)":"69dd4bf3"},"id":51}