{"abi":[{"type":"constructor","inputs":[{"name":"initialOwner","type":"address","internalType":"address"}],"stateMutability":"nonpayable"},{"type":"function","name":"MAX_APPEALS","inputs":[],"outputs":[{"name":"","type":"uint256","internalType":"uint256"}],"stateMutability":"view"},{"type":"function","name":"RESOLUTION_WINDOW","inputs":[],"outputs":[{"name":"","type":"uint256","internalType":"uint256"}],"stateMutability":"view"},{"type":"function","name":"approveRelease","inputs":[{"name":"escrowId","type":"uint256","internalType":"uint256"}],"outputs":[],"stateMutability":"nonpayable"},{"type":"function","name":"createEscrow","inputs":[{"name":"landlord","type":"address","internalType":"address"},{"name":"amount","type":"uint256","internalType":"uint256"},{"name":"token","type":"address","internalType":"address"},{"name":"startDate","type":"uint256","internalType":"uint256"},{"name":"endDate","type":"uint256","internalType":"uint256"},{"name":"signatories","type":"address[6]","internalType":"address[6]"}],"outputs":[{"name":"id","type":"uint256","internalType":"uint256"}],"stateMutability":"nonpayable"},{"type":"function","name":"escrowCounter","inputs":[],"outputs":[{"name":"","type":"uint256","internalType":"uint256"}],"stateMutability":"view"},{"type":"function","name":"finalizeAppealDecision","inputs":[{"name":"escrowId","type":"uint256","internalType":"uint256"},{"name":"releaseToLandlord","type":"bool","internalType":"bool"}],"outputs":[],"stateMutability":"nonpayable"},{"type":"function","name":"finalizeEscrow","inputs":[{"name":"escrowId","type":"uint256","internalType":"uint256"}],"outputs":[],"stateMutability":"nonpayable"},{"type":"function","name":"fundEscrow","inputs":[{"name":"escrowId","type":"uint256","internalType":"uint256"}],"outputs":[],"stateMutability":"nonpayable"},{"type":"function","name":"getEscrowDetails","inputs":[{"name":"escrowId","type":"uint256","internalType":"uint256"}],"outputs":[{"name":"tenant","type":"address","internalType":"address"},{"name":"landlord","type":"address","internalType":"address"},{"name":"amount","type":"uint256","internalType":"uint256"},{"name":"token","type":"address","internalType":"address"},{"name":"startDate","type":"uint256","internalType":"uint256"},{"name":"endDate","type":"uint256","internalType":"uint256"},{"name":"signatories","type":"address[6]","internalType":"address[6]"},{"name":"approvals","type":"uint8","internalType":"uint8"},{"name":"state","type":"uint8","internalType":"enum UltraRentzEscrow.EscrowState"},{"name":"appealCount","type":"uint8","internalType":"uint8"}],"stateMutability":"view"},{"type":"function","name":"getEscrowStatus","inputs":[{"name":"escrowId","type":"uint256","internalType":"uint256"}],"outputs":[{"name":"","type":"string","internalType":"string"}],"stateMutability":"view"},{"type":"function","name":"getSignatories","inputs":[{"name":"escrowId","type":"uint256","internalType":"uint256"}],"outputs":[{"name":"","type":"address[6]","internalType":"address[6]"}],"stateMutability":"view"},{"type":"function","name":"hasSignatoryApproved","inputs":[{"name":"escrowId","type":"uint256","internalType":"uint256"},{"name":"signatory","type":"address","internalType":"address"}],"outputs":[{"name":"","type":"bool","internalType":"bool"}],"stateMutability":"view"},{"type":"function","name":"owner","inputs":[],"outputs":[{"name":"","type":"address","internalType":"address"}],"stateMutability":"view"},{"type":"function","name":"raiseDispute","inputs":[{"name":"escrowId","type":"uint256","internalType":"uint256"}],"outputs":[],"stateMutability":"nonpayable"},{"type":"function","name":"releaseAfterEndDate","inputs":[{"name":"escrowId","type":"uint256","internalType":"uint256"}],"outputs":[],"stateMutability":"nonpayable"},{"type":"function","name":"renounceOwnership","inputs":[],"outputs":[],"stateMutability":"nonpayable"},{"type":"function","name":"resolveDispute","inputs":[{"name":"escrowId","type":"uint256","internalType":"uint256"},{"name":"releaseToLandlord","type":"bool","internalType":"bool"}],"outputs":[],"stateMutability":"nonpayable"},{"type":"function","name":"submitAppeal","inputs":[{"name":"escrowId","type":"uint256","internalType":"uint256"}],"outputs":[],"stateMutability":"nonpayable"},{"type":"function","name":"transferOwnership","inputs":[{"name":"newOwner","type":"address","internalType":"address"}],"outputs":[],"stateMutability":"nonpayable"},{"type":"event","name":"AppealFinalized","inputs":[{"name":"escrowId","type":"uint256","indexed":true,"internalType":"uint256"},{"name":"finalState","type":"uint8","indexed":false,"internalType":"enum UltraRentzEscrow.EscrowState"},{"name":"success","type":"bool","indexed":false,"internalType":"bool"}],"anonymous":false},{"type":"event","name":"AppealSubmitted","inputs":[{"name":"escrowId","type":"uint256","indexed":true,"internalType":"uint256"}],"anonymous":false},{"type":"event","name":"ApprovalSubmitted","inputs":[{"name":"escrowId","type":"uint256","indexed":true,"internalType":"uint256"},{"name":"signatory","type":"address","indexed":false,"internalType":"address"},{"name":"totalApprovals","type":"uint8","indexed":false,"internalType":"uint8"}],"anonymous":false},{"type":"event","name":"DisputeResolved","inputs":[{"name":"escrowId","type":"uint256","indexed":true,"internalType":"uint256"},{"name":"resolution","type":"uint8","indexed":false,"internalType":"enum UltraRentzEscrow.EscrowState"}],"anonymous":false},{"type":"event","name":"EscrowCreated","inputs":[{"name":"escrowId","type":"uint256","indexed":true,"internalType":"uint256"},{"name":"tenant","type":"address","indexed":true,"internalType":"address"},{"name":"landlord","type":"address","indexed":false,"internalType":"address"},{"name":"token","type":"address","indexed":false,"internalType":"address"}],"anonymous":false},{"type":"event","name":"EscrowDisputed","inputs":[{"name":"escrowId","type":"uint256","indexed":true,"internalType":"uint256"}],"anonymous":false},{"type":"event","name":"EscrowFunded","inputs":[{"name":"escrowId","type":"uint256","indexed":true,"internalType":"uint256"},{"name":"amount","type":"uint256","indexed":false,"internalType":"uint256"}],"anonymous":false},{"type":"event","name":"EscrowRefunded","inputs":[{"name":"escrowId","type":"uint256","indexed":true,"internalType":"uint256"},{"name":"tenant","type":"address","indexed":false,"internalType":"address"},{"name":"token","type":"address","indexed":false,"internalType":"address"}],"anonymous":false},{"type":"event","name":"EscrowReleased","inputs":[{"name":"escrowId","type":"uint256","indexed":true,"internalType":"uint256"},{"name":"landlord","type":"address","indexed":false,"internalType":"address"},{"name":"token","type":"address","indexed":false,"internalType":"address"}],"anonymous":false},{"type":"event","name":"Notification","inputs":[{"name":"message","type":"string","indexed":false,"internalType":"string"}],"anonymous":false},{"type":"event","name":"OwnershipTransferred","inputs":[{"name":"previousOwner","type":"address","indexed":true,"internalType":"address"},{"name":"newOwner","type":"address","indexed":true,"internalType":"address"}],"anonymous":false},{"type":"error","name":"OwnableInvalidOwner","inputs":[{"name":"owner","type":"address","internalType":"address"}]},{"type":"error","name":"OwnableUnauthorizedAccount","inputs":[{"name":"account","type":"address","internalType":"address"}]},{"type":"error","name":"ReentrancyGuardReentrantCall","inputs":[]}],"bytecode":{"object":"0x608060405234801561000f575f5ffd5b50604051613cfd380380613cfd833981810160405281019061003191906101de565b805f73ffffffffffffffffffffffffffffffffffffffff168173ffffffffffffffffffffffffffffffffffffffff16036100a2575f6040517f1e4fbdf70000000000000000000000000000000000000000000000000000000081526004016100999190610218565b60405180910390fd5b6100b1816100bf60201b60201c565b506001808190555050610231565b5f5f5f9054906101000a900473ffffffffffffffffffffffffffffffffffffffff169050815f5f6101000a81548173ffffffffffffffffffffffffffffffffffffffff021916908373ffffffffffffffffffffffffffffffffffffffff1602179055508173ffffffffffffffffffffffffffffffffffffffff168173ffffffffffffffffffffffffffffffffffffffff167f8be0079c531659141344cd1fd0a4f28419497f9722a3daafe3b4186f6b6457e060405160405180910390a35050565b5f5ffd5b5f73ffffffffffffffffffffffffffffffffffffffff82169050919050565b5f6101ad82610184565b9050919050565b6101bd816101a3565b81146101c7575f5ffd5b50565b5f815190506101d8816101b4565b92915050565b5f602082840312156101f3576101f2610180565b5b5f610200848285016101ca565b91505092915050565b610212816101a3565b82525050565b5f60208201905061022b5f830184610209565b92915050565b613abf8061023e5f395ff3fe608060405234801561000f575f5ffd5b506004361061011f575f3560e01c8063734c8544116100ab578063b996ec2a1161006f578063b996ec2a146102db578063c7ceafea14610314578063c9c31af514610332578063cfe8ad961461034e578063f2fde38b1461037e5761011f565b8063734c85441461024b5780638da5cb5b146102695780639db94ed714610287578063a5c1674e146102a3578063b43a405a146102bf5761011f565b806334b25ee2116100f257806334b25ee2146101a757806346a80b24146101c35780635c95c441146101f357806365f4c09814610211578063715018a6146102415761011f565b806310c685e01461012357806319dc88ae1461013f5780631bd2cea11461015b578063345460cd14610177575b5f5ffd5b61013d600480360381019061013891906128c1565b61039a565b005b610159600480360381019061015491906128c1565b6106f3565b005b610175600480360381019061017091906128c1565b61098b565b005b610191600480360381019061018c91906128c1565b610c9e565b60405161019e919061295c565b60405180910390f35b6101c160048036038101906101bc91906129b1565b6110c9565b005b6101dd60048036038101906101d89190612b77565b61128b565b6040516101ea9190612c10565b60405180910390f35b6101fb611623565b6040516102089190612c10565b60405180910390f35b61022b600480360381019061022691906128c1565b611628565b6040516102389190612cce565b60405180910390f35b6102496116bc565b005b6102536116cf565b6040516102609190612c10565b60405180910390f35b6102716116d6565b60405161027e9190612cf6565b60405180910390f35b6102a1600480360381019061029c91906129b1565b6116fd565b005b6102bd60048036038101906102b891906128c1565b61190a565b005b6102d960048036038101906102d491906128c1565b611ad4565b005b6102f560048036038101906102f091906128c1565b611d06565b60405161030b9a99989796959493929190612d9d565b60405180910390f35b61031c611e73565b6040516103299190612c10565b60405180910390f35b61034c600480360381019061034791906128c1565b611e79565b005b61036860048036038101906103639190612e38565b6120c8565b6040516103759190612e85565b60405180910390f35b61039860048036038101906103939190612e9e565b61212d565b005b805f5f5f90505b60068160ff16101561043f573373ffffffffffffffffffffffffffffffffffffffff1660035f8581526020019081526020015f206006018260ff16600681106103ed576103ec612ec9565b5b015f9054906101000a900473ffffffffffffffffffffffffffffffffffffffff1673ffffffffffffffffffffffffffffffffffffffff1603610432576001915061043f565b80806001019150506103a1565b5080610480576040517f08c379a000000000000000000000000000000000000000000000000000000000815260040161047790612f40565b60405180910390fd5b6104886121b1565b5f60035f8581526020019081526020015f209050600160078111156104b0576104af612d2a565b5b81600d0160019054906101000a900460ff1660078111156104d4576104d3612d2a565b5b14610514576040517f08c379a000000000000000000000000000000000000000000000000000000000815260040161050b90612fa8565b60405180910390fd5b8060050154421161055a576040517f08c379a000000000000000000000000000000000000000000000000000000000815260040161055190613010565b60405180910390fd5b80600c015f3373ffffffffffffffffffffffffffffffffffffffff1673ffffffffffffffffffffffffffffffffffffffff1681526020019081526020015f205f9054906101000a900460ff16156105e6576040517f08c379a00000000000000000000000000000000000000000000000000000000081526004016105dd90613078565b60405180910390fd5b600181600c015f3373ffffffffffffffffffffffffffffffffffffffff1673ffffffffffffffffffffffffffffffffffffffff1681526020019081526020015f205f6101000a81548160ff02191690831515021790555080600d015f81819054906101000a900460ff168092919061065d906130c3565b91906101000a81548160ff021916908360ff16021790555050837f31fdc4d501a17fc8bb26e1ab1136058e5975bc80399612d9abbf0b42e760c8553383600d015f9054906101000a900460ff166040516106b89291906130eb565b60405180910390a2600481600d015f9054906101000a900460ff1660ff16106106e5576106e4846121f7565b5b506106ee6122e9565b505050565b8060035f8281526020019081526020015f205f015f9054906101000a900473ffffffffffffffffffffffffffffffffffffffff1673ffffffffffffffffffffffffffffffffffffffff163373ffffffffffffffffffffffffffffffffffffffff1614610794576040517f08c379a000000000000000000000000000000000000000000000000000000000815260040161078b9061315c565b60405180910390fd5b5f60035f8481526020019081526020015f209050600660078111156107bc576107bb612d2a565b5b81600d0160019054906101000a900460ff1660078111156107e0576107df612d2a565b5b148061082057506007808111156107fa576107f9612d2a565b5b81600d0160019054906101000a900460ff16600781111561081e5761081d612d2a565b5b145b61085f576040517f08c379a0000000000000000000000000000000000000000000000000000000008152600401610856906131c4565b60405180910390fd5b600281600f015f9054906101000a900460ff1660ff16106108b5576040517f08c379a00000000000000000000000000000000000000000000000000000000081526004016108ac9061322c565b60405180910390fd5b80600f015f81819054906101000a900460ff16809291906108d5906130c3565b91906101000a81548160ff021916908360ff160217905550504281600e0181905550600581600d0160016101000a81548160ff0219169083600781111561091f5761091e612d2a565b5b0217905550827f9f99ae1c2ed3bebdabfddb8a9ded0b435ed0e72af5dd8b48c86af9e1825effa360405160405180910390a27f7d1ff22c1a82f0d8fc4f45d2aec63e679ecb08700b30f7e90ae3721d13b1f6bd60405161097e906132ba565b60405180910390a1505050565b805f5f5f90505b60068160ff161015610a30573373ffffffffffffffffffffffffffffffffffffffff1660035f8581526020019081526020015f206006018260ff16600681106109de576109dd612ec9565b5b015f9054906101000a900473ffffffffffffffffffffffffffffffffffffffff1673ffffffffffffffffffffffffffffffffffffffff1603610a235760019150610a30565b8080600101915050610992565b5080610a71576040517f08c379a0000000000000000000000000000000000000000000000000000000008152600401610a6890612f40565b60405180910390fd5b610a796121b1565b5f60035f8581526020019081526020015f20905060016007811115610aa157610aa0612d2a565b5b81600d0160019054906101000a900460ff166007811115610ac557610ac4612d2a565b5b14610b05576040517f08c379a0000000000000000000000000000000000000000000000000000000008152600401610afc90612fa8565b60405180910390fd5b80600c015f3373ffffffffffffffffffffffffffffffffffffffff1673ffffffffffffffffffffffffffffffffffffffff1681526020019081526020015f205f9054906101000a900460ff1615610b91576040517f08c379a0000000000000000000000000000000000000000000000000000000008152600401610b8890613078565b60405180910390fd5b600181600c015f3373ffffffffffffffffffffffffffffffffffffffff1673ffffffffffffffffffffffffffffffffffffffff1681526020019081526020015f205f6101000a81548160ff02191690831515021790555080600d015f81819054906101000a900460ff1680929190610c08906130c3565b91906101000a81548160ff021916908360ff16021790555050837f31fdc4d501a17fc8bb26e1ab1136058e5975bc80399612d9abbf0b42e760c8553383600d015f9054906101000a900460ff16604051610c639291906130eb565b60405180910390a2600481600d015f9054906101000a900460ff1660ff1610610c9057610c8f846121f7565b5b50610c996122e9565b505050565b60605f60035f8481526020019081526020015f2090505f6007811115610cc757610cc6612d2a565b5b81600d0160019054906101000a900460ff166007811115610ceb57610cea612d2a565b5b03610d2e576040518060400160405280600781526020017f43726561746564000000000000000000000000000000000000000000000000008152509150506110c4565b60016007811115610d4257610d41612d2a565b5b81600d0160019054906101000a900460ff166007811115610d6657610d65612d2a565b5b03610da9576040518060400160405280600681526020017f46756e64656400000000000000000000000000000000000000000000000000008152509150506110c4565b60026007811115610dbd57610dbc612d2a565b5b81600d0160019054906101000a900460ff166007811115610de157610de0612d2a565b5b03610e24576040518060400160405280600a81526020017f496e2044697370757465000000000000000000000000000000000000000000008152509150506110c4565b60036007811115610e3857610e37612d2a565b5b81600d0160019054906101000a900460ff166007811115610e5c57610e5b612d2a565b5b03610e9f576040518060400160405280601481526020017f52656c656173656420746f204c616e646c6f72640000000000000000000000008152509150506110c4565b60046007811115610eb357610eb2612d2a565b5b81600d0160019054906101000a900460ff166007811115610ed757610ed6612d2a565b5b03610f1a576040518060400160405280601281526020017f526566756e64656420746f2054656e616e7400000000000000000000000000008152509150506110c4565b60056007811115610f2e57610f2d612d2a565b5b81600d0160019054906101000a900460ff166007811115610f5257610f51612d2a565b5b03610f95576040518060400160405280600e81526020017f50656e64696e672041707065616c0000000000000000000000000000000000008152509150506110c4565b60066007811115610fa957610fa8612d2a565b5b81600d0160019054906101000a900460ff166007811115610fcd57610fcc612d2a565b5b03611010576040518060400160405280601e81526020017f4465636973696f6e3a2052656c65617365202841707065616c61626c652900008152509150506110c4565b60078081111561102357611022612d2a565b5b81600d0160019054906101000a900460ff16600781111561104757611046612d2a565b5b0361108a576040518060400160405280601d81526020017f4465636973696f6e3a20526566756e64202841707065616c61626c65290000008152509150506110c4565b6040518060400160405280600781526020017f556e6b6e6f776e000000000000000000000000000000000000000000000000008152509150505b919050565b6110d16116d6565b73ffffffffffffffffffffffffffffffffffffffff163373ffffffffffffffffffffffffffffffffffffffff161461113e576040517f08c379a000000000000000000000000000000000000000000000000000000000815260040161113590613322565b60405180910390fd5b6111466121b1565b5f60035f8481526020019081526020015f2090506002600781111561116e5761116d612d2a565b5b81600d0160019054906101000a900460ff16600781111561119257611191612d2a565b5b146111d2576040517f08c379a00000000000000000000000000000000000000000000000000000000081526004016111c99061338a565b60405180910390fd5b62093a8081600e01546111e591906133a8565b421115611227576040517f08c379a000000000000000000000000000000000000000000000000000000000815260040161121e90613425565b60405180910390fd5b6112358383600660076122f2565b827f2ffcfee146bc0d5ff304c6b65111a0d485af9456dc64eee7d66ebdcc90b223ea82600d0160019054906101000a900460ff166040516112769190613443565b60405180910390a2506112876122e9565b5050565b5f5f73ffffffffffffffffffffffffffffffffffffffff168773ffffffffffffffffffffffffffffffffffffffff16036112fa576040517f08c379a00000000000000000000000000000000000000000000000000000000081526004016112f1906134a6565b60405180910390fd5b5f73ffffffffffffffffffffffffffffffffffffffff168573ffffffffffffffffffffffffffffffffffffffff1603611368576040517f08c379a000000000000000000000000000000000000000000000000000000000815260040161135f9061350e565b60405180910390fd5b8383116113aa576040517f08c379a00000000000000000000000000000000000000000000000000000000081526004016113a190613576565b60405180910390fd5b5f3388866040516020016113c0939291906135f9565b60405160208183030381529060405280519060200120905060045f8281526020019081526020015f205f9054906101000a900460ff1615611436576040517f08c379a000000000000000000000000000000000000000000000000000000000815260040161142d9061367f565b60405180910390fd5b60025f81546114449061369d565b91905081905591505f60035f8481526020019081526020015f20905033815f015f6101000a81548173ffffffffffffffffffffffffffffffffffffffff021916908373ffffffffffffffffffffffffffffffffffffffff16021790555088816001015f6101000a81548173ffffffffffffffffffffffffffffffffffffffff021916908373ffffffffffffffffffffffffffffffffffffffff16021790555087816002018190555086816003015f6101000a81548173ffffffffffffffffffffffffffffffffffffffff021916908373ffffffffffffffffffffffffffffffffffffffff16021790555085816004018190555084816005018190555083816006019060066115539291906127c8565b505f81600d0160016101000a81548160ff0219169083600781111561157b5761157a612d2a565b5b0217905550600181600f0160016101000a81548160ff021916908315150217905550600160045f8481526020019081526020015f205f6101000a81548160ff0219169083151502179055503373ffffffffffffffffffffffffffffffffffffffff16837fccab83b228b9f11d0f002db0d115fe84ab0bacbe475d1c28666963a66c20c4368b8a60405161160f9291906136e4565b60405180910390a350509695505050505050565b600281565b611630612844565b60035f8381526020019081526020015f206006016006806020026040519081016040528092919082600680156116b0576020028201915b815f9054906101000a900473ffffffffffffffffffffffffffffffffffffffff1673ffffffffffffffffffffffffffffffffffffffff1681526020019060010190808311611667575b50505050509050919050565b6116c4612371565b6116cd5f6123f8565b565b62093a8081565b5f5f5f9054906101000a900473ffffffffffffffffffffffffffffffffffffffff16905090565b6117056116d6565b73ffffffffffffffffffffffffffffffffffffffff163373ffffffffffffffffffffffffffffffffffffffff1614611772576040517f08c379a000000000000000000000000000000000000000000000000000000000815260040161176990613322565b60405180910390fd5b61177a6121b1565b5f60035f8481526020019081526020015f209050600560078111156117a2576117a1612d2a565b5b81600d0160019054906101000a900460ff1660078111156117c6576117c5612d2a565b5b14611806576040517f08c379a00000000000000000000000000000000000000000000000000000000081526004016117fd90613755565b60405180910390fd5b62093a8081600e015461181991906133a8565b42111561185b576040517f08c379a000000000000000000000000000000000000000000000000000000000815260040161185290613425565b60405180910390fd5b6118698383600660076122f2565b827f34572d32f3bb0eff148ee17d0122170a41891d6a37564b756027d0cc5eb6123d82600d0160019054906101000a900460ff16846040516118ac929190613773565b60405180910390a2827f2ffcfee146bc0d5ff304c6b65111a0d485af9456dc64eee7d66ebdcc90b223ea82600d0160019054906101000a900460ff166040516118f59190613443565b60405180910390a2506119066122e9565b5050565b8060035f8281526020019081526020015f205f015f9054906101000a900473ffffffffffffffffffffffffffffffffffffffff1673ffffffffffffffffffffffffffffffffffffffff163373ffffffffffffffffffffffffffffffffffffffff16146119ab576040517f08c379a00000000000000000000000000000000000000000000000000000000081526004016119a29061315c565b60405180910390fd5b5f60035f8481526020019081526020015f209050600160078111156119d3576119d2612d2a565b5b81600d0160019054906101000a900460ff1660078111156119f7576119f6612d2a565b5b14611a37576040517f08c379a0000000000000000000000000000000000000000000000000000000008152600401611a2e906137e4565b60405180910390fd5b600281600d0160016101000a81548160ff02191690836007811115611a5f57611a5e612d2a565b5b02179055504281600e0181905550827f7ce7831fed9a800b1aa5e7ca21034bf7b95efc31a196459012cf8b8eb42b7dac60405160405180910390a27f7d1ff22c1a82f0d8fc4f45d2aec63e679ecb08700b30f7e90ae3721d13b1f6bd604051611ac790613872565b60405180910390a1505050565b611adc6116d6565b73ffffffffffffffffffffffffffffffffffffffff163373ffffffffffffffffffffffffffffffffffffffff1614611b49576040517f08c379a0000000000000000000000000000000000000000000000000000000008152600401611b4090613322565b60405180910390fd5b611b516121b1565b5f60035f8381526020019081526020015f2090505f60066007811115611b7a57611b79612d2a565b5b82600d0160019054906101000a900460ff166007811115611b9e57611b9d612d2a565b5b1480611bde5750600780811115611bb857611bb7612d2a565b5b82600d0160019054906101000a900460ff166007811115611bdc57611bdb612d2a565b5b145b905080611c20576040517f08c379a0000000000000000000000000000000000000000000000000000000008152600401611c1790613900565b60405180910390fd5b5f62093a8083600e0154611c3491906133a8565b421190505f600284600f015f9054906101000a900460ff1660ff16101590508180611c5c5750805b611c9b576040517f08c379a0000000000000000000000000000000000000000000000000000000008152600401611c9290613968565b60405180910390fd5b60066007811115611caf57611cae612d2a565b5b84600d0160019054906101000a900460ff166007811115611cd357611cd2612d2a565b5b03611cea57611ce585600160036124b9565b611cf7565b611cf6855f60046124b9565b5b50505050611d036122e9565b50565b5f5f5f5f5f5f611d14612844565b5f5f5f5f60035f8d81526020019081526020015f209050805f015f9054906101000a900473ffffffffffffffffffffffffffffffffffffffff16816001015f9054906101000a900473ffffffffffffffffffffffffffffffffffffffff168260020154836003015f9054906101000a900473ffffffffffffffffffffffffffffffffffffffff16846004015485600501548660060187600d015f9054906101000a900460ff1688600d0160019054906101000a900460ff1689600f015f9054906101000a900460ff1683600680602002604051908101604052809291908260068015611e4a576020028201915b815f9054906101000a900473ffffffffffffffffffffffffffffffffffffffff1673ffffffffffffffffffffffffffffffffffffffff1681526020019060010190808311611e01575b505050505093509a509a509a509a509a509a509a509a509a509a50509193959799509193959799565b60025481565b8060035f8281526020019081526020015f205f015f9054906101000a900473ffffffffffffffffffffffffffffffffffffffff1673ffffffffffffffffffffffffffffffffffffffff163373ffffffffffffffffffffffffffffffffffffffff1614611f1a576040517f08c379a0000000000000000000000000000000000000000000000000000000008152600401611f119061315c565b60405180910390fd5b611f226121b1565b5f60035f8481526020019081526020015f2090505f6007811115611f4957611f48612d2a565b5b81600d0160019054906101000a900460ff166007811115611f6d57611f6c612d2a565b5b14611fad576040517f08c379a0000000000000000000000000000000000000000000000000000000008152600401611fa4906139d0565b60405180910390fd5b806003015f9054906101000a900473ffffffffffffffffffffffffffffffffffffffff1673ffffffffffffffffffffffffffffffffffffffff166323b872dd333084600201546040518463ffffffff1660e01b8152600401612011939291906139ee565b6020604051808303815f875af115801561202d573d5f5f3e3d5ffd5b505050506040513d601f19601f820116820180604052508101906120519190613a37565b50600181600d0160016101000a81548160ff0219169083600781111561207a57612079612d2a565b5b0217905550827f911052e1be46242b46bf3c2762227ff37c000e5fe38727638096f3a17fbfe17082600201546040516120b39190612c10565b60405180910390a2506120c46122e9565b5050565b5f60035f8481526020019081526020015f20600c015f8373ffffffffffffffffffffffffffffffffffffffff1673ffffffffffffffffffffffffffffffffffffffff1681526020019081526020015f205f9054906101000a900460ff16905092915050565b612135612371565b5f73ffffffffffffffffffffffffffffffffffffffff168173ffffffffffffffffffffffffffffffffffffffff16036121a5575f6040517f1e4fbdf700000000000000000000000000000000000000000000000000000000815260040161219c9190612cf6565b60405180910390fd5b6121ae816123f8565b50565b6002600154036121ed576040517f3ee5aeb500000000000000000000000000000000000000000000000000000000815260040160405180910390fd5b6002600181905550565b5f60035f8381526020019081526020015f2090506001600781111561221f5761221e612d2a565b5b81600d0160019054906101000a900460ff16600781111561224357612242612d2a565b5b14612283576040517f08c379a000000000000000000000000000000000000000000000000000000000815260040161227a906139d0565b60405180910390fd5b5f81600d015f6101000a81548160ff021916908360ff1602179055506122ac82600160036124b9565b817f2ffcfee146bc0d5ff304c6b65111a0d485af9456dc64eee7d66ebdcc90b223ea60036040516122dd9190613443565b60405180910390a25050565b60018081905550565b5f60035f8681526020019081526020015f209050831561233d578281600d0160016101000a81548160ff0219169083600781111561233357612332612d2a565b5b021790555061236a565b8181600d0160016101000a81548160ff0219169083600781111561236457612363612d2a565b5b02179055505b5050505050565b6123796127c1565b73ffffffffffffffffffffffffffffffffffffffff166123976116d6565b73ffffffffffffffffffffffffffffffffffffffff16146123f6576123ba6127c1565b6040517f118cdaa70000000000000000000000000000000000000000000000000000000081526004016123ed9190612cf6565b60405180910390fd5b565b5f5f5f9054906101000a900473ffffffffffffffffffffffffffffffffffffffff169050815f5f6101000a81548173ffffffffffffffffffffffffffffffffffffffff021916908373ffffffffffffffffffffffffffffffffffffffff1602179055508173ffffffffffffffffffffffffffffffffffffffff168173ffffffffffffffffffffffffffffffffffffffff167f8be0079c531659141344cd1fd0a4f28419497f9722a3daafe3b4186f6b6457e060405160405180910390a35050565b5f60035f8581526020019081526020015f209050821561264a578181600d0160016101000a81548160ff021916908360078111156124fa576124f9612d2a565b5b0217905550806003015f9054906101000a900473ffffffffffffffffffffffffffffffffffffffff1673ffffffffffffffffffffffffffffffffffffffff1663a9059cbb826001015f9054906101000a900473ffffffffffffffffffffffffffffffffffffffff1683600201546040518363ffffffff1660e01b8152600401612584929190613a62565b6020604051808303815f875af11580156125a0573d5f5f3e3d5ffd5b505050506040513d601f19601f820116820180604052508101906125c49190613a37565b50837ffd7f9968b90c2f39997b08b69b3c78d40df681dec28b3eec202eff456c3ad2cb826001015f9054906101000a900473ffffffffffffffffffffffffffffffffffffffff16836003015f9054906101000a900473ffffffffffffffffffffffffffffffffffffffff1660405161263d9291906136e4565b60405180910390a26127bb565b8181600d0160016101000a81548160ff0219169083600781111561267157612670612d2a565b5b0217905550806003015f9054906101000a900473ffffffffffffffffffffffffffffffffffffffff1673ffffffffffffffffffffffffffffffffffffffff1663a9059cbb825f015f9054906101000a900473ffffffffffffffffffffffffffffffffffffffff1683600201546040518363ffffffff1660e01b81526004016126fa929190613a62565b6020604051808303815f875af1158015612716573d5f5f3e3d5ffd5b505050506040513d601f19601f8201168201806040525081019061273a9190613a37565b50837fcd0cf80e47d7155dd99224c3b23942de0ceca1a277e5e49a471ffb9a45ac1542825f015f9054906101000a900473ffffffffffffffffffffffffffffffffffffffff16836003015f9054906101000a900473ffffffffffffffffffffffffffffffffffffffff166040516127b29291906136e4565b60405180910390a25b50505050565b5f33905090565b8260068101928215612833579160200282015b82811115612832578251825f6101000a81548173ffffffffffffffffffffffffffffffffffffffff021916908373ffffffffffffffffffffffffffffffffffffffff160217905550916020019190600101906127db565b5b5090506128409190612866565b5090565b6040518060c00160405280600690602082028036833780820191505090505090565b5b8082111561287d575f815f905550600101612867565b5090565b5f604051905090565b5f5ffd5b5f819050919050565b6128a08161288e565b81146128aa575f5ffd5b50565b5f813590506128bb81612897565b92915050565b5f602082840312156128d6576128d561288a565b5b5f6128e3848285016128ad565b91505092915050565b5f81519050919050565b5f82825260208201905092915050565b8281835e5f83830152505050565b5f601f19601f8301169050919050565b5f61292e826128ec565b61293881856128f6565b9350612948818560208601612906565b61295181612914565b840191505092915050565b5f6020820190508181035f8301526129748184612924565b905092915050565b5f8115159050919050565b6129908161297c565b811461299a575f5ffd5b50565b5f813590506129ab81612987565b92915050565b5f5f604083850312156129c7576129c661288a565b5b5f6129d4858286016128ad565b92505060206129e58582860161299d565b9150509250929050565b5f73ffffffffffffffffffffffffffffffffffffffff82169050919050565b5f612a18826129ef565b9050919050565b612a2881612a0e565b8114612a32575f5ffd5b50565b5f81359050612a4381612a1f565b92915050565b5f5ffd5b7f4e487b71000000000000000000000000000000000000000000000000000000005f52604160045260245ffd5b612a8382612914565b810181811067ffffffffffffffff82111715612aa257612aa1612a4d565b5b80604052505050565b5f612ab4612881565b9050612ac08282612a7a565b919050565b5f67ffffffffffffffff821115612adf57612ade612a4d565b5b602082029050919050565b5f5ffd5b5f612b00612afb84612ac5565b612aab565b90508060208402830185811115612b1a57612b19612aea565b5b835b81811015612b435780612b2f8882612a35565b845260208401935050602081019050612b1c565b5050509392505050565b5f82601f830112612b6157612b60612a49565b5b6006612b6e848285612aee565b91505092915050565b5f5f5f5f5f5f6101608789031215612b9257612b9161288a565b5b5f612b9f89828a01612a35565b9650506020612bb089828a016128ad565b9550506040612bc189828a01612a35565b9450506060612bd289828a016128ad565b9350506080612be389828a016128ad565b92505060a0612bf489828a01612b4d565b9150509295509295509295565b612c0a8161288e565b82525050565b5f602082019050612c235f830184612c01565b92915050565b5f60069050919050565b5f81905092915050565b5f819050919050565b612c4f81612a0e565b82525050565b5f612c608383612c46565b60208301905092915050565b5f602082019050919050565b612c8181612c29565b612c8b8184612c33565b9250612c9682612c3d565b805f5b83811015612cc6578151612cad8782612c55565b9650612cb883612c6c565b925050600181019050612c99565b505050505050565b5f60c082019050612ce15f830184612c78565b92915050565b612cf081612a0e565b82525050565b5f602082019050612d095f830184612ce7565b92915050565b5f60ff82169050919050565b612d2481612d0f565b82525050565b7f4e487b71000000000000000000000000000000000000000000000000000000005f52602160045260245ffd5b60088110612d6857612d67612d2a565b5b50565b5f819050612d7882612d57565b919050565b5f612d8782612d6b565b9050919050565b612d9781612d7d565b82525050565b5f6101e082019050612db15f83018d612ce7565b612dbe602083018c612ce7565b612dcb604083018b612c01565b612dd8606083018a612ce7565b612de56080830189612c01565b612df260a0830188612c01565b612dff60c0830187612c78565b612e0d610180830186612d1b565b612e1b6101a0830185612d8e565b612e296101c0830184612d1b565b9b9a5050505050505050505050565b5f5f60408385031215612e4e57612e4d61288a565b5b5f612e5b858286016128ad565b9250506020612e6c85828601612a35565b9150509250929050565b612e7f8161297c565b82525050565b5f602082019050612e985f830184612e76565b92915050565b5f60208284031215612eb357612eb261288a565b5b5f612ec084828501612a35565b91505092915050565b7f4e487b71000000000000000000000000000000000000000000000000000000005f52603260045260245ffd5b7f4e6f742061207369676e61746f727900000000000000000000000000000000005f82015250565b5f612f2a600f836128f6565b9150612f3582612ef6565b602082019050919050565b5f6020820190508181035f830152612f5781612f1e565b9050919050565b7f496e76616c6964207374617465000000000000000000000000000000000000005f82015250565b5f612f92600d836128f6565b9150612f9d82612f5e565b602082019050919050565b5f6020820190508181035f830152612fbf81612f86565b9050919050565b7f54656e616e6379206e6f7420656e6465640000000000000000000000000000005f82015250565b5f612ffa6011836128f6565b915061300582612fc6565b602082019050919050565b5f6020820190508181035f83015261302781612fee565b9050919050565b7f416c726561647920617070726f766564000000000000000000000000000000005f82015250565b5f6130626010836128f6565b915061306d8261302e565b602082019050919050565b5f6020820190508181035f83015261308f81613056565b9050919050565b7f4e487b71000000000000000000000000000000000000000000000000000000005f52601160045260245ffd5b5f6130cd82612d0f565b915060ff82036130e0576130df613096565b5b600182019050919050565b5f6040820190506130fe5f830185612ce7565b61310b6020830184612d1b565b9392505050565b7f4e6f742074656e616e74000000000000000000000000000000000000000000005f82015250565b5f613146600a836128f6565b915061315182613112565b602082019050919050565b5f6020820190508181035f8301526131738161313a565b9050919050565b7f43616e6e6f742061707065616c2066726f6d2063757272656e742073746174655f82015250565b5f6131ae6020836128f6565b91506131b98261317a565b602082019050919050565b5f6020820190508181035f8301526131db816131a2565b9050919050565b7f4d6178696d756d2061707065616c7320726561636865642028322900000000005f82015250565b5f613216601b836128f6565b9150613221826131e2565b602082019050919050565b5f6020820190508181035f8301526132438161320a565b9050919050565b7f41707065616c207375626d69747465642e2044414f2064656c696265726174695f8201527f6f6e2070656e64696e672e000000000000000000000000000000000000000000602082015250565b5f6132a4602b836128f6565b91506132af8261324a565b604082019050919050565b5f6020820190508181035f8301526132d181613298565b9050919050565b7f4e6f74207468652044414f2f41646d696e2061646472657373000000000000005f82015250565b5f61330c6019836128f6565b9150613317826132d8565b602082019050919050565b5f6020820190508181035f83015261333981613300565b9050919050565b7f4e6f7420696e20646973707574650000000000000000000000000000000000005f82015250565b5f613374600e836128f6565b915061337f82613340565b602082019050919050565b5f6020820190508181035f8301526133a181613368565b9050919050565b5f6133b28261288e565b91506133bd8361288e565b92508282019050808211156133d5576133d4613096565b5b92915050565b7f5265736f6c7574696f6e2074696d6520657870697265640000000000000000005f82015250565b5f61340f6017836128f6565b915061341a826133db565b602082019050919050565b5f6020820190508181035f83015261343c81613403565b9050919050565b5f6020820190506134565f830184612d8e565b92915050565b7f496e76616c6964206c616e646c6f7264000000000000000000000000000000005f82015250565b5f6134906010836128f6565b915061349b8261345c565b602082019050919050565b5f6020820190508181035f8301526134bd81613484565b9050919050565b7f496e76616c696420746f6b656e000000000000000000000000000000000000005f82015250565b5f6134f8600d836128f6565b9150613503826134c4565b602082019050919050565b5f6020820190508181035f830152613525816134ec565b9050919050565b7f496e76616c6964206461746573000000000000000000000000000000000000005f82015250565b5f613560600d836128f6565b915061356b8261352c565b602082019050919050565b5f6020820190508181035f83015261358d81613554565b9050919050565b5f8160601b9050919050565b5f6135aa82613594565b9050919050565b5f6135bb826135a0565b9050919050565b6135d36135ce82612a0e565b6135b1565b82525050565b5f819050919050565b6135f36135ee8261288e565b6135d9565b82525050565b5f61360482866135c2565b60148201915061361482856135c2565b60148201915061362482846135e2565b602082019150819050949350505050565b7f4475706c696361746520657363726f77000000000000000000000000000000005f82015250565b5f6136696010836128f6565b915061367482613635565b602082019050919050565b5f6020820190508181035f8301526136968161365d565b9050919050565b5f6136a78261288e565b91507fffffffffffffffffffffffffffffffffffffffffffffffffffffffffffffffff82036136d9576136d8613096565b5b600182019050919050565b5f6040820190506136f75f830185612ce7565b6137046020830184612ce7565b9392505050565b7f4e6f2070656e64696e672061707065616c0000000000000000000000000000005f82015250565b5f61373f6011836128f6565b915061374a8261370b565b602082019050919050565b5f6020820190508181035f83015261376c81613733565b9050919050565b5f6040820190506137865f830185612d8e565b6137936020830184612e76565b9392505050565b7f43616e6e6f7420646973707574650000000000000000000000000000000000005f82015250565b5f6137ce600e836128f6565b91506137d98261379a565b602082019050919050565b5f6020820190508181035f8301526137fb816137c2565b9050919050565b7f44697370757465207261697365642e2044414f2077696c6c20726576696577205f8201527f77697468696e203720646179732e000000000000000000000000000000000000602082015250565b5f61385c602e836128f6565b915061386782613802565b604082019050919050565b5f6020820190508181035f83015261388981613850565b9050919050565b7f457363726f77206e6f7420726561647920666f722066696e616c697a6174696f5f8201527f6e20286e6f206465636973696f6e206d61646529000000000000000000000000602082015250565b5f6138ea6034836128f6565b91506138f582613890565b604082019050919050565b5f6020820190508181035f830152613917816138de565b9050919050565b7f41707065616c2077696e646f77206973207374696c6c206163746976650000005f82015250565b5f613952601d836128f6565b915061395d8261391e565b602082019050919050565b5f6020820190508181035f83015261397f81613946565b9050919050565b7f4e6f742066756e6461626c6500000000000000000000000000000000000000005f82015250565b5f6139ba600c836128f6565b91506139c582613986565b602082019050919050565b5f6020820190508181035f8301526139e7816139ae565b9050919050565b5f606082019050613a015f830186612ce7565b613a0e6020830185612ce7565b613a1b6040830184612c01565b949350505050565b5f81519050613a3181612987565b92915050565b5f60208284031215613a4c57613a4b61288a565b5b5f613a5984828501613a23565b91505092915050565b5f604082019050613a755f830185612ce7565b613a826020830184612c01565b939250505056fea2646970667358221220cc6e1b2ae7fcfba7960a762b1f3746e39164981b749a1fecba3a52adaf6276ba64736f6c634300081e0033","linkReferences":{}},"methodIdentifiers":{"MAX_APPEALS()":"5c95c441","RESOLUTION_WINDOW()":"734c8544","approveRelease(uint256)":"1bd2cea1","createEscrow(address,uint256,address,uint256,uint256,address[6])":"46a80b24","escrowCounter()":"c7ceafea","finalizeAppealDecision(uint256,bool)":"9db94ed7","finalizeEscrow(uint256)":"b43a405a","fundEscrow(uint256)":"c9c31af5","getEscrowDetails(uint256)":"b996ec2a","getEscrowStatus(uint256)":"345460cd","getSignatories(uint256)":"65f4c098","hasSignatoryApproved(uint256,address)":"cfe8ad96","owner()":"8da5cb5b","raiseDispute(uint256)":"a5c1674e","releaseAfterEndDate(uint256)":"10c685e0","renounceOwnership()":"715018a6","resolveDispute(uint256,bool)":"34b25ee2","submitAppeal(uint256)":"19dc88ae","transferOwnership(address)":"f2fde38b"},"id":27}