{"abi":[{"type":"constructor","inputs":[{"name":"initialOwner","type":"address","internalType":"address"}],"stateMutability":"nonpayable"},{"type":"receive","stateMutability":"payable"},{"type":"function","name":"MAX_APPEALS","inputs":[],"outputs":[{"name":"","type":"uint256","internalType":"uint256"}],"stateMutability":"view"},{"type":"function","name":"RESOLUTION_WINDOW","inputs":[],"outputs":[{"name":"","type":"uint256","internalType":"uint256"}],"stateMutability":"view"},{"type":"function","name":"approveRelease","inputs":[{"name":"escrowId","type":"uint256","internalType":"uint256"}],"outputs":[],"stateMutability":"nonpayable"},{"type":"function","name":"createEscrow","inputs":[{"name":"landlord","type":"address","internalType":"address"},{"name":"amount","type":"uint256","internalType":"uint256"},{"name":"token","type":"address","internalType":"address"},{"name":"startDate","type":"uint256","internalType":"uint256"},{"name":"endDate","type":"uint256","internalType":"uint256"},{"name":"signatories","type":"address[6]","internalType":"address[6]"}],"outputs":[{"name":"id","type":"uint256","internalType":"uint256"}],"stateMutability":"nonpayable"},{"type":"function","name":"escrowCounter","inputs":[],"outputs":[{"name":"","type":"uint256","internalType":"uint256"}],"stateMutability":"view"},{"type":"function","name":"finalizeAppealDecision","inputs":[{"name":"escrowId","type":"uint256","internalType":"uint256"},{"name":"releaseToLandlord","type":"bool","internalType":"bool"}],"outputs":[],"stateMutability":"nonpayable"},{"type":"function","name":"finalizeEscrow","inputs":[{"name":"escrowId","type":"uint256","internalType":"uint256"}],"outputs":[],"stateMutability":"nonpayable"},{"type":"function","name":"fundEscrow","inputs":[{"name":"escrowId","type":"uint256","internalType":"uint256"}],"outputs":[],"stateMutability":"nonpayable"},{"type":"function","name":"getAverageRating","inputs":[{"name":"user","type":"address","internalType":"address"}],"outputs":[{"name":"","type":"uint256","internalType":"uint256"}],"stateMutability":"view"},{"type":"function","name":"getEscrowDetails","inputs":[{"name":"escrowId","type":"uint256","internalType":"uint256"}],"outputs":[{"name":"tenant","type":"address","internalType":"address"},{"name":"landlord","type":"address","internalType":"address"},{"name":"amount","type":"uint256","internalType":"uint256"},{"name":"token","type":"address","internalType":"address"},{"name":"startDate","type":"uint256","internalType":"uint256"},{"name":"endDate","type":"uint256","internalType":"uint256"},{"name":"signatories","type":"address[6]","internalType":"address[6]"},{"name":"approvals","type":"uint8","internalType":"uint8"},{"name":"state","type":"uint8","internalType":"enum UltraRentzEscrow.EscrowState"},{"name":"appealCount","type":"uint8","internalType":"uint8"}],"stateMutability":"view"},{"type":"function","name":"getEscrowStatus","inputs":[{"name":"escrowId","type":"uint256","internalType":"uint256"}],"outputs":[{"name":"","type":"string","internalType":"string"}],"stateMutability":"view"},{"type":"function","name":"getSignatories","inputs":[{"name":"escrowId","type":"uint256","internalType":"uint256"}],"outputs":[{"name":"","type":"address[6]","internalType":"address[6]"}],"stateMutability":"view"},{"type":"function","name":"hasRated","inputs":[{"name":"","type":"address","internalType":"address"},{"name":"","type":"uint256","internalType":"uint256"}],"outputs":[{"name":"","type":"bool","internalType":"bool"}],"stateMutability":"view"},{"type":"function","name":"hasSignatoryApproved","inputs":[{"name":"escrowId","type":"uint256","internalType":"uint256"},{"name":"signatory","type":"address","internalType":"address"}],"outputs":[{"name":"","type":"bool","internalType":"bool"}],"stateMutability":"view"},{"type":"function","name":"owner","inputs":[],"outputs":[{"name":"","type":"address","internalType":"address"}],"stateMutability":"view"},{"type":"function","name":"pause","inputs":[],"outputs":[],"stateMutability":"nonpayable"},{"type":"function","name":"paused","inputs":[],"outputs":[{"name":"","type":"bool","internalType":"bool"}],"stateMutability":"view"},{"type":"function","name":"raiseDispute","inputs":[{"name":"escrowId","type":"uint256","internalType":"uint256"}],"outputs":[],"stateMutability":"nonpayable"},{"type":"function","name":"rateCounterparty","inputs":[{"name":"escrowId","type":"uint256","internalType":"uint256"},{"name":"rating","type":"uint8","internalType":"uint8"}],"outputs":[],"stateMutability":"nonpayable"},{"type":"function","name":"ratingsSum","inputs":[{"name":"","type":"address","internalType":"address"}],"outputs":[{"name":"","type":"uint256","internalType":"uint256"}],"stateMutability":"view"},{"type":"function","name":"releaseAfterEndDate","inputs":[{"name":"escrowId","type":"uint256","internalType":"uint256"}],"outputs":[],"stateMutability":"nonpayable"},{"type":"function","name":"renounceOwnership","inputs":[],"outputs":[],"stateMutability":"nonpayable"},{"type":"function","name":"resolveDispute","inputs":[{"name":"escrowId","type":"uint256","internalType":"uint256"},{"name":"releaseToLandlord","type":"bool","internalType":"bool"}],"outputs":[],"stateMutability":"nonpayable"},{"type":"function","name":"submitAppeal","inputs":[{"name":"escrowId","type":"uint256","internalType":"uint256"}],"outputs":[],"stateMutability":"nonpayable"},{"type":"function","name":"totalRatingsReceived","inputs":[{"name":"","type":"address","internalType":"address"}],"outputs":[{"name":"","type":"uint256","internalType":"uint256"}],"stateMutability":"view"},{"type":"function","name":"transferOwnership","inputs":[{"name":"newOwner","type":"address","internalType":"address"}],"outputs":[],"stateMutability":"nonpayable"},{"type":"function","name":"unpause","inputs":[],"outputs":[],"stateMutability":"nonpayable"},{"type":"event","name":"AppealFinalized","inputs":[{"name":"escrowId","type":"uint256","indexed":true,"internalType":"uint256"},{"name":"finalState","type":"uint8","indexed":false,"internalType":"enum UltraRentzEscrow.EscrowState"},{"name":"success","type":"bool","indexed":false,"internalType":"bool"}],"anonymous":false},{"type":"event","name":"AppealSubmitted","inputs":[{"name":"escrowId","type":"uint256","indexed":true,"internalType":"uint256"}],"anonymous":false},{"type":"event","name":"ApprovalSubmitted","inputs":[{"name":"escrowId","type":"uint256","indexed":true,"internalType":"uint256"},{"name":"signatory","type":"address","indexed":false,"internalType":"address"},{"name":"totalApprovals","type":"uint8","indexed":false,"internalType":"uint8"}],"anonymous":false},{"type":"event","name":"DisputeResolved","inputs":[{"name":"escrowId","type":"uint256","indexed":true,"internalType":"uint256"},{"name":"resolution","type":"uint8","indexed":false,"internalType":"enum UltraRentzEscrow.EscrowState"}],"anonymous":false},{"type":"event","name":"EscrowCreated","inputs":[{"name":"escrowId","type":"uint256","indexed":true,"internalType":"uint256"},{"name":"tenant","type":"address","indexed":true,"internalType":"address"},{"name":"landlord","type":"address","indexed":false,"internalType":"address"},{"name":"token","type":"address","indexed":false,"internalType":"address"}],"anonymous":false},{"type":"event","name":"EscrowDisputed","inputs":[{"name":"escrowId","type":"uint256","indexed":true,"internalType":"uint256"}],"anonymous":false},{"type":"event","name":"EscrowFunded","inputs":[{"name":"escrowId","type":"uint256","indexed":true,"internalType":"uint256"},{"name":"amount","type":"uint256","indexed":false,"internalType":"uint256"}],"anonymous":false},{"type":"event","name":"EscrowRefunded","inputs":[{"name":"escrowId","type":"uint256","indexed":true,"internalType":"uint256"},{"name":"tenant","type":"address","indexed":false,"internalType":"address"},{"name":"token","type":"address","indexed":false,"internalType":"address"}],"anonymous":false},{"type":"event","name":"EscrowReleased","inputs":[{"name":"escrowId","type":"uint256","indexed":true,"internalType":"uint256"},{"name":"landlord","type":"address","indexed":false,"internalType":"address"},{"name":"token","type":"address","indexed":false,"internalType":"address"}],"anonymous":false},{"type":"event","name":"Notification","inputs":[{"name":"message","type":"string","indexed":false,"internalType":"string"}],"anonymous":false},{"type":"event","name":"OwnershipTransferred","inputs":[{"name":"previousOwner","type":"address","indexed":true,"internalType":"address"},{"name":"newOwner","type":"address","indexed":true,"internalType":"address"}],"anonymous":false},{"type":"event","name":"Paused","inputs":[{"name":"account","type":"address","indexed":false,"internalType":"address"}],"anonymous":false},{"type":"event","name":"Unpaused","inputs":[{"name":"account","type":"address","indexed":false,"internalType":"address"}],"anonymous":false},{"type":"event","name":"UserRated","inputs":[{"name":"rater","type":"address","indexed":true,"internalType":"address"},{"name":"ratee","type":"address","indexed":true,"internalType":"address"},{"name":"escrowId","type":"uint256","indexed":false,"internalType":"uint256"},{"name":"rating","type":"uint8","indexed":false,"internalType":"uint8"}],"anonymous":false},{"type":"error","name":"EnforcedPause","inputs":[]},{"type":"error","name":"ExpectedPause","inputs":[]},{"type":"error","name":"OwnableInvalidOwner","inputs":[{"name":"owner","type":"address","internalType":"address"}]},{"type":"error","name":"OwnableUnauthorizedAccount","inputs":[{"name":"account","type":"address","internalType":"address"}]},{"type":"error","name":"ReentrancyGuardReentrantCall","inputs":[]},{"type":"error","name":"SafeERC20FailedOperation","inputs":[{"name":"token","type":"address","internalType":"address"}]}],"bytecode":{"object":"0x608060405234801561000f575f5ffd5b50604051614ff9380380614ff98339818101604052810190610031919061024c565b805f73ffffffffffffffffffffffffffffffffffffffff168173ffffffffffffffffffffffffffffffffffffffff16036100a2575f6040517f1e4fbdf70000000000000000000000000000000000000000000000000000000081526004016100999190610286565b60405180910390fd5b6100b18161012d60201b60201c565b50600180819055505f73ffffffffffffffffffffffffffffffffffffffff168173ffffffffffffffffffffffffffffffffffffffff1603610127576040517f08c379a000000000000000000000000000000000000000000000000000000000815260040161011e906102f9565b60405180910390fd5b50610317565b5f5f5f9054906101000a900473ffffffffffffffffffffffffffffffffffffffff169050815f5f6101000a81548173ffffffffffffffffffffffffffffffffffffffff021916908373ffffffffffffffffffffffffffffffffffffffff1602179055508173ffffffffffffffffffffffffffffffffffffffff168173ffffffffffffffffffffffffffffffffffffffff167f8be0079c531659141344cd1fd0a4f28419497f9722a3daafe3b4186f6b6457e060405160405180910390a35050565b5f5ffd5b5f73ffffffffffffffffffffffffffffffffffffffff82169050919050565b5f61021b826101f2565b9050919050565b61022b81610211565b8114610235575f5ffd5b50565b5f8151905061024681610222565b92915050565b5f60208284031215610261576102606101ee565b5b5f61026e84828501610238565b91505092915050565b61028081610211565b82525050565b5f6020820190506102995f830184610277565b92915050565b5f82825260208201905092915050565b7f44414f2f41646d696e2063616e6e6f74206265207a65726f20616464726573735f82015250565b5f6102e360208361029f565b91506102ee826102af565b602082019050919050565b5f6020820190508181035f830152610310816102d7565b9050919050565b614cd5806103245f395ff3fe60806040526004361061019f575f3560e01c8063734c8544116100eb578063c7ceafea11610089578063cfe8ad9611610063578063cfe8ad96146105e4578063d22359dc14610620578063d25468b314610648578063f2fde38b14610684576101df565b8063c7ceafea14610556578063c8b6752214610580578063c9c31af5146105bc576101df565b80639db94ed7116100c55780639db94ed714610499578063a5c1674e146104c1578063b43a405a146104e9578063b996ec2a14610511576101df565b8063734c85441461042f5780638456cb59146104595780638da5cb5b1461046f576101df565b806334b25ee2116101585780635c95c441116101325780635c95c441146103895780635c975abb146103b357806365f4c098146103dd578063715018a614610419576101df565b806334b25ee21461030f5780633f4ba83a1461033757806346a80b241461034d576101df565b806310c685e0146101e357806319dc88ae1461020b5780631bd2cea114610233578063312764011461025b57806333b3ceb414610297578063345460cd146102d3576101df565b366101df576040517f08c379a00000000000000000000000000000000000000000000000000000000081526004016101d690613638565b60405180910390fd5b5f5ffd5b3480156101ee575f5ffd5b5061020960048036038101906102049190613696565b6106ac565b005b348015610216575f5ffd5b50610231600480360381019061022c9190613696565b610a0d565b005b34801561023e575f5ffd5b5061025960048036038101906102549190613696565b610cad565b005b348015610266575f5ffd5b50610281600480360381019061027c919061371b565b610fc8565b60405161028e9190613755565b60405180910390f35b3480156102a2575f5ffd5b506102bd60048036038101906102b8919061371b565b610fdd565b6040516102ca9190613755565b60405180910390f35b3480156102de575f5ffd5b506102f960048036038101906102f49190613696565b610ff2565b60405161030691906137ce565b60405180910390f35b34801561031a575f5ffd5b5061033560048036038101906103309190613823565b61141d565b005b348015610342575f5ffd5b5061034b6115e7565b005b348015610358575f5ffd5b50610373600480360381019061036e919061398f565b611666565b6040516103809190613755565b60405180910390f35b348015610394575f5ffd5b5061039d611b1b565b6040516103aa9190613755565b60405180910390f35b3480156103be575f5ffd5b506103c7611b20565b6040516103d49190613a28565b60405180910390f35b3480156103e8575f5ffd5b5061040360048036038101906103fe9190613696565b611b35565b6040516104109190613ae6565b60405180910390f35b348015610424575f5ffd5b5061042d611bc9565b005b34801561043a575f5ffd5b50610443611bdc565b6040516104509190613755565b60405180910390f35b348015610464575f5ffd5b5061046d611be3565b005b34801561047a575f5ffd5b50610483611c62565b6040516104909190613b0e565b60405180910390f35b3480156104a4575f5ffd5b506104bf60048036038101906104ba9190613823565b611c89565b005b3480156104cc575f5ffd5b506104e760048036038101906104e29190613696565b611e9e565b005b3480156104f4575f5ffd5b5061050f600480360381019061050a9190613696565b612070565b005b34801561051c575f5ffd5b5061053760048036038101906105329190613696565b6122aa565b60405161054d9a99989796959493929190613bb5565b60405180910390f35b348015610561575f5ffd5b5061056a612417565b6040516105779190613755565b60405180910390f35b34801561058b575f5ffd5b506105a660048036038101906105a1919061371b565b61241d565b6040516105b39190613755565b60405180910390f35b3480156105c7575f5ffd5b506105e260048036038101906105dd9190613696565b6124f8565b005b3480156105ef575f5ffd5b5061060a60048036038101906106059190613c50565b6126fe565b6040516106179190613a28565b60405180910390f35b34801561062b575f5ffd5b5061064660048036038101906106419190613cb8565b612763565b005b348015610653575f5ffd5b5061066e60048036038101906106699190613cf6565b612c28565b60405161067b9190613a28565b60405180910390f35b34801561068f575f5ffd5b506106aa60048036038101906106a5919061371b565b612c52565b005b805f5f5f90505b60068160ff161015610751573373ffffffffffffffffffffffffffffffffffffffff1660075f8581526020019081526020015f206006018260ff16600681106106ff576106fe613d34565b5b015f9054906101000a900473ffffffffffffffffffffffffffffffffffffffff1673ffffffffffffffffffffffffffffffffffffffff16036107445760019150610751565b80806001019150506106b3565b5080610792576040517f08c379a000000000000000000000000000000000000000000000000000000000815260040161078990613dab565b60405180910390fd5b61079a612cd6565b6107a2612d1c565b5f60075f8581526020019081526020015f209050600160078111156107ca576107c9613b42565b5b81600d0160019054906101000a900460ff1660078111156107ee576107ed613b42565b5b1461082e576040517f08c379a000000000000000000000000000000000000000000000000000000000815260040161082590613e13565b60405180910390fd5b80600501544211610874576040517f08c379a000000000000000000000000000000000000000000000000000000000815260040161086b90613e7b565b60405180910390fd5b80600c015f3373ffffffffffffffffffffffffffffffffffffffff1673ffffffffffffffffffffffffffffffffffffffff1681526020019081526020015f205f9054906101000a900460ff1615610900576040517f08c379a00000000000000000000000000000000000000000000000000000000081526004016108f790613ee3565b60405180910390fd5b600181600c015f3373ffffffffffffffffffffffffffffffffffffffff1673ffffffffffffffffffffffffffffffffffffffff1681526020019081526020015f205f6101000a81548160ff02191690831515021790555080600d015f81819054906101000a900460ff168092919061097790613f2e565b91906101000a81548160ff021916908360ff16021790555050837f31fdc4d501a17fc8bb26e1ab1136058e5975bc80399612d9abbf0b42e760c8553383600d015f9054906101000a900460ff166040516109d2929190613f56565b60405180910390a2600481600d015f9054906101000a900460ff1660ff16106109ff576109fe84612d5d565b5b50610a08612e4f565b505050565b8060075f8281526020019081526020015f205f015f9054906101000a900473ffffffffffffffffffffffffffffffffffffffff1673ffffffffffffffffffffffffffffffffffffffff163373ffffffffffffffffffffffffffffffffffffffff1614610aae576040517f08c379a0000000000000000000000000000000000000000000000000000000008152600401610aa590613fc7565b60405180910390fd5b610ab6612d1c565b5f60075f8481526020019081526020015f20905060066007811115610ade57610add613b42565b5b81600d0160019054906101000a900460ff166007811115610b0257610b01613b42565b5b1480610b425750600780811115610b1c57610b1b613b42565b5b81600d0160019054906101000a900460ff166007811115610b4057610b3f613b42565b5b145b610b81576040517f08c379a0000000000000000000000000000000000000000000000000000000008152600401610b789061402f565b60405180910390fd5b600281600f015f9054906101000a900460ff1660ff1610610bd7576040517f08c379a0000000000000000000000000000000000000000000000000000000008152600401610bce90614097565b60405180910390fd5b80600f015f81819054906101000a900460ff1680929190610bf790613f2e565b91906101000a81548160ff021916908360ff160217905550504281600e0181905550600581600d0160016101000a81548160ff02191690836007811115610c4157610c40613b42565b5b0217905550827f9f99ae1c2ed3bebdabfddb8a9ded0b435ed0e72af5dd8b48c86af9e1825effa360405160405180910390a27f7d1ff22c1a82f0d8fc4f45d2aec63e679ecb08700b30f7e90ae3721d13b1f6bd604051610ca090614125565b60405180910390a1505050565b805f5f5f90505b60068160ff161015610d52573373ffffffffffffffffffffffffffffffffffffffff1660075f8581526020019081526020015f206006018260ff1660068110610d0057610cff613d34565b5b015f9054906101000a900473ffffffffffffffffffffffffffffffffffffffff1673ffffffffffffffffffffffffffffffffffffffff1603610d455760019150610d52565b8080600101915050610cb4565b5080610d93576040517f08c379a0000000000000000000000000000000000000000000000000000000008152600401610d8a90613dab565b60405180910390fd5b610d9b612cd6565b610da3612d1c565b5f60075f8581526020019081526020015f20905060016007811115610dcb57610dca613b42565b5b81600d0160019054906101000a900460ff166007811115610def57610dee613b42565b5b14610e2f576040517f08c379a0000000000000000000000000000000000000000000000000000000008152600401610e2690613e13565b60405180910390fd5b80600c015f3373ffffffffffffffffffffffffffffffffffffffff1673ffffffffffffffffffffffffffffffffffffffff1681526020019081526020015f205f9054906101000a900460ff1615610ebb576040517f08c379a0000000000000000000000000000000000000000000000000000000008152600401610eb290613ee3565b60405180910390fd5b600181600c015f3373ffffffffffffffffffffffffffffffffffffffff1673ffffffffffffffffffffffffffffffffffffffff1681526020019081526020015f205f6101000a81548160ff02191690831515021790555080600d015f81819054906101000a900460ff1680929190610f3290613f2e565b91906101000a81548160ff021916908360ff16021790555050837f31fdc4d501a17fc8bb26e1ab1136058e5975bc80399612d9abbf0b42e760c8553383600d015f9054906101000a900460ff16604051610f8d929190613f56565b60405180910390a2600481600d015f9054906101000a900460ff1660ff1610610fba57610fb984612d5d565b5b50610fc3612e4f565b505050565b6003602052805f5260405f205f915090505481565b6004602052805f5260405f205f915090505481565b60605f60075f8481526020019081526020015f2090505f600781111561101b5761101a613b42565b5b81600d0160019054906101000a900460ff16600781111561103f5761103e613b42565b5b03611082576040518060400160405280600781526020017f4372656174656400000000000000000000000000000000000000000000000000815250915050611418565b6001600781111561109657611095613b42565b5b81600d0160019054906101000a900460ff1660078111156110ba576110b9613b42565b5b036110fd576040518060400160405280600681526020017f46756e6465640000000000000000000000000000000000000000000000000000815250915050611418565b6002600781111561111157611110613b42565b5b81600d0160019054906101000a900460ff16600781111561113557611134613b42565b5b03611178576040518060400160405280600a81526020017f496e204469737075746500000000000000000000000000000000000000000000815250915050611418565b6003600781111561118c5761118b613b42565b5b81600d0160019054906101000a900460ff1660078111156111b0576111af613b42565b5b036111f3576040518060400160405280601481526020017f52656c656173656420746f204c616e646c6f7264000000000000000000000000815250915050611418565b6004600781111561120757611206613b42565b5b81600d0160019054906101000a900460ff16600781111561122b5761122a613b42565b5b0361126e576040518060400160405280601281526020017f526566756e64656420746f2054656e616e740000000000000000000000000000815250915050611418565b6005600781111561128257611281613b42565b5b81600d0160019054906101000a900460ff1660078111156112a6576112a5613b42565b5b036112e9576040518060400160405280600e81526020017f50656e64696e672041707065616c000000000000000000000000000000000000815250915050611418565b600660078111156112fd576112fc613b42565b5b81600d0160019054906101000a900460ff16600781111561132157611320613b42565b5b03611364576040518060400160405280601e81526020017f4465636973696f6e3a2052656c65617365202841707065616c61626c65290000815250915050611418565b60078081111561137757611376613b42565b5b81600d0160019054906101000a900460ff16600781111561139b5761139a613b42565b5b036113de576040518060400160405280601d81526020017f4465636973696f6e3a20526566756e64202841707065616c61626c6529000000815250915050611418565b6040518060400160405280600781526020017f556e6b6e6f776e000000000000000000000000000000000000000000000000008152509150505b919050565b611425611c62565b73ffffffffffffffffffffffffffffffffffffffff163373ffffffffffffffffffffffffffffffffffffffff1614611492576040517f08c379a00000000000000000000000000000000000000000000000000000000081526004016114899061418d565b60405180910390fd5b61149a612cd6565b6114a2612d1c565b5f60075f8481526020019081526020015f209050600260078111156114ca576114c9613b42565b5b81600d0160019054906101000a900460ff1660078111156114ee576114ed613b42565b5b1461152e576040517f08c379a0000000000000000000000000000000000000000000000000000000008152600401611525906141f5565b60405180910390fd5b62093a8081600e01546115419190614213565b421115611583576040517f08c379a000000000000000000000000000000000000000000000000000000000815260040161157a90614290565b60405180910390fd5b611591838360066007612e58565b827f2ffcfee146bc0d5ff304c6b65111a0d485af9456dc64eee7d66ebdcc90b223ea82600d0160019054906101000a900460ff166040516115d291906142ae565b60405180910390a2506115e3612e4f565b5050565b6115ef611c62565b73ffffffffffffffffffffffffffffffffffffffff163373ffffffffffffffffffffffffffffffffffffffff161461165c576040517f08c379a00000000000000000000000000000000000000000000000000000000081526004016116539061418d565b60405180910390fd5b611664612ed7565b565b5f61166f612d1c565b5f73ffffffffffffffffffffffffffffffffffffffff168773ffffffffffffffffffffffffffffffffffffffff16036116dd576040517f08c379a00000000000000000000000000000000000000000000000000000000081526004016116d490614311565b60405180910390fd5b5f73ffffffffffffffffffffffffffffffffffffffff168573ffffffffffffffffffffffffffffffffffffffff160361174b576040517f08c379a000000000000000000000000000000000000000000000000000000000815260040161174290614379565b60405180910390fd5b83831161178d576040517f08c379a000000000000000000000000000000000000000000000000000000000815260040161178490614407565b60405180910390fd5b5f73ffffffffffffffffffffffffffffffffffffffff163373ffffffffffffffffffffffffffffffffffffffff16036117fb576040517f08c379a00000000000000000000000000000000000000000000000000000000081526004016117f29061446f565b60405180910390fd5b5f5f90505b60068160ff1610156118a1575f73ffffffffffffffffffffffffffffffffffffffff16838260ff166006811061183957611838613d34565b5b602002015173ffffffffffffffffffffffffffffffffffffffff1603611894576040517f08c379a000000000000000000000000000000000000000000000000000000000815260040161188b906144d7565b60405180910390fd5b8080600101915050611800565b505f3388866040516020016118b89392919061455a565b60405160208183030381529060405280519060200120905060085f8281526020019081526020015f205f9054906101000a900460ff161561192e576040517f08c379a0000000000000000000000000000000000000000000000000000000008152600401611925906145e0565b60405180910390fd5b60065f815461193c906145fe565b91905081905591505f60075f8481526020019081526020015f20905033815f015f6101000a81548173ffffffffffffffffffffffffffffffffffffffff021916908373ffffffffffffffffffffffffffffffffffffffff16021790555088816001015f6101000a81548173ffffffffffffffffffffffffffffffffffffffff021916908373ffffffffffffffffffffffffffffffffffffffff16021790555087816002018190555086816003015f6101000a81548173ffffffffffffffffffffffffffffffffffffffff021916908373ffffffffffffffffffffffffffffffffffffffff1602179055508581600401819055508481600501819055508381600601906006611a4b9291906134ff565b505f81600d0160016101000a81548160ff02191690836007811115611a7357611a72613b42565b5b0217905550600181600f0160016101000a81548160ff021916908315150217905550600160085f8481526020019081526020015f205f6101000a81548160ff0219169083151502179055503373ffffffffffffffffffffffffffffffffffffffff16837fccab83b228b9f11d0f002db0d115fe84ab0bacbe475d1c28666963a66c20c4368b8a604051611b07929190614645565b60405180910390a350509695505050505050565b600281565b5f60025f9054906101000a900460ff16905090565b611b3d61357b565b60075f8381526020019081526020015f20600601600680602002604051908101604052809291908260068015611bbd576020028201915b815f9054906101000a900473ffffffffffffffffffffffffffffffffffffffff1673ffffffffffffffffffffffffffffffffffffffff1681526020019060010190808311611b74575b50505050509050919050565b611bd1612f38565b611bda5f612fbf565b565b62093a8081565b611beb611c62565b73ffffffffffffffffffffffffffffffffffffffff163373ffffffffffffffffffffffffffffffffffffffff1614611c58576040517f08c379a0000000000000000000000000000000000000000000000000000000008152600401611c4f9061418d565b60405180910390fd5b611c60613080565b565b5f5f5f9054906101000a900473ffffffffffffffffffffffffffffffffffffffff16905090565b611c91611c62565b73ffffffffffffffffffffffffffffffffffffffff163373ffffffffffffffffffffffffffffffffffffffff1614611cfe576040517f08c379a0000000000000000000000000000000000000000000000000000000008152600401611cf59061418d565b60405180910390fd5b611d06612cd6565b611d0e612d1c565b5f60075f8481526020019081526020015f20905060056007811115611d3657611d35613b42565b5b81600d0160019054906101000a900460ff166007811115611d5a57611d59613b42565b5b14611d9a576040517f08c379a0000000000000000000000000000000000000000000000000000000008152600401611d91906146b6565b60405180910390fd5b62093a8081600e0154611dad9190614213565b421115611def576040517f08c379a0000000000000000000000000000000000000000000000000000000008152600401611de690614290565b60405180910390fd5b611dfd838360066007612e58565b827f34572d32f3bb0eff148ee17d0122170a41891d6a37564b756027d0cc5eb6123d82600d0160019054906101000a900460ff1684604051611e409291906146d4565b60405180910390a2827f2ffcfee146bc0d5ff304c6b65111a0d485af9456dc64eee7d66ebdcc90b223ea82600d0160019054906101000a900460ff16604051611e8991906142ae565b60405180910390a250611e9a612e4f565b5050565b8060075f8281526020019081526020015f205f015f9054906101000a900473ffffffffffffffffffffffffffffffffffffffff1673ffffffffffffffffffffffffffffffffffffffff163373ffffffffffffffffffffffffffffffffffffffff1614611f3f576040517f08c379a0000000000000000000000000000000000000000000000000000000008152600401611f3690613fc7565b60405180910390fd5b611f47612d1c565b5f60075f8481526020019081526020015f20905060016007811115611f6f57611f6e613b42565b5b81600d0160019054906101000a900460ff166007811115611f9357611f92613b42565b5b14611fd3576040517f08c379a0000000000000000000000000000000000000000000000000000000008152600401611fca90614745565b60405180910390fd5b600281600d0160016101000a81548160ff02191690836007811115611ffb57611ffa613b42565b5b02179055504281600e0181905550827f7ce7831fed9a800b1aa5e7ca21034bf7b95efc31a196459012cf8b8eb42b7dac60405160405180910390a27f7d1ff22c1a82f0d8fc4f45d2aec63e679ecb08700b30f7e90ae3721d13b1f6bd604051612063906147d3565b60405180910390a1505050565b612078611c62565b73ffffffffffffffffffffffffffffffffffffffff163373ffffffffffffffffffffffffffffffffffffffff16146120e5576040517f08c379a00000000000000000000000000000000000000000000000000000000081526004016120dc9061418d565b60405180910390fd5b6120ed612cd6565b6120f5612d1c565b5f60075f8381526020019081526020015f2090505f6006600781111561211e5761211d613b42565b5b82600d0160019054906101000a900460ff16600781111561214257612141613b42565b5b1480612182575060078081111561215c5761215b613b42565b5b82600d0160019054906101000a900460ff1660078111156121805761217f613b42565b5b145b9050806121c4576040517f08c379a00000000000000000000000000000000000000000000000000000000081526004016121bb90614861565b60405180910390fd5b5f62093a8083600e01546121d89190614213565b421190505f600284600f015f9054906101000a900460ff1660ff161015905081806122005750805b61223f576040517f08c379a0000000000000000000000000000000000000000000000000000000008152600401612236906148c9565b60405180910390fd5b6006600781111561225357612252613b42565b5b84600d0160019054906101000a900460ff16600781111561227757612276613b42565b5b0361228e5761228985600160036130e2565b61229b565b61229a855f60046130e2565b5b505050506122a7612e4f565b50565b5f5f5f5f5f5f6122b861357b565b5f5f5f5f60075f8d81526020019081526020015f209050805f015f9054906101000a900473ffffffffffffffffffffffffffffffffffffffff16816001015f9054906101000a900473ffffffffffffffffffffffffffffffffffffffff168260020154836003015f9054906101000a900473ffffffffffffffffffffffffffffffffffffffff16846004015485600501548660060187600d015f9054906101000a900460ff1688600d0160019054906101000a900460ff1689600f015f9054906101000a900460ff16836006806020026040519081016040528092919082600680156123ee576020028201915b815f9054906101000a900473ffffffffffffffffffffffffffffffffffffffff1673ffffffffffffffffffffffffffffffffffffffff16815260200190600101908083116123a5575b505050505093509a509a509a509a509a509a509a509a509a509a50509193959799509193959799565b60065481565b5f5f60035f8473ffffffffffffffffffffffffffffffffffffffff1673ffffffffffffffffffffffffffffffffffffffff1681526020019081526020015f20540361246a575f90506124f3565b60035f8373ffffffffffffffffffffffffffffffffffffffff1673ffffffffffffffffffffffffffffffffffffffff1681526020019081526020015f205460045f8473ffffffffffffffffffffffffffffffffffffffff1673ffffffffffffffffffffffffffffffffffffffff1681526020019081526020015f20546124f09190614914565b90505b919050565b8060075f8281526020019081526020015f205f015f9054906101000a900473ffffffffffffffffffffffffffffffffffffffff1673ffffffffffffffffffffffffffffffffffffffff163373ffffffffffffffffffffffffffffffffffffffff1614612599576040517f08c379a000000000000000000000000000000000000000000000000000000000815260040161259090613fc7565b60405180910390fd5b6125a1612cd6565b6125a9612d1c565b5f60075f8481526020019081526020015f2090505f60078111156125d0576125cf613b42565b5b81600d0160019054906101000a900460ff1660078111156125f4576125f3613b42565b5b14612634576040517f08c379a000000000000000000000000000000000000000000000000000000000815260040161262b9061498e565b60405180910390fd5b61268833308360020154846003015f9054906101000a900473ffffffffffffffffffffffffffffffffffffffff1673ffffffffffffffffffffffffffffffffffffffff1661331c909392919063ffffffff16565b600181600d0160016101000a81548160ff021916908360078111156126b0576126af613b42565b5b0217905550827f911052e1be46242b46bf3c2762227ff37c000e5fe38727638096f3a17fbfe17082600201546040516126e99190613755565b60405180910390a2506126fa612e4f565b5050565b5f60075f8481526020019081526020015f20600c015f8373ffffffffffffffffffffffffffffffffffffffff1673ffffffffffffffffffffffffffffffffffffffff1681526020019081526020015f205f9054906101000a900460ff16905092915050565b60018160ff161015801561277b575060058160ff1611155b6127ba576040517f08c379a00000000000000000000000000000000000000000000000000000000081526004016127b1906149f6565b60405180910390fd5b5f60075f8481526020019081526020015f20905080600f0160019054906101000a900460ff1661281f576040517f08c379a000000000000000000000000000000000000000000000000000000000815260040161281690614a5e565b60405180910390fd5b6003600781111561283357612832613b42565b5b81600d0160019054906101000a900460ff16600781111561285757612856613b42565b5b148061289857506004600781111561287257612871613b42565b5b81600d0160019054906101000a900460ff16600781111561289657612895613b42565b5b145b6128d7576040517f08c379a00000000000000000000000000000000000000000000000000000000081526004016128ce90614ac6565b60405180910390fd5b5f815f015f9054906101000a900473ffffffffffffffffffffffffffffffffffffffff1673ffffffffffffffffffffffffffffffffffffffff163373ffffffffffffffffffffffffffffffffffffffff160361295857816001015f9054906101000a900473ffffffffffffffffffffffffffffffffffffffff169050612a14565b816001015f9054906101000a900473ffffffffffffffffffffffffffffffffffffffff1673ffffffffffffffffffffffffffffffffffffffff163373ffffffffffffffffffffffffffffffffffffffff16036129d857815f015f9054906101000a900473ffffffffffffffffffffffffffffffffffffffff169050612a13565b6040517f08c379a0000000000000000000000000000000000000000000000000000000008152600401612a0a90614b2e565b60405180910390fd5b5b60055f3373ffffffffffffffffffffffffffffffffffffffff1673ffffffffffffffffffffffffffffffffffffffff1681526020019081526020015f205f8581526020019081526020015f205f9054906101000a900460ff1615612aad576040517f08c379a0000000000000000000000000000000000000000000000000000000008152600401612aa490614b96565b60405180910390fd5b600160055f3373ffffffffffffffffffffffffffffffffffffffff1673ffffffffffffffffffffffffffffffffffffffff1681526020019081526020015f205f8681526020019081526020015f205f6101000a81548160ff021916908315150217905550600160035f8373ffffffffffffffffffffffffffffffffffffffff1673ffffffffffffffffffffffffffffffffffffffff1681526020019081526020015f205f828254612b5e9190614213565b925050819055508260ff1660045f8373ffffffffffffffffffffffffffffffffffffffff1673ffffffffffffffffffffffffffffffffffffffff1681526020019081526020015f205f828254612bb49190614213565b925050819055508073ffffffffffffffffffffffffffffffffffffffff163373ffffffffffffffffffffffffffffffffffffffff167f42b362e4440baa96530d4f36bc304cd410ba9f48554f1dc01c3e53cbf0bd80108686604051612c1a929190614bb4565b60405180910390a350505050565b6005602052815f5260405f20602052805f5260405f205f915091509054906101000a900460ff1681565b612c5a612f38565b5f73ffffffffffffffffffffffffffffffffffffffff168173ffffffffffffffffffffffffffffffffffffffff1603612cca575f6040517f1e4fbdf7000000000000000000000000000000000000000000000000000000008152600401612cc19190613b0e565b60405180910390fd5b612cd381612fbf565b50565b600260015403612d12576040517f3ee5aeb500000000000000000000000000000000000000000000000000000000815260040160405180910390fd5b6002600181905550565b612d24611b20565b15612d5b576040517fd93c066500000000000000000000000000000000000000000000000000000000815260040160405180910390fd5b565b5f60075f8381526020019081526020015f20905060016007811115612d8557612d84613b42565b5b81600d0160019054906101000a900460ff166007811115612da957612da8613b42565b5b14612de9576040517f08c379a0000000000000000000000000000000000000000000000000000000008152600401612de090614c25565b60405180910390fd5b5f81600d015f6101000a81548160ff021916908360ff160217905550612e1282600160036130e2565b817f2ffcfee146bc0d5ff304c6b65111a0d485af9456dc64eee7d66ebdcc90b223ea6003604051612e4391906142ae565b60405180910390a25050565b60018081905550565b5f60075f8681526020019081526020015f2090508315612ea3578281600d0160016101000a81548160ff02191690836007811115612e9957612e98613b42565b5b0217905550612ed0565b8181600d0160016101000a81548160ff02191690836007811115612eca57612ec9613b42565b5b02179055505b5050505050565b612edf61339e565b5f60025f6101000a81548160ff0219169083151502179055507f5db9ee0a495bf2e6ff9c91a7834c1ba4fdd244a5e8aa4e537bd38aeae4b073aa612f216133de565b604051612f2e9190613b0e565b60405180910390a1565b612f406133de565b73ffffffffffffffffffffffffffffffffffffffff16612f5e611c62565b73ffffffffffffffffffffffffffffffffffffffff1614612fbd57612f816133de565b6040517f118cdaa7000000000000000000000000000000000000000000000000000000008152600401612fb49190613b0e565b60405180910390fd5b565b5f5f5f9054906101000a900473ffffffffffffffffffffffffffffffffffffffff169050815f5f6101000a81548173ffffffffffffffffffffffffffffffffffffffff021916908373ffffffffffffffffffffffffffffffffffffffff1602179055508173ffffffffffffffffffffffffffffffffffffffff168173ffffffffffffffffffffffffffffffffffffffff167f8be0079c531659141344cd1fd0a4f28419497f9722a3daafe3b4186f6b6457e060405160405180910390a35050565b613088612d1c565b600160025f6101000a81548160ff0219169083151502179055507f62e78cea01bee320cd4e420270b5ea74000d11b0c9f74754ebdbfc544b05a2586130cb6133de565b6040516130d89190613b0e565b60405180910390a1565b5f60075f8581526020019081526020015f2090508181600d0160016101000a81548160ff0219169083600781111561311d5761311c613b42565b5b021790555082156132225761319d816001015f9054906101000a900473ffffffffffffffffffffffffffffffffffffffff168260020154836003015f9054906101000a900473ffffffffffffffffffffffffffffffffffffffff1673ffffffffffffffffffffffffffffffffffffffff166133e59092919063ffffffff16565b837ffd7f9968b90c2f39997b08b69b3c78d40df681dec28b3eec202eff456c3ad2cb826001015f9054906101000a900473ffffffffffffffffffffffffffffffffffffffff16836003015f9054906101000a900473ffffffffffffffffffffffffffffffffffffffff16604051613215929190614645565b60405180910390a2613316565b613296815f015f9054906101000a900473ffffffffffffffffffffffffffffffffffffffff168260020154836003015f9054906101000a900473ffffffffffffffffffffffffffffffffffffffff1673ffffffffffffffffffffffffffffffffffffffff166133e59092919063ffffffff16565b837fcd0cf80e47d7155dd99224c3b23942de0ceca1a277e5e49a471ffb9a45ac1542825f015f9054906101000a900473ffffffffffffffffffffffffffffffffffffffff16836003015f9054906101000a900473ffffffffffffffffffffffffffffffffffffffff1660405161330d929190614645565b60405180910390a25b50505050565b613398848573ffffffffffffffffffffffffffffffffffffffff166323b872dd86868660405160240161335193929190614c43565b604051602081830303815290604052915060e01b6020820180517bffffffffffffffffffffffffffffffffffffffffffffffffffffffff8381831617835250505050613464565b50505050565b6133a6611b20565b6133dc576040517f8dfc202b00000000000000000000000000000000000000000000000000000000815260040160405180910390fd5b565b5f33905090565b61345f838473ffffffffffffffffffffffffffffffffffffffff1663a9059cbb8585604051602401613418929190614c78565b604051602081830303815290604052915060e01b6020820180517bffffffffffffffffffffffffffffffffffffffffffffffffffffffff8381831617835250505050613464565b505050565b5f5f60205f8451602086015f885af180613483576040513d5f823e3d81fd5b3d92505f519150505f821461349c5760018114156134b7565b5f8473ffffffffffffffffffffffffffffffffffffffff163b145b156134f957836040517f5274afe70000000000000000000000000000000000000000000000000000000081526004016134f09190613b0e565b60405180910390fd5b50505050565b826006810192821561356a579160200282015b82811115613569578251825f6101000a81548173ffffffffffffffffffffffffffffffffffffffff021916908373ffffffffffffffffffffffffffffffffffffffff16021790555091602001919060010190613512565b5b509050613577919061359d565b5090565b6040518060c00160405280600690602082028036833780820191505090505090565b5b808211156135b4575f815f90555060010161359e565b5090565b5f82825260208201905092915050565b7f556c74726152656e747a457363726f7720646f6573206e6f74206163636570745f8201527f2045746865720000000000000000000000000000000000000000000000000000602082015250565b5f6136226026836135b8565b915061362d826135c8565b604082019050919050565b5f6020820190508181035f83015261364f81613616565b9050919050565b5f604051905090565b5f5ffd5b5f819050919050565b61367581613663565b811461367f575f5ffd5b50565b5f813590506136908161366c565b92915050565b5f602082840312156136ab576136aa61365f565b5b5f6136b884828501613682565b91505092915050565b5f73ffffffffffffffffffffffffffffffffffffffff82169050919050565b5f6136ea826136c1565b9050919050565b6136fa816136e0565b8114613704575f5ffd5b50565b5f81359050613715816136f1565b92915050565b5f602082840312156137305761372f61365f565b5b5f61373d84828501613707565b91505092915050565b61374f81613663565b82525050565b5f6020820190506137685f830184613746565b92915050565b5f81519050919050565b8281835e5f83830152505050565b5f601f19601f8301169050919050565b5f6137a08261376e565b6137aa81856135b8565b93506137ba818560208601613778565b6137c381613786565b840191505092915050565b5f6020820190508181035f8301526137e68184613796565b905092915050565b5f8115159050919050565b613802816137ee565b811461380c575f5ffd5b50565b5f8135905061381d816137f9565b92915050565b5f5f604083850312156138395761383861365f565b5b5f61384685828601613682565b92505060206138578582860161380f565b9150509250929050565b5f5ffd5b7f4e487b71000000000000000000000000000000000000000000000000000000005f52604160045260245ffd5b61389b82613786565b810181811067ffffffffffffffff821117156138ba576138b9613865565b5b80604052505050565b5f6138cc613656565b90506138d88282613892565b919050565b5f67ffffffffffffffff8211156138f7576138f6613865565b5b602082029050919050565b5f5ffd5b5f613918613913846138dd565b6138c3565b9050806020840283018581111561393257613931613902565b5b835b8181101561395b57806139478882613707565b845260208401935050602081019050613934565b5050509392505050565b5f82601f83011261397957613978613861565b5b6006613986848285613906565b91505092915050565b5f5f5f5f5f5f61016087890312156139aa576139a961365f565b5b5f6139b789828a01613707565b96505060206139c889828a01613682565b95505060406139d989828a01613707565b94505060606139ea89828a01613682565b93505060806139fb89828a01613682565b92505060a0613a0c89828a01613965565b9150509295509295509295565b613a22816137ee565b82525050565b5f602082019050613a3b5f830184613a19565b92915050565b5f60069050919050565b5f81905092915050565b5f819050919050565b613a67816136e0565b82525050565b5f613a788383613a5e565b60208301905092915050565b5f602082019050919050565b613a9981613a41565b613aa38184613a4b565b9250613aae82613a55565b805f5b83811015613ade578151613ac58782613a6d565b9650613ad083613a84565b925050600181019050613ab1565b505050505050565b5f60c082019050613af95f830184613a90565b92915050565b613b08816136e0565b82525050565b5f602082019050613b215f830184613aff565b92915050565b5f60ff82169050919050565b613b3c81613b27565b82525050565b7f4e487b71000000000000000000000000000000000000000000000000000000005f52602160045260245ffd5b60088110613b8057613b7f613b42565b5b50565b5f819050613b9082613b6f565b919050565b5f613b9f82613b83565b9050919050565b613baf81613b95565b82525050565b5f6101e082019050613bc95f83018d613aff565b613bd6602083018c613aff565b613be3604083018b613746565b613bf0606083018a613aff565b613bfd6080830189613746565b613c0a60a0830188613746565b613c1760c0830187613a90565b613c25610180830186613b33565b613c336101a0830185613ba6565b613c416101c0830184613b33565b9b9a5050505050505050505050565b5f5f60408385031215613c6657613c6561365f565b5b5f613c7385828601613682565b9250506020613c8485828601613707565b9150509250929050565b613c9781613b27565b8114613ca1575f5ffd5b50565b5f81359050613cb281613c8e565b92915050565b5f5f60408385031215613cce57613ccd61365f565b5b5f613cdb85828601613682565b9250506020613cec85828601613ca4565b9150509250929050565b5f5f60408385031215613d0c57613d0b61365f565b5b5f613d1985828601613707565b9250506020613d2a85828601613682565b9150509250929050565b7f4e487b71000000000000000000000000000000000000000000000000000000005f52603260045260245ffd5b7f4e6f742061207369676e61746f727900000000000000000000000000000000005f82015250565b5f613d95600f836135b8565b9150613da082613d61565b602082019050919050565b5f6020820190508181035f830152613dc281613d89565b9050919050565b7f496e76616c6964207374617465000000000000000000000000000000000000005f82015250565b5f613dfd600d836135b8565b9150613e0882613dc9565b602082019050919050565b5f6020820190508181035f830152613e2a81613df1565b9050919050565b7f54656e616e6379206e6f7420656e6465640000000000000000000000000000005f82015250565b5f613e656011836135b8565b9150613e7082613e31565b602082019050919050565b5f6020820190508181035f830152613e9281613e59565b9050919050565b7f416c726561647920617070726f766564000000000000000000000000000000005f82015250565b5f613ecd6010836135b8565b9150613ed882613e99565b602082019050919050565b5f6020820190508181035f830152613efa81613ec1565b9050919050565b7f4e487b71000000000000000000000000000000000000000000000000000000005f52601160045260245ffd5b5f613f3882613b27565b915060ff8203613f4b57613f4a613f01565b5b600182019050919050565b5f604082019050613f695f830185613aff565b613f766020830184613b33565b9392505050565b7f4e6f742074656e616e74000000000000000000000000000000000000000000005f82015250565b5f613fb1600a836135b8565b9150613fbc82613f7d565b602082019050919050565b5f6020820190508181035f830152613fde81613fa5565b9050919050565b7f43616e6e6f742061707065616c2066726f6d2063757272656e742073746174655f82015250565b5f6140196020836135b8565b915061402482613fe5565b602082019050919050565b5f6020820190508181035f8301526140468161400d565b9050919050565b7f4d6178696d756d2061707065616c7320726561636865642028322900000000005f82015250565b5f614081601b836135b8565b915061408c8261404d565b602082019050919050565b5f6020820190508181035f8301526140ae81614075565b9050919050565b7f41707065616c207375626d69747465642e2044414f2064656c696265726174695f8201527f6f6e2070656e64696e672e000000000000000000000000000000000000000000602082015250565b5f61410f602b836135b8565b915061411a826140b5565b604082019050919050565b5f6020820190508181035f83015261413c81614103565b9050919050565b7f4e6f74207468652044414f2f41646d696e2061646472657373000000000000005f82015250565b5f6141776019836135b8565b915061418282614143565b602082019050919050565b5f6020820190508181035f8301526141a48161416b565b9050919050565b7f4e6f7420696e20646973707574650000000000000000000000000000000000005f82015250565b5f6141df600e836135b8565b91506141ea826141ab565b602082019050919050565b5f6020820190508181035f83015261420c816141d3565b9050919050565b5f61421d82613663565b915061422883613663565b92508282019050808211156142405761423f613f01565b5b92915050565b7f5265736f6c7574696f6e2074696d6520657870697265640000000000000000005f82015250565b5f61427a6017836135b8565b915061428582614246565b602082019050919050565b5f6020820190508181035f8301526142a78161426e565b9050919050565b5f6020820190506142c15f830184613ba6565b92915050565b7f496e76616c6964206c616e646c6f7264206164647265737300000000000000005f82015250565b5f6142fb6018836135b8565b9150614306826142c7565b602082019050919050565b5f6020820190508181035f830152614328816142ef565b9050919050565b7f496e76616c696420746f6b656e206164647265737300000000000000000000005f82015250565b5f6143636015836135b8565b915061436e8261432f565b602082019050919050565b5f6020820190508181035f83015261439081614357565b9050919050565b7f456e642064617465206d757374206265206166746572207374617274206461745f8201527f6500000000000000000000000000000000000000000000000000000000000000602082015250565b5f6143f16021836135b8565b91506143fc82614397565b604082019050919050565b5f6020820190508181035f83015261441e816143e5565b9050919050565b7f54656e616e742063616e6e6f74206265207a65726f20616464726573730000005f82015250565b5f614459601d836135b8565b915061446482614425565b602082019050919050565b5f6020820190508181035f8301526144868161444d565b9050919050565b7f5369676e61746f72792063616e6e6f74206265207a65726f20616464726573735f82015250565b5f6144c16020836135b8565b91506144cc8261448d565b602082019050919050565b5f6020820190508181035f8301526144ee816144b5565b9050919050565b5f8160601b9050919050565b5f61450b826144f5565b9050919050565b5f61451c82614501565b9050919050565b61453461452f826136e0565b614512565b82525050565b5f819050919050565b61455461454f82613663565b61453a565b82525050565b5f6145658286614523565b6014820191506145758285614523565b6014820191506145858284614543565b602082019150819050949350505050565b7f4475706c696361746520657363726f77000000000000000000000000000000005f82015250565b5f6145ca6010836135b8565b91506145d582614596565b602082019050919050565b5f6020820190508181035f8301526145f7816145be565b9050919050565b5f61460882613663565b91507fffffffffffffffffffffffffffffffffffffffffffffffffffffffffffffffff820361463a57614639613f01565b5b600182019050919050565b5f6040820190506146585f830185613aff565b6146656020830184613aff565b9392505050565b7f4e6f2070656e64696e672061707065616c0000000000000000000000000000005f82015250565b5f6146a06011836135b8565b91506146ab8261466c565b602082019050919050565b5f6020820190508181035f8301526146cd81614694565b9050919050565b5f6040820190506146e75f830185613ba6565b6146f46020830184613a19565b9392505050565b7f43616e6e6f7420646973707574650000000000000000000000000000000000005f82015250565b5f61472f600e836135b8565b915061473a826146fb565b602082019050919050565b5f6020820190508181035f83015261475c81614723565b9050919050565b7f44697370757465207261697365642e2044414f2077696c6c20726576696577205f8201527f77697468696e203720646179732e000000000000000000000000000000000000602082015250565b5f6147bd602e836135b8565b91506147c882614763565b604082019050919050565b5f6020820190508181035f8301526147ea816147b1565b9050919050565b7f457363726f77206e6f7420726561647920666f722066696e616c697a6174696f5f8201527f6e20286e6f206465636973696f6e206d61646529000000000000000000000000602082015250565b5f61484b6034836135b8565b9150614856826147f1565b604082019050919050565b5f6020820190508181035f8301526148788161483f565b9050919050565b7f41707065616c2077696e646f77206973207374696c6c206163746976650000005f82015250565b5f6148b3601d836135b8565b91506148be8261487f565b602082019050919050565b5f6020820190508181035f8301526148e0816148a7565b9050919050565b7f4e487b71000000000000000000000000000000000000000000000000000000005f52601260045260245ffd5b5f61491e82613663565b915061492983613663565b925082614939576149386148e7565b5b828204905092915050565b7f457363726f77206973206e6f742066756e6461626c65000000000000000000005f82015250565b5f6149786016836135b8565b915061498382614944565b602082019050919050565b5f6020820190508181035f8301526149a58161496c565b9050919050565b7f526174696e67206d75737420626520312d3500000000000000000000000000005f82015250565b5f6149e06012836135b8565b91506149eb826149ac565b602082019050919050565b5f6020820190508181035f830152614a0d816149d4565b9050919050565b7f457363726f7720646f6573206e6f7420657869737400000000000000000000005f82015250565b5f614a486015836135b8565b9150614a5382614a14565b602082019050919050565b5f6020820190508181035f830152614a7581614a3c565b9050919050565b7f457363726f77206e6f742066696e616c697a65640000000000000000000000005f82015250565b5f614ab06014836135b8565b9150614abb82614a7c565b602082019050919050565b5f6020820190508181035f830152614add81614aa4565b9050919050565b7f4f6e6c792074656e616e74206f72206c616e646c6f72642063616e20726174655f82015250565b5f614b186020836135b8565b9150614b2382614ae4565b602082019050919050565b5f6020820190508181035f830152614b4581614b0c565b9050919050565b7f416c726561647920726174656420666f72207468697320657363726f770000005f82015250565b5f614b80601d836135b8565b9150614b8b82614b4c565b602082019050919050565b5f6020820190508181035f830152614bad81614b74565b9050919050565b5f604082019050614bc75f830185613746565b614bd46020830184613b33565b9392505050565b7f4e6f742066756e6461626c6500000000000000000000000000000000000000005f82015250565b5f614c0f600c836135b8565b9150614c1a82614bdb565b602082019050919050565b5f6020820190508181035f830152614c3c81614c03565b9050919050565b5f606082019050614c565f830186613aff565b614c636020830185613aff565b614c706040830184613746565b949350505050565b5f604082019050614c8b5f830185613aff565b614c986020830184613746565b939250505056fea264697066735822122093ae7f555d19e28f6f7c29b68b96ae554fdeea1883b82e236c4123f212f686f564736f6c634300081e0033","linkReferences":{}},"methodIdentifiers":{"MAX_APPEALS()":"5c95c441","RESOLUTION_WINDOW()":"734c8544","approveRelease(uint256)":"1bd2cea1","createEscrow(address,uint256,address,uint256,uint256,address[6])":"46a80b24","escrowCounter()":"c7ceafea","finalizeAppealDecision(uint256,bool)":"9db94ed7","finalizeEscrow(uint256)":"b43a405a","fundEscrow(uint256)":"c9c31af5","getAverageRating(address)":"c8b67522","getEscrowDetails(uint256)":"b996ec2a","getEscrowStatus(uint256)":"345460cd","getSignatories(uint256)":"65f4c098","hasRated(address,uint256)":"d25468b3","hasSignatoryApproved(uint256,address)":"cfe8ad96","owner()":"8da5cb5b","pause()":"8456cb59","paused()":"5c975abb","raiseDispute(uint256)":"a5c1674e","rateCounterparty(uint256,uint8)":"d22359dc","ratingsSum(address)":"33b3ceb4","releaseAfterEndDate(uint256)":"10c685e0","renounceOwnership()":"715018a6","resolveDispute(uint256,bool)":"34b25ee2","submitAppeal(uint256)":"19dc88ae","totalRatingsReceived(address)":"31276401","transferOwnership(address)":"f2fde38b","unpause()":"3f4ba83a"},"id":39}