{"abi":[{"type":"constructor","inputs":[{"name":"initialOwner","type":"address","internalType":"address"}],"stateMutability":"nonpayable"},{"type":"receive","stateMutability":"payable"},{"type":"function","name":"MAX_APPEALS","inputs":[],"outputs":[{"name":"","type":"uint256","internalType":"uint256"}],"stateMutability":"view"},{"type":"function","name":"RESOLUTION_WINDOW","inputs":[],"outputs":[{"name":"","type":"uint256","internalType":"uint256"}],"stateMutability":"view"},{"type":"function","name":"approveRelease","inputs":[{"name":"escrowId","type":"uint256","internalType":"uint256"}],"outputs":[],"stateMutability":"nonpayable"},{"type":"function","name":"createEscrow","inputs":[{"name":"landlord","type":"address","internalType":"address"},{"name":"amount","type":"uint256","internalType":"uint256"},{"name":"token","type":"address","internalType":"address"},{"name":"startDate","type":"uint256","internalType":"uint256"},{"name":"endDate","type":"uint256","internalType":"uint256"},{"name":"signatories","type":"address[6]","internalType":"address[6]"}],"outputs":[{"name":"id","type":"uint256","internalType":"uint256"}],"stateMutability":"nonpayable"},{"type":"function","name":"escrowCounter","inputs":[],"outputs":[{"name":"","type":"uint256","internalType":"uint256"}],"stateMutability":"view"},{"type":"function","name":"finalizeAppealDecision","inputs":[{"name":"escrowId","type":"uint256","internalType":"uint256"},{"name":"releaseToLandlord","type":"bool","internalType":"bool"}],"outputs":[],"stateMutability":"nonpayable"},{"type":"function","name":"finalizeEscrow","inputs":[{"name":"escrowId","type":"uint256","internalType":"uint256"}],"outputs":[],"stateMutability":"nonpayable"},{"type":"function","name":"fundEscrow","inputs":[{"name":"escrowId","type":"uint256","internalType":"uint256"}],"outputs":[],"stateMutability":"nonpayable"},{"type":"function","name":"getAverageRating","inputs":[{"name":"user","type":"address","internalType":"address"}],"outputs":[{"name":"","type":"uint256","internalType":"uint256"}],"stateMutability":"view"},{"type":"function","name":"getEscrowDetails","inputs":[{"name":"escrowId","type":"uint256","internalType":"uint256"}],"outputs":[{"name":"tenant","type":"address","internalType":"address"},{"name":"landlord","type":"address","internalType":"address"},{"name":"amount","type":"uint256","internalType":"uint256"},{"name":"token","type":"address","internalType":"address"},{"name":"startDate","type":"uint256","internalType":"uint256"},{"name":"endDate","type":"uint256","internalType":"uint256"},{"name":"signatories","type":"address[6]","internalType":"address[6]"},{"name":"approvals","type":"uint8","internalType":"uint8"},{"name":"state","type":"uint8","internalType":"enum UltraRentzEscrow.EscrowState"},{"name":"appealCount","type":"uint8","internalType":"uint8"}],"stateMutability":"view"},{"type":"function","name":"getEscrowStatus","inputs":[{"name":"escrowId","type":"uint256","internalType":"uint256"}],"outputs":[{"name":"","type":"string","internalType":"string"}],"stateMutability":"view"},{"type":"function","name":"getSignatories","inputs":[{"name":"escrowId","type":"uint256","internalType":"uint256"}],"outputs":[{"name":"","type":"address[6]","internalType":"address[6]"}],"stateMutability":"view"},{"type":"function","name":"hasRated","inputs":[{"name":"","type":"address","internalType":"address"},{"name":"","type":"uint256","internalType":"uint256"}],"outputs":[{"name":"","type":"bool","internalType":"bool"}],"stateMutability":"view"},{"type":"function","name":"hasSignatoryApproved","inputs":[{"name":"escrowId","type":"uint256","internalType":"uint256"},{"name":"signatory","type":"address","internalType":"address"}],"outputs":[{"name":"","type":"bool","internalType":"bool"}],"stateMutability":"view"},{"type":"function","name":"owner","inputs":[],"outputs":[{"name":"","type":"address","internalType":"address"}],"stateMutability":"view"},{"type":"function","name":"pause","inputs":[],"outputs":[],"stateMutability":"nonpayable"},{"type":"function","name":"paused","inputs":[],"outputs":[{"name":"","type":"bool","internalType":"bool"}],"stateMutability":"view"},{"type":"function","name":"raiseDispute","inputs":[{"name":"escrowId","type":"uint256","internalType":"uint256"}],"outputs":[],"stateMutability":"nonpayable"},{"type":"function","name":"rateCounterparty","inputs":[{"name":"escrowId","type":"uint256","internalType":"uint256"},{"name":"rating","type":"uint8","internalType":"uint8"}],"outputs":[],"stateMutability":"nonpayable"},{"type":"function","name":"ratingsSum","inputs":[{"name":"","type":"address","internalType":"address"}],"outputs":[{"name":"","type":"uint256","internalType":"uint256"}],"stateMutability":"view"},{"type":"function","name":"releaseAfterEndDate","inputs":[{"name":"escrowId","type":"uint256","internalType":"uint256"}],"outputs":[],"stateMutability":"nonpayable"},{"type":"function","name":"renounceOwnership","inputs":[],"outputs":[],"stateMutability":"nonpayable"},{"type":"function","name":"resolveDispute","inputs":[{"name":"escrowId","type":"uint256","internalType":"uint256"},{"name":"releaseToLandlord","type":"bool","internalType":"bool"}],"outputs":[],"stateMutability":"nonpayable"},{"type":"function","name":"submitAppeal","inputs":[{"name":"escrowId","type":"uint256","internalType":"uint256"}],"outputs":[],"stateMutability":"nonpayable"},{"type":"function","name":"totalRatingsReceived","inputs":[{"name":"","type":"address","internalType":"address"}],"outputs":[{"name":"","type":"uint256","internalType":"uint256"}],"stateMutability":"view"},{"type":"function","name":"transferOwnership","inputs":[{"name":"newOwner","type":"address","internalType":"address"}],"outputs":[],"stateMutability":"nonpayable"},{"type":"function","name":"unpause","inputs":[],"outputs":[],"stateMutability":"nonpayable"},{"type":"function","name":"withdrawEther","inputs":[{"name":"to","type":"address","internalType":"address payable"}],"outputs":[],"stateMutability":"nonpayable"},{"type":"event","name":"AppealFinalized","inputs":[{"name":"escrowId","type":"uint256","indexed":true,"internalType":"uint256"},{"name":"finalState","type":"uint8","indexed":false,"internalType":"enum UltraRentzEscrow.EscrowState"},{"name":"success","type":"bool","indexed":false,"internalType":"bool"}],"anonymous":false},{"type":"event","name":"AppealSubmitted","inputs":[{"name":"escrowId","type":"uint256","indexed":true,"internalType":"uint256"}],"anonymous":false},{"type":"event","name":"ApprovalSubmitted","inputs":[{"name":"escrowId","type":"uint256","indexed":true,"internalType":"uint256"},{"name":"signatory","type":"address","indexed":false,"internalType":"address"},{"name":"totalApprovals","type":"uint8","indexed":false,"internalType":"uint8"}],"anonymous":false},{"type":"event","name":"DisputeResolved","inputs":[{"name":"escrowId","type":"uint256","indexed":true,"internalType":"uint256"},{"name":"resolution","type":"uint8","indexed":false,"internalType":"enum UltraRentzEscrow.EscrowState"}],"anonymous":false},{"type":"event","name":"EscrowCreated","inputs":[{"name":"escrowId","type":"uint256","indexed":true,"internalType":"uint256"},{"name":"tenant","type":"address","indexed":true,"internalType":"address"},{"name":"landlord","type":"address","indexed":false,"internalType":"address"},{"name":"token","type":"address","indexed":false,"internalType":"address"}],"anonymous":false},{"type":"event","name":"EscrowDisputed","inputs":[{"name":"escrowId","type":"uint256","indexed":true,"internalType":"uint256"}],"anonymous":false},{"type":"event","name":"EscrowFunded","inputs":[{"name":"escrowId","type":"uint256","indexed":true,"internalType":"uint256"},{"name":"amount","type":"uint256","indexed":false,"internalType":"uint256"}],"anonymous":false},{"type":"event","name":"EscrowRefunded","inputs":[{"name":"escrowId","type":"uint256","indexed":true,"internalType":"uint256"},{"name":"tenant","type":"address","indexed":false,"internalType":"address"},{"name":"token","type":"address","indexed":false,"internalType":"address"}],"anonymous":false},{"type":"event","name":"EscrowReleased","inputs":[{"name":"escrowId","type":"uint256","indexed":true,"internalType":"uint256"},{"name":"landlord","type":"address","indexed":false,"internalType":"address"},{"name":"token","type":"address","indexed":false,"internalType":"address"}],"anonymous":false},{"type":"event","name":"Notification","inputs":[{"name":"message","type":"string","indexed":false,"internalType":"string"}],"anonymous":false},{"type":"event","name":"OwnershipTransferred","inputs":[{"name":"previousOwner","type":"address","indexed":true,"internalType":"address"},{"name":"newOwner","type":"address","indexed":true,"internalType":"address"}],"anonymous":false},{"type":"event","name":"Paused","inputs":[{"name":"account","type":"address","indexed":false,"internalType":"address"}],"anonymous":false},{"type":"event","name":"Unpaused","inputs":[{"name":"account","type":"address","indexed":false,"internalType":"address"}],"anonymous":false},{"type":"event","name":"UserRated","inputs":[{"name":"rater","type":"address","indexed":true,"internalType":"address"},{"name":"ratee","type":"address","indexed":true,"internalType":"address"},{"name":"escrowId","type":"uint256","indexed":false,"internalType":"uint256"},{"name":"rating","type":"uint8","indexed":false,"internalType":"uint8"}],"anonymous":false},{"type":"error","name":"EnforcedPause","inputs":[]},{"type":"error","name":"ExpectedPause","inputs":[]},{"type":"error","name":"OwnableInvalidOwner","inputs":[{"name":"owner","type":"address","internalType":"address"}]},{"type":"error","name":"OwnableUnauthorizedAccount","inputs":[{"name":"account","type":"address","internalType":"address"}]},{"type":"error","name":"ReentrancyGuardReentrantCall","inputs":[]},{"type":"error","name":"SafeCastOverflowedUintDowncast","inputs":[{"name":"bits","type":"uint8","internalType":"uint8"},{"name":"value","type":"uint256","internalType":"uint256"}]},{"type":"error","name":"SafeERC20FailedOperation","inputs":[{"name":"token","type":"address","internalType":"address"}]}],"bytecode":{"object":"0x608060405234801561000f575f5ffd5b50604051612a68380380612a6883398101604081905261002e91610116565b806001600160a01b03811661005d57604051631e4fbdf760e01b81525f60048201526024015b60405180910390fd5b610066816100c7565b50600180556001600160a01b0381166100c15760405162461bcd60e51b815260206004820181905260248201527f44414f2f41646d696e2063616e6e6f74206265207a65726f20616464726573736044820152606401610054565b50610143565b5f80546001600160a01b038381166001600160a01b0319831681178455604051919092169283917f8be0079c531659141344cd1fd0a4f28419497f9722a3daafe3b4186f6b6457e09190a35050565b5f60208284031215610126575f5ffd5b81516001600160a01b038116811461013c575f5ffd5b9392505050565b612918806101505f395ff3fe6080604052600436106101b2575f3560e01c80638456cb59116100e7578063c7ceafea11610087578063cfe8ad9611610062578063cfe8ad9614610528578063d22359dc14610570578063d25468b31461058f578063f2fde38b146105c8575f5ffd5b8063c7ceafea146104d5578063c8b67522146104ea578063c9c31af514610509575f5ffd5b8063a5c1674e116100c2578063a5c1674e14610443578063af933b5714610462578063b43a405a14610481578063b996ec2a146104a0575f5ffd5b80638456cb59146103ea5780638da5cb5b146103fe5780639db94ed714610424575f5ffd5b80633f4ba83a116101525780635c975abb1161012d5780635c975abb1461037157806365f4c09814610394578063715018a6146103c0578063734c8544146103d4575f5ffd5b80633f4ba83a1461032a57806346a80b241461033e5780635c95c4411461035d575f5ffd5b8063312764011161018d578063312764011461027657806333b3ceb4146102b4578063345460cd146102df57806334b25ee21461030b575f5ffd5b806310c685e01461021757806319dc88ae146102385780631bd2cea114610257575f5ffd5b366102135760405162461bcd60e51b815260206004820152602660248201527f556c74726152656e747a457363726f7720646f6573206e6f74206163636570746044820152651022ba3432b960d11b60648201526084015b60405180910390fd5b5f5ffd5b348015610222575f5ffd5b506102366102313660046124b2565b6105e7565b005b348015610243575f5ffd5b506102366102523660046124b2565b610858565b348015610262575f5ffd5b506102366102713660046124b2565b610a9d565b348015610281575f5ffd5b506102a16102903660046124ed565b60036020525f908152604090205481565b6040519081526020015b60405180910390f35b3480156102bf575f5ffd5b506102a16102ce3660046124ed565b60046020525f908152604090205481565b3480156102ea575f5ffd5b506102fe6102f93660046124b2565b610bb0565b6040516102ab919061250f565b348015610316575f5ffd5b50610236610325366004612544565b610e80565b348015610335575f5ffd5b50610236610ff1565b348015610349575f5ffd5b506102a161035836600461258a565b611024565b348015610368575f5ffd5b506102a1600281565b34801561037c575f5ffd5b5060025460ff165b60405190151581526020016102ab565b34801561039f575f5ffd5b506103b36103ae3660046124b2565b6113ac565b6040516102ab9190612678565b3480156103cb575f5ffd5b50610236611401565b3480156103df575f5ffd5b506102a162093a8081565b3480156103f5575f5ffd5b50610236611412565b348015610409575f5ffd5b505f546040516001600160a01b0390911681526020016102ab565b34801561042f575f5ffd5b5061023661043e366004612544565b611443565b34801561044e575f5ffd5b5061023661045d3660046124b2565b6115e9565b34801561046d575f5ffd5b5061023661047c3660046124ed565b611761565b34801561048c575f5ffd5b5061023661049b3660046124b2565b6117f0565b3480156104ab575f5ffd5b506104bf6104ba3660046124b2565b6119cc565b6040516102ab9a999897969594939291906126ba565b3480156104e0575f5ffd5b506102a160065481565b3480156104f5575f5ffd5b506102a16105043660046124ed565b611a94565b348015610514575f5ffd5b506102366105233660046124b2565b611aed565b348015610533575f5ffd5b5061038461054236600461272e565b5f8281526007602090815260408083206001600160a01b0385168452600c0190915290205460ff1692915050565b34801561057b575f5ffd5b5061023661058a366004612751565b611c23565b34801561059a575f5ffd5b506103846105a9366004612779565b600560209081525f928352604080842090915290825290205460ff1681565b3480156105d3575f5ffd5b506102366105e23660046124ed565b611f31565b6105ef611f6b565b805f805b60068160ff161015610648575f838152600760205260409020339060069081019060ff8416908110610627576106276127a3565b01546001600160a01b0316036106405760019150610648565b6001016105f3565b50806106885760405162461bcd60e51b815260206004820152600f60248201526e4e6f742061207369676e61746f727960881b604482015260640161020a565b610690611f95565b5f8381526007602052604090206001600d820154610100900460ff1660078111156106bd576106bd612686565b146106fa5760405162461bcd60e51b815260206004820152600d60248201526c496e76616c696420737461746560981b604482015260640161020a565b8060050154610707611fb9565b65ffffffffffff16116107505760405162461bcd60e51b815260206004820152601160248201527015195b985b98de481b9bdd08195b991959607a1b604482015260640161020a565b335f908152600c8201602052604090205460ff16156107a45760405162461bcd60e51b815260206004820152601060248201526f105b1c9958591e48185c1c1c9bdd995960821b604482015260640161020a565b335f908152600c820160205260408120805460ff19166001179055600d8201805460ff16916107d2836127cb565b82546101009290920a60ff818102199093169183160217909155600d830154604080513381529190921660208201528692507f31fdc4d501a17fc8bb26e1ab1136058e5975bc80399612d9abbf0b42e760c855910160405180910390a2600d810154600460ff909116106108495761084984611fc8565b50505061085560018055565b50565b610860611f6b565b5f8181526007602052604090205481906001600160a01b031633146108975760405162461bcd60e51b815260040161020a906127e9565b61089f611f95565b5f8281526007602052604090206006600d820154610100900460ff1660078111156108cc576108cc612686565b14806108f557506007600d820154610100900460ff1660078111156108f3576108f3612686565b145b6109415760405162461bcd60e51b815260206004820181905260248201527f43616e6e6f742061707065616c2066726f6d2063757272656e74207374617465604482015260640161020a565b600f810154600260ff9091161061099a5760405162461bcd60e51b815260206004820152601b60248201527f4d6178696d756d2061707065616c732072656163686564202832290000000000604482015260640161020a565b600f8101805460ff16905f6109ae836127cb565b91906101000a81548160ff021916908360ff160217905550506109cf611fb9565b65ffffffffffff16600e820155600d8101805461ff00191661050017905560405183907f9f99ae1c2ed3bebdabfddb8a9ded0b435ed0e72af5dd8b48c86af9e1825effa3905f90a27f7d1ff22c1a82f0d8fc4f45d2aec63e679ecb08700b30f7e90ae3721d13b1f6bd604051610a8a906020808252602b908201527f41707065616c207375626d69747465642e2044414f2064656c6962657261746960408201526a37b7103832b73234b7339760a91b606082015260800190565b60405180910390a1505061085560018055565b610aa5611f6b565b805f805b60068160ff161015610afe575f838152600760205260409020339060069081019060ff8416908110610add57610add6127a3565b01546001600160a01b031603610af65760019150610afe565b600101610aa9565b5080610b3e5760405162461bcd60e51b815260206004820152600f60248201526e4e6f742061207369676e61746f727960881b604482015260640161020a565b610b46611f95565b5f8381526007602052604090206001600d820154610100900460ff166007811115610b7357610b73612686565b146107505760405162461bcd60e51b815260206004820152600d60248201526c496e76616c696420737461746560981b604482015260640161020a565b5f818152600760205260408120606091600d820154610100900460ff166007811115610bde57610bde612686565b03610c0857505060408051808201909152600781526610dc99585d195960ca1b6020820152919050565b6001600d820154610100900460ff166007811115610c2857610c28612686565b03610c51575050604080518082019091526006815265119d5b99195960d21b6020820152919050565b6002600d820154610100900460ff166007811115610c7157610c71612686565b03610c9e57505060408051808201909152600a815269496e204469737075746560b01b6020820152919050565b6003600d820154610100900460ff166007811115610cbe57610cbe612686565b03610cf557505060408051808201909152601481527314995b19585cd959081d1bc813185b991b1bdc9960621b6020820152919050565b6004600d820154610100900460ff166007811115610d1557610d15612686565b03610d4a5750506040805180820190915260128152711499599d5b991959081d1bc815195b985b9d60721b6020820152919050565b6005600d820154610100900460ff166007811115610d6a57610d6a612686565b03610d9b57505060408051808201909152600e81526d14195b991a5b99c8105c1c19585b60921b6020820152919050565b6006600d820154610100900460ff166007811115610dbb57610dbb612686565b03610dfb57505060408051808201909152601e81527f4465636973696f6e3a2052656c65617365202841707065616c61626c652900006020820152919050565b6007600d820154610100900460ff166007811115610e1b57610e1b612686565b03610e5b57505060408051808201909152601d81527f4465636973696f6e3a20526566756e64202841707065616c61626c65290000006020820152919050565b50506040805180820190915260078152662ab735b737bbb760c91b6020820152919050565b610e88611f6b565b5f546001600160a01b03163314610eb15760405162461bcd60e51b815260040161020a9061280d565b610eb9611f95565b5f8281526007602052604090206002600d820154610100900460ff166007811115610ee657610ee6612686565b14610f245760405162461bcd60e51b815260206004820152600e60248201526d4e6f7420696e206469737075746560901b604482015260640161020a565b62093a8081600e0154610f379190612844565b610f3f611fb9565b65ffffffffffff161115610f8f5760405162461bcd60e51b815260206004820152601760248201527614995cdbdb1d5d1a5bdb881d1a5b5948195e1c1a5c9959604a1b604482015260640161020a565b610f9d838360066007612087565b600d81015460405184917f2ffcfee146bc0d5ff304c6b65111a0d485af9456dc64eee7d66ebdcc90b223ea91610fdb91610100900460ff1690612857565b60405180910390a250610fed60018055565b5050565b5f546001600160a01b0316331461101a5760405162461bcd60e51b815260040161020a9061280d565b6110226120f7565b565b5f61102d611f95565b6001600160a01b0387166110835760405162461bcd60e51b815260206004820152601860248201527f496e76616c6964206c616e646c6f726420616464726573730000000000000000604482015260640161020a565b6001600160a01b0385166110d15760405162461bcd60e51b8152602060048201526015602482015274496e76616c696420746f6b656e206164647265737360581b604482015260640161020a565b83831161112a5760405162461bcd60e51b815260206004820152602160248201527f456e642064617465206d757374206265206166746572207374617274206461746044820152606560f81b606482015260840161020a565b336111775760405162461bcd60e51b815260206004820152601d60248201527f54656e616e742063616e6e6f74206265207a65726f2061646472657373000000604482015260640161020a565b5f5b60068160ff1610156111fe575f8360ff83166006811061119b5761119b6127a3565b60200201516001600160a01b0316036111f65760405162461bcd60e51b815260206004820181905260248201527f5369676e61746f72792063616e6e6f74206265207a65726f2061646472657373604482015260640161020a565b600101611179565b506040516bffffffffffffffffffffffff1933606090811b8216602084015289901b166034820152604881018590525f9060680160408051601f1981840301815291815281516020928301205f818152600890935291205490915060ff161561129c5760405162461bcd60e51b815260206004820152601060248201526f4475706c696361746520657363726f7760801b604482015260640161020a565b60065f81546112aa90612865565b91829055505f8181526007602052604090208054336001600160a01b031991821617825560018201805482166001600160a01b038d811691909117909155600283018b9055600383018054909216908a1617905560048101879055600581018690559092506006810161131d858261287d565b50600d8101805461ff0019908116909155600f820180549091166101001790555f82815260086020908152604091829020805460ff1916600117905581516001600160a01b03808d1682528a1691810191909152339185917fccab83b228b9f11d0f002db0d115fe84ab0bacbe475d1c28666963a66c20c436910160405180910390a350509695505050505050565b6113b4612494565b5f8281526007602052604090819020815160c0810192839052916006918201919082845b81546001600160a01b031681526001909101906020018083116113d85750505050509050919050565b611409612149565b6110225f612175565b5f546001600160a01b0316331461143b5760405162461bcd60e51b815260040161020a9061280d565b6110226121c4565b61144b611f6b565b5f546001600160a01b031633146114745760405162461bcd60e51b815260040161020a9061280d565b61147c611f95565b5f8281526007602052604090206005600d820154610100900460ff1660078111156114a9576114a9612686565b146114ea5760405162461bcd60e51b8152602060048201526011602482015270139bc81c195b991a5b99c8185c1c19585b607a1b604482015260640161020a565b62093a8081600e01546114fd9190612844565b611505611fb9565b65ffffffffffff1611156115555760405162461bcd60e51b815260206004820152601760248201527614995cdbdb1d5d1a5bdb881d1a5b5948195e1c1a5c9959604a1b604482015260640161020a565b611563838360066007612087565b600d81015460405184917f34572d32f3bb0eff148ee17d0122170a41891d6a37564b756027d0cc5eb6123d916115a391610100900460ff169086906128a6565b60405180910390a2600d81015460405184917f2ffcfee146bc0d5ff304c6b65111a0d485af9456dc64eee7d66ebdcc90b223ea91610fdb91610100900460ff1690612857565b6115f1611f6b565b5f8181526007602052604090205481906001600160a01b031633146116285760405162461bcd60e51b815260040161020a906127e9565b611630611f95565b5f8281526007602052604090206001600d820154610100900460ff16600781111561165d5761165d612686565b1461169b5760405162461bcd60e51b815260206004820152600e60248201526d43616e6e6f74206469737075746560901b604482015260640161020a565b600d8101805461ff0019166102001790556116b4611fb9565b65ffffffffffff16600e82015560405183907f7ce7831fed9a800b1aa5e7ca21034bf7b95efc31a196459012cf8b8eb42b7dac905f90a27f7d1ff22c1a82f0d8fc4f45d2aec63e679ecb08700b30f7e90ae3721d13b1f6bd604051610a8a906020808252602e908201527f44697370757465207261697365642e2044414f2077696c6c207265766965772060408201526d3bb4ba3434b7101b903230bcb99760911b606082015260800190565b611769612149565b6001600160a01b0381166117b15760405162461bcd60e51b815260206004820152600f60248201526e496e76616c6964206164647265737360881b604482015260640161020a565b478015610fed576040516001600160a01b0383169082156108fc029083905f818181858888f193505050501580156117eb573d5f5f3e3d5ffd5b505050565b6117f8611f6b565b5f546001600160a01b031633146118215760405162461bcd60e51b815260040161020a9061280d565b611829611f95565b5f818152600760205260408120906006600d830154610100900460ff16600781111561185757611857612686565b148061188057506007600d830154610100900460ff16600781111561187e5761187e612686565b145b9050806118ec5760405162461bcd60e51b815260206004820152603460248201527f457363726f77206e6f7420726561647920666f722066696e616c697a6174696f6044820152736e20286e6f206465636973696f6e206d6164652960601b606482015260840161020a565b5f62093a8083600e01546119009190612844565b611908611fb9565b600f85015465ffffffffffff91909116919091119150600260ff909116101581806119305750805b61197c5760405162461bcd60e51b815260206004820152601d60248201527f41707065616c2077696e646f77206973207374696c6c20616374697665000000604482015260640161020a565b6006600d850154610100900460ff16600781111561199c5761199c612686565b036119b3576119ae8560016003612201565b6119bf565b6119bf855f6004612201565b5050505061085560018055565b5f5f5f5f5f5f6119da612494565b5f88815260076020526040808220805460018201546002830154600384015460048501546005860154600d870154600f880154895160c081019a8b90528b9a8b9a996001600160a01b039081169981169897169594936006808c019460ff8084169561010090940481169491169291869182845b81546001600160a01b03168152600190910190602001808311611a4e57505050505093509a509a509a509a509a509a509a509a509a509a50509193959799509193959799565b6001600160a01b0381165f908152600360205260408120548103611ab957505f919050565b6001600160a01b0382165f90815260036020908152604080832054600490925290912054611ae791906128c3565b92915050565b611af5611f6b565b5f8181526007602052604090205481906001600160a01b03163314611b2c5760405162461bcd60e51b815260040161020a906127e9565b611b34611f95565b5f82815260076020526040812090600d820154610100900460ff166007811115611b6057611b60612686565b14611ba65760405162461bcd60e51b8152602060048201526016602482015275457363726f77206973206e6f742066756e6461626c6560501b604482015260640161020a565b600d8101805461ff00191661010017905560028101546003820154611bda916001600160a01b039091169033903090612337565b827f911052e1be46242b46bf3c2762227ff37c000e5fe38727638096f3a17fbfe1708260020154604051611c1091815260200190565b60405180910390a2505061085560018055565b60018160ff1610158015611c3b575060058160ff1611155b611c7c5760405162461bcd60e51b8152602060048201526012602482015271526174696e67206d75737420626520312d3560701b604482015260640161020a565b5f828152600760205260409020600f810154610100900460ff16611cda5760405162461bcd60e51b8152602060048201526015602482015274115cd8dc9bddc8191bd95cc81b9bdd08195e1a5cdd605a1b604482015260640161020a565b6003600d820154610100900460ff166007811115611cfa57611cfa612686565b1480611d2357506004600d820154610100900460ff166007811115611d2157611d21612686565b145b611d665760405162461bcd60e51b8152602060048201526014602482015273115cd8dc9bddc81b9bdd08199a5b985b1a5e995960621b604482015260640161020a565b80545f906001600160a01b03163303611d8d575060018101546001600160a01b0316611dfa565b60018201546001600160a01b03163303611db2575080546001600160a01b0316611dfa565b60405162461bcd60e51b815260206004820181905260248201527f4f6e6c792074656e616e74206f72206c616e646c6f72642063616e2072617465604482015260640161020a565b335f90815260056020908152604080832087845290915290205460ff1615611e645760405162461bcd60e51b815260206004820152601d60248201527f416c726561647920726174656420666f72207468697320657363726f77000000604482015260640161020a565b335f9081526005602090815260408083208784528252808320805460ff191660019081179091556001600160a01b038516845260039092528220805491929091611eaf908490612844565b90915550506001600160a01b0381165f908152600460205260408120805460ff86169290611ede908490612844565b90915550506040805185815260ff851660208201526001600160a01b0383169133917f42b362e4440baa96530d4f36bc304cd410ba9f48554f1dc01c3e53cbf0bd8010910160405180910390a350505050565b611f39612149565b6001600160a01b038116611f6257604051631e4fbdf760e01b81525f600482015260240161020a565b61085581612175565b600260015403611f8e57604051633ee5aeb560e01b815260040160405180910390fd5b6002600155565b60025460ff16156110225760405163d93c066560e01b815260040160405180910390fd5b5f611fc34261239e565b905090565b5f8181526007602052604090206001600d820154610100900460ff166007811115611ff557611ff5612686565b146120315760405162461bcd60e51b815260206004820152600c60248201526b4e6f742066756e6461626c6560a01b604482015260640161020a565b600d8101805460ff1916905561204a8260016003612201565b817f2ffcfee146bc0d5ff304c6b65111a0d485af9456dc64eee7d66ebdcc90b223ea600360405161207b9190612857565b60405180910390a25050565b5f84815260076020526040902083156120c757600d8101805484919061ff0019166101008360078111156120bd576120bd612686565b02179055506120f0565b600d8101805483919061ff0019166101008360078111156120ea576120ea612686565b02179055505b5050505050565b6120ff6123d4565b6002805460ff191690557f5db9ee0a495bf2e6ff9c91a7834c1ba4fdd244a5e8aa4e537bd38aeae4b073aa335b6040516001600160a01b03909116815260200160405180910390a1565b5f546001600160a01b031633146110225760405163118cdaa760e01b815233600482015260240161020a565b5f80546001600160a01b038381166001600160a01b0319831681178455604051919092169283917f8be0079c531659141344cd1fd0a4f28419497f9722a3daafe3b4186f6b6457e09190a35050565b6121cc611f95565b6002805460ff191660011790557f62e78cea01bee320cd4e420270b5ea74000d11b0c9f74754ebdbfc544b05a25861212c3390565b5f838152600760208190526040909120600d810180549192849261ff0019169061010090849081111561223657612236612686565b021790555082156122be57600181015460028201546003830154612268926001600160a01b03918216929116906123f7565b60018101546003820154604080516001600160a01b03938416815292909116602083015285917ffd7f9968b90c2f39997b08b69b3c78d40df681dec28b3eec202eff456c3ad2cb910160405180910390a2612331565b8054600282015460038301546122e2926001600160a01b03918216929116906123f7565b80546003820154604080516001600160a01b03938416815292909116602083015285917fcd0cf80e47d7155dd99224c3b23942de0ceca1a277e5e49a471ffb9a45ac1542910160405180910390a25b50505050565b6040516001600160a01b0384811660248301528381166044830152606482018390526123319186918216906323b872dd906084015b604051602081830303815290604052915060e01b6020820180516001600160e01b038381831617835250505050612428565b5f65ffffffffffff8211156123d0576040516306dfcc6560e41b8152603060048201526024810183905260440161020a565b5090565b60025460ff1661102257604051638dfc202b60e01b815260040160405180910390fd5b6040516001600160a01b038381166024830152604482018390526117eb91859182169063a9059cbb9060640161236c565b5f5f60205f8451602086015f885af180612447576040513d5f823e3d81fd5b50505f513d9150811561245e57806001141561246b565b6001600160a01b0384163b155b1561233157604051635274afe760e01b81526001600160a01b038516600482015260240161020a565b6040518060c001604052806006906020820280368337509192915050565b5f602082840312156124c2575f5ffd5b5035919050565b6001600160a01b0381168114610855575f5ffd5b80356124e8816124c9565b919050565b5f602082840312156124fd575f5ffd5b8135612508816124c9565b9392505050565b602081525f82518060208401528060208501604085015e5f604082850101526040601f19601f83011684010191505092915050565b5f5f60408385031215612555575f5ffd5b823591506020830135801515811461256b575f5ffd5b809150509250929050565b634e487b7160e01b5f52604160045260245ffd5b5f5f5f5f5f5f61016087890312156125a0575f5ffd5b86356125ab816124c9565b95506020870135945060408701356125c2816124c9565b9350606087013592506080870135915060bf870188136125e0575f5ffd5b60405160c0810181811067ffffffffffffffff8211171561260357612603612576565b6040528061016089018a811115612618575f5ffd5b60a08a015b8181101561263c5761262e816124dd565b83526020928301920161261d565b505050809150509295509295509295565b805f5b60068110156123315781516001600160a01b0316845260209384019390910190600101612650565b60c08101611ae7828461264d565b634e487b7160e01b5f52602160045260245ffd5b600881106126b657634e487b7160e01b5f52602160045260245ffd5b9052565b6001600160a01b038b811682528a81166020830152604082018a9052881660608201526080810187905260a081018690526101e081016126fd60c083018761264d565b60ff85166101808301526127156101a083018561269a565b60ff83166101c08301529b9a5050505050505050505050565b5f5f6040838503121561273f575f5ffd5b82359150602083013561256b816124c9565b5f5f60408385031215612762575f5ffd5b82359150602083013560ff8116811461256b575f5ffd5b5f5f6040838503121561278a575f5ffd5b8235612795816124c9565b946020939093013593505050565b634e487b7160e01b5f52603260045260245ffd5b634e487b7160e01b5f52601160045260245ffd5b5f60ff821660ff81036127e0576127e06127b7565b60010192915050565b6020808252600a9082015269139bdd081d195b985b9d60b21b604082015260600190565b60208082526019908201527f4e6f74207468652044414f2f41646d696e206164647265737300000000000000604082015260600190565b80820180821115611ae757611ae76127b7565b60208101611ae7828461269a565b5f60018201612876576128766127b7565b5060010190565b815f5b60068110156123315781516001600160a01b031683820155602090910190600101612880565b604081016128b4828561269a565b82151560208301529392505050565b5f826128dd57634e487b7160e01b5f52601260045260245ffd5b50049056fea264697066735822122072475975a0010ba9d0c07f19c140e2418d3f9ba190b090385c7e80776c2e219e64736f6c63430008210033","linkReferences":{}},"methodIdentifiers":{"MAX_APPEALS()":"5c95c441","RESOLUTION_WINDOW()":"734c8544","approveRelease(uint256)":"1bd2cea1","createEscrow(address,uint256,address,uint256,uint256,address[6])":"46a80b24","escrowCounter()":"c7ceafea","finalizeAppealDecision(uint256,bool)":"9db94ed7","finalizeEscrow(uint256)":"b43a405a","fundEscrow(uint256)":"c9c31af5","getAverageRating(address)":"c8b67522","getEscrowDetails(uint256)":"b996ec2a","getEscrowStatus(uint256)":"345460cd","getSignatories(uint256)":"65f4c098","hasRated(address,uint256)":"d25468b3","hasSignatoryApproved(uint256,address)":"cfe8ad96","owner()":"8da5cb5b","pause()":"8456cb59","paused()":"5c975abb","raiseDispute(uint256)":"a5c1674e","rateCounterparty(uint256,uint8)":"d22359dc","ratingsSum(address)":"33b3ceb4","releaseAfterEndDate(uint256)":"10c685e0","renounceOwnership()":"715018a6","resolveDispute(uint256,bool)":"34b25ee2","submitAppeal(uint256)":"19dc88ae","totalRatingsReceived(address)":"31276401","transferOwnership(address)":"f2fde38b","unpause()":"3f4ba83a","withdrawEther(address)":"af933b57"},"id":50}