{"abi":[{"type":"constructor","inputs":[{"name":"initialOwner","type":"address","internalType":"address"}],"stateMutability":"nonpayable"},{"type":"function","name":"APPEAL_DURATION","inputs":[],"outputs":[{"name":"","type":"uint256","internalType":"uint256"}],"stateMutability":"view"},{"type":"function","name":"approveRelease","inputs":[{"name":"escrowId","type":"uint256","internalType":"uint256"}],"outputs":[],"stateMutability":"nonpayable"},{"type":"function","name":"createEscrow","inputs":[{"name":"landlord","type":"address","internalType":"address"},{"name":"amount","type":"uint256","internalType":"uint256"},{"name":"token","type":"address","internalType":"address"},{"name":"startDate","type":"uint256","internalType":"uint256"},{"name":"endDate","type":"uint256","internalType":"uint256"},{"name":"signatories","type":"address[6]","internalType":"address[6]"}],"outputs":[{"name":"id","type":"uint256","internalType":"uint256"}],"stateMutability":"nonpayable"},{"type":"function","name":"escrowCounter","inputs":[],"outputs":[{"name":"","type":"uint256","internalType":"uint256"}],"stateMutability":"view"},{"type":"function","name":"finalizeAppeal","inputs":[{"name":"escrowId","type":"uint256","internalType":"uint256"},{"name":"releaseToLandlord","type":"bool","internalType":"bool"}],"outputs":[],"stateMutability":"nonpayable"},{"type":"function","name":"fundEscrow","inputs":[{"name":"escrowId","type":"uint256","internalType":"uint256"}],"outputs":[],"stateMutability":"nonpayable"},{"type":"function","name":"getEscrowDetails","inputs":[{"name":"escrowId","type":"uint256","internalType":"uint256"}],"outputs":[{"name":"tenant","type":"address","internalType":"address"},{"name":"landlord","type":"address","internalType":"address"},{"name":"amount","type":"uint256","internalType":"uint256"},{"name":"token","type":"address","internalType":"address"},{"name":"startDate","type":"uint256","internalType":"uint256"},{"name":"endDate","type":"uint256","internalType":"uint256"},{"name":"signatories","type":"address[6]","internalType":"address[6]"},{"name":"approvals","type":"uint8","internalType":"uint8"},{"name":"state","type":"uint8","internalType":"enum UltraRentzEscrow.EscrowState"}],"stateMutability":"view"},{"type":"function","name":"getEscrowStatus","inputs":[{"name":"escrowId","type":"uint256","internalType":"uint256"}],"outputs":[{"name":"","type":"string","internalType":"string"}],"stateMutability":"view"},{"type":"function","name":"getSignatories","inputs":[{"name":"escrowId","type":"uint256","internalType":"uint256"}],"outputs":[{"name":"","type":"address[6]","internalType":"address[6]"}],"stateMutability":"view"},{"type":"function","name":"hasSignatoryApproved","inputs":[{"name":"escrowId","type":"uint256","internalType":"uint256"},{"name":"signatory","type":"address","internalType":"address"}],"outputs":[{"name":"","type":"bool","internalType":"bool"}],"stateMutability":"view"},{"type":"function","name":"owner","inputs":[],"outputs":[{"name":"","type":"address","internalType":"address"}],"stateMutability":"view"},{"type":"function","name":"raiseDispute","inputs":[{"name":"escrowId","type":"uint256","internalType":"uint256"}],"outputs":[],"stateMutability":"nonpayable"},{"type":"function","name":"releaseAfterEndDate","inputs":[{"name":"escrowId","type":"uint256","internalType":"uint256"}],"outputs":[],"stateMutability":"nonpayable"},{"type":"function","name":"renounceOwnership","inputs":[],"outputs":[],"stateMutability":"nonpayable"},{"type":"function","name":"submitAppeal","inputs":[{"name":"escrowId","type":"uint256","internalType":"uint256"}],"outputs":[],"stateMutability":"nonpayable"},{"type":"function","name":"transferOwnership","inputs":[{"name":"newOwner","type":"address","internalType":"address"}],"outputs":[],"stateMutability":"nonpayable"},{"type":"event","name":"AppealFinalized","inputs":[{"name":"escrowId","type":"uint256","indexed":true,"internalType":"uint256"},{"name":"finalState","type":"uint8","indexed":false,"internalType":"enum UltraRentzEscrow.EscrowState"},{"name":"success","type":"bool","indexed":false,"internalType":"bool"}],"anonymous":false},{"type":"event","name":"AppealSubmitted","inputs":[{"name":"escrowId","type":"uint256","indexed":true,"internalType":"uint256"}],"anonymous":false},{"type":"event","name":"ApprovalSubmitted","inputs":[{"name":"escrowId","type":"uint256","indexed":true,"internalType":"uint256"},{"name":"signatory","type":"address","indexed":false,"internalType":"address"},{"name":"totalApprovals","type":"uint8","indexed":false,"internalType":"uint8"}],"anonymous":false},{"type":"event","name":"DisputeResolved","inputs":[{"name":"escrowId","type":"uint256","indexed":true,"internalType":"uint256"},{"name":"resolution","type":"uint8","indexed":false,"internalType":"enum UltraRentzEscrow.EscrowState"}],"anonymous":false},{"type":"event","name":"EscrowCreated","inputs":[{"name":"escrowId","type":"uint256","indexed":true,"internalType":"uint256"},{"name":"tenant","type":"address","indexed":true,"internalType":"address"},{"name":"landlord","type":"address","indexed":false,"internalType":"address"},{"name":"token","type":"address","indexed":false,"internalType":"address"}],"anonymous":false},{"type":"event","name":"EscrowDisputed","inputs":[{"name":"escrowId","type":"uint256","indexed":true,"internalType":"uint256"}],"anonymous":false},{"type":"event","name":"EscrowFunded","inputs":[{"name":"escrowId","type":"uint256","indexed":true,"internalType":"uint256"},{"name":"amount","type":"uint256","indexed":false,"internalType":"uint256"}],"anonymous":false},{"type":"event","name":"EscrowRefunded","inputs":[{"name":"escrowId","type":"uint256","indexed":true,"internalType":"uint256"},{"name":"tenant","type":"address","indexed":false,"internalType":"address"},{"name":"token","type":"address","indexed":false,"internalType":"address"}],"anonymous":false},{"type":"event","name":"EscrowReleased","inputs":[{"name":"escrowId","type":"uint256","indexed":true,"internalType":"uint256"},{"name":"landlord","type":"address","indexed":false,"internalType":"address"},{"name":"token","type":"address","indexed":false,"internalType":"address"}],"anonymous":false},{"type":"event","name":"Notification","inputs":[{"name":"message","type":"string","indexed":false,"internalType":"string"}],"anonymous":false},{"type":"event","name":"OwnershipTransferred","inputs":[{"name":"previousOwner","type":"address","indexed":true,"internalType":"address"},{"name":"newOwner","type":"address","indexed":true,"internalType":"address"}],"anonymous":false},{"type":"error","name":"OwnableInvalidOwner","inputs":[{"name":"owner","type":"address","internalType":"address"}]},{"type":"error","name":"OwnableUnauthorizedAccount","inputs":[{"name":"account","type":"address","internalType":"address"}]},{"type":"error","name":"ReentrancyGuardReentrantCall","inputs":[]}],"bytecode":{"object":"0x608060405234801561000f575f5ffd5b506040516136eb3803806136eb833981810160405281019061003191906101de565b805f73ffffffffffffffffffffffffffffffffffffffff168173ffffffffffffffffffffffffffffffffffffffff16036100a2575f6040517f1e4fbdf70000000000000000000000000000000000000000000000000000000081526004016100999190610218565b60405180910390fd5b6100b1816100bf60201b60201c565b506001808190555050610231565b5f5f5f9054906101000a900473ffffffffffffffffffffffffffffffffffffffff169050815f5f6101000a81548173ffffffffffffffffffffffffffffffffffffffff021916908373ffffffffffffffffffffffffffffffffffffffff1602179055508173ffffffffffffffffffffffffffffffffffffffff168173ffffffffffffffffffffffffffffffffffffffff167f8be0079c531659141344cd1fd0a4f28419497f9722a3daafe3b4186f6b6457e060405160405180910390a35050565b5f5ffd5b5f73ffffffffffffffffffffffffffffffffffffffff82169050919050565b5f6101ad82610184565b9050919050565b6101bd816101a3565b81146101c7575f5ffd5b50565b5f815190506101d8816101b4565b92915050565b5f602082840312156101f3576101f2610180565b5b5f610200848285016101ca565b91505092915050565b610212816101a3565b82525050565b5f60208201905061022b5f830184610209565b92915050565b6134ad8061023e5f395ff3fe608060405234801561000f575f5ffd5b50600436106100fe575f3560e01c8063a5c1674e11610095578063cfe8ad9611610064578063cfe8ad961461029c578063e0175324146102cc578063efc142bd146102e8578063f2fde38b14610306576100fe565b8063a5c1674e1461020e578063b996ec2a1461022a578063c7ceafea14610262578063c9c31af514610280576100fe565b806346a80b24116100d157806346a80b241461018657806365f4c098146101b6578063715018a6146101e65780638da5cb5b146101f0576100fe565b806310c685e01461010257806319dc88ae1461011e5780631bd2cea11461013a578063345460cd14610156575b5f5ffd5b61011c60048036038101906101179190612484565b610322565b005b61013860048036038101906101339190612484565b61067b565b005b610154600480360381019061014f9190612484565b6108a9565b005b610170600480360381019061016b9190612484565b610bbc565b60405161017d919061251f565b60405180910390f35b6101a0600480360381019061019b91906126c7565b610f6c565b6040516101ad9190612760565b60405180910390f35b6101d060048036038101906101cb9190612484565b611304565b6040516101dd919061281e565b60405180910390f35b6101ee611398565b005b6101f86113ab565b6040516102059190612846565b60405180910390f35b61022860048036038101906102239190612484565b6113d2565b005b610244600480360381019061023f9190612484565b61159c565b604051610259999897969594939291906128ed565b60405180910390f35b61026a6116f5565b6040516102779190612760565b60405180910390f35b61029a60048036038101906102959190612484565b6116fb565b005b6102b660048036038101906102b19190612979565b61194a565b6040516102c391906129d1565b60405180910390f35b6102e660048036038101906102e19190612a14565b6119af565b005b6102f0611e21565b6040516102fd9190612760565b60405180910390f35b610320600480360381019061031b9190612a52565b611e28565b005b805f5f5f90505b60068160ff1610156103c7573373ffffffffffffffffffffffffffffffffffffffff1660035f8581526020019081526020015f206006018260ff166006811061037557610374612a7d565b5b015f9054906101000a900473ffffffffffffffffffffffffffffffffffffffff1673ffffffffffffffffffffffffffffffffffffffff16036103ba57600191506103c7565b8080600101915050610329565b5080610408576040517f08c379a00000000000000000000000000000000000000000000000000000000081526004016103ff90612af4565b60405180910390fd5b610410611eac565b5f60035f8581526020019081526020015f209050600160068111156104385761043761287a565b5b81600d0160019054906101000a900460ff16600681111561045c5761045b61287a565b5b1461049c576040517f08c379a000000000000000000000000000000000000000000000000000000000815260040161049390612b5c565b60405180910390fd5b806005015442116104e2576040517f08c379a00000000000000000000000000000000000000000000000000000000081526004016104d990612bc4565b60405180910390fd5b80600c015f3373ffffffffffffffffffffffffffffffffffffffff1673ffffffffffffffffffffffffffffffffffffffff1681526020019081526020015f205f9054906101000a900460ff161561056e576040517f08c379a000000000000000000000000000000000000000000000000000000000815260040161056590612c2c565b60405180910390fd5b600181600c015f3373ffffffffffffffffffffffffffffffffffffffff1673ffffffffffffffffffffffffffffffffffffffff1681526020019081526020015f205f6101000a81548160ff02191690831515021790555080600d015f81819054906101000a900460ff16809291906105e590612c77565b91906101000a81548160ff021916908360ff16021790555050837f31fdc4d501a17fc8bb26e1ab1136058e5975bc80399612d9abbf0b42e760c8553383600d015f9054906101000a900460ff16604051610640929190612c9f565b60405180910390a2600481600d015f9054906101000a900460ff1660ff161061066d5761066c84611ef2565b5b50610676612233565b505050565b8060035f8281526020019081526020015f205f015f9054906101000a900473ffffffffffffffffffffffffffffffffffffffff1673ffffffffffffffffffffffffffffffffffffffff163373ffffffffffffffffffffffffffffffffffffffff161461071c576040517f08c379a000000000000000000000000000000000000000000000000000000000815260040161071390612d10565b60405180910390fd5b5f60035f8481526020019081526020015f209050600260068111156107445761074361287a565b5b81600d0160019054906101000a900460ff1660068111156107685761076761287a565b5b146107a8576040517f08c379a000000000000000000000000000000000000000000000000000000000815260040161079f90612d78565b60405180910390fd5b80600f015f9054906101000a900460ff16156107f9576040517f08c379a00000000000000000000000000000000000000000000000000000000081526004016107f090612de0565b60405180910390fd5b600181600f015f6101000a81548160ff021916908315150217905550600581600d0160016101000a81548160ff0219169083600681111561083d5761083c61287a565b5b0217905550827f9f99ae1c2ed3bebdabfddb8a9ded0b435ed0e72af5dd8b48c86af9e1825effa360405160405180910390a27f7d1ff22c1a82f0d8fc4f45d2aec63e679ecb08700b30f7e90ae3721d13b1f6bd60405161089c90612e6e565b60405180910390a1505050565b805f5f5f90505b60068160ff16101561094e573373ffffffffffffffffffffffffffffffffffffffff1660035f8581526020019081526020015f206006018260ff16600681106108fc576108fb612a7d565b5b015f9054906101000a900473ffffffffffffffffffffffffffffffffffffffff1673ffffffffffffffffffffffffffffffffffffffff1603610941576001915061094e565b80806001019150506108b0565b508061098f576040517f08c379a000000000000000000000000000000000000000000000000000000000815260040161098690612af4565b60405180910390fd5b610997611eac565b5f60035f8581526020019081526020015f209050600160068111156109bf576109be61287a565b5b81600d0160019054906101000a900460ff1660068111156109e3576109e261287a565b5b14610a23576040517f08c379a0000000000000000000000000000000000000000000000000000000008152600401610a1a90612b5c565b60405180910390fd5b80600c015f3373ffffffffffffffffffffffffffffffffffffffff1673ffffffffffffffffffffffffffffffffffffffff1681526020019081526020015f205f9054906101000a900460ff1615610aaf576040517f08c379a0000000000000000000000000000000000000000000000000000000008152600401610aa690612c2c565b60405180910390fd5b600181600c015f3373ffffffffffffffffffffffffffffffffffffffff1673ffffffffffffffffffffffffffffffffffffffff1681526020019081526020015f205f6101000a81548160ff02191690831515021790555080600d015f81819054906101000a900460ff1680929190610b2690612c77565b91906101000a81548160ff021916908360ff16021790555050837f31fdc4d501a17fc8bb26e1ab1136058e5975bc80399612d9abbf0b42e760c8553383600d015f9054906101000a900460ff16604051610b81929190612c9f565b60405180910390a2600481600d015f9054906101000a900460ff1660ff1610610bae57610bad84611ef2565b5b50610bb7612233565b505050565b60605f60035f8481526020019081526020015f2090505f6006811115610be557610be461287a565b5b81600d0160019054906101000a900460ff166006811115610c0957610c0861287a565b5b03610c4c576040518060400160405280600781526020017f4372656174656400000000000000000000000000000000000000000000000000815250915050610f67565b60016006811115610c6057610c5f61287a565b5b81600d0160019054906101000a900460ff166006811115610c8457610c8361287a565b5b03610cc7576040518060400160405280600681526020017f46756e6465640000000000000000000000000000000000000000000000000000815250915050610f67565b60026006811115610cdb57610cda61287a565b5b81600d0160019054906101000a900460ff166006811115610cff57610cfe61287a565b5b03610d42576040518060400160405280600a81526020017f496e204469737075746500000000000000000000000000000000000000000000815250915050610f67565b60036006811115610d5657610d5561287a565b5b81600d0160019054906101000a900460ff166006811115610d7a57610d7961287a565b5b03610dbd576040518060400160405280600881526020017f52656c6561736564000000000000000000000000000000000000000000000000815250915050610f67565b60046006811115610dd157610dd061287a565b5b81600d0160019054906101000a900460ff166006811115610df557610df461287a565b5b03610e38576040518060400160405280600881526020017f526566756e646564000000000000000000000000000000000000000000000000815250915050610f67565b60056006811115610e4c57610e4b61287a565b5b81600d0160019054906101000a900460ff166006811115610e7057610e6f61287a565b5b03610eb3576040518060400160405280600e81526020017f50656e64696e672041707065616c000000000000000000000000000000000000815250915050610f67565b600680811115610ec657610ec561287a565b5b81600d0160019054906101000a900460ff166006811115610eea57610ee961287a565b5b03610f2d576040518060400160405280600981526020017f46696e616c697a65640000000000000000000000000000000000000000000000815250915050610f67565b6040518060400160405280600781526020017f556e6b6e6f776e000000000000000000000000000000000000000000000000008152509150505b919050565b5f5f73ffffffffffffffffffffffffffffffffffffffff168773ffffffffffffffffffffffffffffffffffffffff1603610fdb576040517f08c379a0000000000000000000000000000000000000000000000000000000008152600401610fd290612ed6565b60405180910390fd5b5f73ffffffffffffffffffffffffffffffffffffffff168573ffffffffffffffffffffffffffffffffffffffff1603611049576040517f08c379a000000000000000000000000000000000000000000000000000000000815260040161104090612f3e565b60405180910390fd5b83831161108b576040517f08c379a000000000000000000000000000000000000000000000000000000000815260040161108290612fa6565b60405180910390fd5b5f3388866040516020016110a193929190613029565b60405160208183030381529060405280519060200120905060045f8281526020019081526020015f205f9054906101000a900460ff1615611117576040517f08c379a000000000000000000000000000000000000000000000000000000000815260040161110e906130af565b60405180910390fd5b60025f8154611125906130cd565b91905081905591505f60035f8481526020019081526020015f20905033815f015f6101000a81548173ffffffffffffffffffffffffffffffffffffffff021916908373ffffffffffffffffffffffffffffffffffffffff16021790555088816001015f6101000a81548173ffffffffffffffffffffffffffffffffffffffff021916908373ffffffffffffffffffffffffffffffffffffffff16021790555087816002018190555086816003015f6101000a81548173ffffffffffffffffffffffffffffffffffffffff021916908373ffffffffffffffffffffffffffffffffffffffff160217905550858160040181905550848160050181905550838160060190600661123492919061238b565b505f81600d0160016101000a81548160ff0219169083600681111561125c5761125b61287a565b5b0217905550600181600f0160016101000a81548160ff021916908315150217905550600160045f8481526020019081526020015f205f6101000a81548160ff0219169083151502179055503373ffffffffffffffffffffffffffffffffffffffff16837fccab83b228b9f11d0f002db0d115fe84ab0bacbe475d1c28666963a66c20c4368b8a6040516112f0929190613114565b60405180910390a350509695505050505050565b61130c612407565b60035f8381526020019081526020015f2060060160068060200260405190810160405280929190826006801561138c576020028201915b815f9054906101000a900473ffffffffffffffffffffffffffffffffffffffff1673ffffffffffffffffffffffffffffffffffffffff1681526020019060010190808311611343575b50505050509050919050565b6113a061223c565b6113a95f6122c3565b565b5f5f5f9054906101000a900473ffffffffffffffffffffffffffffffffffffffff16905090565b8060035f8281526020019081526020015f205f015f9054906101000a900473ffffffffffffffffffffffffffffffffffffffff1673ffffffffffffffffffffffffffffffffffffffff163373ffffffffffffffffffffffffffffffffffffffff1614611473576040517f08c379a000000000000000000000000000000000000000000000000000000000815260040161146a90612d10565b60405180910390fd5b5f60035f8481526020019081526020015f2090506001600681111561149b5761149a61287a565b5b81600d0160019054906101000a900460ff1660068111156114bf576114be61287a565b5b146114ff576040517f08c379a00000000000000000000000000000000000000000000000000000000081526004016114f690613185565b60405180910390fd5b600281600d0160016101000a81548160ff021916908360068111156115275761152661287a565b5b02179055504281600e0181905550827f7ce7831fed9a800b1aa5e7ca21034bf7b95efc31a196459012cf8b8eb42b7dac60405160405180910390a27f7d1ff22c1a82f0d8fc4f45d2aec63e679ecb08700b30f7e90ae3721d13b1f6bd60405161158f90613213565b60405180910390a1505050565b5f5f5f5f5f5f6115aa612407565b5f5f5f60035f8c81526020019081526020015f209050805f015f9054906101000a900473ffffffffffffffffffffffffffffffffffffffff16816001015f9054906101000a900473ffffffffffffffffffffffffffffffffffffffff168260020154836003015f9054906101000a900473ffffffffffffffffffffffffffffffffffffffff16846004015485600501548660060187600d015f9054906101000a900460ff1688600d0160019054906101000a900460ff16826006806020026040519081016040528092919082600680156116ce576020028201915b815f9054906101000a900473ffffffffffffffffffffffffffffffffffffffff1673ffffffffffffffffffffffffffffffffffffffff1681526020019060010190808311611685575b50505050509250995099509950995099509950995099509950509193959799909294969850565b60025481565b8060035f8281526020019081526020015f205f015f9054906101000a900473ffffffffffffffffffffffffffffffffffffffff1673ffffffffffffffffffffffffffffffffffffffff163373ffffffffffffffffffffffffffffffffffffffff161461179c576040517f08c379a000000000000000000000000000000000000000000000000000000000815260040161179390612d10565b60405180910390fd5b6117a4611eac565b5f60035f8481526020019081526020015f2090505f60068111156117cb576117ca61287a565b5b81600d0160019054906101000a900460ff1660068111156117ef576117ee61287a565b5b1461182f576040517f08c379a00000000000000000000000000000000000000000000000000000000081526004016118269061327b565b60405180910390fd5b806003015f9054906101000a900473ffffffffffffffffffffffffffffffffffffffff1673ffffffffffffffffffffffffffffffffffffffff166323b872dd333084600201546040518463ffffffff1660e01b815260040161189393929190613299565b6020604051808303815f875af11580156118af573d5f5f3e3d5ffd5b505050506040513d601f19601f820116820180604052508101906118d391906132e2565b50600181600d0160016101000a81548160ff021916908360068111156118fc576118fb61287a565b5b0217905550827f911052e1be46242b46bf3c2762227ff37c000e5fe38727638096f3a17fbfe17082600201546040516119359190612760565b60405180910390a250611946612233565b5050565b5f60035f8481526020019081526020015f20600c015f8373ffffffffffffffffffffffffffffffffffffffff1673ffffffffffffffffffffffffffffffffffffffff1681526020019081526020015f205f9054906101000a900460ff16905092915050565b6119b761223c565b5f60035f8481526020019081526020015f209050600560068111156119df576119de61287a565b5b81600d0160019054906101000a900460ff166006811115611a0357611a0261287a565b5b14611a43576040517f08c379a0000000000000000000000000000000000000000000000000000000008152600401611a3a90613357565b60405180910390fd5b6203f48081600e0154611a569190613375565b421015611a98576040517f08c379a0000000000000000000000000000000000000000000000000000000008152600401611a8f906133f2565b60405180910390fd5b8115611c1657600381600d0160016101000a81548160ff02191690836006811115611ac657611ac561287a565b5b0217905550806003015f9054906101000a900473ffffffffffffffffffffffffffffffffffffffff1673ffffffffffffffffffffffffffffffffffffffff1663a9059cbb826001015f9054906101000a900473ffffffffffffffffffffffffffffffffffffffff1683600201546040518363ffffffff1660e01b8152600401611b50929190613410565b6020604051808303815f875af1158015611b6c573d5f5f3e3d5ffd5b505050506040513d601f19601f82011682018060405250810190611b9091906132e2565b50827ffd7f9968b90c2f39997b08b69b3c78d40df681dec28b3eec202eff456c3ad2cb826001015f9054906101000a900473ffffffffffffffffffffffffffffffffffffffff16836003015f9054906101000a900473ffffffffffffffffffffffffffffffffffffffff16604051611c09929190613114565b60405180910390a2611d88565b600481600d0160016101000a81548160ff02191690836006811115611c3e57611c3d61287a565b5b0217905550806003015f9054906101000a900473ffffffffffffffffffffffffffffffffffffffff1673ffffffffffffffffffffffffffffffffffffffff1663a9059cbb825f015f9054906101000a900473ffffffffffffffffffffffffffffffffffffffff1683600201546040518363ffffffff1660e01b8152600401611cc7929190613410565b6020604051808303815f875af1158015611ce3573d5f5f3e3d5ffd5b505050506040513d601f19601f82011682018060405250810190611d0791906132e2565b50827fcd0cf80e47d7155dd99224c3b23942de0ceca1a277e5e49a471ffb9a45ac1542825f015f9054906101000a900473ffffffffffffffffffffffffffffffffffffffff16836003015f9054906101000a900473ffffffffffffffffffffffffffffffffffffffff16604051611d7f929190613114565b60405180910390a25b827f34572d32f3bb0eff148ee17d0122170a41891d6a37564b756027d0cc5eb6123d82600d0160019054906101000a900460ff1684604051611dcb929190613437565b60405180910390a2827f2ffcfee146bc0d5ff304c6b65111a0d485af9456dc64eee7d66ebdcc90b223ea82600d0160019054906101000a900460ff16604051611e14919061345e565b60405180910390a2505050565b6203f48081565b611e3061223c565b5f73ffffffffffffffffffffffffffffffffffffffff168173ffffffffffffffffffffffffffffffffffffffff1603611ea0575f6040517f1e4fbdf7000000000000000000000000000000000000000000000000000000008152600401611e979190612846565b60405180910390fd5b611ea9816122c3565b50565b600260015403611ee8576040517f3ee5aeb500000000000000000000000000000000000000000000000000000000815260040160405180910390fd5b6002600181905550565b5f60035f8381526020019081526020015f20905060016006811115611f1a57611f1961287a565b5b81600d0160019054906101000a900460ff166006811115611f3e57611f3d61287a565b5b14611f7e576040517f08c379a0000000000000000000000000000000000000000000000000000000008152600401611f759061327b565b60405180910390fd5b5f5f90505b60068160ff161015612082575f826006018260ff1660068110611fa957611fa8612a7d565b5b015f9054906101000a900473ffffffffffffffffffffffffffffffffffffffff16905082600c015f8273ffffffffffffffffffffffffffffffffffffffff1673ffffffffffffffffffffffffffffffffffffffff1681526020019081526020015f205f9054906101000a900460ff1615612074575f83600c015f8373ffffffffffffffffffffffffffffffffffffffff1673ffffffffffffffffffffffffffffffffffffffff1681526020019081526020015f205f6101000a81548160ff0219169083151502179055505b508080600101915050611f83565b50600381600d0160016101000a81548160ff021916908360068111156120ab576120aa61287a565b5b0217905550806003015f9054906101000a900473ffffffffffffffffffffffffffffffffffffffff1673ffffffffffffffffffffffffffffffffffffffff1663a9059cbb826001015f9054906101000a900473ffffffffffffffffffffffffffffffffffffffff1683600201546040518363ffffffff1660e01b8152600401612135929190613410565b6020604051808303815f875af1158015612151573d5f5f3e3d5ffd5b505050506040513d601f19601f8201168201806040525081019061217591906132e2565b50817ffd7f9968b90c2f39997b08b69b3c78d40df681dec28b3eec202eff456c3ad2cb826001015f9054906101000a900473ffffffffffffffffffffffffffffffffffffffff16836003015f9054906101000a900473ffffffffffffffffffffffffffffffffffffffff166040516121ee929190613114565b60405180910390a2817f2ffcfee146bc0d5ff304c6b65111a0d485af9456dc64eee7d66ebdcc90b223ea6003604051612227919061345e565b60405180910390a25050565b60018081905550565b612244612384565b73ffffffffffffffffffffffffffffffffffffffff166122626113ab565b73ffffffffffffffffffffffffffffffffffffffff16146122c157612285612384565b6040517f118cdaa70000000000000000000000000000000000000000000000000000000081526004016122b89190612846565b60405180910390fd5b565b5f5f5f9054906101000a900473ffffffffffffffffffffffffffffffffffffffff169050815f5f6101000a81548173ffffffffffffffffffffffffffffffffffffffff021916908373ffffffffffffffffffffffffffffffffffffffff1602179055508173ffffffffffffffffffffffffffffffffffffffff168173ffffffffffffffffffffffffffffffffffffffff167f8be0079c531659141344cd1fd0a4f28419497f9722a3daafe3b4186f6b6457e060405160405180910390a35050565b5f33905090565b82600681019282156123f6579160200282015b828111156123f5578251825f6101000a81548173ffffffffffffffffffffffffffffffffffffffff021916908373ffffffffffffffffffffffffffffffffffffffff1602179055509160200191906001019061239e565b5b5090506124039190612429565b5090565b6040518060c00160405280600690602082028036833780820191505090505090565b5b80821115612440575f815f90555060010161242a565b5090565b5f604051905090565b5f5ffd5b5f819050919050565b61246381612451565b811461246d575f5ffd5b50565b5f8135905061247e8161245a565b92915050565b5f602082840312156124995761249861244d565b5b5f6124a684828501612470565b91505092915050565b5f81519050919050565b5f82825260208201905092915050565b8281835e5f83830152505050565b5f601f19601f8301169050919050565b5f6124f1826124af565b6124fb81856124b9565b935061250b8185602086016124c9565b612514816124d7565b840191505092915050565b5f6020820190508181035f83015261253781846124e7565b905092915050565b5f73ffffffffffffffffffffffffffffffffffffffff82169050919050565b5f6125688261253f565b9050919050565b6125788161255e565b8114612582575f5ffd5b50565b5f813590506125938161256f565b92915050565b5f5ffd5b7f4e487b71000000000000000000000000000000000000000000000000000000005f52604160045260245ffd5b6125d3826124d7565b810181811067ffffffffffffffff821117156125f2576125f161259d565b5b80604052505050565b5f612604612444565b905061261082826125ca565b919050565b5f67ffffffffffffffff82111561262f5761262e61259d565b5b602082029050919050565b5f5ffd5b5f61265061264b84612615565b6125fb565b9050806020840283018581111561266a5761266961263a565b5b835b81811015612693578061267f8882612585565b84526020840193505060208101905061266c565b5050509392505050565b5f82601f8301126126b1576126b0612599565b5b60066126be84828561263e565b91505092915050565b5f5f5f5f5f5f61016087890312156126e2576126e161244d565b5b5f6126ef89828a01612585565b965050602061270089828a01612470565b955050604061271189828a01612585565b945050606061272289828a01612470565b935050608061273389828a01612470565b92505060a061274489828a0161269d565b9150509295509295509295565b61275a81612451565b82525050565b5f6020820190506127735f830184612751565b92915050565b5f60069050919050565b5f81905092915050565b5f819050919050565b61279f8161255e565b82525050565b5f6127b08383612796565b60208301905092915050565b5f602082019050919050565b6127d181612779565b6127db8184612783565b92506127e68261278d565b805f5b838110156128165781516127fd87826127a5565b9650612808836127bc565b9250506001810190506127e9565b505050505050565b5f60c0820190506128315f8301846127c8565b92915050565b6128408161255e565b82525050565b5f6020820190506128595f830184612837565b92915050565b5f60ff82169050919050565b6128748161285f565b82525050565b7f4e487b71000000000000000000000000000000000000000000000000000000005f52602160045260245ffd5b600781106128b8576128b761287a565b5b50565b5f8190506128c8826128a7565b919050565b5f6128d7826128bb565b9050919050565b6128e7816128cd565b82525050565b5f6101c0820190506129015f83018c612837565b61290e602083018b612837565b61291b604083018a612751565b6129286060830189612837565b6129356080830188612751565b61294260a0830187612751565b61294f60c08301866127c8565b61295d61018083018561286b565b61296b6101a08301846128de565b9a9950505050505050505050565b5f5f6040838503121561298f5761298e61244d565b5b5f61299c85828601612470565b92505060206129ad85828601612585565b9150509250929050565b5f8115159050919050565b6129cb816129b7565b82525050565b5f6020820190506129e45f8301846129c2565b92915050565b6129f3816129b7565b81146129fd575f5ffd5b50565b5f81359050612a0e816129ea565b92915050565b5f5f60408385031215612a2a57612a2961244d565b5b5f612a3785828601612470565b9250506020612a4885828601612a00565b9150509250929050565b5f60208284031215612a6757612a6661244d565b5b5f612a7484828501612585565b91505092915050565b7f4e487b71000000000000000000000000000000000000000000000000000000005f52603260045260245ffd5b7f4e6f742061207369676e61746f727900000000000000000000000000000000005f82015250565b5f612ade600f836124b9565b9150612ae982612aaa565b602082019050919050565b5f6020820190508181035f830152612b0b81612ad2565b9050919050565b7f496e76616c6964207374617465000000000000000000000000000000000000005f82015250565b5f612b46600d836124b9565b9150612b5182612b12565b602082019050919050565b5f6020820190508181035f830152612b7381612b3a565b9050919050565b7f54656e616e6379206e6f7420656e6465640000000000000000000000000000005f82015250565b5f612bae6011836124b9565b9150612bb982612b7a565b602082019050919050565b5f6020820190508181035f830152612bdb81612ba2565b9050919050565b7f416c726561647920617070726f766564000000000000000000000000000000005f82015250565b5f612c166010836124b9565b9150612c2182612be2565b602082019050919050565b5f6020820190508181035f830152612c4381612c0a565b9050919050565b7f4e487b71000000000000000000000000000000000000000000000000000000005f52601160045260245ffd5b5f612c818261285f565b915060ff8203612c9457612c93612c4a565b5b600182019050919050565b5f604082019050612cb25f830185612837565b612cbf602083018461286b565b9392505050565b7f4e6f742074656e616e74000000000000000000000000000000000000000000005f82015250565b5f612cfa600a836124b9565b9150612d0582612cc6565b602082019050919050565b5f6020820190508181035f830152612d2781612cee565b9050919050565b7f41707065616c206e6f7420616c6c6f77656400000000000000000000000000005f82015250565b5f612d626012836124b9565b9150612d6d82612d2e565b602082019050919050565b5f6020820190508181035f830152612d8f81612d56565b9050919050565b7f41707065616c20616c7265616479207375626d697474656400000000000000005f82015250565b5f612dca6018836124b9565b9150612dd582612d96565b602082019050919050565b5f6020820190508181035f830152612df781612dbe565b9050919050565b7f41707065616c207375626d69747465642e2044414f2064656c696265726174695f8201527f6f6e2070656e64696e672e000000000000000000000000000000000000000000602082015250565b5f612e58602b836124b9565b9150612e6382612dfe565b604082019050919050565b5f6020820190508181035f830152612e8581612e4c565b9050919050565b7f496e76616c6964206c616e646c6f7264000000000000000000000000000000005f82015250565b5f612ec06010836124b9565b9150612ecb82612e8c565b602082019050919050565b5f6020820190508181035f830152612eed81612eb4565b9050919050565b7f496e76616c696420746f6b656e000000000000000000000000000000000000005f82015250565b5f612f28600d836124b9565b9150612f3382612ef4565b602082019050919050565b5f6020820190508181035f830152612f5581612f1c565b9050919050565b7f496e76616c6964206461746573000000000000000000000000000000000000005f82015250565b5f612f90600d836124b9565b9150612f9b82612f5c565b602082019050919050565b5f6020820190508181035f830152612fbd81612f84565b9050919050565b5f8160601b9050919050565b5f612fda82612fc4565b9050919050565b5f612feb82612fd0565b9050919050565b613003612ffe8261255e565b612fe1565b82525050565b5f819050919050565b61302361301e82612451565b613009565b82525050565b5f6130348286612ff2565b6014820191506130448285612ff2565b6014820191506130548284613012565b602082019150819050949350505050565b7f4475706c696361746520657363726f77000000000000000000000000000000005f82015250565b5f6130996010836124b9565b91506130a482613065565b602082019050919050565b5f6020820190508181035f8301526130c68161308d565b9050919050565b5f6130d782612451565b91507fffffffffffffffffffffffffffffffffffffffffffffffffffffffffffffffff820361310957613108612c4a565b5b600182019050919050565b5f6040820190506131275f830185612837565b6131346020830184612837565b9392505050565b7f43616e6e6f7420646973707574650000000000000000000000000000000000005f82015250565b5f61316f600e836124b9565b915061317a8261313b565b602082019050919050565b5f6020820190508181035f83015261319c81613163565b9050919050565b7f44697370757465207261697365642e2044414f2077696c6c20726576696577205f8201527f77697468696e20373220686f7572732e00000000000000000000000000000000602082015250565b5f6131fd6030836124b9565b9150613208826131a3565b604082019050919050565b5f6020820190508181035f83015261322a816131f1565b9050919050565b7f4e6f742066756e6461626c6500000000000000000000000000000000000000005f82015250565b5f613265600c836124b9565b915061327082613231565b602082019050919050565b5f6020820190508181035f83015261329281613259565b9050919050565b5f6060820190506132ac5f830186612837565b6132b96020830185612837565b6132c66040830184612751565b949350505050565b5f815190506132dc816129ea565b92915050565b5f602082840312156132f7576132f661244d565b5b5f613304848285016132ce565b91505092915050565b7f4e6f2070656e64696e672061707065616c0000000000000000000000000000005f82015250565b5f6133416011836124b9565b915061334c8261330d565b602082019050919050565b5f6020820190508181035f83015261336e81613335565b9050919050565b5f61337f82612451565b915061338a83612451565b92508282019050808211156133a2576133a1612c4a565b5b92915050565b7f41707065616c20706572696f64206e6f74206f766572000000000000000000005f82015250565b5f6133dc6016836124b9565b91506133e7826133a8565b602082019050919050565b5f6020820190508181035f830152613409816133d0565b9050919050565b5f6040820190506134235f830185612837565b6134306020830184612751565b9392505050565b5f60408201905061344a5f8301856128de565b61345760208301846129c2565b9392505050565b5f6020820190506134715f8301846128de565b9291505056fea2646970667358221220c23eee1fbac87bfce88927193176e0f7f8ee638993320a015c9b863d422ddfaa64736f6c634300081c0033","linkReferences":{}},"methodIdentifiers":{"APPEAL_DURATION()":"efc142bd","approveRelease(uint256)":"1bd2cea1","createEscrow(address,uint256,address,uint256,uint256,address[6])":"46a80b24","escrowCounter()":"c7ceafea","finalizeAppeal(uint256,bool)":"e0175324","fundEscrow(uint256)":"c9c31af5","getEscrowDetails(uint256)":"b996ec2a","getEscrowStatus(uint256)":"345460cd","getSignatories(uint256)":"65f4c098","hasSignatoryApproved(uint256,address)":"cfe8ad96","owner()":"8da5cb5b","raiseDispute(uint256)":"a5c1674e","releaseAfterEndDate(uint256)":"10c685e0","renounceOwnership()":"715018a6","submitAppeal(uint256)":"19dc88ae","transferOwnership(address)":"f2fde38b"},"id":27}