{"abi":[{"type":"constructor","inputs":[{"name":"initialOwner","type":"address","internalType":"address"}],"stateMutability":"nonpayable"},{"type":"receive","stateMutability":"payable"},{"type":"function","name":"MAX_APPEALS","inputs":[],"outputs":[{"name":"","type":"uint256","internalType":"uint256"}],"stateMutability":"view"},{"type":"function","name":"RESOLUTION_WINDOW","inputs":[],"outputs":[{"name":"","type":"uint256","internalType":"uint256"}],"stateMutability":"view"},{"type":"function","name":"approveRelease","inputs":[{"name":"escrowId","type":"uint256","internalType":"uint256"}],"outputs":[],"stateMutability":"nonpayable"},{"type":"function","name":"createEscrow","inputs":[{"name":"landlord","type":"address","internalType":"address"},{"name":"amount","type":"uint256","internalType":"uint256"},{"name":"token","type":"address","internalType":"address"},{"name":"startDate","type":"uint256","internalType":"uint256"},{"name":"endDate","type":"uint256","internalType":"uint256"},{"name":"signatories","type":"address[6]","internalType":"address[6]"}],"outputs":[{"name":"id","type":"uint256","internalType":"uint256"}],"stateMutability":"nonpayable"},{"type":"function","name":"escrowCounter","inputs":[],"outputs":[{"name":"","type":"uint256","internalType":"uint256"}],"stateMutability":"view"},{"type":"function","name":"finalizeAppealDecision","inputs":[{"name":"escrowId","type":"uint256","internalType":"uint256"},{"name":"releaseToLandlord","type":"bool","internalType":"bool"}],"outputs":[],"stateMutability":"nonpayable"},{"type":"function","name":"finalizeEscrow","inputs":[{"name":"escrowId","type":"uint256","internalType":"uint256"}],"outputs":[],"stateMutability":"nonpayable"},{"type":"function","name":"fundEscrow","inputs":[{"name":"escrowId","type":"uint256","internalType":"uint256"}],"outputs":[],"stateMutability":"nonpayable"},{"type":"function","name":"getAverageRating","inputs":[{"name":"user","type":"address","internalType":"address"}],"outputs":[{"name":"","type":"uint256","internalType":"uint256"}],"stateMutability":"view"},{"type":"function","name":"getEscrowDetails","inputs":[{"name":"escrowId","type":"uint256","internalType":"uint256"}],"outputs":[{"name":"tenant","type":"address","internalType":"address"},{"name":"landlord","type":"address","internalType":"address"},{"name":"amount","type":"uint256","internalType":"uint256"},{"name":"token","type":"address","internalType":"address"},{"name":"startDate","type":"uint256","internalType":"uint256"},{"name":"endDate","type":"uint256","internalType":"uint256"},{"name":"signatories","type":"address[6]","internalType":"address[6]"},{"name":"approvals","type":"uint8","internalType":"uint8"},{"name":"state","type":"uint8","internalType":"enum UltraRentzEscrow.EscrowState"},{"name":"appealCount","type":"uint8","internalType":"uint8"}],"stateMutability":"view"},{"type":"function","name":"getEscrowStatus","inputs":[{"name":"escrowId","type":"uint256","internalType":"uint256"}],"outputs":[{"name":"","type":"string","internalType":"string"}],"stateMutability":"view"},{"type":"function","name":"getSignatories","inputs":[{"name":"escrowId","type":"uint256","internalType":"uint256"}],"outputs":[{"name":"","type":"address[6]","internalType":"address[6]"}],"stateMutability":"view"},{"type":"function","name":"hasRated","inputs":[{"name":"","type":"address","internalType":"address"},{"name":"","type":"uint256","internalType":"uint256"}],"outputs":[{"name":"","type":"bool","internalType":"bool"}],"stateMutability":"view"},{"type":"function","name":"hasSignatoryApproved","inputs":[{"name":"escrowId","type":"uint256","internalType":"uint256"},{"name":"signatory","type":"address","internalType":"address"}],"outputs":[{"name":"","type":"bool","internalType":"bool"}],"stateMutability":"view"},{"type":"function","name":"owner","inputs":[],"outputs":[{"name":"","type":"address","internalType":"address"}],"stateMutability":"view"},{"type":"function","name":"pause","inputs":[],"outputs":[],"stateMutability":"nonpayable"},{"type":"function","name":"paused","inputs":[],"outputs":[{"name":"","type":"bool","internalType":"bool"}],"stateMutability":"view"},{"type":"function","name":"raiseDispute","inputs":[{"name":"escrowId","type":"uint256","internalType":"uint256"}],"outputs":[],"stateMutability":"nonpayable"},{"type":"function","name":"rateCounterparty","inputs":[{"name":"escrowId","type":"uint256","internalType":"uint256"},{"name":"rating","type":"uint8","internalType":"uint8"}],"outputs":[],"stateMutability":"nonpayable"},{"type":"function","name":"ratingsSum","inputs":[{"name":"","type":"address","internalType":"address"}],"outputs":[{"name":"","type":"uint256","internalType":"uint256"}],"stateMutability":"view"},{"type":"function","name":"releaseAfterEndDate","inputs":[{"name":"escrowId","type":"uint256","internalType":"uint256"}],"outputs":[],"stateMutability":"nonpayable"},{"type":"function","name":"renounceOwnership","inputs":[],"outputs":[],"stateMutability":"nonpayable"},{"type":"function","name":"resolveDispute","inputs":[{"name":"escrowId","type":"uint256","internalType":"uint256"},{"name":"releaseToLandlord","type":"bool","internalType":"bool"}],"outputs":[],"stateMutability":"nonpayable"},{"type":"function","name":"submitAppeal","inputs":[{"name":"escrowId","type":"uint256","internalType":"uint256"}],"outputs":[],"stateMutability":"nonpayable"},{"type":"function","name":"totalRatingsReceived","inputs":[{"name":"","type":"address","internalType":"address"}],"outputs":[{"name":"","type":"uint256","internalType":"uint256"}],"stateMutability":"view"},{"type":"function","name":"transferOwnership","inputs":[{"name":"newOwner","type":"address","internalType":"address"}],"outputs":[],"stateMutability":"nonpayable"},{"type":"function","name":"unpause","inputs":[],"outputs":[],"stateMutability":"nonpayable"},{"type":"function","name":"withdrawEther","inputs":[{"name":"to","type":"address","internalType":"address payable"}],"outputs":[],"stateMutability":"nonpayable"},{"type":"event","name":"AppealFinalized","inputs":[{"name":"escrowId","type":"uint256","indexed":true,"internalType":"uint256"},{"name":"finalState","type":"uint8","indexed":false,"internalType":"enum UltraRentzEscrow.EscrowState"},{"name":"success","type":"bool","indexed":false,"internalType":"bool"}],"anonymous":false},{"type":"event","name":"AppealSubmitted","inputs":[{"name":"escrowId","type":"uint256","indexed":true,"internalType":"uint256"}],"anonymous":false},{"type":"event","name":"ApprovalSubmitted","inputs":[{"name":"escrowId","type":"uint256","indexed":true,"internalType":"uint256"},{"name":"signatory","type":"address","indexed":false,"internalType":"address"},{"name":"totalApprovals","type":"uint8","indexed":false,"internalType":"uint8"}],"anonymous":false},{"type":"event","name":"DisputeResolved","inputs":[{"name":"escrowId","type":"uint256","indexed":true,"internalType":"uint256"},{"name":"resolution","type":"uint8","indexed":false,"internalType":"enum UltraRentzEscrow.EscrowState"}],"anonymous":false},{"type":"event","name":"EscrowCreated","inputs":[{"name":"escrowId","type":"uint256","indexed":true,"internalType":"uint256"},{"name":"tenant","type":"address","indexed":true,"internalType":"address"},{"name":"landlord","type":"address","indexed":false,"internalType":"address"},{"name":"token","type":"address","indexed":false,"internalType":"address"}],"anonymous":false},{"type":"event","name":"EscrowDisputed","inputs":[{"name":"escrowId","type":"uint256","indexed":true,"internalType":"uint256"}],"anonymous":false},{"type":"event","name":"EscrowFunded","inputs":[{"name":"escrowId","type":"uint256","indexed":true,"internalType":"uint256"},{"name":"amount","type":"uint256","indexed":false,"internalType":"uint256"}],"anonymous":false},{"type":"event","name":"EscrowRefunded","inputs":[{"name":"escrowId","type":"uint256","indexed":true,"internalType":"uint256"},{"name":"tenant","type":"address","indexed":false,"internalType":"address"},{"name":"token","type":"address","indexed":false,"internalType":"address"}],"anonymous":false},{"type":"event","name":"EscrowReleased","inputs":[{"name":"escrowId","type":"uint256","indexed":true,"internalType":"uint256"},{"name":"landlord","type":"address","indexed":false,"internalType":"address"},{"name":"token","type":"address","indexed":false,"internalType":"address"}],"anonymous":false},{"type":"event","name":"Notification","inputs":[{"name":"message","type":"string","indexed":false,"internalType":"string"}],"anonymous":false},{"type":"event","name":"OwnershipTransferred","inputs":[{"name":"previousOwner","type":"address","indexed":true,"internalType":"address"},{"name":"newOwner","type":"address","indexed":true,"internalType":"address"}],"anonymous":false},{"type":"event","name":"Paused","inputs":[{"name":"account","type":"address","indexed":false,"internalType":"address"}],"anonymous":false},{"type":"event","name":"Unpaused","inputs":[{"name":"account","type":"address","indexed":false,"internalType":"address"}],"anonymous":false},{"type":"event","name":"UserRated","inputs":[{"name":"rater","type":"address","indexed":true,"internalType":"address"},{"name":"ratee","type":"address","indexed":true,"internalType":"address"},{"name":"escrowId","type":"uint256","indexed":false,"internalType":"uint256"},{"name":"rating","type":"uint8","indexed":false,"internalType":"uint8"}],"anonymous":false},{"type":"error","name":"EnforcedPause","inputs":[]},{"type":"error","name":"ExpectedPause","inputs":[]},{"type":"error","name":"OwnableInvalidOwner","inputs":[{"name":"owner","type":"address","internalType":"address"}]},{"type":"error","name":"OwnableUnauthorizedAccount","inputs":[{"name":"account","type":"address","internalType":"address"}]},{"type":"error","name":"ReentrancyGuardReentrantCall","inputs":[]},{"type":"error","name":"SafeCastOverflowedUintDowncast","inputs":[{"name":"bits","type":"uint8","internalType":"uint8"},{"name":"value","type":"uint256","internalType":"uint256"}]},{"type":"error","name":"SafeERC20FailedOperation","inputs":[{"name":"token","type":"address","internalType":"address"}]}],"bytecode":{"object":"0x608060405234801561000f575f5ffd5b506040516154af3803806154af8339818101604052810190610031919061024c565b805f73ffffffffffffffffffffffffffffffffffffffff168173ffffffffffffffffffffffffffffffffffffffff16036100a2575f6040517f1e4fbdf70000000000000000000000000000000000000000000000000000000081526004016100999190610286565b60405180910390fd5b6100b18161012d60201b60201c565b50600180819055505f73ffffffffffffffffffffffffffffffffffffffff168173ffffffffffffffffffffffffffffffffffffffff1603610127576040517f08c379a000000000000000000000000000000000000000000000000000000000815260040161011e906102f9565b60405180910390fd5b50610317565b5f5f5f9054906101000a900473ffffffffffffffffffffffffffffffffffffffff169050815f5f6101000a81548173ffffffffffffffffffffffffffffffffffffffff021916908373ffffffffffffffffffffffffffffffffffffffff1602179055508173ffffffffffffffffffffffffffffffffffffffff168173ffffffffffffffffffffffffffffffffffffffff167f8be0079c531659141344cd1fd0a4f28419497f9722a3daafe3b4186f6b6457e060405160405180910390a35050565b5f5ffd5b5f73ffffffffffffffffffffffffffffffffffffffff82169050919050565b5f61021b826101f2565b9050919050565b61022b81610211565b8114610235575f5ffd5b50565b5f8151905061024681610222565b92915050565b5f60208284031215610261576102606101ee565b5b5f61026e84828501610238565b91505092915050565b61028081610211565b82525050565b5f6020820190506102995f830184610277565b92915050565b5f82825260208201905092915050565b7f44414f2f41646d696e2063616e6e6f74206265207a65726f20616464726573735f82015250565b5f6102e360208361029f565b91506102ee826102af565b602082019050919050565b5f6020820190508181035f830152610310816102d7565b9050919050565b61518b806103245f395ff3fe6080604052600436106101ba575f3560e01c80638456cb59116100eb578063c7ceafea11610089578063cfe8ad9611610063578063cfe8ad9614610627578063d22359dc14610663578063d25468b31461068b578063f2fde38b146106c7576101fa565b8063c7ceafea14610599578063c8b67522146105c3578063c9c31af5146105ff576101fa565b8063a5c1674e116100c5578063a5c1674e146104dc578063af933b5714610504578063b43a405a1461052c578063b996ec2a14610554576101fa565b80638456cb59146104745780638da5cb5b1461048a5780639db94ed7146104b4576101fa565b80633f4ba83a116101585780635c975abb116101325780635c975abb146103ce57806365f4c098146103f8578063715018a614610434578063734c85441461044a576101fa565b80633f4ba83a1461035257806346a80b24146103685780635c95c441146103a4576101fa565b80633127640111610194578063312764011461027657806333b3ceb4146102b2578063345460cd146102ee57806334b25ee21461032a576101fa565b806310c685e0146101fe57806319dc88ae146102265780631bd2cea11461024e576101fa565b366101fa576040517f08c379a00000000000000000000000000000000000000000000000000000000081526004016101f19061378f565b60405180910390fd5b5f5ffd5b348015610209575f5ffd5b50610224600480360381019061021f91906137ed565b6106ef565b005b348015610231575f5ffd5b5061024c600480360381019061024791906137ed565b610a5f565b005b348015610259575f5ffd5b50610274600480360381019061026f91906137ed565b610d1e565b005b348015610281575f5ffd5b5061029c60048036038101906102979190613872565b611039565b6040516102a991906138ac565b60405180910390f35b3480156102bd575f5ffd5b506102d860048036038101906102d39190613872565b61104e565b6040516102e591906138ac565b60405180910390f35b3480156102f9575f5ffd5b50610314600480360381019061030f91906137ed565b611063565b6040516103219190613925565b60405180910390f35b348015610335575f5ffd5b50610350600480360381019061034b919061397a565b61148e565b005b34801561035d575f5ffd5b50610366611667565b005b348015610373575f5ffd5b5061038e60048036038101906103899190613ae6565b6116e6565b60405161039b91906138ac565b60405180910390f35b3480156103af575f5ffd5b506103b8611b99565b6040516103c591906138ac565b60405180910390f35b3480156103d9575f5ffd5b506103e2611b9e565b6040516103ef9190613b7f565b60405180910390f35b348015610403575f5ffd5b5061041e600480360381019061041991906137ed565b611bb3565b60405161042b9190613c3d565b60405180910390f35b34801561043f575f5ffd5b50610448611c47565b005b348015610455575f5ffd5b5061045e611c5a565b60405161046b91906138ac565b60405180910390f35b34801561047f575f5ffd5b50610488611c61565b005b348015610495575f5ffd5b5061049e611ce0565b6040516104ab9190613c65565b60405180910390f35b3480156104bf575f5ffd5b506104da60048036038101906104d5919061397a565b611d07565b005b3480156104e7575f5ffd5b5061050260048036038101906104fd91906137ed565b611f2b565b005b34801561050f575f5ffd5b5061052a60048036038101906105259190613cb9565b61211c565b005b348015610537575f5ffd5b50610552600480360381019061054d91906137ed565b6121e7565b005b34801561055f575f5ffd5b5061057a600480360381019061057591906137ed565b612430565b6040516105909a99989796959493929190613d72565b60405180910390f35b3480156105a4575f5ffd5b506105ad61259d565b6040516105ba91906138ac565b60405180910390f35b3480156105ce575f5ffd5b506105e960048036038101906105e49190613872565b6125a3565b6040516105f691906138ac565b60405180910390f35b34801561060a575f5ffd5b50610625600480360381019061062091906137ed565b61267e565b005b348015610632575f5ffd5b5061064d60048036038101906106489190613e0d565b612884565b60405161065a9190613b7f565b60405180910390f35b34801561066e575f5ffd5b5061068960048036038101906106849190613e75565b6128e9565b005b348015610696575f5ffd5b506106b160048036038101906106ac9190613eb3565b612dae565b6040516106be9190613b7f565b60405180910390f35b3480156106d2575f5ffd5b506106ed60048036038101906106e89190613872565b612dd8565b005b6106f7612e5c565b805f5f5f90505b60068160ff16101561079c573373ffffffffffffffffffffffffffffffffffffffff1660075f8581526020019081526020015f206006018260ff166006811061074a57610749613ef1565b5b015f9054906101000a900473ffffffffffffffffffffffffffffffffffffffff1673ffffffffffffffffffffffffffffffffffffffff160361078f576001915061079c565b80806001019150506106fe565b50806107dd576040517f08c379a00000000000000000000000000000000000000000000000000000000081526004016107d490613f68565b60405180910390fd5b6107e5612ea2565b5f60075f8581526020019081526020015f2090506001600781111561080d5761080c613cff565b5b81600d0160019054906101000a900460ff16600781111561083157610830613cff565b5b14610871576040517f08c379a000000000000000000000000000000000000000000000000000000000815260040161086890613fd0565b60405180910390fd5b806005015461087e612ee3565b65ffffffffffff16116108c6576040517f08c379a00000000000000000000000000000000000000000000000000000000081526004016108bd90614038565b60405180910390fd5b80600c015f3373ffffffffffffffffffffffffffffffffffffffff1673ffffffffffffffffffffffffffffffffffffffff1681526020019081526020015f205f9054906101000a900460ff1615610952576040517f08c379a0000000000000000000000000000000000000000000000000000000008152600401610949906140a0565b60405180910390fd5b600181600c015f3373ffffffffffffffffffffffffffffffffffffffff1673ffffffffffffffffffffffffffffffffffffffff1681526020019081526020015f205f6101000a81548160ff02191690831515021790555080600d015f81819054906101000a900460ff16809291906109c9906140eb565b91906101000a81548160ff021916908360ff16021790555050837f31fdc4d501a17fc8bb26e1ab1136058e5975bc80399612d9abbf0b42e760c8553383600d015f9054906101000a900460ff16604051610a24929190614113565b60405180910390a2600481600d015f9054906101000a900460ff1660ff1610610a5157610a5084612ef2565b5b505050610a5c612fe4565b50565b610a67612e5c565b8060075f8281526020019081526020015f205f015f9054906101000a900473ffffffffffffffffffffffffffffffffffffffff1673ffffffffffffffffffffffffffffffffffffffff163373ffffffffffffffffffffffffffffffffffffffff1614610b08576040517f08c379a0000000000000000000000000000000000000000000000000000000008152600401610aff90614184565b60405180910390fd5b610b10612ea2565b5f60075f8481526020019081526020015f20905060066007811115610b3857610b37613cff565b5b81600d0160019054906101000a900460ff166007811115610b5c57610b5b613cff565b5b1480610b9c5750600780811115610b7657610b75613cff565b5b81600d0160019054906101000a900460ff166007811115610b9a57610b99613cff565b5b145b610bdb576040517f08c379a0000000000000000000000000000000000000000000000000000000008152600401610bd2906141ec565b60405180910390fd5b600281600f015f9054906101000a900460ff1660ff1610610c31576040517f08c379a0000000000000000000000000000000000000000000000000000000008152600401610c2890614254565b60405180910390fd5b80600f015f81819054906101000a900460ff1680929190610c51906140eb565b91906101000a81548160ff021916908360ff16021790555050610c72612ee3565b65ffffffffffff1681600e0181905550600581600d0160016101000a81548160ff02191690836007811115610caa57610ca9613cff565b5b0217905550827f9f99ae1c2ed3bebdabfddb8a9ded0b435ed0e72af5dd8b48c86af9e1825effa360405160405180910390a27f7d1ff22c1a82f0d8fc4f45d2aec63e679ecb08700b30f7e90ae3721d13b1f6bd604051610d09906142e2565b60405180910390a15050610d1b612fe4565b50565b610d26612e5c565b805f5f5f90505b60068160ff161015610dcb573373ffffffffffffffffffffffffffffffffffffffff1660075f8581526020019081526020015f206006018260ff1660068110610d7957610d78613ef1565b5b015f9054906101000a900473ffffffffffffffffffffffffffffffffffffffff1673ffffffffffffffffffffffffffffffffffffffff1603610dbe5760019150610dcb565b8080600101915050610d2d565b5080610e0c576040517f08c379a0000000000000000000000000000000000000000000000000000000008152600401610e0390613f68565b60405180910390fd5b610e14612ea2565b5f60075f8581526020019081526020015f20905060016007811115610e3c57610e3b613cff565b5b81600d0160019054906101000a900460ff166007811115610e6057610e5f613cff565b5b14610ea0576040517f08c379a0000000000000000000000000000000000000000000000000000000008152600401610e9790613fd0565b60405180910390fd5b80600c015f3373ffffffffffffffffffffffffffffffffffffffff1673ffffffffffffffffffffffffffffffffffffffff1681526020019081526020015f205f9054906101000a900460ff1615610f2c576040517f08c379a0000000000000000000000000000000000000000000000000000000008152600401610f23906140a0565b60405180910390fd5b600181600c015f3373ffffffffffffffffffffffffffffffffffffffff1673ffffffffffffffffffffffffffffffffffffffff1681526020019081526020015f205f6101000a81548160ff02191690831515021790555080600d015f81819054906101000a900460ff1680929190610fa3906140eb565b91906101000a81548160ff021916908360ff16021790555050837f31fdc4d501a17fc8bb26e1ab1136058e5975bc80399612d9abbf0b42e760c8553383600d015f9054906101000a900460ff16604051610ffe929190614113565b60405180910390a2600481600d015f9054906101000a900460ff1660ff161061102b5761102a84612ef2565b5b505050611036612fe4565b50565b6003602052805f5260405f205f915090505481565b6004602052805f5260405f205f915090505481565b60605f60075f8481526020019081526020015f2090505f600781111561108c5761108b613cff565b5b81600d0160019054906101000a900460ff1660078111156110b0576110af613cff565b5b036110f3576040518060400160405280600781526020017f4372656174656400000000000000000000000000000000000000000000000000815250915050611489565b6001600781111561110757611106613cff565b5b81600d0160019054906101000a900460ff16600781111561112b5761112a613cff565b5b0361116e576040518060400160405280600681526020017f46756e6465640000000000000000000000000000000000000000000000000000815250915050611489565b6002600781111561118257611181613cff565b5b81600d0160019054906101000a900460ff1660078111156111a6576111a5613cff565b5b036111e9576040518060400160405280600a81526020017f496e204469737075746500000000000000000000000000000000000000000000815250915050611489565b600360078111156111fd576111fc613cff565b5b81600d0160019054906101000a900460ff16600781111561122157611220613cff565b5b03611264576040518060400160405280601481526020017f52656c656173656420746f204c616e646c6f7264000000000000000000000000815250915050611489565b6004600781111561127857611277613cff565b5b81600d0160019054906101000a900460ff16600781111561129c5761129b613cff565b5b036112df576040518060400160405280601281526020017f526566756e64656420746f2054656e616e740000000000000000000000000000815250915050611489565b600560078111156112f3576112f2613cff565b5b81600d0160019054906101000a900460ff16600781111561131757611316613cff565b5b0361135a576040518060400160405280600e81526020017f50656e64696e672041707065616c000000000000000000000000000000000000815250915050611489565b6006600781111561136e5761136d613cff565b5b81600d0160019054906101000a900460ff16600781111561139257611391613cff565b5b036113d5576040518060400160405280601e81526020017f4465636973696f6e3a2052656c65617365202841707065616c61626c65290000815250915050611489565b6007808111156113e8576113e7613cff565b5b81600d0160019054906101000a900460ff16600781111561140c5761140b613cff565b5b0361144f576040518060400160405280601d81526020017f4465636973696f6e3a20526566756e64202841707065616c61626c6529000000815250915050611489565b6040518060400160405280600781526020017f556e6b6e6f776e000000000000000000000000000000000000000000000000008152509150505b919050565b611496612e5c565b61149e611ce0565b73ffffffffffffffffffffffffffffffffffffffff163373ffffffffffffffffffffffffffffffffffffffff161461150b576040517f08c379a00000000000000000000000000000000000000000000000000000000081526004016115029061434a565b60405180910390fd5b611513612ea2565b5f60075f8481526020019081526020015f2090506002600781111561153b5761153a613cff565b5b81600d0160019054906101000a900460ff16600781111561155f5761155e613cff565b5b1461159f576040517f08c379a0000000000000000000000000000000000000000000000000000000008152600401611596906143b2565b60405180910390fd5b62093a8081600e01546115b291906143d0565b6115ba612ee3565b65ffffffffffff161115611603576040517f08c379a00000000000000000000000000000000000000000000000000000000081526004016115fa9061444d565b60405180910390fd5b611611838360066007612fed565b827f2ffcfee146bc0d5ff304c6b65111a0d485af9456dc64eee7d66ebdcc90b223ea82600d0160019054906101000a900460ff16604051611652919061446b565b60405180910390a250611663612fe4565b5050565b61166f611ce0565b73ffffffffffffffffffffffffffffffffffffffff163373ffffffffffffffffffffffffffffffffffffffff16146116dc576040517f08c379a00000000000000000000000000000000000000000000000000000000081526004016116d39061434a565b60405180910390fd5b6116e461306c565b565b5f6116ef612ea2565b5f73ffffffffffffffffffffffffffffffffffffffff168773ffffffffffffffffffffffffffffffffffffffff160361175d576040517f08c379a0000000000000000000000000000000000000000000000000000000008152600401611754906144ce565b60405180910390fd5b5f73ffffffffffffffffffffffffffffffffffffffff168573ffffffffffffffffffffffffffffffffffffffff16036117cb576040517f08c379a00000000000000000000000000000000000000000000000000000000081526004016117c290614536565b60405180910390fd5b83831161180d576040517f08c379a0000000000000000000000000000000000000000000000000000000008152600401611804906145c4565b60405180910390fd5b5f73ffffffffffffffffffffffffffffffffffffffff163373ffffffffffffffffffffffffffffffffffffffff160361187b576040517f08c379a00000000000000000000000000000000000000000000000000000000081526004016118729061462c565b60405180910390fd5b5f5f90505b60068160ff161015611921575f73ffffffffffffffffffffffffffffffffffffffff16838260ff16600681106118b9576118b8613ef1565b5b602002015173ffffffffffffffffffffffffffffffffffffffff1603611914576040517f08c379a000000000000000000000000000000000000000000000000000000000815260040161190b90614694565b60405180910390fd5b8080600101915050611880565b505f33888660405160200161193893929190614717565b60405160208183030381529060405280519060200120905060085f8281526020019081526020015f205f9054906101000a900460ff16156119ae576040517f08c379a00000000000000000000000000000000000000000000000000000000081526004016119a59061479d565b60405180910390fd5b60065f81546119bc906147bb565b91905081905591505f60075f8481526020019081526020015f20905033815f015f6101000a81548173ffffffffffffffffffffffffffffffffffffffff021916908373ffffffffffffffffffffffffffffffffffffffff16021790555088816001015f6101000a81548173ffffffffffffffffffffffffffffffffffffffff021916908373ffffffffffffffffffffffffffffffffffffffff16021790555087816002018190555086816003015f6101000a81548173ffffffffffffffffffffffffffffffffffffffff021916908373ffffffffffffffffffffffffffffffffffffffff16021790555085816004018190555084816005018190555083816006019081611ac991906149af565b505f81600d0160016101000a81548160ff02191690836007811115611af157611af0613cff565b5b0217905550600181600f0160016101000a81548160ff021916908315150217905550600160085f8481526020019081526020015f205f6101000a81548160ff0219169083151502179055503373ffffffffffffffffffffffffffffffffffffffff16837fccab83b228b9f11d0f002db0d115fe84ab0bacbe475d1c28666963a66c20c4368b8a604051611b85929190614a33565b60405180910390a350509695505050505050565b600281565b5f60025f9054906101000a900460ff16905090565b611bbb6136ed565b60075f8381526020019081526020015f20600601600680602002604051908101604052809291908260068015611c3b576020028201915b815f9054906101000a900473ffffffffffffffffffffffffffffffffffffffff1673ffffffffffffffffffffffffffffffffffffffff1681526020019060010190808311611bf2575b50505050509050919050565b611c4f6130cd565b611c585f613154565b565b62093a8081565b611c69611ce0565b73ffffffffffffffffffffffffffffffffffffffff163373ffffffffffffffffffffffffffffffffffffffff1614611cd6576040517f08c379a0000000000000000000000000000000000000000000000000000000008152600401611ccd9061434a565b60405180910390fd5b611cde613215565b565b5f5f5f9054906101000a900473ffffffffffffffffffffffffffffffffffffffff16905090565b611d0f612e5c565b611d17611ce0565b73ffffffffffffffffffffffffffffffffffffffff163373ffffffffffffffffffffffffffffffffffffffff1614611d84576040517f08c379a0000000000000000000000000000000000000000000000000000000008152600401611d7b9061434a565b60405180910390fd5b611d8c612ea2565b5f60075f8481526020019081526020015f20905060056007811115611db457611db3613cff565b5b81600d0160019054906101000a900460ff166007811115611dd857611dd7613cff565b5b14611e18576040517f08c379a0000000000000000000000000000000000000000000000000000000008152600401611e0f90614aa4565b60405180910390fd5b62093a8081600e0154611e2b91906143d0565b611e33612ee3565b65ffffffffffff161115611e7c576040517f08c379a0000000000000000000000000000000000000000000000000000000008152600401611e739061444d565b60405180910390fd5b611e8a838360066007612fed565b827f34572d32f3bb0eff148ee17d0122170a41891d6a37564b756027d0cc5eb6123d82600d0160019054906101000a900460ff1684604051611ecd929190614ac2565b60405180910390a2827f2ffcfee146bc0d5ff304c6b65111a0d485af9456dc64eee7d66ebdcc90b223ea82600d0160019054906101000a900460ff16604051611f16919061446b565b60405180910390a250611f27612fe4565b5050565b611f33612e5c565b8060075f8281526020019081526020015f205f015f9054906101000a900473ffffffffffffffffffffffffffffffffffffffff1673ffffffffffffffffffffffffffffffffffffffff163373ffffffffffffffffffffffffffffffffffffffff1614611fd4576040517f08c379a0000000000000000000000000000000000000000000000000000000008152600401611fcb90614184565b60405180910390fd5b611fdc612ea2565b5f60075f8481526020019081526020015f2090506001600781111561200457612003613cff565b5b81600d0160019054906101000a900460ff16600781111561202857612027613cff565b5b14612068576040517f08c379a000000000000000000000000000000000000000000000000000000000815260040161205f90614b33565b60405180910390fd5b600281600d0160016101000a81548160ff021916908360078111156120905761208f613cff565b5b021790555061209d612ee3565b65ffffffffffff1681600e0181905550827f7ce7831fed9a800b1aa5e7ca21034bf7b95efc31a196459012cf8b8eb42b7dac60405160405180910390a27f7d1ff22c1a82f0d8fc4f45d2aec63e679ecb08700b30f7e90ae3721d13b1f6bd60405161210790614bc1565b60405180910390a15050612119612fe4565b50565b6121246130cd565b5f73ffffffffffffffffffffffffffffffffffffffff168173ffffffffffffffffffffffffffffffffffffffff1603612192576040517f08c379a000000000000000000000000000000000000000000000000000000000815260040161218990614c29565b60405180910390fd5b5f4790505f8111156121e3578173ffffffffffffffffffffffffffffffffffffffff166108fc8290811502906040515f60405180830381858888f193505050501580156121e1573d5f5f3e3d5ffd5b505b5050565b6121ef612e5c565b6121f7611ce0565b73ffffffffffffffffffffffffffffffffffffffff163373ffffffffffffffffffffffffffffffffffffffff1614612264576040517f08c379a000000000000000000000000000000000000000000000000000000000815260040161225b9061434a565b60405180910390fd5b61226c612ea2565b5f60075f8381526020019081526020015f2090505f6006600781111561229557612294613cff565b5b82600d0160019054906101000a900460ff1660078111156122b9576122b8613cff565b5b14806122f957506007808111156122d3576122d2613cff565b5b82600d0160019054906101000a900460ff1660078111156122f7576122f6613cff565b5b145b90508061233b576040517f08c379a000000000000000000000000000000000000000000000000000000000815260040161233290614cb7565b60405180910390fd5b5f62093a8083600e015461234f91906143d0565b612357612ee3565b65ffffffffffff161190505f600284600f015f9054906101000a900460ff1660ff161015905081806123865750805b6123c5576040517f08c379a00000000000000000000000000000000000000000000000000000000081526004016123bc90614d1f565b60405180910390fd5b600660078111156123d9576123d8613cff565b5b84600d0160019054906101000a900460ff1660078111156123fd576123fc613cff565b5b036124145761240f8560016003613277565b612421565b612420855f6004613277565b5b5050505061242d612fe4565b50565b5f5f5f5f5f5f61243e6136ed565b5f5f5f5f60075f8d81526020019081526020015f209050805f015f9054906101000a900473ffffffffffffffffffffffffffffffffffffffff16816001015f9054906101000a900473ffffffffffffffffffffffffffffffffffffffff168260020154836003015f9054906101000a900473ffffffffffffffffffffffffffffffffffffffff16846004015485600501548660060187600d015f9054906101000a900460ff1688600d0160019054906101000a900460ff1689600f015f9054906101000a900460ff1683600680602002604051908101604052809291908260068015612574576020028201915b815f9054906101000a900473ffffffffffffffffffffffffffffffffffffffff1673ffffffffffffffffffffffffffffffffffffffff168152602001906001019080831161252b575b505050505093509a509a509a509a509a509a509a509a509a509a50509193959799509193959799565b60065481565b5f5f60035f8473ffffffffffffffffffffffffffffffffffffffff1673ffffffffffffffffffffffffffffffffffffffff1681526020019081526020015f2054036125f0575f9050612679565b60035f8373ffffffffffffffffffffffffffffffffffffffff1673ffffffffffffffffffffffffffffffffffffffff1681526020019081526020015f205460045f8473ffffffffffffffffffffffffffffffffffffffff1673ffffffffffffffffffffffffffffffffffffffff1681526020019081526020015f20546126769190614d6a565b90505b919050565b612686612e5c565b8060075f8281526020019081526020015f205f015f9054906101000a900473ffffffffffffffffffffffffffffffffffffffff1673ffffffffffffffffffffffffffffffffffffffff163373ffffffffffffffffffffffffffffffffffffffff1614612727576040517f08c379a000000000000000000000000000000000000000000000000000000000815260040161271e90614184565b60405180910390fd5b61272f612ea2565b5f60075f8481526020019081526020015f2090505f600781111561275657612755613cff565b5b81600d0160019054906101000a900460ff16600781111561277a57612779613cff565b5b146127ba576040517f08c379a00000000000000000000000000000000000000000000000000000000081526004016127b190614de4565b60405180910390fd5b600181600d0160016101000a81548160ff021916908360078111156127e2576127e1613cff565b5b021790555061283b33308360020154846003015f9054906101000a900473ffffffffffffffffffffffffffffffffffffffff1673ffffffffffffffffffffffffffffffffffffffff166134b1909392919063ffffffff16565b827f911052e1be46242b46bf3c2762227ff37c000e5fe38727638096f3a17fbfe170826002015460405161286f91906138ac565b60405180910390a25050612881612fe4565b50565b5f60075f8481526020019081526020015f20600c015f8373ffffffffffffffffffffffffffffffffffffffff1673ffffffffffffffffffffffffffffffffffffffff1681526020019081526020015f205f9054906101000a900460ff16905092915050565b60018160ff1610158015612901575060058160ff1611155b612940576040517f08c379a000000000000000000000000000000000000000000000000000000000815260040161293790614e4c565b60405180910390fd5b5f60075f8481526020019081526020015f20905080600f0160019054906101000a900460ff166129a5576040517f08c379a000000000000000000000000000000000000000000000000000000000815260040161299c90614eb4565b60405180910390fd5b600360078111156129b9576129b8613cff565b5b81600d0160019054906101000a900460ff1660078111156129dd576129dc613cff565b5b1480612a1e5750600460078111156129f8576129f7613cff565b5b81600d0160019054906101000a900460ff166007811115612a1c57612a1b613cff565b5b145b612a5d576040517f08c379a0000000000000000000000000000000000000000000000000000000008152600401612a5490614f1c565b60405180910390fd5b5f815f015f9054906101000a900473ffffffffffffffffffffffffffffffffffffffff1673ffffffffffffffffffffffffffffffffffffffff163373ffffffffffffffffffffffffffffffffffffffff1603612ade57816001015f9054906101000a900473ffffffffffffffffffffffffffffffffffffffff169050612b9a565b816001015f9054906101000a900473ffffffffffffffffffffffffffffffffffffffff1673ffffffffffffffffffffffffffffffffffffffff163373ffffffffffffffffffffffffffffffffffffffff1603612b5e57815f015f9054906101000a900473ffffffffffffffffffffffffffffffffffffffff169050612b99565b6040517f08c379a0000000000000000000000000000000000000000000000000000000008152600401612b9090614f84565b60405180910390fd5b5b60055f3373ffffffffffffffffffffffffffffffffffffffff1673ffffffffffffffffffffffffffffffffffffffff1681526020019081526020015f205f8581526020019081526020015f205f9054906101000a900460ff1615612c33576040517f08c379a0000000000000000000000000000000000000000000000000000000008152600401612c2a90614fec565b60405180910390fd5b600160055f3373ffffffffffffffffffffffffffffffffffffffff1673ffffffffffffffffffffffffffffffffffffffff1681526020019081526020015f205f8681526020019081526020015f205f6101000a81548160ff021916908315150217905550600160035f8373ffffffffffffffffffffffffffffffffffffffff1673ffffffffffffffffffffffffffffffffffffffff1681526020019081526020015f205f828254612ce491906143d0565b925050819055508260ff1660045f8373ffffffffffffffffffffffffffffffffffffffff1673ffffffffffffffffffffffffffffffffffffffff1681526020019081526020015f205f828254612d3a91906143d0565b925050819055508073ffffffffffffffffffffffffffffffffffffffff163373ffffffffffffffffffffffffffffffffffffffff167f42b362e4440baa96530d4f36bc304cd410ba9f48554f1dc01c3e53cbf0bd80108686604051612da092919061500a565b60405180910390a350505050565b6005602052815f5260405f20602052805f5260405f205f915091509054906101000a900460ff1681565b612de06130cd565b5f73ffffffffffffffffffffffffffffffffffffffff168173ffffffffffffffffffffffffffffffffffffffff1603612e50575f6040517f1e4fbdf7000000000000000000000000000000000000000000000000000000008152600401612e479190613c65565b60405180910390fd5b612e5981613154565b50565b600260015403612e98576040517f3ee5aeb500000000000000000000000000000000000000000000000000000000815260040160405180910390fd5b6002600181905550565b612eaa611b9e565b15612ee1576040517fd93c066500000000000000000000000000000000000000000000000000000000815260040160405180910390fd5b565b5f612eed42613533565b905090565b5f60075f8381526020019081526020015f20905060016007811115612f1a57612f19613cff565b5b81600d0160019054906101000a900460ff166007811115612f3e57612f3d613cff565b5b14612f7e576040517f08c379a0000000000000000000000000000000000000000000000000000000008152600401612f759061507b565b60405180910390fd5b5f81600d015f6101000a81548160ff021916908360ff160217905550612fa78260016003613277565b817f2ffcfee146bc0d5ff304c6b65111a0d485af9456dc64eee7d66ebdcc90b223ea6003604051612fd8919061446b565b60405180910390a25050565b60018081905550565b5f60075f8681526020019081526020015f2090508315613038578281600d0160016101000a81548160ff0219169083600781111561302e5761302d613cff565b5b0217905550613065565b8181600d0160016101000a81548160ff0219169083600781111561305f5761305e613cff565b5b02179055505b5050505050565b61307461358c565b5f60025f6101000a81548160ff0219169083151502179055507f5db9ee0a495bf2e6ff9c91a7834c1ba4fdd244a5e8aa4e537bd38aeae4b073aa6130b66135cc565b6040516130c39190613c65565b60405180910390a1565b6130d56135cc565b73ffffffffffffffffffffffffffffffffffffffff166130f3611ce0565b73ffffffffffffffffffffffffffffffffffffffff1614613152576131166135cc565b6040517f118cdaa70000000000000000000000000000000000000000000000000000000081526004016131499190613c65565b60405180910390fd5b565b5f5f5f9054906101000a900473ffffffffffffffffffffffffffffffffffffffff169050815f5f6101000a81548173ffffffffffffffffffffffffffffffffffffffff021916908373ffffffffffffffffffffffffffffffffffffffff1602179055508173ffffffffffffffffffffffffffffffffffffffff168173ffffffffffffffffffffffffffffffffffffffff167f8be0079c531659141344cd1fd0a4f28419497f9722a3daafe3b4186f6b6457e060405160405180910390a35050565b61321d612ea2565b600160025f6101000a81548160ff0219169083151502179055507f62e78cea01bee320cd4e420270b5ea74000d11b0c9f74754ebdbfc544b05a2586132606135cc565b60405161326d9190613c65565b60405180910390a1565b5f60075f8581526020019081526020015f2090508181600d0160016101000a81548160ff021916908360078111156132b2576132b1613cff565b5b021790555082156133b757613332816001015f9054906101000a900473ffffffffffffffffffffffffffffffffffffffff168260020154836003015f9054906101000a900473ffffffffffffffffffffffffffffffffffffffff1673ffffffffffffffffffffffffffffffffffffffff166135d39092919063ffffffff16565b837ffd7f9968b90c2f39997b08b69b3c78d40df681dec28b3eec202eff456c3ad2cb826001015f9054906101000a900473ffffffffffffffffffffffffffffffffffffffff16836003015f9054906101000a900473ffffffffffffffffffffffffffffffffffffffff166040516133aa929190614a33565b60405180910390a26134ab565b61342b815f015f9054906101000a900473ffffffffffffffffffffffffffffffffffffffff168260020154836003015f9054906101000a900473ffffffffffffffffffffffffffffffffffffffff1673ffffffffffffffffffffffffffffffffffffffff166135d39092919063ffffffff16565b837fcd0cf80e47d7155dd99224c3b23942de0ceca1a277e5e49a471ffb9a45ac1542825f015f9054906101000a900473ffffffffffffffffffffffffffffffffffffffff16836003015f9054906101000a900473ffffffffffffffffffffffffffffffffffffffff166040516134a2929190614a33565b60405180910390a25b50505050565b61352d848573ffffffffffffffffffffffffffffffffffffffff166323b872dd8686866040516024016134e693929190615099565b604051602081830303815290604052915060e01b6020820180517bffffffffffffffffffffffffffffffffffffffffffffffffffffffff8381831617835250505050613652565b50505050565b5f65ffffffffffff8016821115613584576030826040517f6dfcc65000000000000000000000000000000000000000000000000000000000815260040161357b929190615107565b60405180910390fd5b819050919050565b613594611b9e565b6135ca576040517f8dfc202b00000000000000000000000000000000000000000000000000000000815260040160405180910390fd5b565b5f33905090565b61364d838473ffffffffffffffffffffffffffffffffffffffff1663a9059cbb858560405160240161360692919061512e565b604051602081830303815290604052915060e01b6020820180517bffffffffffffffffffffffffffffffffffffffffffffffffffffffff8381831617835250505050613652565b505050565b5f5f60205f8451602086015f885af180613671576040513d5f823e3d81fd5b3d92505f519150505f821461368a5760018114156136a5565b5f8473ffffffffffffffffffffffffffffffffffffffff163b145b156136e757836040517f5274afe70000000000000000000000000000000000000000000000000000000081526004016136de9190613c65565b60405180910390fd5b50505050565b6040518060c00160405280600690602082028036833780820191505090505090565b5f82825260208201905092915050565b7f556c74726152656e747a457363726f7720646f6573206e6f74206163636570745f8201527f2045746865720000000000000000000000000000000000000000000000000000602082015250565b5f61377960268361370f565b91506137848261371f565b604082019050919050565b5f6020820190508181035f8301526137a68161376d565b9050919050565b5f604051905090565b5f5ffd5b5f819050919050565b6137cc816137ba565b81146137d6575f5ffd5b50565b5f813590506137e7816137c3565b92915050565b5f60208284031215613802576138016137b6565b5b5f61380f848285016137d9565b91505092915050565b5f73ffffffffffffffffffffffffffffffffffffffff82169050919050565b5f61384182613818565b9050919050565b61385181613837565b811461385b575f5ffd5b50565b5f8135905061386c81613848565b92915050565b5f60208284031215613887576138866137b6565b5b5f6138948482850161385e565b91505092915050565b6138a6816137ba565b82525050565b5f6020820190506138bf5f83018461389d565b92915050565b5f81519050919050565b8281835e5f83830152505050565b5f601f19601f8301169050919050565b5f6138f7826138c5565b613901818561370f565b93506139118185602086016138cf565b61391a816138dd565b840191505092915050565b5f6020820190508181035f83015261393d81846138ed565b905092915050565b5f8115159050919050565b61395981613945565b8114613963575f5ffd5b50565b5f8135905061397481613950565b92915050565b5f5f604083850312156139905761398f6137b6565b5b5f61399d858286016137d9565b92505060206139ae85828601613966565b9150509250929050565b5f5ffd5b7f4e487b71000000000000000000000000000000000000000000000000000000005f52604160045260245ffd5b6139f2826138dd565b810181811067ffffffffffffffff82111715613a1157613a106139bc565b5b80604052505050565b5f613a236137ad565b9050613a2f82826139e9565b919050565b5f67ffffffffffffffff821115613a4e57613a4d6139bc565b5b602082029050919050565b5f5ffd5b5f613a6f613a6a84613a34565b613a1a565b90508060208402830185811115613a8957613a88613a59565b5b835b81811015613ab25780613a9e888261385e565b845260208401935050602081019050613a8b565b5050509392505050565b5f82601f830112613ad057613acf6139b8565b5b6006613add848285613a5d565b91505092915050565b5f5f5f5f5f5f6101608789031215613b0157613b006137b6565b5b5f613b0e89828a0161385e565b9650506020613b1f89828a016137d9565b9550506040613b3089828a0161385e565b9450506060613b4189828a016137d9565b9350506080613b5289828a016137d9565b92505060a0613b6389828a01613abc565b9150509295509295509295565b613b7981613945565b82525050565b5f602082019050613b925f830184613b70565b92915050565b5f60069050919050565b5f81905092915050565b5f819050919050565b613bbe81613837565b82525050565b5f613bcf8383613bb5565b60208301905092915050565b5f602082019050919050565b613bf081613b98565b613bfa8184613ba2565b9250613c0582613bac565b805f5b83811015613c35578151613c1c8782613bc4565b9650613c2783613bdb565b925050600181019050613c08565b505050505050565b5f60c082019050613c505f830184613be7565b92915050565b613c5f81613837565b82525050565b5f602082019050613c785f830184613c56565b92915050565b5f613c8882613818565b9050919050565b613c9881613c7e565b8114613ca2575f5ffd5b50565b5f81359050613cb381613c8f565b92915050565b5f60208284031215613cce57613ccd6137b6565b5b5f613cdb84828501613ca5565b91505092915050565b5f60ff82169050919050565b613cf981613ce4565b82525050565b7f4e487b71000000000000000000000000000000000000000000000000000000005f52602160045260245ffd5b60088110613d3d57613d3c613cff565b5b50565b5f819050613d4d82613d2c565b919050565b5f613d5c82613d40565b9050919050565b613d6c81613d52565b82525050565b5f6101e082019050613d865f83018d613c56565b613d93602083018c613c56565b613da0604083018b61389d565b613dad606083018a613c56565b613dba608083018961389d565b613dc760a083018861389d565b613dd460c0830187613be7565b613de2610180830186613cf0565b613df06101a0830185613d63565b613dfe6101c0830184613cf0565b9b9a5050505050505050505050565b5f5f60408385031215613e2357613e226137b6565b5b5f613e30858286016137d9565b9250506020613e418582860161385e565b9150509250929050565b613e5481613ce4565b8114613e5e575f5ffd5b50565b5f81359050613e6f81613e4b565b92915050565b5f5f60408385031215613e8b57613e8a6137b6565b5b5f613e98858286016137d9565b9250506020613ea985828601613e61565b9150509250929050565b5f5f60408385031215613ec957613ec86137b6565b5b5f613ed68582860161385e565b9250506020613ee7858286016137d9565b9150509250929050565b7f4e487b71000000000000000000000000000000000000000000000000000000005f52603260045260245ffd5b7f4e6f742061207369676e61746f727900000000000000000000000000000000005f82015250565b5f613f52600f8361370f565b9150613f5d82613f1e565b602082019050919050565b5f6020820190508181035f830152613f7f81613f46565b9050919050565b7f496e76616c6964207374617465000000000000000000000000000000000000005f82015250565b5f613fba600d8361370f565b9150613fc582613f86565b602082019050919050565b5f6020820190508181035f830152613fe781613fae565b9050919050565b7f54656e616e6379206e6f7420656e6465640000000000000000000000000000005f82015250565b5f61402260118361370f565b915061402d82613fee565b602082019050919050565b5f6020820190508181035f83015261404f81614016565b9050919050565b7f416c726561647920617070726f766564000000000000000000000000000000005f82015250565b5f61408a60108361370f565b915061409582614056565b602082019050919050565b5f6020820190508181035f8301526140b78161407e565b9050919050565b7f4e487b71000000000000000000000000000000000000000000000000000000005f52601160045260245ffd5b5f6140f582613ce4565b915060ff8203614108576141076140be565b5b600182019050919050565b5f6040820190506141265f830185613c56565b6141336020830184613cf0565b9392505050565b7f4e6f742074656e616e74000000000000000000000000000000000000000000005f82015250565b5f61416e600a8361370f565b91506141798261413a565b602082019050919050565b5f6020820190508181035f83015261419b81614162565b9050919050565b7f43616e6e6f742061707065616c2066726f6d2063757272656e742073746174655f82015250565b5f6141d660208361370f565b91506141e1826141a2565b602082019050919050565b5f6020820190508181035f830152614203816141ca565b9050919050565b7f4d6178696d756d2061707065616c7320726561636865642028322900000000005f82015250565b5f61423e601b8361370f565b91506142498261420a565b602082019050919050565b5f6020820190508181035f83015261426b81614232565b9050919050565b7f41707065616c207375626d69747465642e2044414f2064656c696265726174695f8201527f6f6e2070656e64696e672e000000000000000000000000000000000000000000602082015250565b5f6142cc602b8361370f565b91506142d782614272565b604082019050919050565b5f6020820190508181035f8301526142f9816142c0565b9050919050565b7f4e6f74207468652044414f2f41646d696e2061646472657373000000000000005f82015250565b5f61433460198361370f565b915061433f82614300565b602082019050919050565b5f6020820190508181035f83015261436181614328565b9050919050565b7f4e6f7420696e20646973707574650000000000000000000000000000000000005f82015250565b5f61439c600e8361370f565b91506143a782614368565b602082019050919050565b5f6020820190508181035f8301526143c981614390565b9050919050565b5f6143da826137ba565b91506143e5836137ba565b92508282019050808211156143fd576143fc6140be565b5b92915050565b7f5265736f6c7574696f6e2074696d6520657870697265640000000000000000005f82015250565b5f61443760178361370f565b915061444282614403565b602082019050919050565b5f6020820190508181035f8301526144648161442b565b9050919050565b5f60208201905061447e5f830184613d63565b92915050565b7f496e76616c6964206c616e646c6f7264206164647265737300000000000000005f82015250565b5f6144b860188361370f565b91506144c382614484565b602082019050919050565b5f6020820190508181035f8301526144e5816144ac565b9050919050565b7f496e76616c696420746f6b656e206164647265737300000000000000000000005f82015250565b5f61452060158361370f565b915061452b826144ec565b602082019050919050565b5f6020820190508181035f83015261454d81614514565b9050919050565b7f456e642064617465206d757374206265206166746572207374617274206461745f8201527f6500000000000000000000000000000000000000000000000000000000000000602082015250565b5f6145ae60218361370f565b91506145b982614554565b604082019050919050565b5f6020820190508181035f8301526145db816145a2565b9050919050565b7f54656e616e742063616e6e6f74206265207a65726f20616464726573730000005f82015250565b5f614616601d8361370f565b9150614621826145e2565b602082019050919050565b5f6020820190508181035f8301526146438161460a565b9050919050565b7f5369676e61746f72792063616e6e6f74206265207a65726f20616464726573735f82015250565b5f61467e60208361370f565b91506146898261464a565b602082019050919050565b5f6020820190508181035f8301526146ab81614672565b9050919050565b5f8160601b9050919050565b5f6146c8826146b2565b9050919050565b5f6146d9826146be565b9050919050565b6146f16146ec82613837565b6146cf565b82525050565b5f819050919050565b61471161470c826137ba565b6146f7565b82525050565b5f61472282866146e0565b60148201915061473282856146e0565b6014820191506147428284614700565b602082019150819050949350505050565b7f4475706c696361746520657363726f77000000000000000000000000000000005f82015250565b5f61478760108361370f565b915061479282614753565b602082019050919050565b5f6020820190508181035f8301526147b48161477b565b9050919050565b5f6147c5826137ba565b91507fffffffffffffffffffffffffffffffffffffffffffffffffffffffffffffffff82036147f7576147f66140be565b5b600182019050919050565b5f60069050919050565b5f8190506001806001038301049050919050565b5f819050919050565b5f82821b905092915050565b5f600883026148647fffffffffffffffffffffffffffffffffffffffffffffffffffffffffffffffff82614829565b61486e8683614829565b95508019841693508086168417925050509392505050565b5f819050919050565b5f6148a96148a461489f846137ba565b614886565b6137ba565b9050919050565b5f819050919050565b6148c28361488f565b6148d66148ce826148b0565b848454614835565b825550505050565b5f5f905090565b6148ed6148de565b6148f88184846148b9565b505050565b5f5b8281101561491e576149135f8284016148e5565b6001810190506148ff565b505050565b8183101561495a576149348261480c565b61493d8461480c565b61494683614820565b818101614955838503826148fd565b505050505b505050565b68010000000000000000821115614979576149786139bc565b5b61498281614802565b61498d838284614923565b505050565b5f61499d8251613837565b80915050919050565b5f819050919050565b6149b882613b98565b67ffffffffffffffff8111156149d1576149d06139bc565b5b6149db818361495f565b6149e483613bac565b6149ed83614820565b600183045f5b81811015614a2a575f614a0585614992565b614a0e816149a6565b80925060208701965050508082850155506001810190506149f3565b50505050505050565b5f604082019050614a465f830185613c56565b614a536020830184613c56565b9392505050565b7f4e6f2070656e64696e672061707065616c0000000000000000000000000000005f82015250565b5f614a8e60118361370f565b9150614a9982614a5a565b602082019050919050565b5f6020820190508181035f830152614abb81614a82565b9050919050565b5f604082019050614ad55f830185613d63565b614ae26020830184613b70565b9392505050565b7f43616e6e6f7420646973707574650000000000000000000000000000000000005f82015250565b5f614b1d600e8361370f565b9150614b2882614ae9565b602082019050919050565b5f6020820190508181035f830152614b4a81614b11565b9050919050565b7f44697370757465207261697365642e2044414f2077696c6c20726576696577205f8201527f77697468696e203720646179732e000000000000000000000000000000000000602082015250565b5f614bab602e8361370f565b9150614bb682614b51565b604082019050919050565b5f6020820190508181035f830152614bd881614b9f565b9050919050565b7f496e76616c6964206164647265737300000000000000000000000000000000005f82015250565b5f614c13600f8361370f565b9150614c1e82614bdf565b602082019050919050565b5f6020820190508181035f830152614c4081614c07565b9050919050565b7f457363726f77206e6f7420726561647920666f722066696e616c697a6174696f5f8201527f6e20286e6f206465636973696f6e206d61646529000000000000000000000000602082015250565b5f614ca160348361370f565b9150614cac82614c47565b604082019050919050565b5f6020820190508181035f830152614cce81614c95565b9050919050565b7f41707065616c2077696e646f77206973207374696c6c206163746976650000005f82015250565b5f614d09601d8361370f565b9150614d1482614cd5565b602082019050919050565b5f6020820190508181035f830152614d3681614cfd565b9050919050565b7f4e487b71000000000000000000000000000000000000000000000000000000005f52601260045260245ffd5b5f614d74826137ba565b9150614d7f836137ba565b925082614d8f57614d8e614d3d565b5b828204905092915050565b7f457363726f77206973206e6f742066756e6461626c65000000000000000000005f82015250565b5f614dce60168361370f565b9150614dd982614d9a565b602082019050919050565b5f6020820190508181035f830152614dfb81614dc2565b9050919050565b7f526174696e67206d75737420626520312d3500000000000000000000000000005f82015250565b5f614e3660128361370f565b9150614e4182614e02565b602082019050919050565b5f6020820190508181035f830152614e6381614e2a565b9050919050565b7f457363726f7720646f6573206e6f7420657869737400000000000000000000005f82015250565b5f614e9e60158361370f565b9150614ea982614e6a565b602082019050919050565b5f6020820190508181035f830152614ecb81614e92565b9050919050565b7f457363726f77206e6f742066696e616c697a65640000000000000000000000005f82015250565b5f614f0660148361370f565b9150614f1182614ed2565b602082019050919050565b5f6020820190508181035f830152614f3381614efa565b9050919050565b7f4f6e6c792074656e616e74206f72206c616e646c6f72642063616e20726174655f82015250565b5f614f6e60208361370f565b9150614f7982614f3a565b602082019050919050565b5f6020820190508181035f830152614f9b81614f62565b9050919050565b7f416c726561647920726174656420666f72207468697320657363726f770000005f82015250565b5f614fd6601d8361370f565b9150614fe182614fa2565b602082019050919050565b5f6020820190508181035f83015261500381614fca565b9050919050565b5f60408201905061501d5f83018561389d565b61502a6020830184613cf0565b9392505050565b7f4e6f742066756e6461626c6500000000000000000000000000000000000000005f82015250565b5f615065600c8361370f565b915061507082615031565b602082019050919050565b5f6020820190508181035f83015261509281615059565b9050919050565b5f6060820190506150ac5f830186613c56565b6150b96020830185613c56565b6150c6604083018461389d565b949350505050565b5f819050919050565b5f6150f16150ec6150e7846150ce565b614886565b613ce4565b9050919050565b615101816150d7565b82525050565b5f60408201905061511a5f8301856150f8565b615127602083018461389d565b9392505050565b5f6040820190506151415f830185613c56565b61514e602083018461389d565b939250505056fea264697066735822122074fe96a9c06dca752086860bdba7dab54c0839ce03f25ee9719ed09d0c16155964736f6c63430008210033","linkReferences":{}},"methodIdentifiers":{"MAX_APPEALS()":"5c95c441","RESOLUTION_WINDOW()":"734c8544","approveRelease(uint256)":"1bd2cea1","createEscrow(address,uint256,address,uint256,uint256,address[6])":"46a80b24","escrowCounter()":"c7ceafea","finalizeAppealDecision(uint256,bool)":"9db94ed7","finalizeEscrow(uint256)":"b43a405a","fundEscrow(uint256)":"c9c31af5","getAverageRating(address)":"c8b67522","getEscrowDetails(uint256)":"b996ec2a","getEscrowStatus(uint256)":"345460cd","getSignatories(uint256)":"65f4c098","hasRated(address,uint256)":"d25468b3","hasSignatoryApproved(uint256,address)":"cfe8ad96","owner()":"8da5cb5b","pause()":"8456cb59","paused()":"5c975abb","raiseDispute(uint256)":"a5c1674e","rateCounterparty(uint256,uint8)":"d22359dc","ratingsSum(address)":"33b3ceb4","releaseAfterEndDate(uint256)":"10c685e0","renounceOwnership()":"715018a6","resolveDispute(uint256,bool)":"34b25ee2","submitAppeal(uint256)":"19dc88ae","totalRatingsReceived(address)":"31276401","transferOwnership(address)":"f2fde38b","unpause()":"3f4ba83a","withdrawEther(address)":"af933b57"},"id":38}