{"abi":[{"type":"constructor","inputs":[{"name":"initialOwner","type":"address","internalType":"address"}],"stateMutability":"nonpayable"},{"type":"function","name":"MAX_APPEALS","inputs":[],"outputs":[{"name":"","type":"uint256","internalType":"uint256"}],"stateMutability":"view"},{"type":"function","name":"RESOLUTION_WINDOW","inputs":[],"outputs":[{"name":"","type":"uint256","internalType":"uint256"}],"stateMutability":"view"},{"type":"function","name":"approveRelease","inputs":[{"name":"escrowId","type":"uint256","internalType":"uint256"}],"outputs":[],"stateMutability":"nonpayable"},{"type":"function","name":"createEscrow","inputs":[{"name":"landlord","type":"address","internalType":"address"},{"name":"amount","type":"uint256","internalType":"uint256"},{"name":"token","type":"address","internalType":"address"},{"name":"startDate","type":"uint256","internalType":"uint256"},{"name":"endDate","type":"uint256","internalType":"uint256"},{"name":"signatories","type":"address[6]","internalType":"address[6]"}],"outputs":[{"name":"id","type":"uint256","internalType":"uint256"}],"stateMutability":"nonpayable"},{"type":"function","name":"escrowCounter","inputs":[],"outputs":[{"name":"","type":"uint256","internalType":"uint256"}],"stateMutability":"view"},{"type":"function","name":"finalizeAppealDecision","inputs":[{"name":"escrowId","type":"uint256","internalType":"uint256"},{"name":"releaseToLandlord","type":"bool","internalType":"bool"}],"outputs":[],"stateMutability":"nonpayable"},{"type":"function","name":"finalizeEscrow","inputs":[{"name":"escrowId","type":"uint256","internalType":"uint256"}],"outputs":[],"stateMutability":"nonpayable"},{"type":"function","name":"fundEscrow","inputs":[{"name":"escrowId","type":"uint256","internalType":"uint256"}],"outputs":[],"stateMutability":"nonpayable"},{"type":"function","name":"getEscrowDetails","inputs":[{"name":"escrowId","type":"uint256","internalType":"uint256"}],"outputs":[{"name":"tenant","type":"address","internalType":"address"},{"name":"landlord","type":"address","internalType":"address"},{"name":"amount","type":"uint256","internalType":"uint256"},{"name":"token","type":"address","internalType":"address"},{"name":"startDate","type":"uint256","internalType":"uint256"},{"name":"endDate","type":"uint256","internalType":"uint256"},{"name":"signatories","type":"address[6]","internalType":"address[6]"},{"name":"approvals","type":"uint8","internalType":"uint8"},{"name":"state","type":"uint8","internalType":"enum UltraRentzEscrow.EscrowState"},{"name":"appealCount","type":"uint8","internalType":"uint8"}],"stateMutability":"view"},{"type":"function","name":"getEscrowStatus","inputs":[{"name":"escrowId","type":"uint256","internalType":"uint256"}],"outputs":[{"name":"","type":"string","internalType":"string"}],"stateMutability":"view"},{"type":"function","name":"getSignatories","inputs":[{"name":"escrowId","type":"uint256","internalType":"uint256"}],"outputs":[{"name":"","type":"address[6]","internalType":"address[6]"}],"stateMutability":"view"},{"type":"function","name":"hasSignatoryApproved","inputs":[{"name":"escrowId","type":"uint256","internalType":"uint256"},{"name":"signatory","type":"address","internalType":"address"}],"outputs":[{"name":"","type":"bool","internalType":"bool"}],"stateMutability":"view"},{"type":"function","name":"owner","inputs":[],"outputs":[{"name":"","type":"address","internalType":"address"}],"stateMutability":"view"},{"type":"function","name":"raiseDispute","inputs":[{"name":"escrowId","type":"uint256","internalType":"uint256"}],"outputs":[],"stateMutability":"nonpayable"},{"type":"function","name":"releaseAfterEndDate","inputs":[{"name":"escrowId","type":"uint256","internalType":"uint256"}],"outputs":[],"stateMutability":"nonpayable"},{"type":"function","name":"renounceOwnership","inputs":[],"outputs":[],"stateMutability":"nonpayable"},{"type":"function","name":"resolveDispute","inputs":[{"name":"escrowId","type":"uint256","internalType":"uint256"},{"name":"releaseToLandlord","type":"bool","internalType":"bool"}],"outputs":[],"stateMutability":"nonpayable"},{"type":"function","name":"submitAppeal","inputs":[{"name":"escrowId","type":"uint256","internalType":"uint256"}],"outputs":[],"stateMutability":"nonpayable"},{"type":"function","name":"transferOwnership","inputs":[{"name":"newOwner","type":"address","internalType":"address"}],"outputs":[],"stateMutability":"nonpayable"},{"type":"event","name":"AppealFinalized","inputs":[{"name":"escrowId","type":"uint256","indexed":true,"internalType":"uint256"},{"name":"finalState","type":"uint8","indexed":false,"internalType":"enum UltraRentzEscrow.EscrowState"},{"name":"success","type":"bool","indexed":false,"internalType":"bool"}],"anonymous":false},{"type":"event","name":"AppealSubmitted","inputs":[{"name":"escrowId","type":"uint256","indexed":true,"internalType":"uint256"}],"anonymous":false},{"type":"event","name":"ApprovalSubmitted","inputs":[{"name":"escrowId","type":"uint256","indexed":true,"internalType":"uint256"},{"name":"signatory","type":"address","indexed":false,"internalType":"address"},{"name":"totalApprovals","type":"uint8","indexed":false,"internalType":"uint8"}],"anonymous":false},{"type":"event","name":"DisputeResolved","inputs":[{"name":"escrowId","type":"uint256","indexed":true,"internalType":"uint256"},{"name":"resolution","type":"uint8","indexed":false,"internalType":"enum UltraRentzEscrow.EscrowState"}],"anonymous":false},{"type":"event","name":"EscrowCreated","inputs":[{"name":"escrowId","type":"uint256","indexed":true,"internalType":"uint256"},{"name":"tenant","type":"address","indexed":true,"internalType":"address"},{"name":"landlord","type":"address","indexed":false,"internalType":"address"},{"name":"token","type":"address","indexed":false,"internalType":"address"}],"anonymous":false},{"type":"event","name":"EscrowDisputed","inputs":[{"name":"escrowId","type":"uint256","indexed":true,"internalType":"uint256"}],"anonymous":false},{"type":"event","name":"EscrowFunded","inputs":[{"name":"escrowId","type":"uint256","indexed":true,"internalType":"uint256"},{"name":"amount","type":"uint256","indexed":false,"internalType":"uint256"}],"anonymous":false},{"type":"event","name":"EscrowRefunded","inputs":[{"name":"escrowId","type":"uint256","indexed":true,"internalType":"uint256"},{"name":"tenant","type":"address","indexed":false,"internalType":"address"},{"name":"token","type":"address","indexed":false,"internalType":"address"}],"anonymous":false},{"type":"event","name":"EscrowReleased","inputs":[{"name":"escrowId","type":"uint256","indexed":true,"internalType":"uint256"},{"name":"landlord","type":"address","indexed":false,"internalType":"address"},{"name":"token","type":"address","indexed":false,"internalType":"address"}],"anonymous":false},{"type":"event","name":"Notification","inputs":[{"name":"message","type":"string","indexed":false,"internalType":"string"}],"anonymous":false},{"type":"event","name":"OwnershipTransferred","inputs":[{"name":"previousOwner","type":"address","indexed":true,"internalType":"address"},{"name":"newOwner","type":"address","indexed":true,"internalType":"address"}],"anonymous":false},{"type":"error","name":"OwnableInvalidOwner","inputs":[{"name":"owner","type":"address","internalType":"address"}]},{"type":"error","name":"OwnableUnauthorizedAccount","inputs":[{"name":"account","type":"address","internalType":"address"}]},{"type":"error","name":"ReentrancyGuardReentrantCall","inputs":[]}],"bytecode":{"object":"0x608060405234801561000f575f5ffd5b50604051613de6380380613de6833981810160405281019061003191906101de565b805f73ffffffffffffffffffffffffffffffffffffffff168173ffffffffffffffffffffffffffffffffffffffff16036100a2575f6040517f1e4fbdf70000000000000000000000000000000000000000000000000000000081526004016100999190610218565b60405180910390fd5b6100b1816100bf60201b60201c565b506001808190555050610231565b5f5f5f9054906101000a900473ffffffffffffffffffffffffffffffffffffffff169050815f5f6101000a81548173ffffffffffffffffffffffffffffffffffffffff021916908373ffffffffffffffffffffffffffffffffffffffff1602179055508173ffffffffffffffffffffffffffffffffffffffff168173ffffffffffffffffffffffffffffffffffffffff167f8be0079c531659141344cd1fd0a4f28419497f9722a3daafe3b4186f6b6457e060405160405180910390a35050565b5f5ffd5b5f73ffffffffffffffffffffffffffffffffffffffff82169050919050565b5f6101ad82610184565b9050919050565b6101bd816101a3565b81146101c7575f5ffd5b50565b5f815190506101d8816101b4565b92915050565b5f602082840312156101f3576101f2610180565b5b5f610200848285016101ca565b91505092915050565b610212816101a3565b82525050565b5f60208201905061022b5f830184610209565b92915050565b613ba88061023e5f395ff3fe608060405234801561000f575f5ffd5b506004361061011f575f3560e01c8063734c8544116100ab578063b996ec2a1161006f578063b996ec2a146102db578063c7ceafea14610314578063c9c31af514610332578063cfe8ad961461034e578063f2fde38b1461037e5761011f565b8063734c85441461024b5780638da5cb5b146102695780639db94ed714610287578063a5c1674e146102a3578063b43a405a146102bf5761011f565b806334b25ee2116100f257806334b25ee2146101a757806346a80b24146101c35780635c95c441146101f357806365f4c09814610211578063715018a6146102415761011f565b806310c685e01461012357806319dc88ae1461013f5780631bd2cea11461015b578063345460cd14610177575b5f5ffd5b61013d600480360381019061013891906129aa565b61039a565b005b610159600480360381019061015491906129aa565b6106f3565b005b610175600480360381019061017091906129aa565b61098b565b005b610191600480360381019061018c91906129aa565b610c9e565b60405161019e9190612a45565b60405180910390f35b6101c160048036038101906101bc9190612a9a565b6110c9565b005b6101dd60048036038101906101d89190612c60565b61128b565b6040516101ea9190612cf9565b60405180910390f35b6101fb611623565b6040516102089190612cf9565b60405180910390f35b61022b600480360381019061022691906129aa565b611628565b6040516102389190612db7565b60405180910390f35b6102496116bc565b005b6102536116cf565b6040516102609190612cf9565b60405180910390f35b6102716116d6565b60405161027e9190612ddf565b60405180910390f35b6102a1600480360381019061029c9190612a9a565b6116fd565b005b6102bd60048036038101906102b891906129aa565b61190a565b005b6102d960048036038101906102d491906129aa565b611ad4565b005b6102f560048036038101906102f091906129aa565b611d06565b60405161030b9a99989796959493929190612e86565b60405180910390f35b61031c611e73565b6040516103299190612cf9565b60405180910390f35b61034c600480360381019061034791906129aa565b611e79565b005b61036860048036038101906103639190612f21565b6120c8565b6040516103759190612f6e565b60405180910390f35b61039860048036038101906103939190612f87565b61212d565b005b805f5f5f90505b60068160ff16101561043f573373ffffffffffffffffffffffffffffffffffffffff1660035f8581526020019081526020015f206006018260ff16600681106103ed576103ec612fb2565b5b015f9054906101000a900473ffffffffffffffffffffffffffffffffffffffff1673ffffffffffffffffffffffffffffffffffffffff1603610432576001915061043f565b80806001019150506103a1565b5080610480576040517f08c379a000000000000000000000000000000000000000000000000000000000815260040161047790613029565b60405180910390fd5b6104886121b1565b5f60035f8581526020019081526020015f209050600160078111156104b0576104af612e13565b5b81600d0160019054906101000a900460ff1660078111156104d4576104d3612e13565b5b14610514576040517f08c379a000000000000000000000000000000000000000000000000000000000815260040161050b90613091565b60405180910390fd5b8060050154421161055a576040517f08c379a0000000000000000000000000000000000000000000000000000000008152600401610551906130f9565b60405180910390fd5b80600c015f3373ffffffffffffffffffffffffffffffffffffffff1673ffffffffffffffffffffffffffffffffffffffff1681526020019081526020015f205f9054906101000a900460ff16156105e6576040517f08c379a00000000000000000000000000000000000000000000000000000000081526004016105dd90613161565b60405180910390fd5b600181600c015f3373ffffffffffffffffffffffffffffffffffffffff1673ffffffffffffffffffffffffffffffffffffffff1681526020019081526020015f205f6101000a81548160ff02191690831515021790555080600d015f81819054906101000a900460ff168092919061065d906131ac565b91906101000a81548160ff021916908360ff16021790555050837f31fdc4d501a17fc8bb26e1ab1136058e5975bc80399612d9abbf0b42e760c8553383600d015f9054906101000a900460ff166040516106b89291906131d4565b60405180910390a2600481600d015f9054906101000a900460ff1660ff16106106e5576106e4846121f7565b5b506106ee6123d2565b505050565b8060035f8281526020019081526020015f205f015f9054906101000a900473ffffffffffffffffffffffffffffffffffffffff1673ffffffffffffffffffffffffffffffffffffffff163373ffffffffffffffffffffffffffffffffffffffff1614610794576040517f08c379a000000000000000000000000000000000000000000000000000000000815260040161078b90613245565b60405180910390fd5b5f60035f8481526020019081526020015f209050600660078111156107bc576107bb612e13565b5b81600d0160019054906101000a900460ff1660078111156107e0576107df612e13565b5b148061082057506007808111156107fa576107f9612e13565b5b81600d0160019054906101000a900460ff16600781111561081e5761081d612e13565b5b145b61085f576040517f08c379a0000000000000000000000000000000000000000000000000000000008152600401610856906132ad565b60405180910390fd5b600281600f015f9054906101000a900460ff1660ff16106108b5576040517f08c379a00000000000000000000000000000000000000000000000000000000081526004016108ac90613315565b60405180910390fd5b80600f015f81819054906101000a900460ff16809291906108d5906131ac565b91906101000a81548160ff021916908360ff160217905550504281600e0181905550600581600d0160016101000a81548160ff0219169083600781111561091f5761091e612e13565b5b0217905550827f9f99ae1c2ed3bebdabfddb8a9ded0b435ed0e72af5dd8b48c86af9e1825effa360405160405180910390a27f7d1ff22c1a82f0d8fc4f45d2aec63e679ecb08700b30f7e90ae3721d13b1f6bd60405161097e906133a3565b60405180910390a1505050565b805f5f5f90505b60068160ff161015610a30573373ffffffffffffffffffffffffffffffffffffffff1660035f8581526020019081526020015f206006018260ff16600681106109de576109dd612fb2565b5b015f9054906101000a900473ffffffffffffffffffffffffffffffffffffffff1673ffffffffffffffffffffffffffffffffffffffff1603610a235760019150610a30565b8080600101915050610992565b5080610a71576040517f08c379a0000000000000000000000000000000000000000000000000000000008152600401610a6890613029565b60405180910390fd5b610a796121b1565b5f60035f8581526020019081526020015f20905060016007811115610aa157610aa0612e13565b5b81600d0160019054906101000a900460ff166007811115610ac557610ac4612e13565b5b14610b05576040517f08c379a0000000000000000000000000000000000000000000000000000000008152600401610afc90613091565b60405180910390fd5b80600c015f3373ffffffffffffffffffffffffffffffffffffffff1673ffffffffffffffffffffffffffffffffffffffff1681526020019081526020015f205f9054906101000a900460ff1615610b91576040517f08c379a0000000000000000000000000000000000000000000000000000000008152600401610b8890613161565b60405180910390fd5b600181600c015f3373ffffffffffffffffffffffffffffffffffffffff1673ffffffffffffffffffffffffffffffffffffffff1681526020019081526020015f205f6101000a81548160ff02191690831515021790555080600d015f81819054906101000a900460ff1680929190610c08906131ac565b91906101000a81548160ff021916908360ff16021790555050837f31fdc4d501a17fc8bb26e1ab1136058e5975bc80399612d9abbf0b42e760c8553383600d015f9054906101000a900460ff16604051610c639291906131d4565b60405180910390a2600481600d015f9054906101000a900460ff1660ff1610610c9057610c8f846121f7565b5b50610c996123d2565b505050565b60605f60035f8481526020019081526020015f2090505f6007811115610cc757610cc6612e13565b5b81600d0160019054906101000a900460ff166007811115610ceb57610cea612e13565b5b03610d2e576040518060400160405280600781526020017f43726561746564000000000000000000000000000000000000000000000000008152509150506110c4565b60016007811115610d4257610d41612e13565b5b81600d0160019054906101000a900460ff166007811115610d6657610d65612e13565b5b03610da9576040518060400160405280600681526020017f46756e64656400000000000000000000000000000000000000000000000000008152509150506110c4565b60026007811115610dbd57610dbc612e13565b5b81600d0160019054906101000a900460ff166007811115610de157610de0612e13565b5b03610e24576040518060400160405280600a81526020017f496e2044697370757465000000000000000000000000000000000000000000008152509150506110c4565b60036007811115610e3857610e37612e13565b5b81600d0160019054906101000a900460ff166007811115610e5c57610e5b612e13565b5b03610e9f576040518060400160405280601481526020017f52656c656173656420746f204c616e646c6f72640000000000000000000000008152509150506110c4565b60046007811115610eb357610eb2612e13565b5b81600d0160019054906101000a900460ff166007811115610ed757610ed6612e13565b5b03610f1a576040518060400160405280601281526020017f526566756e64656420746f2054656e616e7400000000000000000000000000008152509150506110c4565b60056007811115610f2e57610f2d612e13565b5b81600d0160019054906101000a900460ff166007811115610f5257610f51612e13565b5b03610f95576040518060400160405280600e81526020017f50656e64696e672041707065616c0000000000000000000000000000000000008152509150506110c4565b60066007811115610fa957610fa8612e13565b5b81600d0160019054906101000a900460ff166007811115610fcd57610fcc612e13565b5b03611010576040518060400160405280601e81526020017f4465636973696f6e3a2052656c65617365202841707065616c61626c652900008152509150506110c4565b60078081111561102357611022612e13565b5b81600d0160019054906101000a900460ff16600781111561104757611046612e13565b5b0361108a576040518060400160405280601d81526020017f4465636973696f6e3a20526566756e64202841707065616c61626c65290000008152509150506110c4565b6040518060400160405280600781526020017f556e6b6e6f776e000000000000000000000000000000000000000000000000008152509150505b919050565b6110d16116d6565b73ffffffffffffffffffffffffffffffffffffffff163373ffffffffffffffffffffffffffffffffffffffff161461113e576040517f08c379a00000000000000000000000000000000000000000000000000000000081526004016111359061340b565b60405180910390fd5b6111466121b1565b5f60035f8481526020019081526020015f2090506002600781111561116e5761116d612e13565b5b81600d0160019054906101000a900460ff16600781111561119257611191612e13565b5b146111d2576040517f08c379a00000000000000000000000000000000000000000000000000000000081526004016111c990613473565b60405180910390fd5b62093a8081600e01546111e59190613491565b421115611227576040517f08c379a000000000000000000000000000000000000000000000000000000000815260040161121e9061350e565b60405180910390fd5b6112358383600660076123db565b827f2ffcfee146bc0d5ff304c6b65111a0d485af9456dc64eee7d66ebdcc90b223ea82600d0160019054906101000a900460ff16604051611276919061352c565b60405180910390a2506112876123d2565b5050565b5f5f73ffffffffffffffffffffffffffffffffffffffff168773ffffffffffffffffffffffffffffffffffffffff16036112fa576040517f08c379a00000000000000000000000000000000000000000000000000000000081526004016112f19061358f565b60405180910390fd5b5f73ffffffffffffffffffffffffffffffffffffffff168573ffffffffffffffffffffffffffffffffffffffff1603611368576040517f08c379a000000000000000000000000000000000000000000000000000000000815260040161135f906135f7565b60405180910390fd5b8383116113aa576040517f08c379a00000000000000000000000000000000000000000000000000000000081526004016113a19061365f565b60405180910390fd5b5f3388866040516020016113c0939291906136e2565b60405160208183030381529060405280519060200120905060045f8281526020019081526020015f205f9054906101000a900460ff1615611436576040517f08c379a000000000000000000000000000000000000000000000000000000000815260040161142d90613768565b60405180910390fd5b60025f815461144490613786565b91905081905591505f60035f8481526020019081526020015f20905033815f015f6101000a81548173ffffffffffffffffffffffffffffffffffffffff021916908373ffffffffffffffffffffffffffffffffffffffff16021790555088816001015f6101000a81548173ffffffffffffffffffffffffffffffffffffffff021916908373ffffffffffffffffffffffffffffffffffffffff16021790555087816002018190555086816003015f6101000a81548173ffffffffffffffffffffffffffffffffffffffff021916908373ffffffffffffffffffffffffffffffffffffffff16021790555085816004018190555084816005018190555083816006019060066115539291906128b1565b505f81600d0160016101000a81548160ff0219169083600781111561157b5761157a612e13565b5b0217905550600181600f0160016101000a81548160ff021916908315150217905550600160045f8481526020019081526020015f205f6101000a81548160ff0219169083151502179055503373ffffffffffffffffffffffffffffffffffffffff16837fccab83b228b9f11d0f002db0d115fe84ab0bacbe475d1c28666963a66c20c4368b8a60405161160f9291906137cd565b60405180910390a350509695505050505050565b600281565b61163061292d565b60035f8381526020019081526020015f206006016006806020026040519081016040528092919082600680156116b0576020028201915b815f9054906101000a900473ffffffffffffffffffffffffffffffffffffffff1673ffffffffffffffffffffffffffffffffffffffff1681526020019060010190808311611667575b50505050509050919050565b6116c461245a565b6116cd5f6124e1565b565b62093a8081565b5f5f5f9054906101000a900473ffffffffffffffffffffffffffffffffffffffff16905090565b6117056116d6565b73ffffffffffffffffffffffffffffffffffffffff163373ffffffffffffffffffffffffffffffffffffffff1614611772576040517f08c379a00000000000000000000000000000000000000000000000000000000081526004016117699061340b565b60405180910390fd5b61177a6121b1565b5f60035f8481526020019081526020015f209050600560078111156117a2576117a1612e13565b5b81600d0160019054906101000a900460ff1660078111156117c6576117c5612e13565b5b14611806576040517f08c379a00000000000000000000000000000000000000000000000000000000081526004016117fd9061383e565b60405180910390fd5b62093a8081600e01546118199190613491565b42111561185b576040517f08c379a00000000000000000000000000000000000000000000000000000000081526004016118529061350e565b60405180910390fd5b6118698383600660076123db565b827f34572d32f3bb0eff148ee17d0122170a41891d6a37564b756027d0cc5eb6123d82600d0160019054906101000a900460ff16846040516118ac92919061385c565b60405180910390a2827f2ffcfee146bc0d5ff304c6b65111a0d485af9456dc64eee7d66ebdcc90b223ea82600d0160019054906101000a900460ff166040516118f5919061352c565b60405180910390a2506119066123d2565b5050565b8060035f8281526020019081526020015f205f015f9054906101000a900473ffffffffffffffffffffffffffffffffffffffff1673ffffffffffffffffffffffffffffffffffffffff163373ffffffffffffffffffffffffffffffffffffffff16146119ab576040517f08c379a00000000000000000000000000000000000000000000000000000000081526004016119a290613245565b60405180910390fd5b5f60035f8481526020019081526020015f209050600160078111156119d3576119d2612e13565b5b81600d0160019054906101000a900460ff1660078111156119f7576119f6612e13565b5b14611a37576040517f08c379a0000000000000000000000000000000000000000000000000000000008152600401611a2e906138cd565b60405180910390fd5b600281600d0160016101000a81548160ff02191690836007811115611a5f57611a5e612e13565b5b02179055504281600e0181905550827f7ce7831fed9a800b1aa5e7ca21034bf7b95efc31a196459012cf8b8eb42b7dac60405160405180910390a27f7d1ff22c1a82f0d8fc4f45d2aec63e679ecb08700b30f7e90ae3721d13b1f6bd604051611ac79061395b565b60405180910390a1505050565b611adc6116d6565b73ffffffffffffffffffffffffffffffffffffffff163373ffffffffffffffffffffffffffffffffffffffff1614611b49576040517f08c379a0000000000000000000000000000000000000000000000000000000008152600401611b409061340b565b60405180910390fd5b611b516121b1565b5f60035f8381526020019081526020015f2090505f60066007811115611b7a57611b79612e13565b5b82600d0160019054906101000a900460ff166007811115611b9e57611b9d612e13565b5b1480611bde5750600780811115611bb857611bb7612e13565b5b82600d0160019054906101000a900460ff166007811115611bdc57611bdb612e13565b5b145b905080611c20576040517f08c379a0000000000000000000000000000000000000000000000000000000008152600401611c17906139e9565b60405180910390fd5b5f62093a8083600e0154611c349190613491565b421190505f600284600f015f9054906101000a900460ff1660ff16101590508180611c5c5750805b611c9b576040517f08c379a0000000000000000000000000000000000000000000000000000000008152600401611c9290613a51565b60405180910390fd5b60066007811115611caf57611cae612e13565b5b84600d0160019054906101000a900460ff166007811115611cd357611cd2612e13565b5b03611cea57611ce585600160036125a2565b611cf7565b611cf6855f60046125a2565b5b50505050611d036123d2565b50565b5f5f5f5f5f5f611d1461292d565b5f5f5f5f60035f8d81526020019081526020015f209050805f015f9054906101000a900473ffffffffffffffffffffffffffffffffffffffff16816001015f9054906101000a900473ffffffffffffffffffffffffffffffffffffffff168260020154836003015f9054906101000a900473ffffffffffffffffffffffffffffffffffffffff16846004015485600501548660060187600d015f9054906101000a900460ff1688600d0160019054906101000a900460ff1689600f015f9054906101000a900460ff1683600680602002604051908101604052809291908260068015611e4a576020028201915b815f9054906101000a900473ffffffffffffffffffffffffffffffffffffffff1673ffffffffffffffffffffffffffffffffffffffff1681526020019060010190808311611e01575b505050505093509a509a509a509a509a509a509a509a509a509a50509193959799509193959799565b60025481565b8060035f8281526020019081526020015f205f015f9054906101000a900473ffffffffffffffffffffffffffffffffffffffff1673ffffffffffffffffffffffffffffffffffffffff163373ffffffffffffffffffffffffffffffffffffffff1614611f1a576040517f08c379a0000000000000000000000000000000000000000000000000000000008152600401611f1190613245565b60405180910390fd5b611f226121b1565b5f60035f8481526020019081526020015f2090505f6007811115611f4957611f48612e13565b5b81600d0160019054906101000a900460ff166007811115611f6d57611f6c612e13565b5b14611fad576040517f08c379a0000000000000000000000000000000000000000000000000000000008152600401611fa490613ab9565b60405180910390fd5b806003015f9054906101000a900473ffffffffffffffffffffffffffffffffffffffff1673ffffffffffffffffffffffffffffffffffffffff166323b872dd333084600201546040518463ffffffff1660e01b815260040161201193929190613ad7565b6020604051808303815f875af115801561202d573d5f5f3e3d5ffd5b505050506040513d601f19601f820116820180604052508101906120519190613b20565b50600181600d0160016101000a81548160ff0219169083600781111561207a57612079612e13565b5b0217905550827f911052e1be46242b46bf3c2762227ff37c000e5fe38727638096f3a17fbfe17082600201546040516120b39190612cf9565b60405180910390a2506120c46123d2565b5050565b5f60035f8481526020019081526020015f20600c015f8373ffffffffffffffffffffffffffffffffffffffff1673ffffffffffffffffffffffffffffffffffffffff1681526020019081526020015f205f9054906101000a900460ff16905092915050565b61213561245a565b5f73ffffffffffffffffffffffffffffffffffffffff168173ffffffffffffffffffffffffffffffffffffffff16036121a5575f6040517f1e4fbdf700000000000000000000000000000000000000000000000000000000815260040161219c9190612ddf565b60405180910390fd5b6121ae816124e1565b50565b6002600154036121ed576040517f3ee5aeb500000000000000000000000000000000000000000000000000000000815260040160405180910390fd5b6002600181905550565b5f60035f8381526020019081526020015f2090506001600781111561221f5761221e612e13565b5b81600d0160019054906101000a900460ff16600781111561224357612242612e13565b5b14612283576040517f08c379a000000000000000000000000000000000000000000000000000000000815260040161227a90613ab9565b60405180910390fd5b5f5f90505b60068160ff161015612387575f826006018260ff16600681106122ae576122ad612fb2565b5b015f9054906101000a900473ffffffffffffffffffffffffffffffffffffffff16905082600c015f8273ffffffffffffffffffffffffffffffffffffffff1673ffffffffffffffffffffffffffffffffffffffff1681526020019081526020015f205f9054906101000a900460ff1615612379575f83600c015f8373ffffffffffffffffffffffffffffffffffffffff1673ffffffffffffffffffffffffffffffffffffffff1681526020019081526020015f205f6101000a81548160ff0219169083151502179055505b508080600101915050612288565b5061239582600160036125a2565b817f2ffcfee146bc0d5ff304c6b65111a0d485af9456dc64eee7d66ebdcc90b223ea60036040516123c6919061352c565b60405180910390a25050565b60018081905550565b5f60035f8681526020019081526020015f2090508315612426578281600d0160016101000a81548160ff0219169083600781111561241c5761241b612e13565b5b0217905550612453565b8181600d0160016101000a81548160ff0219169083600781111561244d5761244c612e13565b5b02179055505b5050505050565b6124626128aa565b73ffffffffffffffffffffffffffffffffffffffff166124806116d6565b73ffffffffffffffffffffffffffffffffffffffff16146124df576124a36128aa565b6040517f118cdaa70000000000000000000000000000000000000000000000000000000081526004016124d69190612ddf565b60405180910390fd5b565b5f5f5f9054906101000a900473ffffffffffffffffffffffffffffffffffffffff169050815f5f6101000a81548173ffffffffffffffffffffffffffffffffffffffff021916908373ffffffffffffffffffffffffffffffffffffffff1602179055508173ffffffffffffffffffffffffffffffffffffffff168173ffffffffffffffffffffffffffffffffffffffff167f8be0079c531659141344cd1fd0a4f28419497f9722a3daafe3b4186f6b6457e060405160405180910390a35050565b5f60035f8581526020019081526020015f2090508215612733578181600d0160016101000a81548160ff021916908360078111156125e3576125e2612e13565b5b0217905550806003015f9054906101000a900473ffffffffffffffffffffffffffffffffffffffff1673ffffffffffffffffffffffffffffffffffffffff1663a9059cbb826001015f9054906101000a900473ffffffffffffffffffffffffffffffffffffffff1683600201546040518363ffffffff1660e01b815260040161266d929190613b4b565b6020604051808303815f875af1158015612689573d5f5f3e3d5ffd5b505050506040513d601f19601f820116820180604052508101906126ad9190613b20565b50837ffd7f9968b90c2f39997b08b69b3c78d40df681dec28b3eec202eff456c3ad2cb826001015f9054906101000a900473ffffffffffffffffffffffffffffffffffffffff16836003015f9054906101000a900473ffffffffffffffffffffffffffffffffffffffff166040516127269291906137cd565b60405180910390a26128a4565b8181600d0160016101000a81548160ff0219169083600781111561275a57612759612e13565b5b0217905550806003015f9054906101000a900473ffffffffffffffffffffffffffffffffffffffff1673ffffffffffffffffffffffffffffffffffffffff1663a9059cbb825f015f9054906101000a900473ffffffffffffffffffffffffffffffffffffffff1683600201546040518363ffffffff1660e01b81526004016127e3929190613b4b565b6020604051808303815f875af11580156127ff573d5f5f3e3d5ffd5b505050506040513d601f19601f820116820180604052508101906128239190613b20565b50837fcd0cf80e47d7155dd99224c3b23942de0ceca1a277e5e49a471ffb9a45ac1542825f015f9054906101000a900473ffffffffffffffffffffffffffffffffffffffff16836003015f9054906101000a900473ffffffffffffffffffffffffffffffffffffffff1660405161289b9291906137cd565b60405180910390a25b50505050565b5f33905090565b826006810192821561291c579160200282015b8281111561291b578251825f6101000a81548173ffffffffffffffffffffffffffffffffffffffff021916908373ffffffffffffffffffffffffffffffffffffffff160217905550916020019190600101906128c4565b5b509050612929919061294f565b5090565b6040518060c00160405280600690602082028036833780820191505090505090565b5b80821115612966575f815f905550600101612950565b5090565b5f604051905090565b5f5ffd5b5f819050919050565b61298981612977565b8114612993575f5ffd5b50565b5f813590506129a481612980565b92915050565b5f602082840312156129bf576129be612973565b5b5f6129cc84828501612996565b91505092915050565b5f81519050919050565b5f82825260208201905092915050565b8281835e5f83830152505050565b5f601f19601f8301169050919050565b5f612a17826129d5565b612a2181856129df565b9350612a318185602086016129ef565b612a3a816129fd565b840191505092915050565b5f6020820190508181035f830152612a5d8184612a0d565b905092915050565b5f8115159050919050565b612a7981612a65565b8114612a83575f5ffd5b50565b5f81359050612a9481612a70565b92915050565b5f5f60408385031215612ab057612aaf612973565b5b5f612abd85828601612996565b9250506020612ace85828601612a86565b9150509250929050565b5f73ffffffffffffffffffffffffffffffffffffffff82169050919050565b5f612b0182612ad8565b9050919050565b612b1181612af7565b8114612b1b575f5ffd5b50565b5f81359050612b2c81612b08565b92915050565b5f5ffd5b7f4e487b71000000000000000000000000000000000000000000000000000000005f52604160045260245ffd5b612b6c826129fd565b810181811067ffffffffffffffff82111715612b8b57612b8a612b36565b5b80604052505050565b5f612b9d61296a565b9050612ba98282612b63565b919050565b5f67ffffffffffffffff821115612bc857612bc7612b36565b5b602082029050919050565b5f5ffd5b5f612be9612be484612bae565b612b94565b90508060208402830185811115612c0357612c02612bd3565b5b835b81811015612c2c5780612c188882612b1e565b845260208401935050602081019050612c05565b5050509392505050565b5f82601f830112612c4a57612c49612b32565b5b6006612c57848285612bd7565b91505092915050565b5f5f5f5f5f5f6101608789031215612c7b57612c7a612973565b5b5f612c8889828a01612b1e565b9650506020612c9989828a01612996565b9550506040612caa89828a01612b1e565b9450506060612cbb89828a01612996565b9350506080612ccc89828a01612996565b92505060a0612cdd89828a01612c36565b9150509295509295509295565b612cf381612977565b82525050565b5f602082019050612d0c5f830184612cea565b92915050565b5f60069050919050565b5f81905092915050565b5f819050919050565b612d3881612af7565b82525050565b5f612d498383612d2f565b60208301905092915050565b5f602082019050919050565b612d6a81612d12565b612d748184612d1c565b9250612d7f82612d26565b805f5b83811015612daf578151612d968782612d3e565b9650612da183612d55565b925050600181019050612d82565b505050505050565b5f60c082019050612dca5f830184612d61565b92915050565b612dd981612af7565b82525050565b5f602082019050612df25f830184612dd0565b92915050565b5f60ff82169050919050565b612e0d81612df8565b82525050565b7f4e487b71000000000000000000000000000000000000000000000000000000005f52602160045260245ffd5b60088110612e5157612e50612e13565b5b50565b5f819050612e6182612e40565b919050565b5f612e7082612e54565b9050919050565b612e8081612e66565b82525050565b5f6101e082019050612e9a5f83018d612dd0565b612ea7602083018c612dd0565b612eb4604083018b612cea565b612ec1606083018a612dd0565b612ece6080830189612cea565b612edb60a0830188612cea565b612ee860c0830187612d61565b612ef6610180830186612e04565b612f046101a0830185612e77565b612f126101c0830184612e04565b9b9a5050505050505050505050565b5f5f60408385031215612f3757612f36612973565b5b5f612f4485828601612996565b9250506020612f5585828601612b1e565b9150509250929050565b612f6881612a65565b82525050565b5f602082019050612f815f830184612f5f565b92915050565b5f60208284031215612f9c57612f9b612973565b5b5f612fa984828501612b1e565b91505092915050565b7f4e487b71000000000000000000000000000000000000000000000000000000005f52603260045260245ffd5b7f4e6f742061207369676e61746f727900000000000000000000000000000000005f82015250565b5f613013600f836129df565b915061301e82612fdf565b602082019050919050565b5f6020820190508181035f83015261304081613007565b9050919050565b7f496e76616c6964207374617465000000000000000000000000000000000000005f82015250565b5f61307b600d836129df565b915061308682613047565b602082019050919050565b5f6020820190508181035f8301526130a88161306f565b9050919050565b7f54656e616e6379206e6f7420656e6465640000000000000000000000000000005f82015250565b5f6130e36011836129df565b91506130ee826130af565b602082019050919050565b5f6020820190508181035f830152613110816130d7565b9050919050565b7f416c726561647920617070726f766564000000000000000000000000000000005f82015250565b5f61314b6010836129df565b915061315682613117565b602082019050919050565b5f6020820190508181035f8301526131788161313f565b9050919050565b7f4e487b71000000000000000000000000000000000000000000000000000000005f52601160045260245ffd5b5f6131b682612df8565b915060ff82036131c9576131c861317f565b5b600182019050919050565b5f6040820190506131e75f830185612dd0565b6131f46020830184612e04565b9392505050565b7f4e6f742074656e616e74000000000000000000000000000000000000000000005f82015250565b5f61322f600a836129df565b915061323a826131fb565b602082019050919050565b5f6020820190508181035f83015261325c81613223565b9050919050565b7f43616e6e6f742061707065616c2066726f6d2063757272656e742073746174655f82015250565b5f6132976020836129df565b91506132a282613263565b602082019050919050565b5f6020820190508181035f8301526132c48161328b565b9050919050565b7f4d6178696d756d2061707065616c7320726561636865642028322900000000005f82015250565b5f6132ff601b836129df565b915061330a826132cb565b602082019050919050565b5f6020820190508181035f83015261332c816132f3565b9050919050565b7f41707065616c207375626d69747465642e2044414f2064656c696265726174695f8201527f6f6e2070656e64696e672e000000000000000000000000000000000000000000602082015250565b5f61338d602b836129df565b915061339882613333565b604082019050919050565b5f6020820190508181035f8301526133ba81613381565b9050919050565b7f4e6f74207468652044414f2f41646d696e2061646472657373000000000000005f82015250565b5f6133f56019836129df565b9150613400826133c1565b602082019050919050565b5f6020820190508181035f830152613422816133e9565b9050919050565b7f4e6f7420696e20646973707574650000000000000000000000000000000000005f82015250565b5f61345d600e836129df565b915061346882613429565b602082019050919050565b5f6020820190508181035f83015261348a81613451565b9050919050565b5f61349b82612977565b91506134a683612977565b92508282019050808211156134be576134bd61317f565b5b92915050565b7f5265736f6c7574696f6e2074696d6520657870697265640000000000000000005f82015250565b5f6134f86017836129df565b9150613503826134c4565b602082019050919050565b5f6020820190508181035f830152613525816134ec565b9050919050565b5f60208201905061353f5f830184612e77565b92915050565b7f496e76616c6964206c616e646c6f7264000000000000000000000000000000005f82015250565b5f6135796010836129df565b915061358482613545565b602082019050919050565b5f6020820190508181035f8301526135a68161356d565b9050919050565b7f496e76616c696420746f6b656e000000000000000000000000000000000000005f82015250565b5f6135e1600d836129df565b91506135ec826135ad565b602082019050919050565b5f6020820190508181035f83015261360e816135d5565b9050919050565b7f496e76616c6964206461746573000000000000000000000000000000000000005f82015250565b5f613649600d836129df565b915061365482613615565b602082019050919050565b5f6020820190508181035f8301526136768161363d565b9050919050565b5f8160601b9050919050565b5f6136938261367d565b9050919050565b5f6136a482613689565b9050919050565b6136bc6136b782612af7565b61369a565b82525050565b5f819050919050565b6136dc6136d782612977565b6136c2565b82525050565b5f6136ed82866136ab565b6014820191506136fd82856136ab565b60148201915061370d82846136cb565b602082019150819050949350505050565b7f4475706c696361746520657363726f77000000000000000000000000000000005f82015250565b5f6137526010836129df565b915061375d8261371e565b602082019050919050565b5f6020820190508181035f83015261377f81613746565b9050919050565b5f61379082612977565b91507fffffffffffffffffffffffffffffffffffffffffffffffffffffffffffffffff82036137c2576137c161317f565b5b600182019050919050565b5f6040820190506137e05f830185612dd0565b6137ed6020830184612dd0565b9392505050565b7f4e6f2070656e64696e672061707065616c0000000000000000000000000000005f82015250565b5f6138286011836129df565b9150613833826137f4565b602082019050919050565b5f6020820190508181035f8301526138558161381c565b9050919050565b5f60408201905061386f5f830185612e77565b61387c6020830184612f5f565b9392505050565b7f43616e6e6f7420646973707574650000000000000000000000000000000000005f82015250565b5f6138b7600e836129df565b91506138c282613883565b602082019050919050565b5f6020820190508181035f8301526138e4816138ab565b9050919050565b7f44697370757465207261697365642e2044414f2077696c6c20726576696577205f8201527f77697468696e203720646179732e000000000000000000000000000000000000602082015250565b5f613945602e836129df565b9150613950826138eb565b604082019050919050565b5f6020820190508181035f83015261397281613939565b9050919050565b7f457363726f77206e6f7420726561647920666f722066696e616c697a6174696f5f8201527f6e20286e6f206465636973696f6e206d61646529000000000000000000000000602082015250565b5f6139d36034836129df565b91506139de82613979565b604082019050919050565b5f6020820190508181035f830152613a00816139c7565b9050919050565b7f41707065616c2077696e646f77206973207374696c6c206163746976650000005f82015250565b5f613a3b601d836129df565b9150613a4682613a07565b602082019050919050565b5f6020820190508181035f830152613a6881613a2f565b9050919050565b7f4e6f742066756e6461626c6500000000000000000000000000000000000000005f82015250565b5f613aa3600c836129df565b9150613aae82613a6f565b602082019050919050565b5f6020820190508181035f830152613ad081613a97565b9050919050565b5f606082019050613aea5f830186612dd0565b613af76020830185612dd0565b613b046040830184612cea565b949350505050565b5f81519050613b1a81612a70565b92915050565b5f60208284031215613b3557613b34612973565b5b5f613b4284828501613b0c565b91505092915050565b5f604082019050613b5e5f830185612dd0565b613b6b6020830184612cea565b939250505056fea26469706673582212205b1634b3fd563d9068c5a56b849a93accb7522b847ebe543fb7eb9b189cf6c4e64736f6c634300081c0033","linkReferences":{}},"methodIdentifiers":{"MAX_APPEALS()":"5c95c441","RESOLUTION_WINDOW()":"734c8544","approveRelease(uint256)":"1bd2cea1","createEscrow(address,uint256,address,uint256,uint256,address[6])":"46a80b24","escrowCounter()":"c7ceafea","finalizeAppealDecision(uint256,bool)":"9db94ed7","finalizeEscrow(uint256)":"b43a405a","fundEscrow(uint256)":"c9c31af5","getEscrowDetails(uint256)":"b996ec2a","getEscrowStatus(uint256)":"345460cd","getSignatories(uint256)":"65f4c098","hasSignatoryApproved(uint256,address)":"cfe8ad96","owner()":"8da5cb5b","raiseDispute(uint256)":"a5c1674e","releaseAfterEndDate(uint256)":"10c685e0","renounceOwnership()":"715018a6","resolveDispute(uint256,bool)":"34b25ee2","submitAppeal(uint256)":"19dc88ae","transferOwnership(address)":"f2fde38b"},"id":29}