{"abi":[{"type":"constructor","inputs":[{"name":"initialOwner","type":"address","internalType":"address"}],"stateMutability":"nonpayable"},{"type":"function","name":"MAX_APPEALS","inputs":[],"outputs":[{"name":"","type":"uint256","internalType":"uint256"}],"stateMutability":"view"},{"type":"function","name":"RESOLUTION_WINDOW","inputs":[],"outputs":[{"name":"","type":"uint256","internalType":"uint256"}],"stateMutability":"view"},{"type":"function","name":"approveRelease","inputs":[{"name":"escrowId","type":"uint256","internalType":"uint256"}],"outputs":[],"stateMutability":"nonpayable"},{"type":"function","name":"createEscrow","inputs":[{"name":"landlord","type":"address","internalType":"address"},{"name":"amount","type":"uint256","internalType":"uint256"},{"name":"token","type":"address","internalType":"address"},{"name":"startDate","type":"uint256","internalType":"uint256"},{"name":"endDate","type":"uint256","internalType":"uint256"},{"name":"signatories","type":"address[6]","internalType":"address[6]"}],"outputs":[{"name":"id","type":"uint256","internalType":"uint256"}],"stateMutability":"nonpayable"},{"type":"function","name":"escrowCounter","inputs":[],"outputs":[{"name":"","type":"uint256","internalType":"uint256"}],"stateMutability":"view"},{"type":"function","name":"finalizeAppealDecision","inputs":[{"name":"escrowId","type":"uint256","internalType":"uint256"},{"name":"releaseToLandlord","type":"bool","internalType":"bool"}],"outputs":[],"stateMutability":"nonpayable"},{"type":"function","name":"finalizeEscrow","inputs":[{"name":"escrowId","type":"uint256","internalType":"uint256"}],"outputs":[],"stateMutability":"nonpayable"},{"type":"function","name":"fundEscrow","inputs":[{"name":"escrowId","type":"uint256","internalType":"uint256"}],"outputs":[],"stateMutability":"nonpayable"},{"type":"function","name":"getAverageRating","inputs":[{"name":"user","type":"address","internalType":"address"}],"outputs":[{"name":"","type":"uint256","internalType":"uint256"}],"stateMutability":"view"},{"type":"function","name":"getEscrowDetails","inputs":[{"name":"escrowId","type":"uint256","internalType":"uint256"}],"outputs":[{"name":"tenant","type":"address","internalType":"address"},{"name":"landlord","type":"address","internalType":"address"},{"name":"amount","type":"uint256","internalType":"uint256"},{"name":"token","type":"address","internalType":"address"},{"name":"startDate","type":"uint256","internalType":"uint256"},{"name":"endDate","type":"uint256","internalType":"uint256"},{"name":"signatories","type":"address[6]","internalType":"address[6]"},{"name":"approvals","type":"uint8","internalType":"uint8"},{"name":"state","type":"uint8","internalType":"enum UltraRentzEscrow.EscrowState"},{"name":"appealCount","type":"uint8","internalType":"uint8"}],"stateMutability":"view"},{"type":"function","name":"getEscrowStatus","inputs":[{"name":"escrowId","type":"uint256","internalType":"uint256"}],"outputs":[{"name":"","type":"string","internalType":"string"}],"stateMutability":"view"},{"type":"function","name":"getSignatories","inputs":[{"name":"escrowId","type":"uint256","internalType":"uint256"}],"outputs":[{"name":"","type":"address[6]","internalType":"address[6]"}],"stateMutability":"view"},{"type":"function","name":"hasRated","inputs":[{"name":"","type":"address","internalType":"address"},{"name":"","type":"uint256","internalType":"uint256"}],"outputs":[{"name":"","type":"bool","internalType":"bool"}],"stateMutability":"view"},{"type":"function","name":"hasSignatoryApproved","inputs":[{"name":"escrowId","type":"uint256","internalType":"uint256"},{"name":"signatory","type":"address","internalType":"address"}],"outputs":[{"name":"","type":"bool","internalType":"bool"}],"stateMutability":"view"},{"type":"function","name":"owner","inputs":[],"outputs":[{"name":"","type":"address","internalType":"address"}],"stateMutability":"view"},{"type":"function","name":"raiseDispute","inputs":[{"name":"escrowId","type":"uint256","internalType":"uint256"}],"outputs":[],"stateMutability":"nonpayable"},{"type":"function","name":"rateCounterparty","inputs":[{"name":"escrowId","type":"uint256","internalType":"uint256"},{"name":"rating","type":"uint8","internalType":"uint8"}],"outputs":[],"stateMutability":"nonpayable"},{"type":"function","name":"ratingsSum","inputs":[{"name":"","type":"address","internalType":"address"}],"outputs":[{"name":"","type":"uint256","internalType":"uint256"}],"stateMutability":"view"},{"type":"function","name":"releaseAfterEndDate","inputs":[{"name":"escrowId","type":"uint256","internalType":"uint256"}],"outputs":[],"stateMutability":"nonpayable"},{"type":"function","name":"renounceOwnership","inputs":[],"outputs":[],"stateMutability":"nonpayable"},{"type":"function","name":"resolveDispute","inputs":[{"name":"escrowId","type":"uint256","internalType":"uint256"},{"name":"releaseToLandlord","type":"bool","internalType":"bool"}],"outputs":[],"stateMutability":"nonpayable"},{"type":"function","name":"submitAppeal","inputs":[{"name":"escrowId","type":"uint256","internalType":"uint256"}],"outputs":[],"stateMutability":"nonpayable"},{"type":"function","name":"totalRatingsReceived","inputs":[{"name":"","type":"address","internalType":"address"}],"outputs":[{"name":"","type":"uint256","internalType":"uint256"}],"stateMutability":"view"},{"type":"function","name":"transferOwnership","inputs":[{"name":"newOwner","type":"address","internalType":"address"}],"outputs":[],"stateMutability":"nonpayable"},{"type":"event","name":"AppealFinalized","inputs":[{"name":"escrowId","type":"uint256","indexed":true,"internalType":"uint256"},{"name":"finalState","type":"uint8","indexed":false,"internalType":"enum UltraRentzEscrow.EscrowState"},{"name":"success","type":"bool","indexed":false,"internalType":"bool"}],"anonymous":false},{"type":"event","name":"AppealSubmitted","inputs":[{"name":"escrowId","type":"uint256","indexed":true,"internalType":"uint256"}],"anonymous":false},{"type":"event","name":"ApprovalSubmitted","inputs":[{"name":"escrowId","type":"uint256","indexed":true,"internalType":"uint256"},{"name":"signatory","type":"address","indexed":false,"internalType":"address"},{"name":"totalApprovals","type":"uint8","indexed":false,"internalType":"uint8"}],"anonymous":false},{"type":"event","name":"DisputeResolved","inputs":[{"name":"escrowId","type":"uint256","indexed":true,"internalType":"uint256"},{"name":"resolution","type":"uint8","indexed":false,"internalType":"enum UltraRentzEscrow.EscrowState"}],"anonymous":false},{"type":"event","name":"EscrowCreated","inputs":[{"name":"escrowId","type":"uint256","indexed":true,"internalType":"uint256"},{"name":"tenant","type":"address","indexed":true,"internalType":"address"},{"name":"landlord","type":"address","indexed":false,"internalType":"address"},{"name":"token","type":"address","indexed":false,"internalType":"address"}],"anonymous":false},{"type":"event","name":"EscrowDisputed","inputs":[{"name":"escrowId","type":"uint256","indexed":true,"internalType":"uint256"}],"anonymous":false},{"type":"event","name":"EscrowFunded","inputs":[{"name":"escrowId","type":"uint256","indexed":true,"internalType":"uint256"},{"name":"amount","type":"uint256","indexed":false,"internalType":"uint256"}],"anonymous":false},{"type":"event","name":"EscrowRefunded","inputs":[{"name":"escrowId","type":"uint256","indexed":true,"internalType":"uint256"},{"name":"tenant","type":"address","indexed":false,"internalType":"address"},{"name":"token","type":"address","indexed":false,"internalType":"address"}],"anonymous":false},{"type":"event","name":"EscrowReleased","inputs":[{"name":"escrowId","type":"uint256","indexed":true,"internalType":"uint256"},{"name":"landlord","type":"address","indexed":false,"internalType":"address"},{"name":"token","type":"address","indexed":false,"internalType":"address"}],"anonymous":false},{"type":"event","name":"Notification","inputs":[{"name":"message","type":"string","indexed":false,"internalType":"string"}],"anonymous":false},{"type":"event","name":"OwnershipTransferred","inputs":[{"name":"previousOwner","type":"address","indexed":true,"internalType":"address"},{"name":"newOwner","type":"address","indexed":true,"internalType":"address"}],"anonymous":false},{"type":"event","name":"UserRated","inputs":[{"name":"rater","type":"address","indexed":true,"internalType":"address"},{"name":"ratee","type":"address","indexed":true,"internalType":"address"},{"name":"escrowId","type":"uint256","indexed":false,"internalType":"uint256"},{"name":"rating","type":"uint8","indexed":false,"internalType":"uint8"}],"anonymous":false},{"type":"error","name":"OwnableInvalidOwner","inputs":[{"name":"owner","type":"address","internalType":"address"}]},{"type":"error","name":"OwnableUnauthorizedAccount","inputs":[{"name":"account","type":"address","internalType":"address"}]},{"type":"error","name":"ReentrancyGuardReentrantCall","inputs":[]}],"bytecode":{"object":"0x608060405234801561000f575f5ffd5b50604051614736380380614736833981810160405281019061003191906101de565b805f73ffffffffffffffffffffffffffffffffffffffff168173ffffffffffffffffffffffffffffffffffffffff16036100a2575f6040517f1e4fbdf70000000000000000000000000000000000000000000000000000000081526004016100999190610218565b60405180910390fd5b6100b1816100bf60201b60201c565b506001808190555050610231565b5f5f5f9054906101000a900473ffffffffffffffffffffffffffffffffffffffff169050815f5f6101000a81548173ffffffffffffffffffffffffffffffffffffffff021916908373ffffffffffffffffffffffffffffffffffffffff1602179055508173ffffffffffffffffffffffffffffffffffffffff168173ffffffffffffffffffffffffffffffffffffffff167f8be0079c531659141344cd1fd0a4f28419497f9722a3daafe3b4186f6b6457e060405160405180910390a35050565b5f5ffd5b5f73ffffffffffffffffffffffffffffffffffffffff82169050919050565b5f6101ad82610184565b9050919050565b6101bd816101a3565b81146101c7575f5ffd5b50565b5f815190506101d8816101b4565b92915050565b5f602082840312156101f3576101f2610180565b5b5f610200848285016101ca565b91505092915050565b610212816101a3565b82525050565b5f60208201905061022b5f830184610209565b92915050565b6144f88061023e5f395ff3fe608060405234801561000f575f5ffd5b5060043610610156575f3560e01c80638da5cb5b116100c1578063c8b675221161007a578063c8b67522146103c9578063c9c31af5146103f9578063cfe8ad9614610415578063d22359dc14610445578063d25468b314610461578063f2fde38b1461049157610156565b80638da5cb5b146103005780639db94ed71461031e578063a5c1674e1461033a578063b43a405a14610356578063b996ec2a14610372578063c7ceafea146103ab57610156565b806334b25ee21161011357806334b25ee21461023e57806346a80b241461025a5780635c95c4411461028a57806365f4c098146102a8578063715018a6146102d8578063734c8544146102e257610156565b806310c685e01461015a57806319dc88ae146101765780631bd2cea11461019257806331276401146101ae57806333b3ceb4146101de578063345460cd1461020e575b5f5ffd5b610174600480360381019061016f9190612fc8565b6104ad565b005b610190600480360381019061018b9190612fc8565b610806565b005b6101ac60048036038101906101a79190612fc8565b610a9e565b005b6101c860048036038101906101c3919061304d565b610db1565b6040516101d59190613087565b60405180910390f35b6101f860048036038101906101f3919061304d565b610dc6565b6040516102059190613087565b60405180910390f35b61022860048036038101906102239190612fc8565b610ddb565b6040516102359190613110565b60405180910390f35b61025860048036038101906102539190613165565b611206565b005b610274600480360381019061026f91906132d1565b6113c8565b6040516102819190613087565b60405180910390f35b610292611760565b60405161029f9190613087565b60405180910390f35b6102c260048036038101906102bd9190612fc8565b611765565b6040516102cf9190613400565b60405180910390f35b6102e06117f9565b005b6102ea61180c565b6040516102f79190613087565b60405180910390f35b610308611813565b6040516103159190613428565b60405180910390f35b61033860048036038101906103339190613165565b61183a565b005b610354600480360381019061034f9190612fc8565b611a47565b005b610370600480360381019061036b9190612fc8565b611c11565b005b61038c60048036038101906103879190612fc8565b611e43565b6040516103a29a999897969594939291906134cf565b60405180910390f35b6103b3611fb0565b6040516103c09190613087565b60405180910390f35b6103e360048036038101906103de919061304d565b611fb6565b6040516103f09190613087565b60405180910390f35b610413600480360381019061040e9190612fc8565b612091565b005b61042f600480360381019061042a919061356a565b6122e0565b60405161043c91906135b7565b60405180910390f35b61045f600480360381019061045a91906135fa565b612345565b005b61047b60048036038101906104769190613638565b61280a565b60405161048891906135b7565b60405180910390f35b6104ab60048036038101906104a6919061304d565b612834565b005b805f5f5f90505b60068160ff161015610552573373ffffffffffffffffffffffffffffffffffffffff1660065f8581526020019081526020015f206006018260ff1660068110610500576104ff613676565b5b015f9054906101000a900473ffffffffffffffffffffffffffffffffffffffff1673ffffffffffffffffffffffffffffffffffffffff16036105455760019150610552565b80806001019150506104b4565b5080610593576040517f08c379a000000000000000000000000000000000000000000000000000000000815260040161058a906136ed565b60405180910390fd5b61059b6128b8565b5f60065f8581526020019081526020015f209050600160078111156105c3576105c261345c565b5b81600d0160019054906101000a900460ff1660078111156105e7576105e661345c565b5b14610627576040517f08c379a000000000000000000000000000000000000000000000000000000000815260040161061e90613755565b60405180910390fd5b8060050154421161066d576040517f08c379a0000000000000000000000000000000000000000000000000000000008152600401610664906137bd565b60405180910390fd5b80600c015f3373ffffffffffffffffffffffffffffffffffffffff1673ffffffffffffffffffffffffffffffffffffffff1681526020019081526020015f205f9054906101000a900460ff16156106f9576040517f08c379a00000000000000000000000000000000000000000000000000000000081526004016106f090613825565b60405180910390fd5b600181600c015f3373ffffffffffffffffffffffffffffffffffffffff1673ffffffffffffffffffffffffffffffffffffffff1681526020019081526020015f205f6101000a81548160ff02191690831515021790555080600d015f81819054906101000a900460ff168092919061077090613870565b91906101000a81548160ff021916908360ff16021790555050837f31fdc4d501a17fc8bb26e1ab1136058e5975bc80399612d9abbf0b42e760c8553383600d015f9054906101000a900460ff166040516107cb929190613898565b60405180910390a2600481600d015f9054906101000a900460ff1660ff16106107f8576107f7846128fe565b5b506108016129f0565b505050565b8060065f8281526020019081526020015f205f015f9054906101000a900473ffffffffffffffffffffffffffffffffffffffff1673ffffffffffffffffffffffffffffffffffffffff163373ffffffffffffffffffffffffffffffffffffffff16146108a7576040517f08c379a000000000000000000000000000000000000000000000000000000000815260040161089e90613909565b60405180910390fd5b5f60065f8481526020019081526020015f209050600660078111156108cf576108ce61345c565b5b81600d0160019054906101000a900460ff1660078111156108f3576108f261345c565b5b1480610933575060078081111561090d5761090c61345c565b5b81600d0160019054906101000a900460ff1660078111156109315761093061345c565b5b145b610972576040517f08c379a000000000000000000000000000000000000000000000000000000000815260040161096990613971565b60405180910390fd5b600281600f015f9054906101000a900460ff1660ff16106109c8576040517f08c379a00000000000000000000000000000000000000000000000000000000081526004016109bf906139d9565b60405180910390fd5b80600f015f81819054906101000a900460ff16809291906109e890613870565b91906101000a81548160ff021916908360ff160217905550504281600e0181905550600581600d0160016101000a81548160ff02191690836007811115610a3257610a3161345c565b5b0217905550827f9f99ae1c2ed3bebdabfddb8a9ded0b435ed0e72af5dd8b48c86af9e1825effa360405160405180910390a27f7d1ff22c1a82f0d8fc4f45d2aec63e679ecb08700b30f7e90ae3721d13b1f6bd604051610a9190613a67565b60405180910390a1505050565b805f5f5f90505b60068160ff161015610b43573373ffffffffffffffffffffffffffffffffffffffff1660065f8581526020019081526020015f206006018260ff1660068110610af157610af0613676565b5b015f9054906101000a900473ffffffffffffffffffffffffffffffffffffffff1673ffffffffffffffffffffffffffffffffffffffff1603610b365760019150610b43565b8080600101915050610aa5565b5080610b84576040517f08c379a0000000000000000000000000000000000000000000000000000000008152600401610b7b906136ed565b60405180910390fd5b610b8c6128b8565b5f60065f8581526020019081526020015f20905060016007811115610bb457610bb361345c565b5b81600d0160019054906101000a900460ff166007811115610bd857610bd761345c565b5b14610c18576040517f08c379a0000000000000000000000000000000000000000000000000000000008152600401610c0f90613755565b60405180910390fd5b80600c015f3373ffffffffffffffffffffffffffffffffffffffff1673ffffffffffffffffffffffffffffffffffffffff1681526020019081526020015f205f9054906101000a900460ff1615610ca4576040517f08c379a0000000000000000000000000000000000000000000000000000000008152600401610c9b90613825565b60405180910390fd5b600181600c015f3373ffffffffffffffffffffffffffffffffffffffff1673ffffffffffffffffffffffffffffffffffffffff1681526020019081526020015f205f6101000a81548160ff02191690831515021790555080600d015f81819054906101000a900460ff1680929190610d1b90613870565b91906101000a81548160ff021916908360ff16021790555050837f31fdc4d501a17fc8bb26e1ab1136058e5975bc80399612d9abbf0b42e760c8553383600d015f9054906101000a900460ff16604051610d76929190613898565b60405180910390a2600481600d015f9054906101000a900460ff1660ff1610610da357610da2846128fe565b5b50610dac6129f0565b505050565b6002602052805f5260405f205f915090505481565b6003602052805f5260405f205f915090505481565b60605f60065f8481526020019081526020015f2090505f6007811115610e0457610e0361345c565b5b81600d0160019054906101000a900460ff166007811115610e2857610e2761345c565b5b03610e6b576040518060400160405280600781526020017f4372656174656400000000000000000000000000000000000000000000000000815250915050611201565b60016007811115610e7f57610e7e61345c565b5b81600d0160019054906101000a900460ff166007811115610ea357610ea261345c565b5b03610ee6576040518060400160405280600681526020017f46756e6465640000000000000000000000000000000000000000000000000000815250915050611201565b60026007811115610efa57610ef961345c565b5b81600d0160019054906101000a900460ff166007811115610f1e57610f1d61345c565b5b03610f61576040518060400160405280600a81526020017f496e204469737075746500000000000000000000000000000000000000000000815250915050611201565b60036007811115610f7557610f7461345c565b5b81600d0160019054906101000a900460ff166007811115610f9957610f9861345c565b5b03610fdc576040518060400160405280601481526020017f52656c656173656420746f204c616e646c6f7264000000000000000000000000815250915050611201565b60046007811115610ff057610fef61345c565b5b81600d0160019054906101000a900460ff1660078111156110145761101361345c565b5b03611057576040518060400160405280601281526020017f526566756e64656420746f2054656e616e740000000000000000000000000000815250915050611201565b6005600781111561106b5761106a61345c565b5b81600d0160019054906101000a900460ff16600781111561108f5761108e61345c565b5b036110d2576040518060400160405280600e81526020017f50656e64696e672041707065616c000000000000000000000000000000000000815250915050611201565b600660078111156110e6576110e561345c565b5b81600d0160019054906101000a900460ff16600781111561110a5761110961345c565b5b0361114d576040518060400160405280601e81526020017f4465636973696f6e3a2052656c65617365202841707065616c61626c65290000815250915050611201565b6007808111156111605761115f61345c565b5b81600d0160019054906101000a900460ff1660078111156111845761118361345c565b5b036111c7576040518060400160405280601d81526020017f4465636973696f6e3a20526566756e64202841707065616c61626c6529000000815250915050611201565b6040518060400160405280600781526020017f556e6b6e6f776e000000000000000000000000000000000000000000000000008152509150505b919050565b61120e611813565b73ffffffffffffffffffffffffffffffffffffffff163373ffffffffffffffffffffffffffffffffffffffff161461127b576040517f08c379a000000000000000000000000000000000000000000000000000000000815260040161127290613acf565b60405180910390fd5b6112836128b8565b5f60065f8481526020019081526020015f209050600260078111156112ab576112aa61345c565b5b81600d0160019054906101000a900460ff1660078111156112cf576112ce61345c565b5b1461130f576040517f08c379a000000000000000000000000000000000000000000000000000000000815260040161130690613b37565b60405180910390fd5b62093a8081600e01546113229190613b55565b421115611364576040517f08c379a000000000000000000000000000000000000000000000000000000000815260040161135b90613bd2565b60405180910390fd5b6113728383600660076129f9565b827f2ffcfee146bc0d5ff304c6b65111a0d485af9456dc64eee7d66ebdcc90b223ea82600d0160019054906101000a900460ff166040516113b39190613bf0565b60405180910390a2506113c46129f0565b5050565b5f5f73ffffffffffffffffffffffffffffffffffffffff168773ffffffffffffffffffffffffffffffffffffffff1603611437576040517f08c379a000000000000000000000000000000000000000000000000000000000815260040161142e90613c53565b60405180910390fd5b5f73ffffffffffffffffffffffffffffffffffffffff168573ffffffffffffffffffffffffffffffffffffffff16036114a5576040517f08c379a000000000000000000000000000000000000000000000000000000000815260040161149c90613cbb565b60405180910390fd5b8383116114e7576040517f08c379a00000000000000000000000000000000000000000000000000000000081526004016114de90613d23565b60405180910390fd5b5f3388866040516020016114fd93929190613da6565b60405160208183030381529060405280519060200120905060075f8281526020019081526020015f205f9054906101000a900460ff1615611573576040517f08c379a000000000000000000000000000000000000000000000000000000000815260040161156a90613e2c565b60405180910390fd5b60055f815461158190613e4a565b91905081905591505f60065f8481526020019081526020015f20905033815f015f6101000a81548173ffffffffffffffffffffffffffffffffffffffff021916908373ffffffffffffffffffffffffffffffffffffffff16021790555088816001015f6101000a81548173ffffffffffffffffffffffffffffffffffffffff021916908373ffffffffffffffffffffffffffffffffffffffff16021790555087816002018190555086816003015f6101000a81548173ffffffffffffffffffffffffffffffffffffffff021916908373ffffffffffffffffffffffffffffffffffffffff1602179055508581600401819055508481600501819055508381600601906006611690929190612ecf565b505f81600d0160016101000a81548160ff021916908360078111156116b8576116b761345c565b5b0217905550600181600f0160016101000a81548160ff021916908315150217905550600160075f8481526020019081526020015f205f6101000a81548160ff0219169083151502179055503373ffffffffffffffffffffffffffffffffffffffff16837fccab83b228b9f11d0f002db0d115fe84ab0bacbe475d1c28666963a66c20c4368b8a60405161174c929190613e91565b60405180910390a350509695505050505050565b600281565b61176d612f4b565b60065f8381526020019081526020015f206006016006806020026040519081016040528092919082600680156117ed576020028201915b815f9054906101000a900473ffffffffffffffffffffffffffffffffffffffff1673ffffffffffffffffffffffffffffffffffffffff16815260200190600101908083116117a4575b50505050509050919050565b611801612a78565b61180a5f612aff565b565b62093a8081565b5f5f5f9054906101000a900473ffffffffffffffffffffffffffffffffffffffff16905090565b611842611813565b73ffffffffffffffffffffffffffffffffffffffff163373ffffffffffffffffffffffffffffffffffffffff16146118af576040517f08c379a00000000000000000000000000000000000000000000000000000000081526004016118a690613acf565b60405180910390fd5b6118b76128b8565b5f60065f8481526020019081526020015f209050600560078111156118df576118de61345c565b5b81600d0160019054906101000a900460ff1660078111156119035761190261345c565b5b14611943576040517f08c379a000000000000000000000000000000000000000000000000000000000815260040161193a90613f02565b60405180910390fd5b62093a8081600e01546119569190613b55565b421115611998576040517f08c379a000000000000000000000000000000000000000000000000000000000815260040161198f90613bd2565b60405180910390fd5b6119a68383600660076129f9565b827f34572d32f3bb0eff148ee17d0122170a41891d6a37564b756027d0cc5eb6123d82600d0160019054906101000a900460ff16846040516119e9929190613f20565b60405180910390a2827f2ffcfee146bc0d5ff304c6b65111a0d485af9456dc64eee7d66ebdcc90b223ea82600d0160019054906101000a900460ff16604051611a329190613bf0565b60405180910390a250611a436129f0565b5050565b8060065f8281526020019081526020015f205f015f9054906101000a900473ffffffffffffffffffffffffffffffffffffffff1673ffffffffffffffffffffffffffffffffffffffff163373ffffffffffffffffffffffffffffffffffffffff1614611ae8576040517f08c379a0000000000000000000000000000000000000000000000000000000008152600401611adf90613909565b60405180910390fd5b5f60065f8481526020019081526020015f20905060016007811115611b1057611b0f61345c565b5b81600d0160019054906101000a900460ff166007811115611b3457611b3361345c565b5b14611b74576040517f08c379a0000000000000000000000000000000000000000000000000000000008152600401611b6b90613f91565b60405180910390fd5b600281600d0160016101000a81548160ff02191690836007811115611b9c57611b9b61345c565b5b02179055504281600e0181905550827f7ce7831fed9a800b1aa5e7ca21034bf7b95efc31a196459012cf8b8eb42b7dac60405160405180910390a27f7d1ff22c1a82f0d8fc4f45d2aec63e679ecb08700b30f7e90ae3721d13b1f6bd604051611c049061401f565b60405180910390a1505050565b611c19611813565b73ffffffffffffffffffffffffffffffffffffffff163373ffffffffffffffffffffffffffffffffffffffff1614611c86576040517f08c379a0000000000000000000000000000000000000000000000000000000008152600401611c7d90613acf565b60405180910390fd5b611c8e6128b8565b5f60065f8381526020019081526020015f2090505f60066007811115611cb757611cb661345c565b5b82600d0160019054906101000a900460ff166007811115611cdb57611cda61345c565b5b1480611d1b5750600780811115611cf557611cf461345c565b5b82600d0160019054906101000a900460ff166007811115611d1957611d1861345c565b5b145b905080611d5d576040517f08c379a0000000000000000000000000000000000000000000000000000000008152600401611d54906140ad565b60405180910390fd5b5f62093a8083600e0154611d719190613b55565b421190505f600284600f015f9054906101000a900460ff1660ff16101590508180611d995750805b611dd8576040517f08c379a0000000000000000000000000000000000000000000000000000000008152600401611dcf90614115565b60405180910390fd5b60066007811115611dec57611deb61345c565b5b84600d0160019054906101000a900460ff166007811115611e1057611e0f61345c565b5b03611e2757611e228560016003612bc0565b611e34565b611e33855f6004612bc0565b5b50505050611e406129f0565b50565b5f5f5f5f5f5f611e51612f4b565b5f5f5f5f60065f8d81526020019081526020015f209050805f015f9054906101000a900473ffffffffffffffffffffffffffffffffffffffff16816001015f9054906101000a900473ffffffffffffffffffffffffffffffffffffffff168260020154836003015f9054906101000a900473ffffffffffffffffffffffffffffffffffffffff16846004015485600501548660060187600d015f9054906101000a900460ff1688600d0160019054906101000a900460ff1689600f015f9054906101000a900460ff1683600680602002604051908101604052809291908260068015611f87576020028201915b815f9054906101000a900473ffffffffffffffffffffffffffffffffffffffff1673ffffffffffffffffffffffffffffffffffffffff1681526020019060010190808311611f3e575b505050505093509a509a509a509a509a509a509a509a509a509a50509193959799509193959799565b60055481565b5f5f60025f8473ffffffffffffffffffffffffffffffffffffffff1673ffffffffffffffffffffffffffffffffffffffff1681526020019081526020015f205403612003575f905061208c565b60025f8373ffffffffffffffffffffffffffffffffffffffff1673ffffffffffffffffffffffffffffffffffffffff1681526020019081526020015f205460035f8473ffffffffffffffffffffffffffffffffffffffff1673ffffffffffffffffffffffffffffffffffffffff1681526020019081526020015f20546120899190614160565b90505b919050565b8060065f8281526020019081526020015f205f015f9054906101000a900473ffffffffffffffffffffffffffffffffffffffff1673ffffffffffffffffffffffffffffffffffffffff163373ffffffffffffffffffffffffffffffffffffffff1614612132576040517f08c379a000000000000000000000000000000000000000000000000000000000815260040161212990613909565b60405180910390fd5b61213a6128b8565b5f60065f8481526020019081526020015f2090505f60078111156121615761216061345c565b5b81600d0160019054906101000a900460ff1660078111156121855761218461345c565b5b146121c5576040517f08c379a00000000000000000000000000000000000000000000000000000000081526004016121bc906141da565b60405180910390fd5b806003015f9054906101000a900473ffffffffffffffffffffffffffffffffffffffff1673ffffffffffffffffffffffffffffffffffffffff166323b872dd333084600201546040518463ffffffff1660e01b8152600401612229939291906141f8565b6020604051808303815f875af1158015612245573d5f5f3e3d5ffd5b505050506040513d601f19601f820116820180604052508101906122699190614241565b50600181600d0160016101000a81548160ff021916908360078111156122925761229161345c565b5b0217905550827f911052e1be46242b46bf3c2762227ff37c000e5fe38727638096f3a17fbfe17082600201546040516122cb9190613087565b60405180910390a2506122dc6129f0565b5050565b5f60065f8481526020019081526020015f20600c015f8373ffffffffffffffffffffffffffffffffffffffff1673ffffffffffffffffffffffffffffffffffffffff1681526020019081526020015f205f9054906101000a900460ff16905092915050565b60018160ff161015801561235d575060058160ff1611155b61239c576040517f08c379a0000000000000000000000000000000000000000000000000000000008152600401612393906142b6565b60405180910390fd5b5f60065f8481526020019081526020015f20905080600f0160019054906101000a900460ff16612401576040517f08c379a00000000000000000000000000000000000000000000000000000000081526004016123f89061431e565b60405180910390fd5b600360078111156124155761241461345c565b5b81600d0160019054906101000a900460ff1660078111156124395761243861345c565b5b148061247a5750600460078111156124545761245361345c565b5b81600d0160019054906101000a900460ff1660078111156124785761247761345c565b5b145b6124b9576040517f08c379a00000000000000000000000000000000000000000000000000000000081526004016124b090614386565b60405180910390fd5b5f815f015f9054906101000a900473ffffffffffffffffffffffffffffffffffffffff1673ffffffffffffffffffffffffffffffffffffffff163373ffffffffffffffffffffffffffffffffffffffff160361253a57816001015f9054906101000a900473ffffffffffffffffffffffffffffffffffffffff1690506125f6565b816001015f9054906101000a900473ffffffffffffffffffffffffffffffffffffffff1673ffffffffffffffffffffffffffffffffffffffff163373ffffffffffffffffffffffffffffffffffffffff16036125ba57815f015f9054906101000a900473ffffffffffffffffffffffffffffffffffffffff1690506125f5565b6040517f08c379a00000000000000000000000000000000000000000000000000000000081526004016125ec906143ee565b60405180910390fd5b5b60045f3373ffffffffffffffffffffffffffffffffffffffff1673ffffffffffffffffffffffffffffffffffffffff1681526020019081526020015f205f8581526020019081526020015f205f9054906101000a900460ff161561268f576040517f08c379a000000000000000000000000000000000000000000000000000000000815260040161268690614456565b60405180910390fd5b600160045f3373ffffffffffffffffffffffffffffffffffffffff1673ffffffffffffffffffffffffffffffffffffffff1681526020019081526020015f205f8681526020019081526020015f205f6101000a81548160ff021916908315150217905550600160025f8373ffffffffffffffffffffffffffffffffffffffff1673ffffffffffffffffffffffffffffffffffffffff1681526020019081526020015f205f8282546127409190613b55565b925050819055508260ff1660035f8373ffffffffffffffffffffffffffffffffffffffff1673ffffffffffffffffffffffffffffffffffffffff1681526020019081526020015f205f8282546127969190613b55565b925050819055508073ffffffffffffffffffffffffffffffffffffffff163373ffffffffffffffffffffffffffffffffffffffff167f42b362e4440baa96530d4f36bc304cd410ba9f48554f1dc01c3e53cbf0bd801086866040516127fc929190614474565b60405180910390a350505050565b6004602052815f5260405f20602052805f5260405f205f915091509054906101000a900460ff1681565b61283c612a78565b5f73ffffffffffffffffffffffffffffffffffffffff168173ffffffffffffffffffffffffffffffffffffffff16036128ac575f6040517f1e4fbdf70000000000000000000000000000000000000000000000000000000081526004016128a39190613428565b60405180910390fd5b6128b581612aff565b50565b6002600154036128f4576040517f3ee5aeb500000000000000000000000000000000000000000000000000000000815260040160405180910390fd5b6002600181905550565b5f60065f8381526020019081526020015f209050600160078111156129265761292561345c565b5b81600d0160019054906101000a900460ff16600781111561294a5761294961345c565b5b1461298a576040517f08c379a0000000000000000000000000000000000000000000000000000000008152600401612981906141da565b60405180910390fd5b5f81600d015f6101000a81548160ff021916908360ff1602179055506129b38260016003612bc0565b817f2ffcfee146bc0d5ff304c6b65111a0d485af9456dc64eee7d66ebdcc90b223ea60036040516129e49190613bf0565b60405180910390a25050565b60018081905550565b5f60065f8681526020019081526020015f2090508315612a44578281600d0160016101000a81548160ff02191690836007811115612a3a57612a3961345c565b5b0217905550612a71565b8181600d0160016101000a81548160ff02191690836007811115612a6b57612a6a61345c565b5b02179055505b5050505050565b612a80612ec8565b73ffffffffffffffffffffffffffffffffffffffff16612a9e611813565b73ffffffffffffffffffffffffffffffffffffffff1614612afd57612ac1612ec8565b6040517f118cdaa7000000000000000000000000000000000000000000000000000000008152600401612af49190613428565b60405180910390fd5b565b5f5f5f9054906101000a900473ffffffffffffffffffffffffffffffffffffffff169050815f5f6101000a81548173ffffffffffffffffffffffffffffffffffffffff021916908373ffffffffffffffffffffffffffffffffffffffff1602179055508173ffffffffffffffffffffffffffffffffffffffff168173ffffffffffffffffffffffffffffffffffffffff167f8be0079c531659141344cd1fd0a4f28419497f9722a3daafe3b4186f6b6457e060405160405180910390a35050565b5f60065f8581526020019081526020015f2090508215612d51578181600d0160016101000a81548160ff02191690836007811115612c0157612c0061345c565b5b0217905550806003015f9054906101000a900473ffffffffffffffffffffffffffffffffffffffff1673ffffffffffffffffffffffffffffffffffffffff1663a9059cbb826001015f9054906101000a900473ffffffffffffffffffffffffffffffffffffffff1683600201546040518363ffffffff1660e01b8152600401612c8b92919061449b565b6020604051808303815f875af1158015612ca7573d5f5f3e3d5ffd5b505050506040513d601f19601f82011682018060405250810190612ccb9190614241565b50837ffd7f9968b90c2f39997b08b69b3c78d40df681dec28b3eec202eff456c3ad2cb826001015f9054906101000a900473ffffffffffffffffffffffffffffffffffffffff16836003015f9054906101000a900473ffffffffffffffffffffffffffffffffffffffff16604051612d44929190613e91565b60405180910390a2612ec2565b8181600d0160016101000a81548160ff02191690836007811115612d7857612d7761345c565b5b0217905550806003015f9054906101000a900473ffffffffffffffffffffffffffffffffffffffff1673ffffffffffffffffffffffffffffffffffffffff1663a9059cbb825f015f9054906101000a900473ffffffffffffffffffffffffffffffffffffffff1683600201546040518363ffffffff1660e01b8152600401612e0192919061449b565b6020604051808303815f875af1158015612e1d573d5f5f3e3d5ffd5b505050506040513d601f19601f82011682018060405250810190612e419190614241565b50837fcd0cf80e47d7155dd99224c3b23942de0ceca1a277e5e49a471ffb9a45ac1542825f015f9054906101000a900473ffffffffffffffffffffffffffffffffffffffff16836003015f9054906101000a900473ffffffffffffffffffffffffffffffffffffffff16604051612eb9929190613e91565b60405180910390a25b50505050565b5f33905090565b8260068101928215612f3a579160200282015b82811115612f39578251825f6101000a81548173ffffffffffffffffffffffffffffffffffffffff021916908373ffffffffffffffffffffffffffffffffffffffff16021790555091602001919060010190612ee2565b5b509050612f479190612f6d565b5090565b6040518060c00160405280600690602082028036833780820191505090505090565b5b80821115612f84575f815f905550600101612f6e565b5090565b5f604051905090565b5f5ffd5b5f819050919050565b612fa781612f95565b8114612fb1575f5ffd5b50565b5f81359050612fc281612f9e565b92915050565b5f60208284031215612fdd57612fdc612f91565b5b5f612fea84828501612fb4565b91505092915050565b5f73ffffffffffffffffffffffffffffffffffffffff82169050919050565b5f61301c82612ff3565b9050919050565b61302c81613012565b8114613036575f5ffd5b50565b5f8135905061304781613023565b92915050565b5f6020828403121561306257613061612f91565b5b5f61306f84828501613039565b91505092915050565b61308181612f95565b82525050565b5f60208201905061309a5f830184613078565b92915050565b5f81519050919050565b5f82825260208201905092915050565b8281835e5f83830152505050565b5f601f19601f8301169050919050565b5f6130e2826130a0565b6130ec81856130aa565b93506130fc8185602086016130ba565b613105816130c8565b840191505092915050565b5f6020820190508181035f83015261312881846130d8565b905092915050565b5f8115159050919050565b61314481613130565b811461314e575f5ffd5b50565b5f8135905061315f8161313b565b92915050565b5f5f6040838503121561317b5761317a612f91565b5b5f61318885828601612fb4565b925050602061319985828601613151565b9150509250929050565b5f5ffd5b7f4e487b71000000000000000000000000000000000000000000000000000000005f52604160045260245ffd5b6131dd826130c8565b810181811067ffffffffffffffff821117156131fc576131fb6131a7565b5b80604052505050565b5f61320e612f88565b905061321a82826131d4565b919050565b5f67ffffffffffffffff821115613239576132386131a7565b5b602082029050919050565b5f5ffd5b5f61325a6132558461321f565b613205565b9050806020840283018581111561327457613273613244565b5b835b8181101561329d57806132898882613039565b845260208401935050602081019050613276565b5050509392505050565b5f82601f8301126132bb576132ba6131a3565b5b60066132c8848285613248565b91505092915050565b5f5f5f5f5f5f61016087890312156132ec576132eb612f91565b5b5f6132f989828a01613039565b965050602061330a89828a01612fb4565b955050604061331b89828a01613039565b945050606061332c89828a01612fb4565b935050608061333d89828a01612fb4565b92505060a061334e89828a016132a7565b9150509295509295509295565b5f60069050919050565b5f81905092915050565b5f819050919050565b61338181613012565b82525050565b5f6133928383613378565b60208301905092915050565b5f602082019050919050565b6133b38161335b565b6133bd8184613365565b92506133c88261336f565b805f5b838110156133f85781516133df8782613387565b96506133ea8361339e565b9250506001810190506133cb565b505050505050565b5f60c0820190506134135f8301846133aa565b92915050565b61342281613012565b82525050565b5f60208201905061343b5f830184613419565b92915050565b5f60ff82169050919050565b61345681613441565b82525050565b7f4e487b71000000000000000000000000000000000000000000000000000000005f52602160045260245ffd5b6008811061349a5761349961345c565b5b50565b5f8190506134aa82613489565b919050565b5f6134b98261349d565b9050919050565b6134c9816134af565b82525050565b5f6101e0820190506134e35f83018d613419565b6134f0602083018c613419565b6134fd604083018b613078565b61350a606083018a613419565b6135176080830189613078565b61352460a0830188613078565b61353160c08301876133aa565b61353f61018083018661344d565b61354d6101a08301856134c0565b61355b6101c083018461344d565b9b9a5050505050505050505050565b5f5f604083850312156135805761357f612f91565b5b5f61358d85828601612fb4565b925050602061359e85828601613039565b9150509250929050565b6135b181613130565b82525050565b5f6020820190506135ca5f8301846135a8565b92915050565b6135d981613441565b81146135e3575f5ffd5b50565b5f813590506135f4816135d0565b92915050565b5f5f604083850312156136105761360f612f91565b5b5f61361d85828601612fb4565b925050602061362e858286016135e6565b9150509250929050565b5f5f6040838503121561364e5761364d612f91565b5b5f61365b85828601613039565b925050602061366c85828601612fb4565b9150509250929050565b7f4e487b71000000000000000000000000000000000000000000000000000000005f52603260045260245ffd5b7f4e6f742061207369676e61746f727900000000000000000000000000000000005f82015250565b5f6136d7600f836130aa565b91506136e2826136a3565b602082019050919050565b5f6020820190508181035f830152613704816136cb565b9050919050565b7f496e76616c6964207374617465000000000000000000000000000000000000005f82015250565b5f61373f600d836130aa565b915061374a8261370b565b602082019050919050565b5f6020820190508181035f83015261376c81613733565b9050919050565b7f54656e616e6379206e6f7420656e6465640000000000000000000000000000005f82015250565b5f6137a76011836130aa565b91506137b282613773565b602082019050919050565b5f6020820190508181035f8301526137d48161379b565b9050919050565b7f416c726561647920617070726f766564000000000000000000000000000000005f82015250565b5f61380f6010836130aa565b915061381a826137db565b602082019050919050565b5f6020820190508181035f83015261383c81613803565b9050919050565b7f4e487b71000000000000000000000000000000000000000000000000000000005f52601160045260245ffd5b5f61387a82613441565b915060ff820361388d5761388c613843565b5b600182019050919050565b5f6040820190506138ab5f830185613419565b6138b8602083018461344d565b9392505050565b7f4e6f742074656e616e74000000000000000000000000000000000000000000005f82015250565b5f6138f3600a836130aa565b91506138fe826138bf565b602082019050919050565b5f6020820190508181035f830152613920816138e7565b9050919050565b7f43616e6e6f742061707065616c2066726f6d2063757272656e742073746174655f82015250565b5f61395b6020836130aa565b915061396682613927565b602082019050919050565b5f6020820190508181035f8301526139888161394f565b9050919050565b7f4d6178696d756d2061707065616c7320726561636865642028322900000000005f82015250565b5f6139c3601b836130aa565b91506139ce8261398f565b602082019050919050565b5f6020820190508181035f8301526139f0816139b7565b9050919050565b7f41707065616c207375626d69747465642e2044414f2064656c696265726174695f8201527f6f6e2070656e64696e672e000000000000000000000000000000000000000000602082015250565b5f613a51602b836130aa565b9150613a5c826139f7565b604082019050919050565b5f6020820190508181035f830152613a7e81613a45565b9050919050565b7f4e6f74207468652044414f2f41646d696e2061646472657373000000000000005f82015250565b5f613ab96019836130aa565b9150613ac482613a85565b602082019050919050565b5f6020820190508181035f830152613ae681613aad565b9050919050565b7f4e6f7420696e20646973707574650000000000000000000000000000000000005f82015250565b5f613b21600e836130aa565b9150613b2c82613aed565b602082019050919050565b5f6020820190508181035f830152613b4e81613b15565b9050919050565b5f613b5f82612f95565b9150613b6a83612f95565b9250828201905080821115613b8257613b81613843565b5b92915050565b7f5265736f6c7574696f6e2074696d6520657870697265640000000000000000005f82015250565b5f613bbc6017836130aa565b9150613bc782613b88565b602082019050919050565b5f6020820190508181035f830152613be981613bb0565b9050919050565b5f602082019050613c035f8301846134c0565b92915050565b7f496e76616c6964206c616e646c6f7264000000000000000000000000000000005f82015250565b5f613c3d6010836130aa565b9150613c4882613c09565b602082019050919050565b5f6020820190508181035f830152613c6a81613c31565b9050919050565b7f496e76616c696420746f6b656e000000000000000000000000000000000000005f82015250565b5f613ca5600d836130aa565b9150613cb082613c71565b602082019050919050565b5f6020820190508181035f830152613cd281613c99565b9050919050565b7f496e76616c6964206461746573000000000000000000000000000000000000005f82015250565b5f613d0d600d836130aa565b9150613d1882613cd9565b602082019050919050565b5f6020820190508181035f830152613d3a81613d01565b9050919050565b5f8160601b9050919050565b5f613d5782613d41565b9050919050565b5f613d6882613d4d565b9050919050565b613d80613d7b82613012565b613d5e565b82525050565b5f819050919050565b613da0613d9b82612f95565b613d86565b82525050565b5f613db18286613d6f565b601482019150613dc18285613d6f565b601482019150613dd18284613d8f565b602082019150819050949350505050565b7f4475706c696361746520657363726f77000000000000000000000000000000005f82015250565b5f613e166010836130aa565b9150613e2182613de2565b602082019050919050565b5f6020820190508181035f830152613e4381613e0a565b9050919050565b5f613e5482612f95565b91507fffffffffffffffffffffffffffffffffffffffffffffffffffffffffffffffff8203613e8657613e85613843565b5b600182019050919050565b5f604082019050613ea45f830185613419565b613eb16020830184613419565b9392505050565b7f4e6f2070656e64696e672061707065616c0000000000000000000000000000005f82015250565b5f613eec6011836130aa565b9150613ef782613eb8565b602082019050919050565b5f6020820190508181035f830152613f1981613ee0565b9050919050565b5f604082019050613f335f8301856134c0565b613f4060208301846135a8565b9392505050565b7f43616e6e6f7420646973707574650000000000000000000000000000000000005f82015250565b5f613f7b600e836130aa565b9150613f8682613f47565b602082019050919050565b5f6020820190508181035f830152613fa881613f6f565b9050919050565b7f44697370757465207261697365642e2044414f2077696c6c20726576696577205f8201527f77697468696e203720646179732e000000000000000000000000000000000000602082015250565b5f614009602e836130aa565b915061401482613faf565b604082019050919050565b5f6020820190508181035f83015261403681613ffd565b9050919050565b7f457363726f77206e6f7420726561647920666f722066696e616c697a6174696f5f8201527f6e20286e6f206465636973696f6e206d61646529000000000000000000000000602082015250565b5f6140976034836130aa565b91506140a28261403d565b604082019050919050565b5f6020820190508181035f8301526140c48161408b565b9050919050565b7f41707065616c2077696e646f77206973207374696c6c206163746976650000005f82015250565b5f6140ff601d836130aa565b915061410a826140cb565b602082019050919050565b5f6020820190508181035f83015261412c816140f3565b9050919050565b7f4e487b71000000000000000000000000000000000000000000000000000000005f52601260045260245ffd5b5f61416a82612f95565b915061417583612f95565b92508261418557614184614133565b5b828204905092915050565b7f4e6f742066756e6461626c6500000000000000000000000000000000000000005f82015250565b5f6141c4600c836130aa565b91506141cf82614190565b602082019050919050565b5f6020820190508181035f8301526141f1816141b8565b9050919050565b5f60608201905061420b5f830186613419565b6142186020830185613419565b6142256040830184613078565b949350505050565b5f8151905061423b8161313b565b92915050565b5f6020828403121561425657614255612f91565b5b5f6142638482850161422d565b91505092915050565b7f526174696e67206d75737420626520312d3500000000000000000000000000005f82015250565b5f6142a06012836130aa565b91506142ab8261426c565b602082019050919050565b5f6020820190508181035f8301526142cd81614294565b9050919050565b7f457363726f7720646f6573206e6f7420657869737400000000000000000000005f82015250565b5f6143086015836130aa565b9150614313826142d4565b602082019050919050565b5f6020820190508181035f830152614335816142fc565b9050919050565b7f457363726f77206e6f742066696e616c697a65640000000000000000000000005f82015250565b5f6143706014836130aa565b915061437b8261433c565b602082019050919050565b5f6020820190508181035f83015261439d81614364565b9050919050565b7f4f6e6c792074656e616e74206f72206c616e646c6f72642063616e20726174655f82015250565b5f6143d86020836130aa565b91506143e3826143a4565b602082019050919050565b5f6020820190508181035f830152614405816143cc565b9050919050565b7f416c726561647920726174656420666f72207468697320657363726f770000005f82015250565b5f614440601d836130aa565b915061444b8261440c565b602082019050919050565b5f6020820190508181035f83015261446d81614434565b9050919050565b5f6040820190506144875f830185613078565b614494602083018461344d565b9392505050565b5f6040820190506144ae5f830185613419565b6144bb6020830184613078565b939250505056fea26469706673582212205673eae41adfe1111d29c7f163c3755e69bacf6c5bf0291c46528404e14588af64736f6c634300081e0033","linkReferences":{}},"methodIdentifiers":{"MAX_APPEALS()":"5c95c441","RESOLUTION_WINDOW()":"734c8544","approveRelease(uint256)":"1bd2cea1","createEscrow(address,uint256,address,uint256,uint256,address[6])":"46a80b24","escrowCounter()":"c7ceafea","finalizeAppealDecision(uint256,bool)":"9db94ed7","finalizeEscrow(uint256)":"b43a405a","fundEscrow(uint256)":"c9c31af5","getAverageRating(address)":"c8b67522","getEscrowDetails(uint256)":"b996ec2a","getEscrowStatus(uint256)":"345460cd","getSignatories(uint256)":"65f4c098","hasRated(address,uint256)":"d25468b3","hasSignatoryApproved(uint256,address)":"cfe8ad96","owner()":"8da5cb5b","raiseDispute(uint256)":"a5c1674e","rateCounterparty(uint256,uint8)":"d22359dc","ratingsSum(address)":"33b3ceb4","releaseAfterEndDate(uint256)":"10c685e0","renounceOwnership()":"715018a6","resolveDispute(uint256,bool)":"34b25ee2","submitAppeal(uint256)":"19dc88ae","totalRatingsReceived(address)":"31276401","transferOwnership(address)":"f2fde38b"},"id":30}