{"abi":[{"type":"constructor","inputs":[{"name":"initialOwner","type":"address","internalType":"address"}],"stateMutability":"nonpayable"},{"type":"function","name":"DEADLINE_DURATION","inputs":[],"outputs":[{"name":"","type":"uint256","internalType":"uint256"}],"stateMutability":"view"},{"type":"function","name":"addExtension","inputs":[{"name":"key","type":"bytes32","internalType":"bytes32"},{"name":"ext","type":"address","internalType":"address"}],"outputs":[],"stateMutability":"nonpayable"},{"type":"function","name":"createDeposit","inputs":[{"name":"_token","type":"address","internalType":"contract IERC20"},{"name":"landlord","type":"address","internalType":"address"},{"name":"amount","type":"uint256","internalType":"uint256"},{"name":"tenantSignatories","type":"address[3]","internalType":"address[3]"},{"name":"landlordSignatories","type":"address[3]","internalType":"address[3]"}],"outputs":[{"name":"","type":"uint256","internalType":"uint256"}],"stateMutability":"nonpayable"},{"type":"function","name":"dao","inputs":[],"outputs":[{"name":"","type":"address","internalType":"address"}],"stateMutability":"view"},{"type":"function","name":"daoResolve","inputs":[{"name":"depositId","type":"uint256","internalType":"uint256"},{"name":"tenantAmount","type":"uint256","internalType":"uint256"},{"name":"landlordAmount","type":"uint256","internalType":"uint256"}],"outputs":[],"stateMutability":"nonpayable"},{"type":"function","name":"depositCounter","inputs":[],"outputs":[{"name":"","type":"uint256","internalType":"uint256"}],"stateMutability":"view"},{"type":"function","name":"escalateToMultisig","inputs":[{"name":"depositId","type":"uint256","internalType":"uint256"}],"outputs":[],"stateMutability":"nonpayable"},{"type":"function","name":"extensions","inputs":[{"name":"","type":"bytes32","internalType":"bytes32"}],"outputs":[{"name":"","type":"address","internalType":"address"}],"stateMutability":"view"},{"type":"function","name":"getDepositBasic","inputs":[{"name":"depositId","type":"uint256","internalType":"uint256"}],"outputs":[{"name":"tenant","type":"address","internalType":"address"},{"name":"landlord","type":"address","internalType":"address"},{"name":"token","type":"address","internalType":"address"},{"name":"amount","type":"uint256","internalType":"uint256"},{"name":"status","type":"uint8","internalType":"enum Escrow.DepositStatus"},{"name":"multisigVoteCount","type":"uint8","internalType":"uint8"},{"name":"deadline","type":"uint256","internalType":"uint256"}],"stateMutability":"view"},{"type":"function","name":"getDepositSignatories","inputs":[{"name":"depositId","type":"uint256","internalType":"uint256"}],"outputs":[{"name":"tenantSigs","type":"address[3]","internalType":"address[3]"},{"name":"landlordSigs","type":"address[3]","internalType":"address[3]"}],"stateMutability":"view"},{"type":"function","name":"landlordApproveFullRefund","inputs":[{"name":"depositId","type":"uint256","internalType":"uint256"}],"outputs":[],"stateMutability":"nonpayable"},{"type":"function","name":"owner","inputs":[],"outputs":[{"name":"","type":"address","internalType":"address"}],"stateMutability":"view"},{"type":"function","name":"renounceOwnership","inputs":[],"outputs":[],"stateMutability":"nonpayable"},{"type":"function","name":"setDao","inputs":[{"name":"_dao","type":"address","internalType":"address"}],"outputs":[],"stateMutability":"nonpayable"},{"type":"function","name":"signatoryResolvePartial","inputs":[{"name":"depositId","type":"uint256","internalType":"uint256"},{"name":"tenantAmount","type":"uint256","internalType":"uint256"},{"name":"landlordAmount","type":"uint256","internalType":"uint256"}],"outputs":[],"stateMutability":"nonpayable"},{"type":"function","name":"tenantRequestRefund","inputs":[{"name":"depositId","type":"uint256","internalType":"uint256"}],"outputs":[],"stateMutability":"nonpayable"},{"type":"function","name":"transferDeposit","inputs":[{"name":"depositId","type":"uint256","internalType":"uint256"},{"name":"destinationType","type":"uint8","internalType":"enum Escrow.DestinationType"},{"name":"destination","type":"address","internalType":"address"},{"name":"bankDetails","type":"string","internalType":"string"},{"name":"amount","type":"uint256","internalType":"uint256"}],"outputs":[],"stateMutability":"nonpayable"},{"type":"function","name":"transferOwnership","inputs":[{"name":"newOwner","type":"address","internalType":"address"}],"outputs":[],"stateMutability":"nonpayable"},{"type":"function","name":"triggerDispute","inputs":[{"name":"depositId","type":"uint256","internalType":"uint256"}],"outputs":[],"stateMutability":"nonpayable"},{"type":"event","name":"DaoResolved","inputs":[{"name":"id","type":"uint256","indexed":true,"internalType":"uint256"},{"name":"tenantAmount","type":"uint256","indexed":false,"internalType":"uint256"},{"name":"landlordAmount","type":"uint256","indexed":false,"internalType":"uint256"}],"anonymous":false},{"type":"event","name":"DaoSet","inputs":[{"name":"dao","type":"address","indexed":false,"internalType":"address"}],"anonymous":false},{"type":"event","name":"DepositReceived","inputs":[{"name":"id","type":"uint256","indexed":true,"internalType":"uint256"},{"name":"tenant","type":"address","indexed":true,"internalType":"address"},{"name":"landlord","type":"address","indexed":true,"internalType":"address"},{"name":"token","type":"address","indexed":false,"internalType":"address"},{"name":"amount","type":"uint256","indexed":false,"internalType":"uint256"}],"anonymous":false},{"type":"event","name":"DepositReleasedToLandlord","inputs":[{"name":"id","type":"uint256","indexed":true,"internalType":"uint256"},{"name":"amount","type":"uint256","indexed":false,"internalType":"uint256"}],"anonymous":false},{"type":"event","name":"DepositReleasedToTenant","inputs":[{"name":"id","type":"uint256","indexed":true,"internalType":"uint256"},{"name":"amount","type":"uint256","indexed":false,"internalType":"uint256"}],"anonymous":false},{"type":"event","name":"DepositTransferred","inputs":[{"name":"id","type":"uint256","indexed":true,"internalType":"uint256"},{"name":"destinationType","type":"uint8","indexed":false,"internalType":"enum Escrow.DestinationType"},{"name":"destination","type":"address","indexed":false,"internalType":"address"},{"name":"bankDetails","type":"string","indexed":false,"internalType":"string"},{"name":"amount","type":"uint256","indexed":false,"internalType":"uint256"}],"anonymous":false},{"type":"event","name":"DisputeTriggered","inputs":[{"name":"id","type":"uint256","indexed":true,"internalType":"uint256"},{"name":"by","type":"address","indexed":false,"internalType":"address"}],"anonymous":false},{"type":"event","name":"EscalatedToMultisig","inputs":[{"name":"id","type":"uint256","indexed":true,"internalType":"uint256"},{"name":"by","type":"address","indexed":true,"internalType":"address"}],"anonymous":false},{"type":"event","name":"ExtensionAdded","inputs":[{"name":"key","type":"bytes32","indexed":false,"internalType":"bytes32"},{"name":"extension","type":"address","indexed":false,"internalType":"address"}],"anonymous":false},{"type":"event","name":"OwnershipTransferred","inputs":[{"name":"previousOwner","type":"address","indexed":true,"internalType":"address"},{"name":"newOwner","type":"address","indexed":true,"internalType":"address"}],"anonymous":false},{"type":"event","name":"PartialReleaseExecutedByQuorum","inputs":[{"name":"id","type":"uint256","indexed":true,"internalType":"uint256"},{"name":"tenantAmount","type":"uint256","indexed":false,"internalType":"uint256"},{"name":"landlordAmount","type":"uint256","indexed":false,"internalType":"uint256"}],"anonymous":false},{"type":"event","name":"PartialReleaseProposed","inputs":[{"name":"id","type":"uint256","indexed":true,"internalType":"uint256"},{"name":"signatory","type":"address","indexed":true,"internalType":"address"},{"name":"tenantAmount","type":"uint256","indexed":false,"internalType":"uint256"},{"name":"landlordAmount","type":"uint256","indexed":false,"internalType":"uint256"}],"anonymous":false},{"type":"event","name":"SimpleReleaseApproved","inputs":[{"name":"id","type":"uint256","indexed":true,"internalType":"uint256"},{"name":"approver","type":"address","indexed":false,"internalType":"address"}],"anonymous":false},{"type":"error","name":"OwnableInvalidOwner","inputs":[{"name":"owner","type":"address","internalType":"address"}]},{"type":"error","name":"OwnableUnauthorizedAccount","inputs":[{"name":"account","type":"address","internalType":"address"}]},{"type":"error","name":"ReentrancyGuardReentrantCall","inputs":[]}],"bytecode":{"object":"0x6080604052348015600e575f5ffd5b50604051612245380380612245833981016040819052602b9160b8565b806001600160a01b038116605857604051631e4fbdf760e01b81525f600482015260240160405180910390fd5b605f816069565b50506001805560e3565b5f80546001600160a01b038381166001600160a01b0319831681178455604051919092169283917f8be0079c531659141344cd1fd0a4f28419497f9722a3daafe3b4186f6b6457e09190a35050565b5f6020828403121560c7575f5ffd5b81516001600160a01b038116811460dc575f5ffd5b9392505050565b612155806100f05f395ff3fe608060405234801561000f575f5ffd5b506004361061011c575f3560e01c80636637b882116100a9578063ecb3dc881161006e578063ecb3dc88146102ba578063ecf3f3cc146102c3578063f2fde38b146102d6578063fc35bbf6146102e9578063fefbd875146102f3575f5ffd5b80636637b88214610269578063715018a61461027c5780638da5cb5b146102845780639cbf792814610294578063c25db4b3146102a7575f5ffd5b8063289d77d6116100ef578063289d77d6146101e45780634162169f1461020557806349320bfc146102305780634a30cced146102435780634fd20f2314610256575f5ffd5b80630afeb64c1461012057806316b91acc146101355780631f54771914610148578063261a8322146101c3575b5f5ffd5b61013361012e366004611cfd565b61031b565b005b610133610143366004611d26565b6104bd565b6101a7610156366004611d26565b5f908152600460208190526040909120805460018201546002830154600384015494840154600f850154600b909501546001600160a01b039485169793851696949092169460ff9182169391169190565b6040516101ba9796959493929190611d51565b60405180910390f35b6101d66101d1366004611d26565b610613565b6040516101ba929190611dda565b6101f76101f2366004611e20565b6106b8565b6040519081526020016101ba565b600354610218906001600160a01b031681565b6040516001600160a01b0390911681526020016101ba565b61013361023e366004611e81565b610d7a565b610133610251366004611eaf565b610e2f565b610133610264366004611cfd565b61109b565b610133610277366004611f56565b6114a6565b61013361154e565b5f546001600160a01b0316610218565b6101336102a2366004611d26565b611561565b6101336102b5366004611d26565b6116c9565b6101f760025481565b6101336102d1366004611d26565b611815565b6101336102e4366004611f56565b611987565b6101f762093a8081565b610218610301366004611d26565b60056020525f90815260409020546001600160a01b031681565b6103236119c1565b6003546001600160a01b0316331461036d5760405162461bcd60e51b81526020600482015260086024820152674f6e6c792044414f60c01b60448201526064015b60405180910390fd5b5f838152600460205260409020600360048083015460ff169081111561039557610395611d3d565b146103d35760405162461bcd60e51b815260206004820152600e60248201526d4e6f7420696e206469737075746560901b6044820152606401610364565b60038101546103e28385611f85565b1461041f5760405162461bcd60e51b815260206004820152600d60248201526c125b9d985b1a59081cdc1b1a5d609a1b6044820152606401610364565b6004818101805460ff1916909117905560028101548154610450916001600160a01b039081169116858760016119eb565b60028101546001820154610473916001600160a01b03908116911684875f6119eb565b604080518481526020810184905285917f3e28d5401afa098b85671fd98954abea7ec16f8ca171e4d86c6a4fd53c3a9979910160405180910390a2506104b860018055565b505050565b6104c56119c1565b5f81815260046020526040902080546001600160a01b0316331461052b5760405162461bcd60e51b815260206004820152601e60248201527f4f6e6c792074656e616e742063616e207265717565737420726566756e6400006044820152606401610364565b5f60048083015460ff169081111561054557610545611d3d565b146105925760405162461bcd60e51b815260206004820152601b60248201527f4465706f736974206e6f742070656e64696e672072656c6561736500000000006044820152606401610364565b335f90815260108201602052604090208054600160ff19918216811790925560048301805490911690911790556105cc62093a8042611f85565b600b82015560405133815282907f76c24092b7c179fbeadcf58c938b200d4d86028f47b27c98da6b2c1d6d500a149060200160405180910390a25061061060018055565b50565b61061b611cdf565b610623611cdf565b5f838152600460205260409081902081516060810192839052909160058301916008840191839060039082845b81546001600160a01b0316815260019091019060200180831161065057505060408051606081019182905294965085935060039250905082845b81546001600160a01b0316815260019091019060200180831161068a57505050505090509250925050915091565b5f6106c16119c1565b6001600160a01b0386166107075760405162461bcd60e51b815260206004820152600d60248201526c24b73b30b634b2103a37b5b2b760991b6044820152606401610364565b6001600160a01b0385166107505760405162461bcd60e51b815260206004820152601060248201526f125b9d985b1a59081b185b991b1bdc9960821b6044820152606401610364565b5f84116107945760405162461bcd60e51b81526020600482015260126024820152710416d6f756e74206d757374206265203e20360741b6044820152606401610364565b604051636eb1769f60e11b815233600482015230602482015284906001600160a01b0388169063dd62ed3e90604401602060405180830381865afa1580156107de573d5f5f3e3d5ffd5b505050506040513d601f19601f820116820180604052508101906108029190611f98565b10156108505760405162461bcd60e51b815260206004820152601c60248201527f455243323020616c6c6f77616e636520696e73756666696369656e74000000006044820152606401610364565b5f5b6003811015610b1c575f84826003811061086e5761086e611faf565b6020020160208101906108819190611f56565b6001600160a01b0316036108d75760405162461bcd60e51b815260206004820152601d60248201527f54656e616e74205369676e61746f7279207a65726f20616464726573730000006044820152606401610364565b5f8382600381106108ea576108ea611faf565b6020020160208101906108fd9190611f56565b6001600160a01b0316036109535760405162461bcd60e51b815260206004820152601f60248201527f4c616e646c6f7264205369676e61746f7279207a65726f2061646472657373006044820152606401610364565b5f546001600160a01b031684826003811061097057610970611faf565b6020020160208101906109839190611f56565b6001600160a01b0316036109d55760405162461bcd60e51b81526020600482015260196024820152784f776e65722063616e6e6f74206265207369676e61746f727960381b6044820152606401610364565b5f546001600160a01b03168382600381106109f2576109f2611faf565b602002016020810190610a059190611f56565b6001600160a01b031603610a575760405162461bcd60e51b81526020600482015260196024820152784f776e65722063616e6e6f74206265207369676e61746f727960381b6044820152606401610364565b5f5b6003811015610b1357838160038110610a7457610a74611faf565b602002016020810190610a879190611f56565b6001600160a01b0316858360038110610aa257610aa2611faf565b602002016020810190610ab59190611f56565b6001600160a01b031603610b0b5760405162461bcd60e51b815260206004820152601f60248201527f5369676e61746f72792063616e6e6f7420686f6c642074776f20726f6c6573006044820152606401610364565b600101610a59565b50600101610852565b5060408051336024820152306044820152606480820187905282518083039091018152608490910182526020810180516001600160e01b03166323b872dd60e01b17905290515f9182916001600160a01b038a1691610b7a91611fc3565b5f604051808303815f865af19150503d805f8114610bb3576040519150601f19603f3d011682016040523d82523d5f602084013e610bb8565b606091505b5091509150818015610be2575080511580610be2575080806020019051810190610be29190611fd9565b610c265760405162461bcd60e51b8152602060048201526015602482015274151bdad95b881d1c985b9cd9995c8819985a5b1959605a1b6044820152606401610364565b60025f81548092919060010191905055505f60025490505f60045f8381526020019081526020015f20905033815f015f6101000a8154816001600160a01b0302191690836001600160a01b0316021790555088816001015f6101000a8154816001600160a01b0302191690836001600160a01b0316021790555089816002015f6101000a8154816001600160a01b0302191690836001600160a01b031602179055508781600301819055505f816004015f6101000a81548160ff02191690836004811115610cf657610cf6611d3d565b021790555060058101610d098882611ff8565b5060088101610d188782611ff8565b50604080516001600160a01b038c81168252602082018b90528b1691339185917f795dc6f853092fd9cfa92d7211428d57ebd9a98a0681198818c7de00bc79f719910160405180910390a45092505050610d7160018055565b95945050505050565b610d82611b82565b6001600160a01b038116610dca5760405162461bcd60e51b815260206004820152600f60248201526e496e76616c6964206164647265737360881b6044820152606401610364565b5f8281526005602090815260409182902080546001600160a01b0319166001600160a01b0385169081179091558251858152918201527fe407cef646646daa0f25b0b9f08615b4db7188dffba941c46eef43dbc21aee4d910160405180910390a15050565b610e376119c1565b5f86815260046020526040902080546001600160a01b0316331480610e68575060018101546001600160a01b031633145b610eab5760405162461bcd60e51b815260206004820152601460248201527313db9b1e481d195b985b9d0bdb185b991b1bdc9960621b6044820152606401610364565b60048181015460ff1681811115610ec457610ec4611d3d565b03610f045760405162461bcd60e51b815260206004820152601060248201526f105b1c9958591e481c995b19585cd95960821b6044820152606401610364565b5f82118015610f17575080600301548211155b610f545760405162461bcd60e51b815260206004820152600e60248201526d125b9d985b1a5908185b5bdd5b9d60921b6044820152606401610364565b81816003015f828254610f679190612024565b909155505060038101545f03610f88576004818101805460ff191690911790555b5f866002811115610f9b57610f9b611d3d565b03610fe557867f940acd7ca9c4144573c5837cc6db0461235d4d49fd29f8d9a2b8b91b8c97f682875f878787604051610fd895949392919061204b565b60405180910390a2611089565b6001600160a01b0385166110315760405162461bcd60e51b815260206004820152601360248201527224b73b30b634b2103232b9ba34b730ba34b7b760691b6044820152606401610364565b600281015461104c906001600160a01b031686848a5f6119eb565b867f940acd7ca9c4144573c5837cc6db0461235d4d49fd29f8d9a2b8b91b8c97f682878785604051611080939291906120a1565b60405180910390a25b5061109360018055565b505050505050565b6110a36119c1565b826110ae8133611bae565b6110ec5760405162461bcd60e51b815260206004820152600f60248201526e4e6f742061207369676e61746f727960881b6044820152606401610364565b5f848152600460205260409020600260048083015460ff169081111561111457611114611d3d565b14806111385750600160048083015460ff169081111561113657611136611d3d565b145b6111965760405162461bcd60e51b815260206004820152602960248201527f4465706f736974206e6f7420726561647920666f72206d756c7469736967207260448201526832b9b7b63aba34b7b760b91b6064820152608401610364565b335f908152600e8201602052604090205460ff16156111f75760405162461bcd60e51b815260206004820181905260248201527f416c726561647920766f746564206f6e2074686973207265736f6c7574696f6e6044820152606401610364565b60038101546112068486611f85565b146112435760405162461bcd60e51b815260206004820152600d60248201526c125b9d985b1a59081cdc1b1a5d609a1b6044820152606401610364565b600f81015460ff165f036112fd57600160048083015460ff169081111561126c5761126c611d3d565b036112db5780546001600160a01b03165f90815260108201602052604090205460ff166112db5760405162461bcd60e51b815260206004820181905260248201527f54656e616e74206d757374207265717565737420726566756e642066697273746044820152606401610364565b600c8101849055600d810183905560048101805460ff1916600217905561136b565b8381600c015414801561131357508281600d0154145b61136b5760405162461bcd60e51b815260206004820152602360248201527f416d6f756e7473206d757374206d6174636820696e697469616c2070726f706f6044820152621cd85b60ea1b6064820152608401610364565b335f818152600e830160209081526040918290208054600160ff199182168117909255600f8601805491821660ff928316909301909116919091179055815187815290810186905287917f2bbf07303cbcaa7fd9a9d19154c3ae743935d9eca310b7421d48b0a45c9906c8910160405180910390a3600f810154600460ff9091161061149b576004818101805460ff1916909117905560028101548154600c830154611427926001600160a01b039081169216908860016119eb565b60028101546001820154600d83015461144f926001600160a01b03908116921690885f6119eb565b847f6afe538da0f6e852ed10d8d1df8af4f224ac0fff3d8eb30fde97dee250b670b582600c015483600d0154604051611492929190918252602082015260400190565b60405180910390a25b50506104b860018055565b6114ae611b82565b6001600160a01b0381166114fa5760405162461bcd60e51b8152602060048201526013602482015272496e76616c69642044414f206164647265737360681b6044820152606401610364565b600380546001600160a01b0319166001600160a01b0383169081179091556040519081527fe44f98492340b33cca2c1f812e0f05006c6612a7e5dc10304debc6c6156d4d409060200160405180910390a150565b611556611b82565b61155f5f611bd2565b565b5f8181526004602052604090206115788233611bae565b8061158c575080546001600160a01b031633145b806115a3575060018101546001600160a01b031633145b6115ef5760405162461bcd60e51b815260206004820152601a60248201527f4e6f7420617574686f72697a656420746f20657363616c6174650000000000006044820152606401610364565b600160048083015460ff169081111561160a5761160a611d3d565b146116275760405162461bcd60e51b8152600401610364906120d7565b5f81600b015411801561163e575080600b01544210155b61168a5760405162461bcd60e51b815260206004820152601d60248201527f4c616e646c6f726420646561646c696e65206e6f7420657870697265640000006044820152606401610364565b60048101805460ff19166002179055604051339083907fb8764141fd741bd86aa063d090242ae1f1bdd5c72c1c693caf5d5ff6a74bc27a905f90a35050565b6116d16119c1565b5f81815260046020526040902060018101546001600160a01b0316331461173a5760405162461bcd60e51b815260206004820152601960248201527f4f6e6c79206c616e646c6f72642063616e20617070726f7665000000000000006044820152606401610364565b600160048083015460ff169081111561175557611755611d3d565b146117725760405162461bcd60e51b8152600401610364906120d7565b80546001600160a01b03165f90815260108201602052604090205460ff166117d55760405162461bcd60e51b815260206004820152601660248201527554656e616e742072657175657374206d697373696e6760501b6044820152606401610364565b6004818101805460ff1916909117905560028101548154600383015461180b926001600160a01b039081169216908560016119eb565b5061061060018055565b5f81815260046020526040902080546001600160a01b0316331480611846575060018101546001600160a01b031633145b6118895760405162461bcd60e51b815260206004820152601460248201527313db9b1e481d195b985b9d0bdb185b991b1bdc9960621b6044820152606401610364565b600360048083015460ff16908111156118a4576118a4611d3d565b036118e65760405162461bcd60e51b8152602060048201526012602482015271416c726561647920696e206469737075746560701b6044820152606401610364565b60048181015460ff16818111156118ff576118ff611d3d565b0361193f5760405162461bcd60e51b815260206004820152601060248201526f105b1c9958591e481c995b19585cd95960821b6044820152606401610364565b60048101805460ff1916600317905560405133815282907f02ab46ac4f96561eeb8398125b8b6c482602893339a9134e19c0389554df03c99060200160405180910390a25050565b61198f611b82565b6001600160a01b0381166119b857604051631e4fbdf760e01b81525f6004820152602401610364565b61061081611bd2565b6002600154036119e457604051633ee5aeb560e01b815260040160405180910390fd5b6002600155565b8215611b7b57604080516001600160a01b038681166024830152604480830187905283518084039091018152606490920183526020820180516001600160e01b031663a9059cbb60e01b17905291515f92839290891691611a4c9190611fc3565b5f604051808303815f865af19150503d805f8114611a85576040519150601f19603f3d011682016040523d82523d5f602084013e611a8a565b606091505b5091509150818015611ab4575080511580611ab4575080806020019051810190611ab49190611fd9565b611af85760405162461bcd60e51b8152602060048201526015602482015274115490cc8c081d1c985b9cd9995c8819985a5b1959605a1b6044820152606401610364565b8215611b3d57837f3011c317db7b62bb61170a25a8deed56d7eaa6dd704533c7357913016970dc7a86604051611b3091815260200190565b60405180910390a2611b78565b837f38465f5976c5fc157381f04bf306fccb732ae03d849d7edbe70f87062404d8da86604051611b6f91815260200190565b60405180910390a25b50505b5050505050565b5f546001600160a01b0316331461155f5760405163118cdaa760e01b8152336004820152602401610364565b5f611bb98383611c21565b80611bc95750611bc98383611c85565b90505b92915050565b5f80546001600160a01b038381166001600160a01b0319831681178455604051919092169283917f8be0079c531659141344cd1fd0a4f28419497f9722a3daafe3b4186f6b6457e09190a35050565b5f828152600460205260408120815b6003811015611c7b57836001600160a01b0316826005018260038110611c5857611c58611faf565b01546001600160a01b031603611c7357600192505050611bcc565b600101611c30565b505f949350505050565b5f828152600460205260408120815b6003811015611c7b57836001600160a01b0316826008018260038110611cbc57611cbc611faf565b01546001600160a01b031603611cd757600192505050611bcc565b600101611c94565b60405180606001604052806003906020820280368337509192915050565b5f5f5f60608486031215611d0f575f5ffd5b505081359360208301359350604090920135919050565b5f60208284031215611d36575f5ffd5b5035919050565b634e487b7160e01b5f52602160045260245ffd5b6001600160a01b0388811682528781166020830152861660408201526060810185905260e0810160058510611d8857611d88611d3d565b84608083015260ff841660a08301528260c083015298975050505050505050565b805f5b6003811015611dd45781516001600160a01b0316845260209384019390910190600101611dac565b50505050565b60c08101611de88285611da9565b611df56060830184611da9565b9392505050565b6001600160a01b0381168114610610575f5ffd5b8060608101831015611bcc575f5ffd5b5f5f5f5f5f6101208688031215611e35575f5ffd5b8535611e4081611dfc565b94506020860135611e5081611dfc565b935060408601359250611e668760608801611e10565b9150611e758760c08801611e10565b90509295509295909350565b5f5f60408385031215611e92575f5ffd5b823591506020830135611ea481611dfc565b809150509250929050565b5f5f5f5f5f5f60a08789031215611ec4575f5ffd5b86359550602087013560038110611ed9575f5ffd5b94506040870135611ee981611dfc565b9350606087013567ffffffffffffffff811115611f04575f5ffd5b8701601f81018913611f14575f5ffd5b803567ffffffffffffffff811115611f2a575f5ffd5b896020828401011115611f3b575f5ffd5b96999598509396602090940195946080909401359392505050565b5f60208284031215611f66575f5ffd5b8135611df581611dfc565b634e487b7160e01b5f52601160045260245ffd5b80820180821115611bcc57611bcc611f71565b5f60208284031215611fa8575f5ffd5b5051919050565b634e487b7160e01b5f52603260045260245ffd5b5f82518060208501845e5f920191825250919050565b5f60208284031215611fe9575f5ffd5b81518015158114611df5575f5ffd5b815f5b6003811015611dd4575f823561201081611dfc565b848301555060209190910190600101611ffb565b81810381811115611bcc57611bcc611f71565b6003811061204757612047611d3d565b9052565b6120558187612037565b6001600160a01b03851660208201526080604082018190528101839052828460a08301375f60a084830101525f60a0601f19601f86011683010190508260608301529695505050505050565b6120ab8185612037565b6001600160a01b039290921660208301526080604083018190525f90830152606082015260a001919050565b60208082526028908201527f4465706f736974206d75737420626520696e2053696d706c6541677265656d656040820152676e7420737461746560c01b60608201526080019056fea26469706673582212202ba39c95251a1b01f7acc3116c59b7202c407a149529e2ccc94d8d3937ea1de764736f6c63430008210033","linkReferences":{}},"methodIdentifiers":{"DEADLINE_DURATION()":"fc35bbf6","addExtension(bytes32,address)":"49320bfc","createDeposit(address,address,uint256,address[3],address[3])":"289d77d6","dao()":"4162169f","daoResolve(uint256,uint256,uint256)":"0afeb64c","depositCounter()":"ecb3dc88","escalateToMultisig(uint256)":"9cbf7928","extensions(bytes32)":"fefbd875","getDepositBasic(uint256)":"1f547719","getDepositSignatories(uint256)":"261a8322","landlordApproveFullRefund(uint256)":"c25db4b3","owner()":"8da5cb5b","renounceOwnership()":"715018a6","setDao(address)":"6637b882","signatoryResolvePartial(uint256,uint256,uint256)":"4fd20f23","tenantRequestRefund(uint256)":"16b91acc","transferDeposit(uint256,uint8,address,string,uint256)":"4a30cced","transferOwnership(address)":"f2fde38b","triggerDispute(uint256)":"ecf3f3cc"},"id":0}