{"abi":[{"type":"constructor","inputs":[{"name":"initialOwner","type":"address","internalType":"address"}],"stateMutability":"nonpayable"},{"type":"function","name":"DEADLINE_DURATION","inputs":[],"outputs":[{"name":"","type":"uint256","internalType":"uint256"}],"stateMutability":"view"},{"type":"function","name":"addExtension","inputs":[{"name":"key","type":"bytes32","internalType":"bytes32"},{"name":"ext","type":"address","internalType":"address"}],"outputs":[],"stateMutability":"nonpayable"},{"type":"function","name":"createDeposit","inputs":[{"name":"_token","type":"address","internalType":"contract IERC20"},{"name":"landlord","type":"address","internalType":"address"},{"name":"amount","type":"uint256","internalType":"uint256"},{"name":"tenantSignatories","type":"address[3]","internalType":"address[3]"},{"name":"landlordSignatories","type":"address[3]","internalType":"address[3]"}],"outputs":[{"name":"","type":"uint256","internalType":"uint256"}],"stateMutability":"nonpayable"},{"type":"function","name":"dao","inputs":[],"outputs":[{"name":"","type":"address","internalType":"address"}],"stateMutability":"view"},{"type":"function","name":"daoResolve","inputs":[{"name":"depositId","type":"uint256","internalType":"uint256"},{"name":"tenantAmount","type":"uint256","internalType":"uint256"},{"name":"landlordAmount","type":"uint256","internalType":"uint256"}],"outputs":[],"stateMutability":"nonpayable"},{"type":"function","name":"depositCounter","inputs":[],"outputs":[{"name":"","type":"uint256","internalType":"uint256"}],"stateMutability":"view"},{"type":"function","name":"escalateToMultisig","inputs":[{"name":"depositId","type":"uint256","internalType":"uint256"}],"outputs":[],"stateMutability":"nonpayable"},{"type":"function","name":"extensions","inputs":[{"name":"","type":"bytes32","internalType":"bytes32"}],"outputs":[{"name":"","type":"address","internalType":"address"}],"stateMutability":"view"},{"type":"function","name":"getDepositBasic","inputs":[{"name":"depositId","type":"uint256","internalType":"uint256"}],"outputs":[{"name":"tenant","type":"address","internalType":"address"},{"name":"landlord","type":"address","internalType":"address"},{"name":"token","type":"address","internalType":"address"},{"name":"amount","type":"uint256","internalType":"uint256"},{"name":"status","type":"uint8","internalType":"enum Escrow.DepositStatus"},{"name":"multisigVoteCount","type":"uint8","internalType":"uint8"},{"name":"deadline","type":"uint256","internalType":"uint256"}],"stateMutability":"view"},{"type":"function","name":"getDepositSignatories","inputs":[{"name":"depositId","type":"uint256","internalType":"uint256"}],"outputs":[{"name":"tenantSigs","type":"address[3]","internalType":"address[3]"},{"name":"landlordSigs","type":"address[3]","internalType":"address[3]"}],"stateMutability":"view"},{"type":"function","name":"landlordApproveFullRefund","inputs":[{"name":"depositId","type":"uint256","internalType":"uint256"}],"outputs":[],"stateMutability":"nonpayable"},{"type":"function","name":"owner","inputs":[],"outputs":[{"name":"","type":"address","internalType":"address"}],"stateMutability":"view"},{"type":"function","name":"renounceOwnership","inputs":[],"outputs":[],"stateMutability":"nonpayable"},{"type":"function","name":"setDAO","inputs":[{"name":"_dao","type":"address","internalType":"address"}],"outputs":[],"stateMutability":"nonpayable"},{"type":"function","name":"signatoryResolvePartial","inputs":[{"name":"depositId","type":"uint256","internalType":"uint256"},{"name":"tenantAmount","type":"uint256","internalType":"uint256"},{"name":"landlordAmount","type":"uint256","internalType":"uint256"}],"outputs":[],"stateMutability":"nonpayable"},{"type":"function","name":"tenantRequestRefund","inputs":[{"name":"depositId","type":"uint256","internalType":"uint256"}],"outputs":[],"stateMutability":"nonpayable"},{"type":"function","name":"transferOwnership","inputs":[{"name":"newOwner","type":"address","internalType":"address"}],"outputs":[],"stateMutability":"nonpayable"},{"type":"function","name":"triggerDispute","inputs":[{"name":"depositId","type":"uint256","internalType":"uint256"}],"outputs":[],"stateMutability":"nonpayable"},{"type":"event","name":"DAOResolved","inputs":[{"name":"id","type":"uint256","indexed":true,"internalType":"uint256"},{"name":"tenantAmount","type":"uint256","indexed":false,"internalType":"uint256"},{"name":"landlordAmount","type":"uint256","indexed":false,"internalType":"uint256"}],"anonymous":false},{"type":"event","name":"DAOSet","inputs":[{"name":"dao","type":"address","indexed":false,"internalType":"address"}],"anonymous":false},{"type":"event","name":"DepositReceived","inputs":[{"name":"id","type":"uint256","indexed":true,"internalType":"uint256"},{"name":"tenant","type":"address","indexed":true,"internalType":"address"},{"name":"landlord","type":"address","indexed":true,"internalType":"address"},{"name":"token","type":"address","indexed":false,"internalType":"address"},{"name":"amount","type":"uint256","indexed":false,"internalType":"uint256"}],"anonymous":false},{"type":"event","name":"DepositReleasedToLandlord","inputs":[{"name":"id","type":"uint256","indexed":true,"internalType":"uint256"},{"name":"amount","type":"uint256","indexed":false,"internalType":"uint256"}],"anonymous":false},{"type":"event","name":"DepositReleasedToTenant","inputs":[{"name":"id","type":"uint256","indexed":true,"internalType":"uint256"},{"name":"amount","type":"uint256","indexed":false,"internalType":"uint256"}],"anonymous":false},{"type":"event","name":"DisputeTriggered","inputs":[{"name":"id","type":"uint256","indexed":true,"internalType":"uint256"},{"name":"by","type":"address","indexed":false,"internalType":"address"}],"anonymous":false},{"type":"event","name":"EscalatedToMultisig","inputs":[{"name":"id","type":"uint256","indexed":true,"internalType":"uint256"},{"name":"by","type":"address","indexed":true,"internalType":"address"}],"anonymous":false},{"type":"event","name":"ExtensionAdded","inputs":[{"name":"key","type":"bytes32","indexed":false,"internalType":"bytes32"},{"name":"extension","type":"address","indexed":false,"internalType":"address"}],"anonymous":false},{"type":"event","name":"OwnershipTransferred","inputs":[{"name":"previousOwner","type":"address","indexed":true,"internalType":"address"},{"name":"newOwner","type":"address","indexed":true,"internalType":"address"}],"anonymous":false},{"type":"event","name":"PartialReleaseExecutedByQuorum","inputs":[{"name":"id","type":"uint256","indexed":true,"internalType":"uint256"},{"name":"tenantAmount","type":"uint256","indexed":false,"internalType":"uint256"},{"name":"landlordAmount","type":"uint256","indexed":false,"internalType":"uint256"}],"anonymous":false},{"type":"event","name":"PartialReleaseProposed","inputs":[{"name":"id","type":"uint256","indexed":true,"internalType":"uint256"},{"name":"signatory","type":"address","indexed":true,"internalType":"address"},{"name":"tenantAmount","type":"uint256","indexed":false,"internalType":"uint256"},{"name":"landlordAmount","type":"uint256","indexed":false,"internalType":"uint256"}],"anonymous":false},{"type":"event","name":"SimpleReleaseApproved","inputs":[{"name":"id","type":"uint256","indexed":true,"internalType":"uint256"},{"name":"approver","type":"address","indexed":false,"internalType":"address"}],"anonymous":false},{"type":"error","name":"OwnableInvalidOwner","inputs":[{"name":"owner","type":"address","internalType":"address"}]},{"type":"error","name":"OwnableUnauthorizedAccount","inputs":[{"name":"account","type":"address","internalType":"address"}]},{"type":"error","name":"ReentrancyGuardReentrantCall","inputs":[]}],"bytecode":{"object":"0x608060405234801561000f575f5ffd5b50604051611f56380380611f5683398101604081905261002e916100df565b806001600160a01b03811661005c57604051631e4fbdf760e01b81525f600482015260240160405180910390fd5b61006581610090565b5060017f9b779b17422d0df92223018b32b4d1fa46e071723d6817e2486d003becc55f00555061010c565b5f80546001600160a01b038381166001600160a01b0319831681178455604051919092169283917f8be0079c531659141344cd1fd0a4f28419497f9722a3daafe3b4186f6b6457e09190a35050565b5f602082840312156100ef575f5ffd5b81516001600160a01b0381168114610105575f5ffd5b9392505050565b611e3d806101195f395ff3fe608060405234801561000f575f5ffd5b5060043610610111575f3560e01c80638da5cb5b1161009e578063ecb3dc881161006e578063ecb3dc88146102a0578063ecf3f3cc146102a9578063f2fde38b146102bc578063fc35bbf6146102cf578063fefbd875146102d9575f5ffd5b80638da5cb5b146102575780639cbf792814610267578063c25db4b31461027a578063e73a914c1461028d575f5ffd5b8063289d77d6116100e4578063289d77d6146101dd5780634162169f146101fe57806349320bfc146102295780634fd20f231461023c578063715018a61461024f575f5ffd5b80630afeb64c1461011557806316b91acc1461012a5780631f5477191461013d578063261a8322146101bc575b5f5ffd5b610128610123366004611b47565b610301565b005b610128610138366004611b70565b6104b2565b6101a061014b366004611b70565b5f908152600360208190526040909120805460018201546002830154938301546004840154600f850154600b909501546001600160a01b0394851697938516969490941694919360ff91821693919092169190565b6040516101b39796959493929190611b9b565b60405180910390f35b6101cf6101ca366004611b70565b610615565b6040516101b3929190611c30565b6101f06101eb366004611c76565b6106bb565b6040519081526020016101b3565b600254610211906001600160a01b031681565b6040516001600160a01b0390911681526020016101b3565b610128610237366004611cd7565b610d8c565b61012861024a366004611b47565b610e41565b610128611259565b5f546001600160a01b0316610211565b610128610275366004611b70565b61126c565b610128610288366004611b70565b6113d4565b61012861029b366004611d05565b61152d565b6101f060015481565b6101286102b7366004611b70565b6115d5565b6101286102ca366004611d05565b611747565b6101f062093a8081565b6102116102e7366004611b70565b60046020525f90815260409020546001600160a01b031681565b610309611781565b6002546001600160a01b031633146103535760405162461bcd60e51b81526020600482015260086024820152674f6e6c792044414f60c01b60448201526064015b60405180910390fd5b5f8381526003602081905260409091209060048083015460ff169081111561037d5761037d611b87565b146103bb5760405162461bcd60e51b815260206004820152600e60248201526d4e6f7420696e206469737075746560901b604482015260640161034a565b60038101546103ca8385611d20565b146104075760405162461bcd60e51b815260206004820152600d60248201526c125b9d985b1a59081cdc1b1a5d609a1b604482015260640161034a565b6004818101805460ff1916909117905560028101548154610438916001600160a01b0390811691168587600161179c565b6002810154600182015461045b916001600160a01b03908116911684875f61179c565b604080518481526020810184905285917f8756f6d7f0a4a2d66758518e0ff369ce44091c14138eed7c92e793146711fc34910160405180910390a2506104ad60015f516020611de85f395f51905f5255565b505050565b6104ba611781565b5f81815260036020526040902080546001600160a01b031633146105205760405162461bcd60e51b815260206004820152601e60248201527f4f6e6c792074656e616e742063616e207265717565737420726566756e640000604482015260640161034a565b5f60048083015460ff169081111561053a5761053a611b87565b146105875760405162461bcd60e51b815260206004820152601b60248201527f4465706f736974206e6f742070656e64696e672072656c656173650000000000604482015260640161034a565b335f90815260108201602052604090208054600160ff19918216811790925560048301805490911690911790556105c162093a8042611d20565b600b82015560405133815282907f76c24092b7c179fbeadcf58c938b200d4d86028f47b27c98da6b2c1d6d500a149060200160405180910390a25061061260015f516020611de85f395f51905f5255565b50565b61061d611abf565b610625611abf565b5f83815260036020819052604091829020825160608101938490529092600584019260088501929184919082845b81546001600160a01b0316815260019091019060200180831161065357505060408051606081019182905294965085935060039250905082845b81546001600160a01b0316815260019091019060200180831161068d57505050505090509250925050915091565b5f6106c4611781565b6001600160a01b03861661070a5760405162461bcd60e51b815260206004820152600d60248201526c24b73b30b634b2103a37b5b2b760991b604482015260640161034a565b6001600160a01b0385166107535760405162461bcd60e51b815260206004820152601060248201526f125b9d985b1a59081b185b991b1bdc9960821b604482015260640161034a565b5f84116107975760405162461bcd60e51b81526020600482015260126024820152710416d6f756e74206d757374206265203e20360741b604482015260640161034a565b604051636eb1769f60e11b815233600482015230602482015284906001600160a01b0388169063dd62ed3e90604401602060405180830381865afa1580156107e1573d5f5f3e3d5ffd5b505050506040513d601f19601f820116820180604052508101906108059190611d3f565b10156108535760405162461bcd60e51b815260206004820152601c60248201527f455243323020616c6c6f77616e636520696e73756666696369656e7400000000604482015260640161034a565b5f5b6003811015610b1f575f84826003811061087157610871611d56565b6020020160208101906108849190611d05565b6001600160a01b0316036108da5760405162461bcd60e51b815260206004820152601d60248201527f54656e616e74205369676e61746f7279207a65726f2061646472657373000000604482015260640161034a565b5f8382600381106108ed576108ed611d56565b6020020160208101906109009190611d05565b6001600160a01b0316036109565760405162461bcd60e51b815260206004820152601f60248201527f4c616e646c6f7264205369676e61746f7279207a65726f206164647265737300604482015260640161034a565b5f546001600160a01b031684826003811061097357610973611d56565b6020020160208101906109869190611d05565b6001600160a01b0316036109d85760405162461bcd60e51b81526020600482015260196024820152784f776e65722063616e6e6f74206265207369676e61746f727960381b604482015260640161034a565b5f546001600160a01b03168382600381106109f5576109f5611d56565b602002016020810190610a089190611d05565b6001600160a01b031603610a5a5760405162461bcd60e51b81526020600482015260196024820152784f776e65722063616e6e6f74206265207369676e61746f727960381b604482015260640161034a565b5f5b6003811015610b1657838160038110610a7757610a77611d56565b602002016020810190610a8a9190611d05565b6001600160a01b0316858360038110610aa557610aa5611d56565b602002016020810190610ab89190611d05565b6001600160a01b031603610b0e5760405162461bcd60e51b815260206004820152601f60248201527f5369676e61746f72792063616e6e6f7420686f6c642074776f20726f6c657300604482015260640161034a565b600101610a5c565b50600101610855565b5060408051336024820152306044820152606480820187905282518083039091018152608490910182526020810180516001600160e01b03166323b872dd60e01b17905290515f9182916001600160a01b038a1691610b7d91611d6a565b5f604051808303815f865af19150503d805f8114610bb6576040519150601f19603f3d011682016040523d82523d5f602084013e610bbb565b606091505b5091509150818015610be5575080511580610be5575080806020019051810190610be59190611d80565b610c295760405162461bcd60e51b8152602060048201526015602482015274151bdad95b881d1c985b9cd9995c8819985a5b1959605a1b604482015260640161034a565b60015f81548092919060010191905055505f60015490505f60035f8381526020019081526020015f20905033815f015f6101000a8154816001600160a01b0302191690836001600160a01b0316021790555088816001015f6101000a8154816001600160a01b0302191690836001600160a01b0316021790555089816002015f6101000a8154816001600160a01b0302191690836001600160a01b031602179055508781600301819055505f816004015f6101000a81548160ff02191690836004811115610cf957610cf9611b87565b0217905550610d0d60058201886003611add565b50610d1d60088201876003611add565b50604080516001600160a01b038c81168252602082018b90528b1691339185917f795dc6f853092fd9cfa92d7211428d57ebd9a98a0681198818c7de00bc79f719910160405180910390a45092505050610d8360015f516020611de85f395f51905f5255565b95945050505050565b610d94611933565b6001600160a01b038116610ddc5760405162461bcd60e51b815260206004820152600f60248201526e496e76616c6964206164647265737360881b604482015260640161034a565b5f8281526004602090815260409182902080546001600160a01b0319166001600160a01b0385169081179091558251858152918201527fe407cef646646daa0f25b0b9f08615b4db7188dffba941c46eef43dbc21aee4d910160405180910390a15050565b610e49611781565b82610e54813361195f565b610e925760405162461bcd60e51b815260206004820152600f60248201526e4e6f742061207369676e61746f727960881b604482015260640161034a565b5f848152600360205260409020600260048083015460ff1690811115610eba57610eba611b87565b1480610ede5750600160048083015460ff1690811115610edc57610edc611b87565b145b610f3c5760405162461bcd60e51b815260206004820152602960248201527f4465706f736974206e6f7420726561647920666f72206d756c7469736967207260448201526832b9b7b63aba34b7b760b91b606482015260840161034a565b335f908152600e8201602052604090205460ff1615610f9d5760405162461bcd60e51b815260206004820181905260248201527f416c726561647920766f746564206f6e2074686973207265736f6c7574696f6e604482015260640161034a565b6003810154610fac8486611d20565b14610fe95760405162461bcd60e51b815260206004820152600d60248201526c125b9d985b1a59081cdc1b1a5d609a1b604482015260640161034a565b600f81015460ff165f036110a357600160048083015460ff169081111561101257611012611b87565b036110815780546001600160a01b03165f90815260108201602052604090205460ff166110815760405162461bcd60e51b815260206004820181905260248201527f54656e616e74206d757374207265717565737420726566756e64206669727374604482015260640161034a565b600c8101849055600d810183905560048101805460ff19166002179055611111565b8381600c01541480156110b957508281600d0154145b6111115760405162461bcd60e51b815260206004820152602360248201527f416d6f756e7473206d757374206d6174636820696e697469616c2070726f706f6044820152621cd85b60ea1b606482015260840161034a565b335f818152600e830160209081526040918290208054600160ff199182168117909255600f8601805491821660ff928316909301909116919091179055815187815290810186905287917f2bbf07303cbcaa7fd9a9d19154c3ae743935d9eca310b7421d48b0a45c9906c8910160405180910390a3600f810154600460ff90911610611241576004818101805460ff1916909117905560028101548154600c8301546111cd926001600160a01b0390811692169088600161179c565b60028101546001820154600d8301546111f5926001600160a01b03908116921690885f61179c565b847f6afe538da0f6e852ed10d8d1df8af4f224ac0fff3d8eb30fde97dee250b670b582600c015483600d0154604051611238929190918252602082015260400190565b60405180910390a25b50506104ad60015f516020611de85f395f51905f5255565b611261611933565b61126a5f611983565b565b5f818152600360205260409020611283823361195f565b80611297575080546001600160a01b031633145b806112ae575060018101546001600160a01b031633145b6112fa5760405162461bcd60e51b815260206004820152601a60248201527f4e6f7420617574686f72697a656420746f20657363616c617465000000000000604482015260640161034a565b600160048083015460ff169081111561131557611315611b87565b146113325760405162461bcd60e51b815260040161034a90611d9f565b5f81600b0154118015611349575080600b01544210155b6113955760405162461bcd60e51b815260206004820152601d60248201527f4c616e646c6f726420646561646c696e65206e6f742065787069726564000000604482015260640161034a565b60048101805460ff19166002179055604051339083907fb8764141fd741bd86aa063d090242ae1f1bdd5c72c1c693caf5d5ff6a74bc27a905f90a35050565b6113dc611781565b5f81815260036020526040902060018101546001600160a01b031633146114455760405162461bcd60e51b815260206004820152601960248201527f4f6e6c79206c616e646c6f72642063616e20617070726f766500000000000000604482015260640161034a565b600160048083015460ff169081111561146057611460611b87565b1461147d5760405162461bcd60e51b815260040161034a90611d9f565b80546001600160a01b03165f90815260108201602052604090205460ff166114e05760405162461bcd60e51b815260206004820152601660248201527554656e616e742072657175657374206d697373696e6760501b604482015260640161034a565b6004818101805460ff19169091179055600281015481546003830154611516926001600160a01b0390811692169085600161179c565b5061061260015f516020611de85f395f51905f5255565b611535611933565b6001600160a01b0381166115815760405162461bcd60e51b8152602060048201526013602482015272496e76616c69642044414f206164647265737360681b604482015260640161034a565b600280546001600160a01b0319166001600160a01b0383169081179091556040519081527f8aad84fcad50e723fa3bcf0fb32c5bea4c71078b77b9aedfa638f146f3a3f7b99060200160405180910390a150565b5f81815260036020526040902080546001600160a01b0316331480611606575060018101546001600160a01b031633145b6116495760405162461bcd60e51b815260206004820152601460248201527313db9b1e481d195b985b9d0bdb185b991b1bdc9960621b604482015260640161034a565b600360048083015460ff169081111561166457611664611b87565b036116a65760405162461bcd60e51b8152602060048201526012602482015271416c726561647920696e206469737075746560701b604482015260640161034a565b60048181015460ff16818111156116bf576116bf611b87565b036116ff5760405162461bcd60e51b815260206004820152601060248201526f105b1c9958591e481c995b19585cd95960821b604482015260640161034a565b60048101805460ff1916600317905560405133815282907f02ab46ac4f96561eeb8398125b8b6c482602893339a9134e19c0389554df03c99060200160405180910390a25050565b61174f611933565b6001600160a01b03811661177857604051631e4fbdf760e01b81525f600482015260240161034a565b61061281611983565b6117896119d2565b60025f516020611de85f395f51905f5255565b821561192c57604080516001600160a01b038681166024830152604480830187905283518084039091018152606490920183526020820180516001600160e01b031663a9059cbb60e01b17905291515f928392908916916117fd9190611d6a565b5f604051808303815f865af19150503d805f8114611836576040519150601f19603f3d011682016040523d82523d5f602084013e61183b565b606091505b50915091508180156118655750805115806118655750808060200190518101906118659190611d80565b6118a95760405162461bcd60e51b8152602060048201526015602482015274115490cc8c081d1c985b9cd9995c8819985a5b1959605a1b604482015260640161034a565b82156118ee57837f3011c317db7b62bb61170a25a8deed56d7eaa6dd704533c7357913016970dc7a866040516118e191815260200190565b60405180910390a2611929565b837f38465f5976c5fc157381f04bf306fccb732ae03d849d7edbe70f87062404d8da8660405161192091815260200190565b60405180910390a25b50505b5050505050565b5f546001600160a01b0316331461126a5760405163118cdaa760e01b815233600482015260240161034a565b5f61196a8383611a01565b8061197a575061197a8383611a65565b90505b92915050565b5f80546001600160a01b038381166001600160a01b0319831681178455604051919092169283917f8be0079c531659141344cd1fd0a4f28419497f9722a3daafe3b4186f6b6457e09190a35050565b5f516020611de85f395f51905f525460020361126a57604051633ee5aeb560e01b815260040160405180910390fd5b5f828152600360205260408120815b6003811015611a5b57836001600160a01b0316826005018260038110611a3857611a38611d56565b01546001600160a01b031603611a535760019250505061197d565b600101611a10565b505f949350505050565b5f828152600360205260408120815b6003811015611a5b57836001600160a01b0316826008018260038110611a9c57611a9c611d56565b01546001600160a01b031603611ab75760019250505061197d565b600101611a74565b60405180606001604052806003906020820280368337509192915050565b8260038101928215611b23579160200282015b82811115611b235781546001600160a01b0319166001600160a01b03843516178255602090920191600190910190611af0565b50611b2f929150611b33565b5090565b5b80821115611b2f575f8155600101611b34565b5f5f5f60608486031215611b59575f5ffd5b505081359360208301359350604090920135919050565b5f60208284031215611b80575f5ffd5b5035919050565b634e487b7160e01b5f52602160045260245ffd5b6001600160a01b0388811682528781166020830152861660408201526060810185905260e0810160058510611bde57634e487b7160e01b5f52602160045260245ffd5b84608083015260ff841660a08301528260c083015298975050505050505050565b805f5b6003811015611c2a5781516001600160a01b0316845260209384019390910190600101611c02565b50505050565b60c08101611c3e8285611bff565b611c4b6060830184611bff565b9392505050565b6001600160a01b0381168114610612575f5ffd5b806060810183101561197d575f5ffd5b5f5f5f5f5f6101208688031215611c8b575f5ffd5b8535611c9681611c52565b94506020860135611ca681611c52565b935060408601359250611cbc8760608801611c66565b9150611ccb8760c08801611c66565b90509295509295909350565b5f5f60408385031215611ce8575f5ffd5b823591506020830135611cfa81611c52565b809150509250929050565b5f60208284031215611d15575f5ffd5b8135611c4b81611c52565b8082018082111561197d57634e487b7160e01b5f52601160045260245ffd5b5f60208284031215611d4f575f5ffd5b5051919050565b634e487b7160e01b5f52603260045260245ffd5b5f82518060208501845e5f920191825250919050565b5f60208284031215611d90575f5ffd5b81518015158114611c4b575f5ffd5b60208082526028908201527f4465706f736974206d75737420626520696e2053696d706c6541677265656d656040820152676e7420737461746560c01b60608201526080019056fe9b779b17422d0df92223018b32b4d1fa46e071723d6817e2486d003becc55f00a26469706673582212205bfa0da8cbdb1b8d4bf9180fe2046357feed30cbacbbf5c940a128b9ce0b5c1f64736f6c634300081b0033","linkReferences":{}},"methodIdentifiers":{"DEADLINE_DURATION()":"fc35bbf6","addExtension(bytes32,address)":"49320bfc","createDeposit(address,address,uint256,address[3],address[3])":"289d77d6","dao()":"4162169f","daoResolve(uint256,uint256,uint256)":"0afeb64c","depositCounter()":"ecb3dc88","escalateToMultisig(uint256)":"9cbf7928","extensions(bytes32)":"fefbd875","getDepositBasic(uint256)":"1f547719","getDepositSignatories(uint256)":"261a8322","landlordApproveFullRefund(uint256)":"c25db4b3","owner()":"8da5cb5b","renounceOwnership()":"715018a6","setDAO(address)":"e73a914c","signatoryResolvePartial(uint256,uint256,uint256)":"4fd20f23","tenantRequestRefund(uint256)":"16b91acc","transferOwnership(address)":"f2fde38b","triggerDispute(uint256)":"ecf3f3cc"},"id":0}