{"abi":[{"type":"constructor","inputs":[{"name":"initialOwner","type":"address","internalType":"address"}],"stateMutability":"nonpayable"},{"type":"receive","stateMutability":"payable"},{"type":"function","name":"RESOLUTION_WINDOW","inputs":[],"outputs":[{"name":"","type":"uint256","internalType":"uint256"}],"stateMutability":"view"},{"type":"function","name":"decideDispute","inputs":[{"name":"escrowId","type":"uint256","internalType":"uint256"},{"name":"decision","type":"uint8","internalType":"enum UltraRentzDAO.Decision"},{"name":"amountReleased","type":"uint256","internalType":"uint256"}],"outputs":[],"stateMutability":"nonpayable"},{"type":"function","name":"disputes","inputs":[{"name":"","type":"uint256","internalType":"uint256"}],"outputs":[{"name":"escrowId","type":"uint256","internalType":"uint256"},{"name":"tenant","type":"address","internalType":"address"},{"name":"landlord","type":"address","internalType":"address"},{"name":"amount","type":"uint256","internalType":"uint256"},{"name":"decision","type":"uint8","internalType":"enum UltraRentzDAO.Decision"},{"name":"createdAt","type":"uint256","internalType":"uint256"},{"name":"appealed","type":"bool","internalType":"bool"},{"name":"resolved","type":"bool","internalType":"bool"}],"stateMutability":"view"},{"type":"function","name":"owner","inputs":[],"outputs":[{"name":"","type":"address","internalType":"address"}],"stateMutability":"view"},{"type":"function","name":"pause","inputs":[],"outputs":[],"stateMutability":"nonpayable"},{"type":"function","name":"paused","inputs":[],"outputs":[{"name":"","type":"bool","internalType":"bool"}],"stateMutability":"view"},{"type":"function","name":"referDispute","inputs":[{"name":"escrowId","type":"uint256","internalType":"uint256"},{"name":"tenant","type":"address","internalType":"address"},{"name":"landlord","type":"address","internalType":"address"},{"name":"amount","type":"uint256","internalType":"uint256"}],"outputs":[],"stateMutability":"nonpayable"},{"type":"function","name":"renounceOwnership","inputs":[],"outputs":[],"stateMutability":"nonpayable"},{"type":"function","name":"submitAppeal","inputs":[{"name":"escrowId","type":"uint256","internalType":"uint256"}],"outputs":[],"stateMutability":"nonpayable"},{"type":"function","name":"transferOwnership","inputs":[{"name":"newOwner","type":"address","internalType":"address"}],"outputs":[],"stateMutability":"nonpayable"},{"type":"function","name":"unpause","inputs":[],"outputs":[],"stateMutability":"nonpayable"},{"type":"function","name":"withdrawEther","inputs":[{"name":"to","type":"address","internalType":"address payable"}],"outputs":[],"stateMutability":"nonpayable"},{"type":"event","name":"AppealSubmitted","inputs":[{"name":"escrowId","type":"uint256","indexed":true,"internalType":"uint256"}],"anonymous":false},{"type":"event","name":"DecisionMade","inputs":[{"name":"escrowId","type":"uint256","indexed":true,"internalType":"uint256"},{"name":"decision","type":"uint8","indexed":false,"internalType":"enum UltraRentzDAO.Decision"},{"name":"amountReleased","type":"uint256","indexed":false,"internalType":"uint256"}],"anonymous":false},{"type":"event","name":"DisputeReferred","inputs":[{"name":"escrowId","type":"uint256","indexed":true,"internalType":"uint256"},{"name":"tenant","type":"address","indexed":true,"internalType":"address"},{"name":"landlord","type":"address","indexed":true,"internalType":"address"}],"anonymous":false},{"type":"event","name":"OwnershipTransferred","inputs":[{"name":"previousOwner","type":"address","indexed":true,"internalType":"address"},{"name":"newOwner","type":"address","indexed":true,"internalType":"address"}],"anonymous":false},{"type":"event","name":"Paused","inputs":[{"name":"account","type":"address","indexed":false,"internalType":"address"}],"anonymous":false},{"type":"event","name":"Unpaused","inputs":[{"name":"account","type":"address","indexed":false,"internalType":"address"}],"anonymous":false},{"type":"error","name":"EnforcedPause","inputs":[]},{"type":"error","name":"ExpectedPause","inputs":[]},{"type":"error","name":"OwnableInvalidOwner","inputs":[{"name":"owner","type":"address","internalType":"address"}]},{"type":"error","name":"OwnableUnauthorizedAccount","inputs":[{"name":"account","type":"address","internalType":"address"}]},{"type":"error","name":"SafeCastOverflowedUintDowncast","inputs":[{"name":"bits","type":"uint8","internalType":"uint8"},{"name":"value","type":"uint256","internalType":"uint256"}]}],"bytecode":{"object":"0x608060405234801561000f575f5ffd5b50604051610d2d380380610d2d83398101604081905261002e91610112565b806001600160a01b03811661005d57604051631e4fbdf760e01b81525f60048201526024015b60405180910390fd5b610066816100c3565b506001600160a01b0381166100bd5760405162461bcd60e51b815260206004820181905260248201527f44414f206f776e65722063616e6e6f74206265207a65726f20616464726573736044820152606401610054565b5061013f565b5f80546001600160a01b038381166001600160a01b0319831681178455604051919092169283917f8be0079c531659141344cd1fd0a4f28419497f9722a3daafe3b4186f6b6457e09190a35050565b5f60208284031215610122575f5ffd5b81516001600160a01b0381168114610138575f5ffd5b9392505050565b610be18061014c5f395ff3fe6080604052600436106100a8575f3560e01c8063734c854411610062578063734c8544146102285780638456cb591461024c5780638da5cb5b1461026057806390197d3314610286578063af933b57146102a5578063f2fde38b146102c4575f5ffd5b80630d281f131461010a57806319dc88ae1461012b5780633f4ba83a1461014a578063564a565d1461015e5780635c975abb146101ec578063715018a614610214575f5ffd5b366101065760405162461bcd60e51b815260206004820152602360248201527f556c74726152656e747a44414f20646f6573206e6f74206163636570742045746044820152623432b960e91b60648201526084015b60405180910390fd5b5f5ffd5b348015610115575f5ffd5b50610129610124366004610a2d565b6102e3565b005b348015610136575f5ffd5b50610129610145366004610a72565b61050b565b348015610155575f5ffd5b50610129610621565b348015610169575f5ffd5b506101cf610178366004610a72565b600160208190525f918252604090912080549181015460028201546003830154600484015460058501546006909501546001600160a01b03948516959490931693919260ff91821692918082169161010090041688565b6040516101e3989796959493929190610abd565b60405180910390f35b3480156101f7575f5ffd5b505f54600160a01b900460ff1660405190151581526020016101e3565b34801561021f575f5ffd5b50610129610633565b348015610233575f5ffd5b5061023e62093a8081565b6040519081526020016101e3565b348015610257575f5ffd5b50610129610644565b34801561026b575f5ffd5b505f546040516001600160a01b0390911681526020016101e3565b348015610291575f5ffd5b506101296102a0366004610b11565b610654565b3480156102b0575f5ffd5b506101296102bf366004610b49565b6107ad565b3480156102cf575f5ffd5b506101296102de366004610b49565b610833565b6102eb610870565b6102f361089c565b6001600160a01b0383166103495760405162461bcd60e51b815260206004820152601d60248201527f54656e616e742063616e6e6f74206265207a65726f206164647265737300000060448201526064016100fd565b6001600160a01b03821661039f5760405162461bcd60e51b815260206004820152601f60248201527f4c616e646c6f72642063616e6e6f74206265207a65726f20616464726573730060448201526064016100fd565b604051806101000160405280858152602001846001600160a01b03168152602001836001600160a01b031681526020018281526020015f60038111156103e7576103e7610a89565b81526020016103f46108c6565b65ffffffffffff1681525f60208083018290526040928301829052878252600180825291839020845181559084015181830180546001600160a01b03199081166001600160a01b039384161790915593850151600283018054909516911617909255606083015160038084019190915560808401516004840180549193909260ff1990921691849081111561048b5761048b610a89565b021790555060a0820151600582015560c08201516006909101805460e09093015115156101000261ff00199215159290921661ffff19909316929092171790556040516001600160a01b03808416919085169086907fbd6cf5c0dd6394652189d442f4679a4bc44d025869e1085778b1057a5851044a905f90a450505050565b610513610870565b61051b61089c565b5f8181526001602052604090206006810154610100900460ff166105815760405162461bcd60e51b815260206004820152601a60248201527f44414f3a204465636973696f6e206e6f74206d6164652079657400000000000060448201526064016100fd565b600681015460ff16156105ce5760405162461bcd60e51b8152602060048201526015602482015274111053ce88105b1c9958591e48185c1c19585b1959605a1b60448201526064016100fd565b60068101805461ffff191660011790556105e66108c6565b65ffffffffffff16600582015560405182907f9f99ae1c2ed3bebdabfddb8a9ded0b435ed0e72af5dd8b48c86af9e1825effa3905f90a25050565b610629610870565b6106316108d5565b565b61063b610870565b6106315f610929565b61064c610870565b610631610978565b61065c610870565b61066461089c565b5f83815260016020526040902060058101546106849062093a8090610b6b565b61068c6108c6565b65ffffffffffff1611156106e25760405162461bcd60e51b815260206004820152601e60248201527f44414f3a205265736f6c7574696f6e2077696e646f772065787069726564000060448201526064016100fd565b6006810154610100900460ff16156107345760405162461bcd60e51b8152602060048201526015602482015274111053ce88105b1c9958591e481c995cdbdb1d9959605a1b60448201526064016100fd565b60048101805484919060ff1916600183600381111561075557610755610a89565b021790555060068101805461ff00191661010017905560405184907fd52281246e9ddb597a826b3eeed3f4b16e08bdb5ab984c92fed6e9e93f6090699061079f9086908690610b90565b60405180910390a250505050565b6107b5610870565b6001600160a01b0381166107fd5760405162461bcd60e51b815260206004820152600f60248201526e496e76616c6964206164647265737360881b60448201526064016100fd565b6040516001600160a01b038216904780156108fc02915f818181858888f1935050505015801561082f573d5f5f3e3d5ffd5b5050565b61083b610870565b6001600160a01b03811661086457604051631e4fbdf760e01b81525f60048201526024016100fd565b61086d81610929565b50565b5f546001600160a01b031633146106315760405163118cdaa760e01b81523360048201526024016100fd565b5f54600160a01b900460ff16156106315760405163d93c066560e01b815260040160405180910390fd5b5f6108d0426109ba565b905090565b6108dd6109f0565b5f805460ff60a01b191690557f5db9ee0a495bf2e6ff9c91a7834c1ba4fdd244a5e8aa4e537bd38aeae4b073aa335b6040516001600160a01b03909116815260200160405180910390a1565b5f80546001600160a01b038381166001600160a01b0319831681178455604051919092169283917f8be0079c531659141344cd1fd0a4f28419497f9722a3daafe3b4186f6b6457e09190a35050565b61098061089c565b5f805460ff60a01b1916600160a01b1790557f62e78cea01bee320cd4e420270b5ea74000d11b0c9f74754ebdbfc544b05a25861090c3390565b5f65ffffffffffff8211156109ec576040516306dfcc6560e41b815260306004820152602481018390526044016100fd565b5090565b5f54600160a01b900460ff1661063157604051638dfc202b60e01b815260040160405180910390fd5b6001600160a01b038116811461086d575f5ffd5b5f5f5f5f60808587031215610a40575f5ffd5b843593506020850135610a5281610a19565b92506040850135610a6281610a19565b9396929550929360600135925050565b5f60208284031215610a82575f5ffd5b5035919050565b634e487b7160e01b5f52602160045260245ffd5b60048110610ab957634e487b7160e01b5f52602160045260245ffd5b9052565b8881526001600160a01b03888116602083015287166040820152606081018690526101008101610af06080830187610a9d565b60a082019490945291151560c0830152151560e09091015295945050505050565b5f5f5f60608486031215610b23575f5ffd5b83359250602084013560048110610b38575f5ffd5b929592945050506040919091013590565b5f60208284031215610b59575f5ffd5b8135610b6481610a19565b9392505050565b80820180821115610b8a57634e487b7160e01b5f52601160045260245ffd5b92915050565b60408101610b9e8285610a9d565b826020830152939250505056fea2646970667358221220af5dc4058f91da42f3cb80121abbc12f948121e8e64f2b6c03e0d33231b1185664736f6c63430008210033","linkReferences":{}},"methodIdentifiers":{"RESOLUTION_WINDOW()":"734c8544","decideDispute(uint256,uint8,uint256)":"90197d33","disputes(uint256)":"564a565d","owner()":"8da5cb5b","pause()":"8456cb59","paused()":"5c975abb","referDispute(uint256,address,address,uint256)":"0d281f13","renounceOwnership()":"715018a6","submitAppeal(uint256)":"19dc88ae","transferOwnership(address)":"f2fde38b","unpause()":"3f4ba83a","withdrawEther(address)":"af933b57"},"id":49}