{"abi":[{"type":"constructor","inputs":[{"name":"initialOwner","type":"address","internalType":"address"}],"stateMutability":"nonpayable"},{"type":"function","name":"RESOLUTION_WINDOW","inputs":[],"outputs":[{"name":"","type":"uint256","internalType":"uint256"}],"stateMutability":"view"},{"type":"function","name":"decideDispute","inputs":[{"name":"escrowId","type":"uint256","internalType":"uint256"},{"name":"decision","type":"uint8","internalType":"enum UltraRentzDAO.Decision"},{"name":"amountReleased","type":"uint256","internalType":"uint256"}],"outputs":[],"stateMutability":"nonpayable"},{"type":"function","name":"disputes","inputs":[{"name":"","type":"uint256","internalType":"uint256"}],"outputs":[{"name":"escrowId","type":"uint256","internalType":"uint256"},{"name":"tenant","type":"address","internalType":"address"},{"name":"landlord","type":"address","internalType":"address"},{"name":"amount","type":"uint256","internalType":"uint256"},{"name":"decision","type":"uint8","internalType":"enum UltraRentzDAO.Decision"},{"name":"createdAt","type":"uint256","internalType":"uint256"},{"name":"appealed","type":"bool","internalType":"bool"},{"name":"resolved","type":"bool","internalType":"bool"}],"stateMutability":"view"},{"type":"function","name":"owner","inputs":[],"outputs":[{"name":"","type":"address","internalType":"address"}],"stateMutability":"view"},{"type":"function","name":"referDispute","inputs":[{"name":"escrowId","type":"uint256","internalType":"uint256"},{"name":"tenant","type":"address","internalType":"address"},{"name":"landlord","type":"address","internalType":"address"},{"name":"amount","type":"uint256","internalType":"uint256"}],"outputs":[],"stateMutability":"nonpayable"},{"type":"function","name":"renounceOwnership","inputs":[],"outputs":[],"stateMutability":"nonpayable"},{"type":"function","name":"submitAppeal","inputs":[{"name":"escrowId","type":"uint256","internalType":"uint256"}],"outputs":[],"stateMutability":"nonpayable"},{"type":"function","name":"transferOwnership","inputs":[{"name":"newOwner","type":"address","internalType":"address"}],"outputs":[],"stateMutability":"nonpayable"},{"type":"event","name":"AppealSubmitted","inputs":[{"name":"escrowId","type":"uint256","indexed":true,"internalType":"uint256"}],"anonymous":false},{"type":"event","name":"DecisionMade","inputs":[{"name":"escrowId","type":"uint256","indexed":true,"internalType":"uint256"},{"name":"decision","type":"uint8","indexed":false,"internalType":"enum UltraRentzDAO.Decision"},{"name":"amountReleased","type":"uint256","indexed":false,"internalType":"uint256"}],"anonymous":false},{"type":"event","name":"DisputeReferred","inputs":[{"name":"escrowId","type":"uint256","indexed":true,"internalType":"uint256"},{"name":"tenant","type":"address","indexed":true,"internalType":"address"},{"name":"landlord","type":"address","indexed":true,"internalType":"address"}],"anonymous":false},{"type":"event","name":"OwnershipTransferred","inputs":[{"name":"previousOwner","type":"address","indexed":true,"internalType":"address"},{"name":"newOwner","type":"address","indexed":true,"internalType":"address"}],"anonymous":false},{"type":"error","name":"OwnableInvalidOwner","inputs":[{"name":"owner","type":"address","internalType":"address"}]},{"type":"error","name":"OwnableUnauthorizedAccount","inputs":[{"name":"account","type":"address","internalType":"address"}]}],"bytecode":{"object":"0x608060405234801561000f575f5ffd5b50604051611077380380611077833981810160405281019061003191906101d7565b805f73ffffffffffffffffffffffffffffffffffffffff168173ffffffffffffffffffffffffffffffffffffffff16036100a2575f6040517f1e4fbdf70000000000000000000000000000000000000000000000000000000081526004016100999190610211565b60405180910390fd5b6100b1816100b860201b60201c565b505061022a565b5f5f5f9054906101000a900473ffffffffffffffffffffffffffffffffffffffff169050815f5f6101000a81548173ffffffffffffffffffffffffffffffffffffffff021916908373ffffffffffffffffffffffffffffffffffffffff1602179055508173ffffffffffffffffffffffffffffffffffffffff168173ffffffffffffffffffffffffffffffffffffffff167f8be0079c531659141344cd1fd0a4f28419497f9722a3daafe3b4186f6b6457e060405160405180910390a35050565b5f5ffd5b5f73ffffffffffffffffffffffffffffffffffffffff82169050919050565b5f6101a68261017d565b9050919050565b6101b68161019c565b81146101c0575f5ffd5b50565b5f815190506101d1816101ad565b92915050565b5f602082840312156101ec576101eb610179565b5b5f6101f9848285016101c3565b91505092915050565b61020b8161019c565b82525050565b5f6020820190506102245f830184610202565b92915050565b610e40806102375f395ff3fe608060405234801561000f575f5ffd5b5060043610610086575f3560e01c8063734c854411610059578063734c8544146101035780638da5cb5b1461012157806390197d331461013f578063f2fde38b1461015b57610086565b80630d281f131461008a57806319dc88ae146100a6578063564a565d146100c2578063715018a6146100f9575b5f5ffd5b6100a4600480360381019061009f919061094d565b610177565b005b6100c060048036038101906100bb91906109b1565b610386565b005b6100dc60048036038101906100d791906109b1565b6104b6565b6040516100f0989796959493929190610a87565b60405180910390f35b61010161055d565b005b61010b610570565b6040516101189190610b03565b60405180910390f35b610129610577565b6040516101369190610b1c565b60405180910390f35b61015960048036038101906101549190610b58565b61059e565b005b61017560048036038101906101709190610ba8565b6106e9565b005b61017f61076d565b6040518061010001604052808581526020018473ffffffffffffffffffffffffffffffffffffffff1681526020018373ffffffffffffffffffffffffffffffffffffffff1681526020018281526020015f60038111156101e2576101e16109fa565b5b81526020014281526020015f151581526020015f151581525060015f8681526020019081526020015f205f820151815f01556020820151816001015f6101000a81548173ffffffffffffffffffffffffffffffffffffffff021916908373ffffffffffffffffffffffffffffffffffffffff1602179055506040820151816002015f6101000a81548173ffffffffffffffffffffffffffffffffffffffff021916908373ffffffffffffffffffffffffffffffffffffffff160217905550606082015181600301556080820151816004015f6101000a81548160ff021916908360038111156102d4576102d36109fa565b5b021790555060a0820151816005015560c0820151816006015f6101000a81548160ff02191690831515021790555060e08201518160060160016101000a81548160ff0219169083151502179055509050508173ffffffffffffffffffffffffffffffffffffffff168373ffffffffffffffffffffffffffffffffffffffff16857fbd6cf5c0dd6394652189d442f4679a4bc44d025869e1085778b1057a5851044a60405160405180910390a450505050565b61038e61076d565b5f60015f8381526020019081526020015f2090508060060160019054906101000a900460ff166103f3576040517f08c379a00000000000000000000000000000000000000000000000000000000081526004016103ea90610c2d565b60405180910390fd5b806006015f9054906101000a900460ff1615610444576040517f08c379a000000000000000000000000000000000000000000000000000000000815260040161043b90610c95565b60405180910390fd5b6001816006015f6101000a81548160ff0219169083151502179055505f8160060160016101000a81548160ff021916908315150217905550428160050181905550817f9f99ae1c2ed3bebdabfddb8a9ded0b435ed0e72af5dd8b48c86af9e1825effa360405160405180910390a25050565b6001602052805f5260405f205f91509050805f015490806001015f9054906101000a900473ffffffffffffffffffffffffffffffffffffffff1690806002015f9054906101000a900473ffffffffffffffffffffffffffffffffffffffff1690806003015490806004015f9054906101000a900460ff1690806005015490806006015f9054906101000a900460ff16908060060160019054906101000a900460ff16905088565b61056561076d565b61056e5f6107f4565b565b62093a8081565b5f5f5f9054906101000a900473ffffffffffffffffffffffffffffffffffffffff16905090565b6105a661076d565b5f60015f8581526020019081526020015f20905062093a8081600501546105cd9190610ce0565b42111561060f576040517f08c379a000000000000000000000000000000000000000000000000000000000815260040161060690610d5d565b60405180910390fd5b8060060160019054906101000a900460ff1615610661576040517f08c379a000000000000000000000000000000000000000000000000000000000815260040161065890610dc5565b60405180910390fd5b82816004015f6101000a81548160ff02191690836003811115610687576106866109fa565b5b021790555060018160060160016101000a81548160ff021916908315150217905550837fd52281246e9ddb597a826b3eeed3f4b16e08bdb5ab984c92fed6e9e93f60906984846040516106db929190610de3565b60405180910390a250505050565b6106f161076d565b5f73ffffffffffffffffffffffffffffffffffffffff168173ffffffffffffffffffffffffffffffffffffffff1603610761575f6040517f1e4fbdf70000000000000000000000000000000000000000000000000000000081526004016107589190610b1c565b60405180910390fd5b61076a816107f4565b50565b6107756108b5565b73ffffffffffffffffffffffffffffffffffffffff16610793610577565b73ffffffffffffffffffffffffffffffffffffffff16146107f2576107b66108b5565b6040517f118cdaa70000000000000000000000000000000000000000000000000000000081526004016107e99190610b1c565b60405180910390fd5b565b5f5f5f9054906101000a900473ffffffffffffffffffffffffffffffffffffffff169050815f5f6101000a81548173ffffffffffffffffffffffffffffffffffffffff021916908373ffffffffffffffffffffffffffffffffffffffff1602179055508173ffffffffffffffffffffffffffffffffffffffff168173ffffffffffffffffffffffffffffffffffffffff167f8be0079c531659141344cd1fd0a4f28419497f9722a3daafe3b4186f6b6457e060405160405180910390a35050565b5f33905090565b5f5ffd5b5f819050919050565b6108d2816108c0565b81146108dc575f5ffd5b50565b5f813590506108ed816108c9565b92915050565b5f73ffffffffffffffffffffffffffffffffffffffff82169050919050565b5f61091c826108f3565b9050919050565b61092c81610912565b8114610936575f5ffd5b50565b5f8135905061094781610923565b92915050565b5f5f5f5f60808587031215610965576109646108bc565b5b5f610972878288016108df565b945050602061098387828801610939565b935050604061099487828801610939565b92505060606109a5878288016108df565b91505092959194509250565b5f602082840312156109c6576109c56108bc565b5b5f6109d3848285016108df565b91505092915050565b6109e5816108c0565b82525050565b6109f481610912565b82525050565b7f4e487b71000000000000000000000000000000000000000000000000000000005f52602160045260245ffd5b60048110610a3857610a376109fa565b5b50565b5f819050610a4882610a27565b919050565b5f610a5782610a3b565b9050919050565b610a6781610a4d565b82525050565b5f8115159050919050565b610a8181610a6d565b82525050565b5f61010082019050610a9b5f83018b6109dc565b610aa8602083018a6109eb565b610ab560408301896109eb565b610ac260608301886109dc565b610acf6080830187610a5e565b610adc60a08301866109dc565b610ae960c0830185610a78565b610af660e0830184610a78565b9998505050505050505050565b5f602082019050610b165f8301846109dc565b92915050565b5f602082019050610b2f5f8301846109eb565b92915050565b60048110610b41575f5ffd5b50565b5f81359050610b5281610b35565b92915050565b5f5f5f60608486031215610b6f57610b6e6108bc565b5b5f610b7c868287016108df565b9350506020610b8d86828701610b44565b9250506040610b9e868287016108df565b9150509250925092565b5f60208284031215610bbd57610bbc6108bc565b5b5f610bca84828501610939565b91505092915050565b5f82825260208201905092915050565b7f4465636973696f6e206e6f74206d6164652079657400000000000000000000005f82015250565b5f610c17601583610bd3565b9150610c2282610be3565b602082019050919050565b5f6020820190508181035f830152610c4481610c0b565b9050919050565b7f416c72656164792061707065616c6564000000000000000000000000000000005f82015250565b5f610c7f601083610bd3565b9150610c8a82610c4b565b602082019050919050565b5f6020820190508181035f830152610cac81610c73565b9050919050565b7f4e487b71000000000000000000000000000000000000000000000000000000005f52601160045260245ffd5b5f610cea826108c0565b9150610cf5836108c0565b9250828201905080821115610d0d57610d0c610cb3565b5b92915050565b7f5265736f6c7574696f6e2077696e646f772065787069726564000000000000005f82015250565b5f610d47601983610bd3565b9150610d5282610d13565b602082019050919050565b5f6020820190508181035f830152610d7481610d3b565b9050919050565b7f416c7265616479207265736f6c766564000000000000000000000000000000005f82015250565b5f610daf601083610bd3565b9150610dba82610d7b565b602082019050919050565b5f6020820190508181035f830152610ddc81610da3565b9050919050565b5f604082019050610df65f830185610a5e565b610e0360208301846109dc565b939250505056fea2646970667358221220af67b8c63bbc01dbc4d6413f0aec7c000e588bb9a8928febce31eb9755fda5d064736f6c634300081e0033","linkReferences":{}},"methodIdentifiers":{"RESOLUTION_WINDOW()":"734c8544","decideDispute(uint256,uint8,uint256)":"90197d33","disputes(uint256)":"564a565d","owner()":"8da5cb5b","referDispute(uint256,address,address,uint256)":"0d281f13","renounceOwnership()":"715018a6","submitAppeal(uint256)":"19dc88ae","transferOwnership(address)":"f2fde38b"},"id":29}