{"abi":[{"type":"constructor","inputs":[{"name":"initialOwner","type":"address","internalType":"address"}],"stateMutability":"nonpayable"},{"type":"receive","stateMutability":"payable"},{"type":"function","name":"RESOLUTION_WINDOW","inputs":[],"outputs":[{"name":"","type":"uint256","internalType":"uint256"}],"stateMutability":"view"},{"type":"function","name":"decideDispute","inputs":[{"name":"escrowId","type":"uint256","internalType":"uint256"},{"name":"decision","type":"uint8","internalType":"enum UltraRentzDAO.Decision"},{"name":"amountReleased","type":"uint256","internalType":"uint256"}],"outputs":[],"stateMutability":"nonpayable"},{"type":"function","name":"disputes","inputs":[{"name":"","type":"uint256","internalType":"uint256"}],"outputs":[{"name":"escrowId","type":"uint256","internalType":"uint256"},{"name":"tenant","type":"address","internalType":"address"},{"name":"landlord","type":"address","internalType":"address"},{"name":"amount","type":"uint256","internalType":"uint256"},{"name":"decision","type":"uint8","internalType":"enum UltraRentzDAO.Decision"},{"name":"createdAt","type":"uint256","internalType":"uint256"},{"name":"appealed","type":"bool","internalType":"bool"},{"name":"resolved","type":"bool","internalType":"bool"}],"stateMutability":"view"},{"type":"function","name":"owner","inputs":[],"outputs":[{"name":"","type":"address","internalType":"address"}],"stateMutability":"view"},{"type":"function","name":"pause","inputs":[],"outputs":[],"stateMutability":"nonpayable"},{"type":"function","name":"paused","inputs":[],"outputs":[{"name":"","type":"bool","internalType":"bool"}],"stateMutability":"view"},{"type":"function","name":"referDispute","inputs":[{"name":"escrowId","type":"uint256","internalType":"uint256"},{"name":"tenant","type":"address","internalType":"address"},{"name":"landlord","type":"address","internalType":"address"},{"name":"amount","type":"uint256","internalType":"uint256"}],"outputs":[],"stateMutability":"nonpayable"},{"type":"function","name":"renounceOwnership","inputs":[],"outputs":[],"stateMutability":"nonpayable"},{"type":"function","name":"submitAppeal","inputs":[{"name":"escrowId","type":"uint256","internalType":"uint256"}],"outputs":[],"stateMutability":"nonpayable"},{"type":"function","name":"transferOwnership","inputs":[{"name":"newOwner","type":"address","internalType":"address"}],"outputs":[],"stateMutability":"nonpayable"},{"type":"function","name":"unpause","inputs":[],"outputs":[],"stateMutability":"nonpayable"},{"type":"function","name":"withdrawEther","inputs":[{"name":"to","type":"address","internalType":"address payable"}],"outputs":[],"stateMutability":"nonpayable"},{"type":"event","name":"AppealSubmitted","inputs":[{"name":"escrowId","type":"uint256","indexed":true,"internalType":"uint256"}],"anonymous":false},{"type":"event","name":"DecisionMade","inputs":[{"name":"escrowId","type":"uint256","indexed":true,"internalType":"uint256"},{"name":"decision","type":"uint8","indexed":false,"internalType":"enum UltraRentzDAO.Decision"},{"name":"amountReleased","type":"uint256","indexed":false,"internalType":"uint256"}],"anonymous":false},{"type":"event","name":"DisputeReferred","inputs":[{"name":"escrowId","type":"uint256","indexed":true,"internalType":"uint256"},{"name":"tenant","type":"address","indexed":true,"internalType":"address"},{"name":"landlord","type":"address","indexed":true,"internalType":"address"}],"anonymous":false},{"type":"event","name":"OwnershipTransferred","inputs":[{"name":"previousOwner","type":"address","indexed":true,"internalType":"address"},{"name":"newOwner","type":"address","indexed":true,"internalType":"address"}],"anonymous":false},{"type":"event","name":"Paused","inputs":[{"name":"account","type":"address","indexed":false,"internalType":"address"}],"anonymous":false},{"type":"event","name":"Unpaused","inputs":[{"name":"account","type":"address","indexed":false,"internalType":"address"}],"anonymous":false},{"type":"error","name":"EnforcedPause","inputs":[]},{"type":"error","name":"ExpectedPause","inputs":[]},{"type":"error","name":"OwnableInvalidOwner","inputs":[{"name":"owner","type":"address","internalType":"address"}]},{"type":"error","name":"OwnableUnauthorizedAccount","inputs":[{"name":"account","type":"address","internalType":"address"}]},{"type":"error","name":"SafeCastOverflowedUintDowncast","inputs":[{"name":"bits","type":"uint8","internalType":"uint8"},{"name":"value","type":"uint256","internalType":"uint256"}]}],"bytecode":{"object":"0x608060405234801561000f575f5ffd5b5060405161191c38038061191c83398181016040528101906100319190610245565b805f73ffffffffffffffffffffffffffffffffffffffff168173ffffffffffffffffffffffffffffffffffffffff16036100a2575f6040517f1e4fbdf7000000000000000000000000000000000000000000000000000000008152600401610099919061027f565b60405180910390fd5b6100b18161012660201b60201c565b505f73ffffffffffffffffffffffffffffffffffffffff168173ffffffffffffffffffffffffffffffffffffffff1603610120576040517f08c379a0000000000000000000000000000000000000000000000000000000008152600401610117906102f2565b60405180910390fd5b50610310565b5f5f5f9054906101000a900473ffffffffffffffffffffffffffffffffffffffff169050815f5f6101000a81548173ffffffffffffffffffffffffffffffffffffffff021916908373ffffffffffffffffffffffffffffffffffffffff1602179055508173ffffffffffffffffffffffffffffffffffffffff168173ffffffffffffffffffffffffffffffffffffffff167f8be0079c531659141344cd1fd0a4f28419497f9722a3daafe3b4186f6b6457e060405160405180910390a35050565b5f5ffd5b5f73ffffffffffffffffffffffffffffffffffffffff82169050919050565b5f610214826101eb565b9050919050565b6102248161020a565b811461022e575f5ffd5b50565b5f8151905061023f8161021b565b92915050565b5f6020828403121561025a576102596101e7565b5b5f61026784828501610231565b91505092915050565b6102798161020a565b82525050565b5f6020820190506102925f830184610270565b92915050565b5f82825260208201905092915050565b7f44414f206f776e65722063616e6e6f74206265207a65726f20616464726573735f82015250565b5f6102dc602083610298565b91506102e7826102a8565b602082019050919050565b5f6020820190508181035f830152610309816102d0565b9050919050565b6115ff8061031d5f395ff3fe6080604052600436106100aa575f3560e01c8063734c854411610063578063734c8544146101d75780638456cb59146102015780638da5cb5b1461021757806390197d3314610241578063af933b5714610269578063f2fde38b14610291576100ea565b80630d281f13146100ee57806319dc88ae146101165780633f4ba83a1461013e578063564a565d146101545780635c975abb14610197578063715018a6146101c1576100ea565b366100ea576040517f08c379a00000000000000000000000000000000000000000000000000000000081526004016100e190610e41565b60405180910390fd5b5f5ffd5b3480156100f9575f5ffd5b50610114600480360381019061010f9190610ef0565b6102b9565b005b348015610121575f5ffd5b5061013c60048036038101906101379190610f54565b6105bb565b005b348015610149575f5ffd5b50610152610702565b005b34801561015f575f5ffd5b5061017a60048036038101906101759190610f54565b610714565b60405161018e98979695949392919061102a565b60405180910390f35b3480156101a2575f5ffd5b506101ab6107bb565b6040516101b891906110a6565b60405180910390f35b3480156101cc575f5ffd5b506101d56107d0565b005b3480156101e2575f5ffd5b506101eb6107e3565b6040516101f891906110bf565b60405180910390f35b34801561020c575f5ffd5b506102156107ea565b005b348015610222575f5ffd5b5061022b6107fc565b60405161023891906110d8565b60405180910390f35b34801561024c575f5ffd5b5061026760048036038101906102629190611114565b610823565b005b348015610274575f5ffd5b5061028f600480360381019061028a919061119f565b610985565b005b34801561029c575f5ffd5b506102b760048036038101906102b291906111ca565b610a42565b005b6102c1610ac6565b6102c9610b4d565b5f73ffffffffffffffffffffffffffffffffffffffff168373ffffffffffffffffffffffffffffffffffffffff1603610337576040517f08c379a000000000000000000000000000000000000000000000000000000000815260040161032e9061123f565b60405180910390fd5b5f73ffffffffffffffffffffffffffffffffffffffff168273ffffffffffffffffffffffffffffffffffffffff16036103a5576040517f08c379a000000000000000000000000000000000000000000000000000000000815260040161039c906112a7565b60405180910390fd5b6040518061010001604052808581526020018473ffffffffffffffffffffffffffffffffffffffff1681526020018373ffffffffffffffffffffffffffffffffffffffff1681526020018281526020015f600381111561040857610407610f9d565b5b8152602001610415610b8e565b65ffffffffffff1681526020015f151581526020015f151581525060015f8681526020019081526020015f205f820151815f01556020820151816001015f6101000a81548173ffffffffffffffffffffffffffffffffffffffff021916908373ffffffffffffffffffffffffffffffffffffffff1602179055506040820151816002015f6101000a81548173ffffffffffffffffffffffffffffffffffffffff021916908373ffffffffffffffffffffffffffffffffffffffff160217905550606082015181600301556080820151816004015f6101000a81548160ff0219169083600381111561050957610508610f9d565b5b021790555060a0820151816005015560c0820151816006015f6101000a81548160ff02191690831515021790555060e08201518160060160016101000a81548160ff0219169083151502179055509050508173ffffffffffffffffffffffffffffffffffffffff168373ffffffffffffffffffffffffffffffffffffffff16857fbd6cf5c0dd6394652189d442f4679a4bc44d025869e1085778b1057a5851044a60405160405180910390a450505050565b6105c3610ac6565b6105cb610b4d565b5f60015f8381526020019081526020015f2090508060060160019054906101000a900460ff16610630576040517f08c379a00000000000000000000000000000000000000000000000000000000081526004016106279061130f565b60405180910390fd5b806006015f9054906101000a900460ff1615610681576040517f08c379a000000000000000000000000000000000000000000000000000000000815260040161067890611377565b60405180910390fd5b6001816006015f6101000a81548160ff0219169083151502179055505f8160060160016101000a81548160ff0219169083151502179055506106c1610b8e565b65ffffffffffff168160050181905550817f9f99ae1c2ed3bebdabfddb8a9ded0b435ed0e72af5dd8b48c86af9e1825effa360405160405180910390a25050565b61070a610ac6565b610712610b9d565b565b6001602052805f5260405f205f91509050805f015490806001015f9054906101000a900473ffffffffffffffffffffffffffffffffffffffff1690806002015f9054906101000a900473ffffffffffffffffffffffffffffffffffffffff1690806003015490806004015f9054906101000a900460ff1690806005015490806006015f9054906101000a900460ff16908060060160019054906101000a900460ff16905088565b5f5f60149054906101000a900460ff16905090565b6107d8610ac6565b6107e15f610bfe565b565b62093a8081565b6107f2610ac6565b6107fa610cbf565b565b5f5f5f9054906101000a900473ffffffffffffffffffffffffffffffffffffffff16905090565b61082b610ac6565b610833610b4d565b5f60015f8581526020019081526020015f20905062093a80816005015461085a91906113c2565b610862610b8e565b65ffffffffffff1611156108ab576040517f08c379a00000000000000000000000000000000000000000000000000000000081526004016108a29061143f565b60405180910390fd5b8060060160019054906101000a900460ff16156108fd576040517f08c379a00000000000000000000000000000000000000000000000000000000081526004016108f4906114a7565b60405180910390fd5b82816004015f6101000a81548160ff0219169083600381111561092357610922610f9d565b5b021790555060018160060160016101000a81548160ff021916908315150217905550837fd52281246e9ddb597a826b3eeed3f4b16e08bdb5ab984c92fed6e9e93f60906984846040516109779291906114c5565b60405180910390a250505050565b61098d610ac6565b5f73ffffffffffffffffffffffffffffffffffffffff168173ffffffffffffffffffffffffffffffffffffffff16036109fb576040517f08c379a00000000000000000000000000000000000000000000000000000000081526004016109f290611536565b60405180910390fd5b8073ffffffffffffffffffffffffffffffffffffffff166108fc4790811502906040515f60405180830381858888f19350505050158015610a3e573d5f5f3e3d5ffd5b5050565b610a4a610ac6565b5f73ffffffffffffffffffffffffffffffffffffffff168173ffffffffffffffffffffffffffffffffffffffff1603610aba575f6040517f1e4fbdf7000000000000000000000000000000000000000000000000000000008152600401610ab191906110d8565b60405180910390fd5b610ac381610bfe565b50565b610ace610d21565b73ffffffffffffffffffffffffffffffffffffffff16610aec6107fc565b73ffffffffffffffffffffffffffffffffffffffff1614610b4b57610b0f610d21565b6040517f118cdaa7000000000000000000000000000000000000000000000000000000008152600401610b4291906110d8565b60405180910390fd5b565b610b556107bb565b15610b8c576040517fd93c066500000000000000000000000000000000000000000000000000000000815260040160405180910390fd5b565b5f610b9842610d28565b905090565b610ba5610d81565b5f5f60146101000a81548160ff0219169083151502179055507f5db9ee0a495bf2e6ff9c91a7834c1ba4fdd244a5e8aa4e537bd38aeae4b073aa610be7610d21565b604051610bf491906110d8565b60405180910390a1565b5f5f5f9054906101000a900473ffffffffffffffffffffffffffffffffffffffff169050815f5f6101000a81548173ffffffffffffffffffffffffffffffffffffffff021916908373ffffffffffffffffffffffffffffffffffffffff1602179055508173ffffffffffffffffffffffffffffffffffffffff168173ffffffffffffffffffffffffffffffffffffffff167f8be0079c531659141344cd1fd0a4f28419497f9722a3daafe3b4186f6b6457e060405160405180910390a35050565b610cc7610b4d565b60015f60146101000a81548160ff0219169083151502179055507f62e78cea01bee320cd4e420270b5ea74000d11b0c9f74754ebdbfc544b05a258610d0a610d21565b604051610d1791906110d8565b60405180910390a1565b5f33905090565b5f65ffffffffffff8016821115610d79576030826040517f6dfcc650000000000000000000000000000000000000000000000000000000008152600401610d709291906115a2565b60405180910390fd5b819050919050565b610d896107bb565b610dbf576040517f8dfc202b00000000000000000000000000000000000000000000000000000000815260040160405180910390fd5b565b5f82825260208201905092915050565b7f556c74726152656e747a44414f20646f6573206e6f74206163636570742045745f8201527f6865720000000000000000000000000000000000000000000000000000000000602082015250565b5f610e2b602383610dc1565b9150610e3682610dd1565b604082019050919050565b5f6020820190508181035f830152610e5881610e1f565b9050919050565b5f5ffd5b5f819050919050565b610e7581610e63565b8114610e7f575f5ffd5b50565b5f81359050610e9081610e6c565b92915050565b5f73ffffffffffffffffffffffffffffffffffffffff82169050919050565b5f610ebf82610e96565b9050919050565b610ecf81610eb5565b8114610ed9575f5ffd5b50565b5f81359050610eea81610ec6565b92915050565b5f5f5f5f60808587031215610f0857610f07610e5f565b5b5f610f1587828801610e82565b9450506020610f2687828801610edc565b9350506040610f3787828801610edc565b9250506060610f4887828801610e82565b91505092959194509250565b5f60208284031215610f6957610f68610e5f565b5b5f610f7684828501610e82565b91505092915050565b610f8881610e63565b82525050565b610f9781610eb5565b82525050565b7f4e487b71000000000000000000000000000000000000000000000000000000005f52602160045260245ffd5b60048110610fdb57610fda610f9d565b5b50565b5f819050610feb82610fca565b919050565b5f610ffa82610fde565b9050919050565b61100a81610ff0565b82525050565b5f8115159050919050565b61102481611010565b82525050565b5f6101008201905061103e5f83018b610f7f565b61104b602083018a610f8e565b6110586040830189610f8e565b6110656060830188610f7f565b6110726080830187611001565b61107f60a0830186610f7f565b61108c60c083018561101b565b61109960e083018461101b565b9998505050505050505050565b5f6020820190506110b95f83018461101b565b92915050565b5f6020820190506110d25f830184610f7f565b92915050565b5f6020820190506110eb5f830184610f8e565b92915050565b600481106110fd575f5ffd5b50565b5f8135905061110e816110f1565b92915050565b5f5f5f6060848603121561112b5761112a610e5f565b5b5f61113886828701610e82565b935050602061114986828701611100565b925050604061115a86828701610e82565b9150509250925092565b5f61116e82610e96565b9050919050565b61117e81611164565b8114611188575f5ffd5b50565b5f8135905061119981611175565b92915050565b5f602082840312156111b4576111b3610e5f565b5b5f6111c18482850161118b565b91505092915050565b5f602082840312156111df576111de610e5f565b5b5f6111ec84828501610edc565b91505092915050565b7f54656e616e742063616e6e6f74206265207a65726f20616464726573730000005f82015250565b5f611229601d83610dc1565b9150611234826111f5565b602082019050919050565b5f6020820190508181035f8301526112568161121d565b9050919050565b7f4c616e646c6f72642063616e6e6f74206265207a65726f2061646472657373005f82015250565b5f611291601f83610dc1565b915061129c8261125d565b602082019050919050565b5f6020820190508181035f8301526112be81611285565b9050919050565b7f44414f3a204465636973696f6e206e6f74206d616465207965740000000000005f82015250565b5f6112f9601a83610dc1565b9150611304826112c5565b602082019050919050565b5f6020820190508181035f830152611326816112ed565b9050919050565b7f44414f3a20416c72656164792061707065616c656400000000000000000000005f82015250565b5f611361601583610dc1565b915061136c8261132d565b602082019050919050565b5f6020820190508181035f83015261138e81611355565b9050919050565b7f4e487b71000000000000000000000000000000000000000000000000000000005f52601160045260245ffd5b5f6113cc82610e63565b91506113d783610e63565b92508282019050808211156113ef576113ee611395565b5b92915050565b7f44414f3a205265736f6c7574696f6e2077696e646f77206578706972656400005f82015250565b5f611429601e83610dc1565b9150611434826113f5565b602082019050919050565b5f6020820190508181035f8301526114568161141d565b9050919050565b7f44414f3a20416c7265616479207265736f6c76656400000000000000000000005f82015250565b5f611491601583610dc1565b915061149c8261145d565b602082019050919050565b5f6020820190508181035f8301526114be81611485565b9050919050565b5f6040820190506114d85f830185611001565b6114e56020830184610f7f565b9392505050565b7f496e76616c6964206164647265737300000000000000000000000000000000005f82015250565b5f611520600f83610dc1565b915061152b826114ec565b602082019050919050565b5f6020820190508181035f83015261154d81611514565b9050919050565b5f819050919050565b5f60ff82169050919050565b5f819050919050565b5f61158c61158761158284611554565b611569565b61155d565b9050919050565b61159c81611572565b82525050565b5f6040820190506115b55f830185611593565b6115c26020830184610f7f565b939250505056fea26469706673582212200f61370ff2c3097f427e94eeb94699bcdebfbf9f1d6f404254f39390b3b4d6dc64736f6c63430008210033","linkReferences":{}},"methodIdentifiers":{"RESOLUTION_WINDOW()":"734c8544","decideDispute(uint256,uint8,uint256)":"90197d33","disputes(uint256)":"564a565d","owner()":"8da5cb5b","pause()":"8456cb59","paused()":"5c975abb","referDispute(uint256,address,address,uint256)":"0d281f13","renounceOwnership()":"715018a6","submitAppeal(uint256)":"19dc88ae","transferOwnership(address)":"f2fde38b","unpause()":"3f4ba83a","withdrawEther(address)":"af933b57"},"id":43}