{"abi":[{"type":"constructor","inputs":[{"name":"initialOwner","type":"address","internalType":"address"}],"stateMutability":"nonpayable"},{"type":"receive","stateMutability":"payable"},{"type":"function","name":"RESOLUTION_WINDOW","inputs":[],"outputs":[{"name":"","type":"uint256","internalType":"uint256"}],"stateMutability":"view"},{"type":"function","name":"decideDispute","inputs":[{"name":"escrowId","type":"uint256","internalType":"uint256"},{"name":"decision","type":"uint8","internalType":"enum UltraRentzDAO.Decision"},{"name":"amountReleased","type":"uint256","internalType":"uint256"}],"outputs":[],"stateMutability":"nonpayable"},{"type":"function","name":"disputes","inputs":[{"name":"","type":"uint256","internalType":"uint256"}],"outputs":[{"name":"escrowId","type":"uint256","internalType":"uint256"},{"name":"tenant","type":"address","internalType":"address"},{"name":"landlord","type":"address","internalType":"address"},{"name":"amount","type":"uint256","internalType":"uint256"},{"name":"decision","type":"uint8","internalType":"enum UltraRentzDAO.Decision"},{"name":"createdAt","type":"uint256","internalType":"uint256"},{"name":"appealed","type":"bool","internalType":"bool"},{"name":"resolved","type":"bool","internalType":"bool"}],"stateMutability":"view"},{"type":"function","name":"owner","inputs":[],"outputs":[{"name":"","type":"address","internalType":"address"}],"stateMutability":"view"},{"type":"function","name":"pause","inputs":[],"outputs":[],"stateMutability":"nonpayable"},{"type":"function","name":"paused","inputs":[],"outputs":[{"name":"","type":"bool","internalType":"bool"}],"stateMutability":"view"},{"type":"function","name":"referDispute","inputs":[{"name":"escrowId","type":"uint256","internalType":"uint256"},{"name":"tenant","type":"address","internalType":"address"},{"name":"landlord","type":"address","internalType":"address"},{"name":"amount","type":"uint256","internalType":"uint256"}],"outputs":[],"stateMutability":"nonpayable"},{"type":"function","name":"renounceOwnership","inputs":[],"outputs":[],"stateMutability":"nonpayable"},{"type":"function","name":"submitAppeal","inputs":[{"name":"escrowId","type":"uint256","internalType":"uint256"}],"outputs":[],"stateMutability":"nonpayable"},{"type":"function","name":"transferOwnership","inputs":[{"name":"newOwner","type":"address","internalType":"address"}],"outputs":[],"stateMutability":"nonpayable"},{"type":"function","name":"unpause","inputs":[],"outputs":[],"stateMutability":"nonpayable"},{"type":"event","name":"AppealSubmitted","inputs":[{"name":"escrowId","type":"uint256","indexed":true,"internalType":"uint256"}],"anonymous":false},{"type":"event","name":"DecisionMade","inputs":[{"name":"escrowId","type":"uint256","indexed":true,"internalType":"uint256"},{"name":"decision","type":"uint8","indexed":false,"internalType":"enum UltraRentzDAO.Decision"},{"name":"amountReleased","type":"uint256","indexed":false,"internalType":"uint256"}],"anonymous":false},{"type":"event","name":"DisputeReferred","inputs":[{"name":"escrowId","type":"uint256","indexed":true,"internalType":"uint256"},{"name":"tenant","type":"address","indexed":true,"internalType":"address"},{"name":"landlord","type":"address","indexed":true,"internalType":"address"}],"anonymous":false},{"type":"event","name":"OwnershipTransferred","inputs":[{"name":"previousOwner","type":"address","indexed":true,"internalType":"address"},{"name":"newOwner","type":"address","indexed":true,"internalType":"address"}],"anonymous":false},{"type":"event","name":"Paused","inputs":[{"name":"account","type":"address","indexed":false,"internalType":"address"}],"anonymous":false},{"type":"event","name":"Unpaused","inputs":[{"name":"account","type":"address","indexed":false,"internalType":"address"}],"anonymous":false},{"type":"error","name":"EnforcedPause","inputs":[]},{"type":"error","name":"ExpectedPause","inputs":[]},{"type":"error","name":"OwnableInvalidOwner","inputs":[{"name":"owner","type":"address","internalType":"address"}]},{"type":"error","name":"OwnableUnauthorizedAccount","inputs":[{"name":"account","type":"address","internalType":"address"}]}],"bytecode":{"object":"0x608060405234801561000f575f5ffd5b5060405161165438038061165483398181016040528101906100319190610245565b805f73ffffffffffffffffffffffffffffffffffffffff168173ffffffffffffffffffffffffffffffffffffffff16036100a2575f6040517f1e4fbdf7000000000000000000000000000000000000000000000000000000008152600401610099919061027f565b60405180910390fd5b6100b18161012660201b60201c565b505f73ffffffffffffffffffffffffffffffffffffffff168173ffffffffffffffffffffffffffffffffffffffff1603610120576040517f08c379a0000000000000000000000000000000000000000000000000000000008152600401610117906102f2565b60405180910390fd5b50610310565b5f5f5f9054906101000a900473ffffffffffffffffffffffffffffffffffffffff169050815f5f6101000a81548173ffffffffffffffffffffffffffffffffffffffff021916908373ffffffffffffffffffffffffffffffffffffffff1602179055508173ffffffffffffffffffffffffffffffffffffffff168173ffffffffffffffffffffffffffffffffffffffff167f8be0079c531659141344cd1fd0a4f28419497f9722a3daafe3b4186f6b6457e060405160405180910390a35050565b5f5ffd5b5f73ffffffffffffffffffffffffffffffffffffffff82169050919050565b5f610214826101eb565b9050919050565b6102248161020a565b811461022e575f5ffd5b50565b5f8151905061023f8161021b565b92915050565b5f6020828403121561025a576102596101e7565b5b5f61026784828501610231565b91505092915050565b6102798161020a565b82525050565b5f6020820190506102925f830184610270565b92915050565b5f82825260208201905092915050565b7f44414f206f776e65722063616e6e6f74206265207a65726f20616464726573735f82015250565b5f6102dc602083610298565b91506102e7826102a8565b602082019050919050565b5f6020820190508181035f830152610309816102d0565b9050919050565b6113378061031d5f395ff3fe60806040526004361061009f575f3560e01c8063715018a611610063578063715018a6146101b6578063734c8544146101cc5780638456cb59146101f65780638da5cb5b1461020c57806390197d3314610236578063f2fde38b1461025e576100df565b80630d281f13146100e357806319dc88ae1461010b5780633f4ba83a14610133578063564a565d146101495780635c975abb1461018c576100df565b366100df576040517f08c379a00000000000000000000000000000000000000000000000000000000081526004016100d690610cbc565b60405180910390fd5b5f5ffd5b3480156100ee575f5ffd5b5061010960048036038101906101049190610d6b565b610286565b005b348015610116575f5ffd5b50610131600480360381019061012c9190610dcf565b610579565b005b34801561013e575f5ffd5b506101476106b1565b005b348015610154575f5ffd5b5061016f600480360381019061016a9190610dcf565b6106c3565b604051610183989796959493929190610ea5565b60405180910390f35b348015610197575f5ffd5b506101a061076a565b6040516101ad9190610f21565b60405180910390f35b3480156101c1575f5ffd5b506101ca61077f565b005b3480156101d7575f5ffd5b506101e0610792565b6040516101ed9190610f3a565b60405180910390f35b348015610201575f5ffd5b5061020a610799565b005b348015610217575f5ffd5b506102206107ab565b60405161022d9190610f53565b60405180910390f35b348015610241575f5ffd5b5061025c60048036038101906102579190610f8f565b6107d2565b005b348015610269575f5ffd5b50610284600480360381019061027f9190610fdf565b610925565b005b61028e6109a9565b610296610a30565b5f73ffffffffffffffffffffffffffffffffffffffff168373ffffffffffffffffffffffffffffffffffffffff1603610304576040517f08c379a00000000000000000000000000000000000000000000000000000000081526004016102fb90611054565b60405180910390fd5b5f73ffffffffffffffffffffffffffffffffffffffff168273ffffffffffffffffffffffffffffffffffffffff1603610372576040517f08c379a0000000000000000000000000000000000000000000000000000000008152600401610369906110bc565b60405180910390fd5b6040518061010001604052808581526020018473ffffffffffffffffffffffffffffffffffffffff1681526020018373ffffffffffffffffffffffffffffffffffffffff1681526020018281526020015f60038111156103d5576103d4610e18565b5b81526020014281526020015f151581526020015f151581525060015f8681526020019081526020015f205f820151815f01556020820151816001015f6101000a81548173ffffffffffffffffffffffffffffffffffffffff021916908373ffffffffffffffffffffffffffffffffffffffff1602179055506040820151816002015f6101000a81548173ffffffffffffffffffffffffffffffffffffffff021916908373ffffffffffffffffffffffffffffffffffffffff160217905550606082015181600301556080820151816004015f6101000a81548160ff021916908360038111156104c7576104c6610e18565b5b021790555060a0820151816005015560c0820151816006015f6101000a81548160ff02191690831515021790555060e08201518160060160016101000a81548160ff0219169083151502179055509050508173ffffffffffffffffffffffffffffffffffffffff168373ffffffffffffffffffffffffffffffffffffffff16857fbd6cf5c0dd6394652189d442f4679a4bc44d025869e1085778b1057a5851044a60405160405180910390a450505050565b6105816109a9565b610589610a30565b5f60015f8381526020019081526020015f2090508060060160019054906101000a900460ff166105ee576040517f08c379a00000000000000000000000000000000000000000000000000000000081526004016105e590611124565b60405180910390fd5b806006015f9054906101000a900460ff161561063f576040517f08c379a00000000000000000000000000000000000000000000000000000000081526004016106369061118c565b60405180910390fd5b6001816006015f6101000a81548160ff0219169083151502179055505f8160060160016101000a81548160ff021916908315150217905550428160050181905550817f9f99ae1c2ed3bebdabfddb8a9ded0b435ed0e72af5dd8b48c86af9e1825effa360405160405180910390a25050565b6106b96109a9565b6106c1610a71565b565b6001602052805f5260405f205f91509050805f015490806001015f9054906101000a900473ffffffffffffffffffffffffffffffffffffffff1690806002015f9054906101000a900473ffffffffffffffffffffffffffffffffffffffff1690806003015490806004015f9054906101000a900460ff1690806005015490806006015f9054906101000a900460ff16908060060160019054906101000a900460ff16905088565b5f5f60149054906101000a900460ff16905090565b6107876109a9565b6107905f610ad2565b565b62093a8081565b6107a16109a9565b6107a9610b93565b565b5f5f5f9054906101000a900473ffffffffffffffffffffffffffffffffffffffff16905090565b6107da6109a9565b6107e2610a30565b5f60015f8581526020019081526020015f20905062093a80816005015461080991906111d7565b42111561084b576040517f08c379a000000000000000000000000000000000000000000000000000000000815260040161084290611254565b60405180910390fd5b8060060160019054906101000a900460ff161561089d576040517f08c379a0000000000000000000000000000000000000000000000000000000008152600401610894906112bc565b60405180910390fd5b82816004015f6101000a81548160ff021916908360038111156108c3576108c2610e18565b5b021790555060018160060160016101000a81548160ff021916908315150217905550837fd52281246e9ddb597a826b3eeed3f4b16e08bdb5ab984c92fed6e9e93f60906984846040516109179291906112da565b60405180910390a250505050565b61092d6109a9565b5f73ffffffffffffffffffffffffffffffffffffffff168173ffffffffffffffffffffffffffffffffffffffff160361099d575f6040517f1e4fbdf70000000000000000000000000000000000000000000000000000000081526004016109949190610f53565b60405180910390fd5b6109a681610ad2565b50565b6109b1610bf5565b73ffffffffffffffffffffffffffffffffffffffff166109cf6107ab565b73ffffffffffffffffffffffffffffffffffffffff1614610a2e576109f2610bf5565b6040517f118cdaa7000000000000000000000000000000000000000000000000000000008152600401610a259190610f53565b60405180910390fd5b565b610a3861076a565b15610a6f576040517fd93c066500000000000000000000000000000000000000000000000000000000815260040160405180910390fd5b565b610a79610bfc565b5f5f60146101000a81548160ff0219169083151502179055507f5db9ee0a495bf2e6ff9c91a7834c1ba4fdd244a5e8aa4e537bd38aeae4b073aa610abb610bf5565b604051610ac89190610f53565b60405180910390a1565b5f5f5f9054906101000a900473ffffffffffffffffffffffffffffffffffffffff169050815f5f6101000a81548173ffffffffffffffffffffffffffffffffffffffff021916908373ffffffffffffffffffffffffffffffffffffffff1602179055508173ffffffffffffffffffffffffffffffffffffffff168173ffffffffffffffffffffffffffffffffffffffff167f8be0079c531659141344cd1fd0a4f28419497f9722a3daafe3b4186f6b6457e060405160405180910390a35050565b610b9b610a30565b60015f60146101000a81548160ff0219169083151502179055507f62e78cea01bee320cd4e420270b5ea74000d11b0c9f74754ebdbfc544b05a258610bde610bf5565b604051610beb9190610f53565b60405180910390a1565b5f33905090565b610c0461076a565b610c3a576040517f8dfc202b00000000000000000000000000000000000000000000000000000000815260040160405180910390fd5b565b5f82825260208201905092915050565b7f556c74726152656e747a44414f20646f6573206e6f74206163636570742045745f8201527f6865720000000000000000000000000000000000000000000000000000000000602082015250565b5f610ca6602383610c3c565b9150610cb182610c4c565b604082019050919050565b5f6020820190508181035f830152610cd381610c9a565b9050919050565b5f5ffd5b5f819050919050565b610cf081610cde565b8114610cfa575f5ffd5b50565b5f81359050610d0b81610ce7565b92915050565b5f73ffffffffffffffffffffffffffffffffffffffff82169050919050565b5f610d3a82610d11565b9050919050565b610d4a81610d30565b8114610d54575f5ffd5b50565b5f81359050610d6581610d41565b92915050565b5f5f5f5f60808587031215610d8357610d82610cda565b5b5f610d9087828801610cfd565b9450506020610da187828801610d57565b9350506040610db287828801610d57565b9250506060610dc387828801610cfd565b91505092959194509250565b5f60208284031215610de457610de3610cda565b5b5f610df184828501610cfd565b91505092915050565b610e0381610cde565b82525050565b610e1281610d30565b82525050565b7f4e487b71000000000000000000000000000000000000000000000000000000005f52602160045260245ffd5b60048110610e5657610e55610e18565b5b50565b5f819050610e6682610e45565b919050565b5f610e7582610e59565b9050919050565b610e8581610e6b565b82525050565b5f8115159050919050565b610e9f81610e8b565b82525050565b5f61010082019050610eb95f83018b610dfa565b610ec6602083018a610e09565b610ed36040830189610e09565b610ee06060830188610dfa565b610eed6080830187610e7c565b610efa60a0830186610dfa565b610f0760c0830185610e96565b610f1460e0830184610e96565b9998505050505050505050565b5f602082019050610f345f830184610e96565b92915050565b5f602082019050610f4d5f830184610dfa565b92915050565b5f602082019050610f665f830184610e09565b92915050565b60048110610f78575f5ffd5b50565b5f81359050610f8981610f6c565b92915050565b5f5f5f60608486031215610fa657610fa5610cda565b5b5f610fb386828701610cfd565b9350506020610fc486828701610f7b565b9250506040610fd586828701610cfd565b9150509250925092565b5f60208284031215610ff457610ff3610cda565b5b5f61100184828501610d57565b91505092915050565b7f54656e616e742063616e6e6f74206265207a65726f20616464726573730000005f82015250565b5f61103e601d83610c3c565b91506110498261100a565b602082019050919050565b5f6020820190508181035f83015261106b81611032565b9050919050565b7f4c616e646c6f72642063616e6e6f74206265207a65726f2061646472657373005f82015250565b5f6110a6601f83610c3c565b91506110b182611072565b602082019050919050565b5f6020820190508181035f8301526110d38161109a565b9050919050565b7f44414f3a204465636973696f6e206e6f74206d616465207965740000000000005f82015250565b5f61110e601a83610c3c565b9150611119826110da565b602082019050919050565b5f6020820190508181035f83015261113b81611102565b9050919050565b7f44414f3a20416c72656164792061707065616c656400000000000000000000005f82015250565b5f611176601583610c3c565b915061118182611142565b602082019050919050565b5f6020820190508181035f8301526111a38161116a565b9050919050565b7f4e487b71000000000000000000000000000000000000000000000000000000005f52601160045260245ffd5b5f6111e182610cde565b91506111ec83610cde565b9250828201905080821115611204576112036111aa565b5b92915050565b7f44414f3a205265736f6c7574696f6e2077696e646f77206578706972656400005f82015250565b5f61123e601e83610c3c565b91506112498261120a565b602082019050919050565b5f6020820190508181035f83015261126b81611232565b9050919050565b7f44414f3a20416c7265616479207265736f6c76656400000000000000000000005f82015250565b5f6112a6601583610c3c565b91506112b182611272565b602082019050919050565b5f6020820190508181035f8301526112d38161129a565b9050919050565b5f6040820190506112ed5f830185610e7c565b6112fa6020830184610dfa565b939250505056fea26469706673582212204bf8d223446c43968e75b20b93a10e22d4beee39824d64eee3c67f30154c0dfd64736f6c634300081e0033","linkReferences":{}},"methodIdentifiers":{"RESOLUTION_WINDOW()":"734c8544","decideDispute(uint256,uint8,uint256)":"90197d33","disputes(uint256)":"564a565d","owner()":"8da5cb5b","pause()":"8456cb59","paused()":"5c975abb","referDispute(uint256,address,address,uint256)":"0d281f13","renounceOwnership()":"715018a6","submitAppeal(uint256)":"19dc88ae","transferOwnership(address)":"f2fde38b","unpause()":"3f4ba83a"},"id":38}