{"abi":[{"type":"constructor","inputs":[{"name":"initialOwner","type":"address","internalType":"address"},{"name":"urzTokenAddress","type":"address","internalType":"address"},{"name":"_annualRateBps","type":"uint256","internalType":"uint256"}],"stateMutability":"nonpayable"},{"type":"function","name":"BASIS_POINTS","inputs":[],"outputs":[{"name":"","type":"uint256","internalType":"uint256"}],"stateMutability":"view"},{"type":"function","name":"annualRate","inputs":[],"outputs":[{"name":"","type":"uint256","internalType":"uint256"}],"stateMutability":"view"},{"type":"function","name":"borrow","inputs":[{"name":"amount","type":"uint256","internalType":"uint256"}],"outputs":[],"stateMutability":"nonpayable"},{"type":"function","name":"borrows","inputs":[{"name":"","type":"address","internalType":"address"}],"outputs":[{"name":"","type":"uint256","internalType":"uint256"}],"stateMutability":"view"},{"type":"function","name":"collateralFactor","inputs":[],"outputs":[{"name":"","type":"uint256","internalType":"uint256"}],"stateMutability":"view"},{"type":"function","name":"owner","inputs":[],"outputs":[{"name":"","type":"address","internalType":"address"}],"stateMutability":"view"},{"type":"function","name":"pause","inputs":[],"outputs":[],"stateMutability":"nonpayable"},{"type":"function","name":"paused","inputs":[],"outputs":[{"name":"","type":"bool","internalType":"bool"}],"stateMutability":"view"},{"type":"function","name":"pendingReward","inputs":[{"name":"user","type":"address","internalType":"address"}],"outputs":[{"name":"","type":"uint256","internalType":"uint256"}],"stateMutability":"view"},{"type":"function","name":"renounceOwnership","inputs":[],"outputs":[],"stateMutability":"nonpayable"},{"type":"function","name":"repay","inputs":[{"name":"amount","type":"uint256","internalType":"uint256"}],"outputs":[],"stateMutability":"nonpayable"},{"type":"function","name":"stake","inputs":[{"name":"amount","type":"uint256","internalType":"uint256"}],"outputs":[],"stateMutability":"nonpayable"},{"type":"function","name":"stakes","inputs":[{"name":"","type":"address","internalType":"address"}],"outputs":[{"name":"amount","type":"uint256","internalType":"uint256"},{"name":"timestamp","type":"uint256","internalType":"uint256"},{"name":"rewardDebt","type":"uint256","internalType":"uint256"}],"stateMutability":"view"},{"type":"function","name":"totalStaked","inputs":[],"outputs":[{"name":"","type":"uint256","internalType":"uint256"}],"stateMutability":"view"},{"type":"function","name":"transferOwnership","inputs":[{"name":"newOwner","type":"address","internalType":"address"}],"outputs":[],"stateMutability":"nonpayable"},{"type":"function","name":"unpause","inputs":[],"outputs":[],"stateMutability":"nonpayable"},{"type":"function","name":"unstake","inputs":[{"name":"amount","type":"uint256","internalType":"uint256"}],"outputs":[],"stateMutability":"nonpayable"},{"type":"function","name":"urzToken","inputs":[],"outputs":[{"name":"","type":"address","internalType":"contract IERC20"}],"stateMutability":"view"},{"type":"event","name":"Borrowed","inputs":[{"name":"user","type":"address","indexed":true,"internalType":"address"},{"name":"amount","type":"uint256","indexed":false,"internalType":"uint256"}],"anonymous":false},{"type":"event","name":"OwnershipTransferred","inputs":[{"name":"previousOwner","type":"address","indexed":true,"internalType":"address"},{"name":"newOwner","type":"address","indexed":true,"internalType":"address"}],"anonymous":false},{"type":"event","name":"Paused","inputs":[{"name":"account","type":"address","indexed":false,"internalType":"address"}],"anonymous":false},{"type":"event","name":"Repaid","inputs":[{"name":"user","type":"address","indexed":true,"internalType":"address"},{"name":"amount","type":"uint256","indexed":false,"internalType":"uint256"}],"anonymous":false},{"type":"event","name":"Staked","inputs":[{"name":"user","type":"address","indexed":true,"internalType":"address"},{"name":"amount","type":"uint256","indexed":false,"internalType":"uint256"}],"anonymous":false},{"type":"event","name":"Unpaused","inputs":[{"name":"account","type":"address","indexed":false,"internalType":"address"}],"anonymous":false},{"type":"event","name":"Unstaked","inputs":[{"name":"user","type":"address","indexed":true,"internalType":"address"},{"name":"amount","type":"uint256","indexed":false,"internalType":"uint256"},{"name":"reward","type":"uint256","indexed":false,"internalType":"uint256"}],"anonymous":false},{"type":"error","name":"EnforcedPause","inputs":[]},{"type":"error","name":"ExpectedPause","inputs":[]},{"type":"error","name":"OwnableInvalidOwner","inputs":[{"name":"owner","type":"address","internalType":"address"}]},{"type":"error","name":"OwnableUnauthorizedAccount","inputs":[{"name":"account","type":"address","internalType":"address"}]}],"bytecode":{"object":"0x6080604052611388600655348015610015575f5ffd5b50604051611c11380380611c1183398181016040528101906100379190610259565b825f73ffffffffffffffffffffffffffffffffffffffff168173ffffffffffffffffffffffffffffffffffffffff16036100a8575f6040517f1e4fbdf700000000000000000000000000000000000000000000000000000000815260040161009f91906102b8565b60405180910390fd5b6100b78161010760201b60201c565b508160015f6101000a81548173ffffffffffffffffffffffffffffffffffffffff021916908373ffffffffffffffffffffffffffffffffffffffff160217905550806003819055505050506102d1565b5f5f5f9054906101000a900473ffffffffffffffffffffffffffffffffffffffff169050815f5f6101000a81548173ffffffffffffffffffffffffffffffffffffffff021916908373ffffffffffffffffffffffffffffffffffffffff1602179055508173ffffffffffffffffffffffffffffffffffffffff168173ffffffffffffffffffffffffffffffffffffffff167f8be0079c531659141344cd1fd0a4f28419497f9722a3daafe3b4186f6b6457e060405160405180910390a35050565b5f5ffd5b5f73ffffffffffffffffffffffffffffffffffffffff82169050919050565b5f6101f5826101cc565b9050919050565b610205816101eb565b811461020f575f5ffd5b50565b5f81519050610220816101fc565b92915050565b5f819050919050565b61023881610226565b8114610242575f5ffd5b50565b5f815190506102538161022f565b92915050565b5f5f5f606084860312156102705761026f6101c8565b5b5f61027d86828701610212565b935050602061028e86828701610212565b925050604061029f86828701610245565b9150509250925092565b6102b2816101eb565b82525050565b5f6020820190506102cb5f8301846102a9565b92915050565b611933806102de5f395ff3fe608060405234801561000f575f5ffd5b5060043610610114575f3560e01c80638da5cb5b116100a0578063d1f14a591161006f578063d1f14a5914610280578063df011c411461029e578063e1f1c4a7146102bc578063f2fde38b146102da578063f40f0f52146102f657610114565b80638da5cb5b1461020c578063a694fc3a1461022a578063c0f9b0fb14610246578063c5ebeaec1461026457610114565b806354a5706f116100e757806354a5706f1461018c5780635c975abb146101bc578063715018a6146101da578063817b1cd2146101e45780638456cb591461020257610114565b806316934fc4146101185780632e17de781461014a578063371fd8e6146101665780633f4ba83a14610182575b5f5ffd5b610132600480360381019061012d9190611350565b610326565b60405161014193929190611393565b60405180910390f35b610164600480360381019061015f91906113f2565b61034c565b005b610180600480360381019061017b91906113f2565b610822565b005b61018a6109ed565b005b6101a660048036038101906101a19190611350565b6109ff565b6040516101b3919061141d565b60405180910390f35b6101c4610a14565b6040516101d19190611450565b60405180910390f35b6101e2610a29565b005b6101ec610a3c565b6040516101f9919061141d565b60405180910390f35b61020a610a42565b005b610214610a54565b6040516102219190611478565b60405180910390f35b610244600480360381019061023f91906113f2565b610a7b565b005b61024e610c70565b60405161025b919061141d565b60405180910390f35b61027e600480360381019061027991906113f2565b610c76565b005b610288610e5b565b60405161029591906114ec565b60405180910390f35b6102a6610e80565b6040516102b3919061141d565b60405180910390f35b6102c4610e86565b6040516102d1919061141d565b60405180910390f35b6102f460048036038101906102ef9190611350565b610e8c565b005b610310600480360381019061030b9190611350565b610f10565b60405161031d919061141d565b60405180910390f35b6004602052805f5260405f205f91509050805f0154908060010154908060020154905083565b610354610fb9565b8060045f3373ffffffffffffffffffffffffffffffffffffffff1673ffffffffffffffffffffffffffffffffffffffff1681526020019081526020015f205f015410156103d6576040517f08c379a00000000000000000000000000000000000000000000000000000000081526004016103cd9061155f565b60405180910390fd5b6103df33610ffa565b8060045f3373ffffffffffffffffffffffffffffffffffffffff1673ffffffffffffffffffffffffffffffffffffffff1681526020019081526020015f205f015f82825461042d91906115aa565b925050819055508060025f82825461044591906115aa565b925050819055505f60045f3373ffffffffffffffffffffffffffffffffffffffff1673ffffffffffffffffffffffffffffffffffffffff1681526020019081526020015f206002015490505f60045f3373ffffffffffffffffffffffffffffffffffffffff1673ffffffffffffffffffffffffffffffffffffffff1681526020019081526020015f20600201819055505f73ffffffffffffffffffffffffffffffffffffffff1660015f9054906101000a900473ffffffffffffffffffffffffffffffffffffffff1673ffffffffffffffffffffffffffffffffffffffff16141580156105ea575060015f9054906101000a900473ffffffffffffffffffffffffffffffffffffffff1673ffffffffffffffffffffffffffffffffffffffff16638da5cb5b6040518163ffffffff1660e01b8152600401602060405180830381865afa158015610597573d5f5f3e3d5ffd5b505050506040513d601f19601f820116820180604052508101906105bb91906115f1565b73ffffffffffffffffffffffffffffffffffffffff163073ffffffffffffffffffffffffffffffffffffffff16145b80156105f557505f81115b156107255760015f9054906101000a900473ffffffffffffffffffffffffffffffffffffffff1673ffffffffffffffffffffffffffffffffffffffff166340c10f1933836040518363ffffffff1660e01b815260040161065692919061161c565b5f604051808303815f87803b15801561066d575f5ffd5b505af115801561067f573d5f5f3e3d5ffd5b5050505060015f9054906101000a900473ffffffffffffffffffffffffffffffffffffffff1673ffffffffffffffffffffffffffffffffffffffff1663a9059cbb33846040518363ffffffff1660e01b81526004016106df92919061161c565b6020604051808303815f875af11580156106fb573d5f5f3e3d5ffd5b505050506040513d601f19601f8201168201806040525081019061071f919061166d565b506107ce565b60015f9054906101000a900473ffffffffffffffffffffffffffffffffffffffff1673ffffffffffffffffffffffffffffffffffffffff1663a9059cbb33838561076f9190611698565b6040518363ffffffff1660e01b815260040161078c92919061161c565b6020604051808303815f875af11580156107a8573d5f5f3e3d5ffd5b505050506040513d601f19601f820116820180604052508101906107cc919061166d565b505b3373ffffffffffffffffffffffffffffffffffffffff167f7fc4727e062e336010f2c282598ef5f14facb3de68cf8195c2f23e1454b2b74e83836040516108169291906116cb565b60405180910390a25050565b61082a610fb9565b8060055f3373ffffffffffffffffffffffffffffffffffffffff1673ffffffffffffffffffffffffffffffffffffffff1681526020019081526020015f205410156108aa576040517f08c379a00000000000000000000000000000000000000000000000000000000081526004016108a19061173c565b60405180910390fd5b60015f9054906101000a900473ffffffffffffffffffffffffffffffffffffffff1673ffffffffffffffffffffffffffffffffffffffff166323b872dd3330846040518463ffffffff1660e01b81526004016109089392919061175a565b6020604051808303815f875af1158015610924573d5f5f3e3d5ffd5b505050506040513d601f19601f82011682018060405250810190610948919061166d565b508060055f3373ffffffffffffffffffffffffffffffffffffffff1673ffffffffffffffffffffffffffffffffffffffff1681526020019081526020015f205f82825461099591906115aa565b925050819055503373ffffffffffffffffffffffffffffffffffffffff167f0516911bcc3a0a7412a44601057c0a0a1ec628bde049a84284bc428866534488826040516109e2919061141d565b60405180910390a250565b6109f56110a0565b6109fd611127565b565b6005602052805f5260405f205f915090505481565b5f5f60149054906101000a900460ff16905090565b610a316110a0565b610a3a5f611188565b565b60025481565b610a4a6110a0565b610a52611249565b565b5f5f5f9054906101000a900473ffffffffffffffffffffffffffffffffffffffff16905090565b610a83610fb9565b5f8111610ac5576040517f08c379a0000000000000000000000000000000000000000000000000000000008152600401610abc906117d9565b60405180910390fd5b60015f9054906101000a900473ffffffffffffffffffffffffffffffffffffffff1673ffffffffffffffffffffffffffffffffffffffff166323b872dd3330846040518463ffffffff1660e01b8152600401610b239392919061175a565b6020604051808303815f875af1158015610b3f573d5f5f3e3d5ffd5b505050506040513d601f19601f82011682018060405250810190610b63919061166d565b50610b6d33610ffa565b8060045f3373ffffffffffffffffffffffffffffffffffffffff1673ffffffffffffffffffffffffffffffffffffffff1681526020019081526020015f205f015f828254610bbb9190611698565b925050819055504260045f3373ffffffffffffffffffffffffffffffffffffffff1673ffffffffffffffffffffffffffffffffffffffff1681526020019081526020015f20600101819055508060025f828254610c189190611698565b925050819055503373ffffffffffffffffffffffffffffffffffffffff167f9e71bc8eea02a63969f509818f2dafb9254532904319f9dbda79b67bd34a5f3d82604051610c65919061141d565b60405180910390a250565b60035481565b610c7e610fb9565b8061271060065460045f3373ffffffffffffffffffffffffffffffffffffffff1673ffffffffffffffffffffffffffffffffffffffff1681526020019081526020015f205f0154610ccf91906117f7565b610cd99190611865565b1015610d1a576040517f08c379a0000000000000000000000000000000000000000000000000000000008152600401610d11906118df565b60405180910390fd5b8060055f3373ffffffffffffffffffffffffffffffffffffffff1673ffffffffffffffffffffffffffffffffffffffff1681526020019081526020015f205f828254610d669190611698565b9250508190555060015f9054906101000a900473ffffffffffffffffffffffffffffffffffffffff1673ffffffffffffffffffffffffffffffffffffffff1663a9059cbb33836040518363ffffffff1660e01b8152600401610dc992919061161c565b6020604051808303815f875af1158015610de5573d5f5f3e3d5ffd5b505050506040513d601f19601f82011682018060405250810190610e09919061166d565b503373ffffffffffffffffffffffffffffffffffffffff167fac59582e5396aca512fa873a2047e7f4c80f8f55d4a06cb34a78a0187f62719f82604051610e50919061141d565b60405180910390a250565b60015f9054906101000a900473ffffffffffffffffffffffffffffffffffffffff1681565b60065481565b61271081565b610e946110a0565b5f73ffffffffffffffffffffffffffffffffffffffff168173ffffffffffffffffffffffffffffffffffffffff1603610f04575f6040517f1e4fbdf7000000000000000000000000000000000000000000000000000000008152600401610efb9190611478565b60405180910390fd5b610f0d81611188565b50565b5f5f60045f8473ffffffffffffffffffffffffffffffffffffffff1673ffffffffffffffffffffffffffffffffffffffff1681526020019081526020015f2090505f815f015403610f64575f915050610fb4565b5f816001015442610f7591906115aa565b90506301e1338061271082600354855f0154610f9191906117f7565b610f9b91906117f7565b610fa59190611865565b610faf9190611865565b925050505b919050565b610fc1610a14565b15610ff8576040517fd93c066500000000000000000000000000000000000000000000000000000000815260040160405180910390fd5b565b61100381610f10565b60045f8373ffffffffffffffffffffffffffffffffffffffff1673ffffffffffffffffffffffffffffffffffffffff1681526020019081526020015f206002015f8282546110519190611698565b925050819055504260045f8373ffffffffffffffffffffffffffffffffffffffff1673ffffffffffffffffffffffffffffffffffffffff1681526020019081526020015f206001018190555050565b6110a86112ab565b73ffffffffffffffffffffffffffffffffffffffff166110c6610a54565b73ffffffffffffffffffffffffffffffffffffffff1614611125576110e96112ab565b6040517f118cdaa700000000000000000000000000000000000000000000000000000000815260040161111c9190611478565b60405180910390fd5b565b61112f6112b2565b5f5f60146101000a81548160ff0219169083151502179055507f5db9ee0a495bf2e6ff9c91a7834c1ba4fdd244a5e8aa4e537bd38aeae4b073aa6111716112ab565b60405161117e9190611478565b60405180910390a1565b5f5f5f9054906101000a900473ffffffffffffffffffffffffffffffffffffffff169050815f5f6101000a81548173ffffffffffffffffffffffffffffffffffffffff021916908373ffffffffffffffffffffffffffffffffffffffff1602179055508173ffffffffffffffffffffffffffffffffffffffff168173ffffffffffffffffffffffffffffffffffffffff167f8be0079c531659141344cd1fd0a4f28419497f9722a3daafe3b4186f6b6457e060405160405180910390a35050565b611251610fb9565b60015f60146101000a81548160ff0219169083151502179055507f62e78cea01bee320cd4e420270b5ea74000d11b0c9f74754ebdbfc544b05a2586112946112ab565b6040516112a19190611478565b60405180910390a1565b5f33905090565b6112ba610a14565b6112f0576040517f8dfc202b00000000000000000000000000000000000000000000000000000000815260040160405180910390fd5b565b5f5ffd5b5f73ffffffffffffffffffffffffffffffffffffffff82169050919050565b5f61131f826112f6565b9050919050565b61132f81611315565b8114611339575f5ffd5b50565b5f8135905061134a81611326565b92915050565b5f60208284031215611365576113646112f2565b5b5f6113728482850161133c565b91505092915050565b5f819050919050565b61138d8161137b565b82525050565b5f6060820190506113a65f830186611384565b6113b36020830185611384565b6113c06040830184611384565b949350505050565b6113d18161137b565b81146113db575f5ffd5b50565b5f813590506113ec816113c8565b92915050565b5f60208284031215611407576114066112f2565b5b5f611414848285016113de565b91505092915050565b5f6020820190506114305f830184611384565b92915050565b5f8115159050919050565b61144a81611436565b82525050565b5f6020820190506114635f830184611441565b92915050565b61147281611315565b82525050565b5f60208201905061148b5f830184611469565b92915050565b5f819050919050565b5f6114b46114af6114aa846112f6565b611491565b6112f6565b9050919050565b5f6114c58261149a565b9050919050565b5f6114d6826114bb565b9050919050565b6114e6816114cc565b82525050565b5f6020820190506114ff5f8301846114dd565b92915050565b5f82825260208201905092915050565b7f496e73756666696369656e74207374616b6564000000000000000000000000005f82015250565b5f611549601383611505565b915061155482611515565b602082019050919050565b5f6020820190508181035f8301526115768161153d565b9050919050565b7f4e487b71000000000000000000000000000000000000000000000000000000005f52601160045260245ffd5b5f6115b48261137b565b91506115bf8361137b565b92508282039050818111156115d7576115d661157d565b5b92915050565b5f815190506115eb81611326565b92915050565b5f60208284031215611606576116056112f2565b5b5f611613848285016115dd565b91505092915050565b5f60408201905061162f5f830185611469565b61163c6020830184611384565b9392505050565b61164c81611436565b8114611656575f5ffd5b50565b5f8151905061166781611643565b92915050565b5f60208284031215611682576116816112f2565b5b5f61168f84828501611659565b91505092915050565b5f6116a28261137b565b91506116ad8361137b565b92508282019050808211156116c5576116c461157d565b5b92915050565b5f6040820190506116de5f830185611384565b6116eb6020830184611384565b9392505050565b7f4e6f2073756368206465627400000000000000000000000000000000000000005f82015250565b5f611726600c83611505565b9150611731826116f2565b602082019050919050565b5f6020820190508181035f8301526117538161171a565b9050919050565b5f60608201905061176d5f830186611469565b61177a6020830185611469565b6117876040830184611384565b949350505050565b7f416d6f756e74206d757374206265203e203000000000000000000000000000005f82015250565b5f6117c3601283611505565b91506117ce8261178f565b602082019050919050565b5f6020820190508181035f8301526117f0816117b7565b9050919050565b5f6118018261137b565b915061180c8361137b565b925082820261181a8161137b565b915082820484148315176118315761183061157d565b5b5092915050565b7f4e487b71000000000000000000000000000000000000000000000000000000005f52601260045260245ffd5b5f61186f8261137b565b915061187a8361137b565b92508261188a57611889611838565b5b828204905092915050565b7f496e73756666696369656e7420636f6c6c61746572616c0000000000000000005f82015250565b5f6118c9601783611505565b91506118d482611895565b602082019050919050565b5f6020820190508181035f8301526118f6816118bd565b905091905056fea2646970667358221220c0418fc80dae0bf3ca4241a69bc3e4e8b73e50fdef02af1dfe9b38c53258dc9864736f6c634300081e0033","linkReferences":{}},"methodIdentifiers":{"BASIS_POINTS()":"e1f1c4a7","annualRate()":"c0f9b0fb","borrow(uint256)":"c5ebeaec","borrows(address)":"54a5706f","collateralFactor()":"df011c41","owner()":"8da5cb5b","pause()":"8456cb59","paused()":"5c975abb","pendingReward(address)":"f40f0f52","renounceOwnership()":"715018a6","repay(uint256)":"371fd8e6","stake(uint256)":"a694fc3a","stakes(address)":"16934fc4","totalStaked()":"817b1cd2","transferOwnership(address)":"f2fde38b","unpause()":"3f4ba83a","unstake(uint256)":"2e17de78","urzToken()":"d1f14a59"},"id":31}