{"abi":[{"type":"constructor","inputs":[{"name":"initialOwner","type":"address","internalType":"address"},{"name":"urzTokenAddress","type":"address","internalType":"address"},{"name":"_annualRateBps","type":"uint256","internalType":"uint256"}],"stateMutability":"nonpayable"},{"type":"function","name":"BASIS_POINTS","inputs":[],"outputs":[{"name":"","type":"uint256","internalType":"uint256"}],"stateMutability":"view"},{"type":"function","name":"COLLATERAL_FACTOR","inputs":[],"outputs":[{"name":"","type":"uint256","internalType":"uint256"}],"stateMutability":"view"},{"type":"function","name":"annualRate","inputs":[],"outputs":[{"name":"","type":"uint256","internalType":"uint256"}],"stateMutability":"view"},{"type":"function","name":"borrow","inputs":[{"name":"amount","type":"uint256","internalType":"uint256"}],"outputs":[],"stateMutability":"nonpayable"},{"type":"function","name":"borrows","inputs":[{"name":"","type":"address","internalType":"address"}],"outputs":[{"name":"","type":"uint256","internalType":"uint256"}],"stateMutability":"view"},{"type":"function","name":"owner","inputs":[],"outputs":[{"name":"","type":"address","internalType":"address"}],"stateMutability":"view"},{"type":"function","name":"pause","inputs":[],"outputs":[],"stateMutability":"nonpayable"},{"type":"function","name":"paused","inputs":[],"outputs":[{"name":"","type":"bool","internalType":"bool"}],"stateMutability":"view"},{"type":"function","name":"pendingReward","inputs":[{"name":"user","type":"address","internalType":"address"}],"outputs":[{"name":"","type":"uint256","internalType":"uint256"}],"stateMutability":"view"},{"type":"function","name":"renounceOwnership","inputs":[],"outputs":[],"stateMutability":"nonpayable"},{"type":"function","name":"repay","inputs":[{"name":"amount","type":"uint256","internalType":"uint256"}],"outputs":[],"stateMutability":"nonpayable"},{"type":"function","name":"stake","inputs":[{"name":"amount","type":"uint256","internalType":"uint256"}],"outputs":[],"stateMutability":"nonpayable"},{"type":"function","name":"stakes","inputs":[{"name":"","type":"address","internalType":"address"}],"outputs":[{"name":"amount","type":"uint256","internalType":"uint256"},{"name":"timestamp","type":"uint256","internalType":"uint256"},{"name":"rewardDebt","type":"uint256","internalType":"uint256"}],"stateMutability":"view"},{"type":"function","name":"totalStaked","inputs":[],"outputs":[{"name":"","type":"uint256","internalType":"uint256"}],"stateMutability":"view"},{"type":"function","name":"transferOwnership","inputs":[{"name":"newOwner","type":"address","internalType":"address"}],"outputs":[],"stateMutability":"nonpayable"},{"type":"function","name":"unpause","inputs":[],"outputs":[],"stateMutability":"nonpayable"},{"type":"function","name":"unstake","inputs":[{"name":"amount","type":"uint256","internalType":"uint256"}],"outputs":[],"stateMutability":"nonpayable"},{"type":"function","name":"urzToken","inputs":[],"outputs":[{"name":"","type":"address","internalType":"contract IERC20"}],"stateMutability":"view"},{"type":"event","name":"Borrowed","inputs":[{"name":"user","type":"address","indexed":true,"internalType":"address"},{"name":"amount","type":"uint256","indexed":false,"internalType":"uint256"}],"anonymous":false},{"type":"event","name":"OwnershipTransferred","inputs":[{"name":"previousOwner","type":"address","indexed":true,"internalType":"address"},{"name":"newOwner","type":"address","indexed":true,"internalType":"address"}],"anonymous":false},{"type":"event","name":"Paused","inputs":[{"name":"account","type":"address","indexed":false,"internalType":"address"}],"anonymous":false},{"type":"event","name":"Repaid","inputs":[{"name":"user","type":"address","indexed":true,"internalType":"address"},{"name":"amount","type":"uint256","indexed":false,"internalType":"uint256"}],"anonymous":false},{"type":"event","name":"Staked","inputs":[{"name":"user","type":"address","indexed":true,"internalType":"address"},{"name":"amount","type":"uint256","indexed":false,"internalType":"uint256"}],"anonymous":false},{"type":"event","name":"Unpaused","inputs":[{"name":"account","type":"address","indexed":false,"internalType":"address"}],"anonymous":false},{"type":"event","name":"Unstaked","inputs":[{"name":"user","type":"address","indexed":true,"internalType":"address"},{"name":"amount","type":"uint256","indexed":false,"internalType":"uint256"},{"name":"reward","type":"uint256","indexed":false,"internalType":"uint256"}],"anonymous":false},{"type":"error","name":"EnforcedPause","inputs":[]},{"type":"error","name":"ExpectedPause","inputs":[]},{"type":"error","name":"OwnableInvalidOwner","inputs":[{"name":"owner","type":"address","internalType":"address"}]},{"type":"error","name":"OwnableUnauthorizedAccount","inputs":[{"name":"account","type":"address","internalType":"address"}]},{"type":"error","name":"ReentrancyGuardReentrantCall","inputs":[]},{"type":"error","name":"SafeCastOverflowedUintDowncast","inputs":[{"name":"bits","type":"uint8","internalType":"uint8"},{"name":"value","type":"uint256","internalType":"uint256"}]}],"bytecode":{"object":"0x60c060405234801561000f575f5ffd5b5060405161115038038061115083398101604081905261002e916100eb565b826001600160a01b03811661005c57604051631e4fbdf760e01b81525f600482015260240160405180910390fd5b61006581610081565b50600180556001600160a01b0390911660805260a05250610124565b5f80546001600160a01b038381166001600160a01b0319831681178455604051919092169283917f8be0079c531659141344cd1fd0a4f28419497f9722a3daafe3b4186f6b6457e09190a35050565b80516001600160a01b03811681146100e6575f5ffd5b919050565b5f5f5f606084860312156100fd575f5ffd5b610106846100d0565b9250610114602085016100d0565b9150604084015190509250925092565b60805160a051610fcc6101845f395f818161023a0152610bde01525f81816102740152818161038c015281816103bf0152818161047e015281816104f70152818161057c01528181610723015281816109070152610a900152610fcc5ff3fe608060405234801561000f575f5ffd5b5060043610610111575f3560e01c80638456cb591161009e578063c5ebeaec1161006e578063c5ebeaec1461025c578063d1f14a591461026f578063e1f1c4a714610296578063f2fde38b1461029f578063f40f0f52146102b2575f5ffd5b80638456cb59146101f65780638da5cb5b146101fe578063a694fc3a14610222578063c0f9b0fb14610235575f5ffd5b80633f4ba83a116100e45780633f4ba83a146101a257806354a5706f146101aa5780635c975abb146101c9578063715018a6146101e5578063817b1cd2146101ed575f5ffd5b806316934fc41461011557806317f49e05146101635780632e17de781461017a578063371fd8e61461018f575b5f5ffd5b610143610123366004610e84565b60036020525f908152604090208054600182015460029092015490919083565b604080519384526020840192909252908201526060015b60405180910390f35b61016c61138881565b60405190815260200161015a565b61018d610188366004610ea6565b6102c5565b005b61018d61019d366004610ea6565b610681565b61018d6107f0565b61016c6101b8366004610e84565b60046020525f908152604090205481565b5f54600160a01b900460ff16604051901515815260200161015a565b61018d610802565b61016c60025481565b61018d610813565b5f546001600160a01b03165b6040516001600160a01b03909116815260200161015a565b61018d610230366004610ea6565b610823565b61016c7f000000000000000000000000000000000000000000000000000000000000000081565b61018d61026a366004610ea6565b6109c7565b61020a7f000000000000000000000000000000000000000000000000000000000000000081565b61016c61271081565b61018d6102ad366004610e84565b610b50565b61016c6102c0366004610e84565b610b8a565b6102cd610c31565b6102d5610c5b565b335f9081526003602052604090205481111561032e5760405162461bcd60e51b8152602060048201526013602482015272125b9cdd59999a58da595b9d081cdd185ad959606a1b60448201526064015b60405180910390fd5b61033733610c85565b335f9081526003602052604081208054839290610355908490610ed1565b925050819055508060025f82825461036d9190610ed1565b9091555050335f908152600360205260408120600201805490829055907f00000000000000000000000000000000000000000000000000000000000000006001600160a01b03161580159061045257507f00000000000000000000000000000000000000000000000000000000000000006001600160a01b0316638da5cb5b6040518163ffffffff1660e01b8152600401602060405180830381865afa158015610419573d5f5f3e3d5ffd5b505050506040513d601f19601f8201168201806040525081019061043d9190610eea565b6001600160a01b0316306001600160a01b0316145b801561045d57505f82115b15610572576040516340c10f1960e01b8152336004820152602481018390527f00000000000000000000000000000000000000000000000000000000000000006001600160a01b0316906340c10f19906044015f604051808303815f87803b1580156104c7575f5ffd5b505af11580156104d9573d5f5f3e3d5ffd5b505060405163a9059cbb60e01b8152336004820152602481018690527f00000000000000000000000000000000000000000000000000000000000000006001600160a01b0316925063a9059cbb91506044016020604051808303815f875af1158015610547573d5f5f3e3d5ffd5b505050506040513d601f19601f8201168201806040525081019061056b9190610f05565b905061061b565b6001600160a01b037f00000000000000000000000000000000000000000000000000000000000000001663a9059cbb336105ac8587610f24565b6040516001600160e01b031960e085901b1681526001600160a01b03909216600483015260248201526044016020604051808303815f875af11580156105f4573d5f5f3e3d5ffd5b505050506040513d601f19601f820116820180604052508101906106189190610f05565b90505b806106385760405162461bcd60e51b815260040161032590610f37565b604080518481526020810184905233917f7fc4727e062e336010f2c282598ef5f14facb3de68cf8195c2f23e1454b2b74e910160405180910390a2505061067e60018055565b50565b610689610c31565b610691610c5b565b335f908152600460205260409020548111156106de5760405162461bcd60e51b815260206004820152600c60248201526b139bc81cdd58da081919589d60a21b6044820152606401610325565b335f90815260046020526040812080548392906106fc908490610ed1565b90915550506040516323b872dd60e01b8152336004820152306024820152604481018290527f00000000000000000000000000000000000000000000000000000000000000006001600160a01b0316906323b872dd906064016020604051808303815f875af1158015610771573d5f5f3e3d5ffd5b505050506040513d601f19601f820116820180604052508101906107959190610f05565b6107b15760405162461bcd60e51b815260040161032590610f37565b60405181815233907f0516911bcc3a0a7412a44601057c0a0a1ec628bde049a84284bc428866534488906020015b60405180910390a261067e60018055565b6107f8610cf1565b610800610d1d565b565b61080a610cf1565b6108005f610d71565b61081b610cf1565b610800610dc0565b61082b610c31565b610833610c5b565b5f81116108775760405162461bcd60e51b81526020600482015260126024820152710416d6f756e74206d757374206265203e20360741b6044820152606401610325565b61088033610c85565b335f908152600360205260408120805483929061089e908490610f24565b909155506108ac9050610e02565b335f90815260036020526040812065ffffffffffff92909216600190920191909155600280548392906108e0908490610f24565b90915550506040516323b872dd60e01b8152336004820152306024820152604481018290527f00000000000000000000000000000000000000000000000000000000000000006001600160a01b0316906323b872dd906064016020604051808303815f875af1158015610955573d5f5f3e3d5ffd5b505050506040513d601f19601f820116820180604052508101906109799190610f05565b6109955760405162461bcd60e51b815260040161032590610f37565b60405181815233907f9e71bc8eea02a63969f509818f2dafb9254532904319f9dbda79b67bd34a5f3d906020016107df565b6109cf610c31565b6109d7610c5b565b335f908152600360205260409020548190612710906109f99061138890610f60565b610a039190610f77565b1015610a515760405162461bcd60e51b815260206004820152601760248201527f496e73756666696369656e7420636f6c6c61746572616c0000000000000000006044820152606401610325565b335f9081526004602052604081208054839290610a6f908490610f24565b909155505060405163a9059cbb60e01b8152336004820152602481018290527f00000000000000000000000000000000000000000000000000000000000000006001600160a01b03169063a9059cbb906044016020604051808303815f875af1158015610ade573d5f5f3e3d5ffd5b505050506040513d601f19601f82011682018060405250810190610b029190610f05565b610b1e5760405162461bcd60e51b815260040161032590610f37565b60405181815233907fac59582e5396aca512fa873a2047e7f4c80f8f55d4a06cb34a78a0187f62719f906020016107df565b610b58610cf1565b6001600160a01b038116610b8157604051631e4fbdf760e01b81525f6004820152602401610325565b61067e81610d71565b6001600160a01b0381165f90815260036020526040812080548203610bb157505f92915050565b5f8160010154610bbf610e02565b65ffffffffffff16610bd19190610ed1565b90506301e13380612710827f0000000000000000000000000000000000000000000000000000000000000000855f0154610c0b9190610f60565b610c159190610f60565b610c1f9190610f77565b610c299190610f77565b949350505050565b600260015403610c5457604051633ee5aeb560e01b815260040160405180910390fd5b6002600155565b5f54600160a01b900460ff16156108005760405163d93c066560e01b815260040160405180910390fd5b610c8e81610b8a565b6001600160a01b0382165f9081526003602052604081206002018054909190610cb8908490610f24565b90915550610cc69050610e02565b6001600160a01b039091165f90815260036020526040902065ffffffffffff91909116600190910155565b5f546001600160a01b031633146108005760405163118cdaa760e01b8152336004820152602401610325565b610d25610e11565b5f805460ff60a01b191690557f5db9ee0a495bf2e6ff9c91a7834c1ba4fdd244a5e8aa4e537bd38aeae4b073aa335b6040516001600160a01b03909116815260200160405180910390a1565b5f80546001600160a01b038381166001600160a01b0319831681178455604051919092169283917f8be0079c531659141344cd1fd0a4f28419497f9722a3daafe3b4186f6b6457e09190a35050565b610dc8610c5b565b5f805460ff60a01b1916600160a01b1790557f62e78cea01bee320cd4e420270b5ea74000d11b0c9f74754ebdbfc544b05a258610d543390565b5f610e0c42610e3a565b905090565b5f54600160a01b900460ff1661080057604051638dfc202b60e01b815260040160405180910390fd5b5f65ffffffffffff821115610e6c576040516306dfcc6560e41b81526030600482015260248101839052604401610325565b5090565b6001600160a01b038116811461067e575f5ffd5b5f60208284031215610e94575f5ffd5b8135610e9f81610e70565b9392505050565b5f60208284031215610eb6575f5ffd5b5035919050565b634e487b7160e01b5f52601160045260245ffd5b81810381811115610ee457610ee4610ebd565b92915050565b5f60208284031215610efa575f5ffd5b8151610e9f81610e70565b5f60208284031215610f15575f5ffd5b81518015158114610e9f575f5ffd5b80820180821115610ee457610ee4610ebd565b6020808252600f908201526e151c985b9cd9995c8819985a5b1959608a1b604082015260600190565b8082028115828204841417610ee457610ee4610ebd565b5f82610f9157634e487b7160e01b5f52601260045260245ffd5b50049056fea2646970667358221220bb2aaed00480f4c64be16c29ccd00ad43c4951c1cbf66514ccb65f54a71a318a64736f6c63430008210033","linkReferences":{}},"methodIdentifiers":{"BASIS_POINTS()":"e1f1c4a7","COLLATERAL_FACTOR()":"17f49e05","annualRate()":"c0f9b0fb","borrow(uint256)":"c5ebeaec","borrows(address)":"54a5706f","owner()":"8da5cb5b","pause()":"8456cb59","paused()":"5c975abb","pendingReward(address)":"f40f0f52","renounceOwnership()":"715018a6","repay(uint256)":"371fd8e6","stake(uint256)":"a694fc3a","stakes(address)":"16934fc4","totalStaked()":"817b1cd2","transferOwnership(address)":"f2fde38b","unpause()":"3f4ba83a","unstake(uint256)":"2e17de78","urzToken()":"d1f14a59"},"id":52}