{"abi":[{"type":"constructor","inputs":[{"name":"initialOwner","type":"address","internalType":"address"},{"name":"urzTokenAddress","type":"address","internalType":"address"},{"name":"_annualRateBps","type":"uint256","internalType":"uint256"}],"stateMutability":"nonpayable"},{"type":"function","name":"BASIS_POINTS","inputs":[],"outputs":[{"name":"","type":"uint256","internalType":"uint256"}],"stateMutability":"view"},{"type":"function","name":"COLLATERAL_FACTOR","inputs":[],"outputs":[{"name":"","type":"uint256","internalType":"uint256"}],"stateMutability":"view"},{"type":"function","name":"annualRate","inputs":[],"outputs":[{"name":"","type":"uint256","internalType":"uint256"}],"stateMutability":"view"},{"type":"function","name":"borrow","inputs":[{"name":"amount","type":"uint256","internalType":"uint256"}],"outputs":[],"stateMutability":"nonpayable"},{"type":"function","name":"borrows","inputs":[{"name":"","type":"address","internalType":"address"}],"outputs":[{"name":"","type":"uint256","internalType":"uint256"}],"stateMutability":"view"},{"type":"function","name":"owner","inputs":[],"outputs":[{"name":"","type":"address","internalType":"address"}],"stateMutability":"view"},{"type":"function","name":"pause","inputs":[],"outputs":[],"stateMutability":"nonpayable"},{"type":"function","name":"paused","inputs":[],"outputs":[{"name":"","type":"bool","internalType":"bool"}],"stateMutability":"view"},{"type":"function","name":"pendingReward","inputs":[{"name":"user","type":"address","internalType":"address"}],"outputs":[{"name":"","type":"uint256","internalType":"uint256"}],"stateMutability":"view"},{"type":"function","name":"renounceOwnership","inputs":[],"outputs":[],"stateMutability":"nonpayable"},{"type":"function","name":"repay","inputs":[{"name":"amount","type":"uint256","internalType":"uint256"}],"outputs":[],"stateMutability":"nonpayable"},{"type":"function","name":"stake","inputs":[{"name":"amount","type":"uint256","internalType":"uint256"}],"outputs":[],"stateMutability":"nonpayable"},{"type":"function","name":"stakes","inputs":[{"name":"","type":"address","internalType":"address"}],"outputs":[{"name":"amount","type":"uint256","internalType":"uint256"},{"name":"timestamp","type":"uint256","internalType":"uint256"},{"name":"rewardDebt","type":"uint256","internalType":"uint256"}],"stateMutability":"view"},{"type":"function","name":"totalStaked","inputs":[],"outputs":[{"name":"","type":"uint256","internalType":"uint256"}],"stateMutability":"view"},{"type":"function","name":"transferOwnership","inputs":[{"name":"newOwner","type":"address","internalType":"address"}],"outputs":[],"stateMutability":"nonpayable"},{"type":"function","name":"unpause","inputs":[],"outputs":[],"stateMutability":"nonpayable"},{"type":"function","name":"unstake","inputs":[{"name":"amount","type":"uint256","internalType":"uint256"}],"outputs":[],"stateMutability":"nonpayable"},{"type":"function","name":"urzToken","inputs":[],"outputs":[{"name":"","type":"address","internalType":"contract IERC20"}],"stateMutability":"view"},{"type":"event","name":"Borrowed","inputs":[{"name":"user","type":"address","indexed":true,"internalType":"address"},{"name":"amount","type":"uint256","indexed":false,"internalType":"uint256"}],"anonymous":false},{"type":"event","name":"OwnershipTransferred","inputs":[{"name":"previousOwner","type":"address","indexed":true,"internalType":"address"},{"name":"newOwner","type":"address","indexed":true,"internalType":"address"}],"anonymous":false},{"type":"event","name":"Paused","inputs":[{"name":"account","type":"address","indexed":false,"internalType":"address"}],"anonymous":false},{"type":"event","name":"Repaid","inputs":[{"name":"user","type":"address","indexed":true,"internalType":"address"},{"name":"amount","type":"uint256","indexed":false,"internalType":"uint256"}],"anonymous":false},{"type":"event","name":"Staked","inputs":[{"name":"user","type":"address","indexed":true,"internalType":"address"},{"name":"amount","type":"uint256","indexed":false,"internalType":"uint256"}],"anonymous":false},{"type":"event","name":"Unpaused","inputs":[{"name":"account","type":"address","indexed":false,"internalType":"address"}],"anonymous":false},{"type":"event","name":"Unstaked","inputs":[{"name":"user","type":"address","indexed":true,"internalType":"address"},{"name":"amount","type":"uint256","indexed":false,"internalType":"uint256"},{"name":"reward","type":"uint256","indexed":false,"internalType":"uint256"}],"anonymous":false},{"type":"error","name":"EnforcedPause","inputs":[]},{"type":"error","name":"ExpectedPause","inputs":[]},{"type":"error","name":"OwnableInvalidOwner","inputs":[{"name":"owner","type":"address","internalType":"address"}]},{"type":"error","name":"OwnableUnauthorizedAccount","inputs":[{"name":"account","type":"address","internalType":"address"}]},{"type":"error","name":"ReentrancyGuardReentrantCall","inputs":[]},{"type":"error","name":"SafeCastOverflowedUintDowncast","inputs":[{"name":"bits","type":"uint8","internalType":"uint8"},{"name":"value","type":"uint256","internalType":"uint256"}]}],"bytecode":{"object":"0x60c060405234801561000f575f5ffd5b50604051611f83380380611f838339818101604052810190610031919061024f565b825f73ffffffffffffffffffffffffffffffffffffffff168173ffffffffffffffffffffffffffffffffffffffff16036100a2575f6040517f1e4fbdf700000000000000000000000000000000000000000000000000000000815260040161009991906102ae565b60405180910390fd5b6100b1816100fd60201b60201c565b50600180819055508173ffffffffffffffffffffffffffffffffffffffff1660808173ffffffffffffffffffffffffffffffffffffffff16815250508060a081815250505050506102c7565b5f5f5f9054906101000a900473ffffffffffffffffffffffffffffffffffffffff169050815f5f6101000a81548173ffffffffffffffffffffffffffffffffffffffff021916908373ffffffffffffffffffffffffffffffffffffffff1602179055508173ffffffffffffffffffffffffffffffffffffffff168173ffffffffffffffffffffffffffffffffffffffff167f8be0079c531659141344cd1fd0a4f28419497f9722a3daafe3b4186f6b6457e060405160405180910390a35050565b5f5ffd5b5f73ffffffffffffffffffffffffffffffffffffffff82169050919050565b5f6101eb826101c2565b9050919050565b6101fb816101e1565b8114610205575f5ffd5b50565b5f81519050610216816101f2565b92915050565b5f819050919050565b61022e8161021c565b8114610238575f5ffd5b50565b5f8151905061024981610225565b92915050565b5f5f5f60608486031215610266576102656101be565b5b5f61027386828701610208565b935050602061028486828701610208565b92505060406102958682870161023b565b9150509250925092565b6102a8816101e1565b82525050565b5f6020820190506102c15f83018461029f565b92915050565b60805160a051611c5c6103275f395f8181610d7001526110f301525f81816104fd0152818161053d0152818161060901528181610691015281816107330152818161095c01528181610c3b01528181610e930152610fc60152611c5c5ff3fe608060405234801561000f575f5ffd5b5060043610610114575f3560e01c80638456cb59116100a0578063c5ebeaec1161006f578063c5ebeaec14610282578063d1f14a591461029e578063e1f1c4a7146102bc578063f2fde38b146102da578063f40f0f52146102f657610114565b80638456cb59146102205780638da5cb5b1461022a578063a694fc3a14610248578063c0f9b0fb1461026457610114565b80633f4ba83a116100e75780633f4ba83a146101a057806354a5706f146101aa5780635c975abb146101da578063715018a6146101f8578063817b1cd21461020257610114565b806316934fc41461011857806317f49e051461014a5780632e17de7814610168578063371fd8e614610184575b5f5ffd5b610132600480360381019061012d91906115a5565b610326565b604051610141939291906115e8565b60405180910390f35b61015261034c565b60405161015f919061161d565b60405180910390f35b610182600480360381019061017d9190611660565b610352565b005b61019e60048036038101906101999190611660565b610877565b005b6101a8610a8f565b005b6101c460048036038101906101bf91906115a5565b610aa1565b6040516101d1919061161d565b60405180910390f35b6101e2610ab6565b6040516101ef91906116a5565b60405180910390f35b610200610acb565b005b61020a610ade565b604051610217919061161d565b60405180910390f35b610228610ae4565b005b610232610af6565b60405161023f91906116cd565b60405180910390f35b610262600480360381019061025d9190611660565b610b1d565b005b61026c610d6e565b604051610279919061161d565b60405180910390f35b61029c60048036038101906102979190611660565b610d92565b005b6102a6610fc4565b6040516102b39190611741565b60405180910390f35b6102c4610fe8565b6040516102d1919061161d565b60405180910390f35b6102f460048036038101906102ef91906115a5565b610fee565b005b610310600480360381019061030b91906115a5565b611072565b60405161031d919061161d565b60405180910390f35b6003602052805f5260405f205f91509050805f0154908060010154908060020154905083565b61138881565b61035a611148565b61036261118e565b8060035f3373ffffffffffffffffffffffffffffffffffffffff1673ffffffffffffffffffffffffffffffffffffffff1681526020019081526020015f205f015410156103e4576040517f08c379a00000000000000000000000000000000000000000000000000000000081526004016103db906117b4565b60405180910390fd5b6103ed336111cf565b8060035f3373ffffffffffffffffffffffffffffffffffffffff1673ffffffffffffffffffffffffffffffffffffffff1681526020019081526020015f205f015f82825461043b91906117ff565b925050819055508060025f82825461045391906117ff565b925050819055505f60035f3373ffffffffffffffffffffffffffffffffffffffff1673ffffffffffffffffffffffffffffffffffffffff1681526020019081526020015f206002015490505f60035f3373ffffffffffffffffffffffffffffffffffffffff1673ffffffffffffffffffffffffffffffffffffffff1681526020019081526020015f20600201819055505f5f73ffffffffffffffffffffffffffffffffffffffff167f000000000000000000000000000000000000000000000000000000000000000073ffffffffffffffffffffffffffffffffffffffff16141580156105f757507f000000000000000000000000000000000000000000000000000000000000000073ffffffffffffffffffffffffffffffffffffffff16638da5cb5b6040518163ffffffff1660e01b8152600401602060405180830381865afa1580156105a4573d5f5f3e3d5ffd5b505050506040513d601f19601f820116820180604052508101906105c89190611846565b73ffffffffffffffffffffffffffffffffffffffff163073ffffffffffffffffffffffffffffffffffffffff16145b801561060257505f82115b15610731577f000000000000000000000000000000000000000000000000000000000000000073ffffffffffffffffffffffffffffffffffffffff166340c10f1933846040518363ffffffff1660e01b8152600401610662929190611871565b5f604051808303815f87803b158015610679575f5ffd5b505af115801561068b573d5f5f3e3d5ffd5b505050507f000000000000000000000000000000000000000000000000000000000000000073ffffffffffffffffffffffffffffffffffffffff1663a9059cbb33856040518363ffffffff1660e01b81526004016106ea929190611871565b6020604051808303815f875af1158015610706573d5f5f3e3d5ffd5b505050506040513d601f19601f8201168201806040525081019061072a91906118c2565b90506107da565b7f000000000000000000000000000000000000000000000000000000000000000073ffffffffffffffffffffffffffffffffffffffff1663a9059cbb33848661077a91906118ed565b6040518363ffffffff1660e01b8152600401610797929190611871565b6020604051808303815f875af11580156107b3573d5f5f3e3d5ffd5b505050506040513d601f19601f820116820180604052508101906107d791906118c2565b90505b8061081a576040517f08c379a00000000000000000000000000000000000000000000000000000000081526004016108119061196a565b60405180910390fd5b3373ffffffffffffffffffffffffffffffffffffffff167f7fc4727e062e336010f2c282598ef5f14facb3de68cf8195c2f23e1454b2b74e8484604051610862929190611988565b60405180910390a25050610874611284565b50565b61087f611148565b61088761118e565b8060045f3373ffffffffffffffffffffffffffffffffffffffff1673ffffffffffffffffffffffffffffffffffffffff1681526020019081526020015f20541015610907576040517f08c379a00000000000000000000000000000000000000000000000000000000081526004016108fe906119f9565b60405180910390fd5b8060045f3373ffffffffffffffffffffffffffffffffffffffff1673ffffffffffffffffffffffffffffffffffffffff1681526020019081526020015f205f82825461095391906117ff565b925050819055507f000000000000000000000000000000000000000000000000000000000000000073ffffffffffffffffffffffffffffffffffffffff166323b872dd3330846040518463ffffffff1660e01b81526004016109b793929190611a17565b6020604051808303815f875af11580156109d3573d5f5f3e3d5ffd5b505050506040513d601f19601f820116820180604052508101906109f791906118c2565b610a36576040517f08c379a0000000000000000000000000000000000000000000000000000000008152600401610a2d9061196a565b60405180910390fd5b3373ffffffffffffffffffffffffffffffffffffffff167f0516911bcc3a0a7412a44601057c0a0a1ec628bde049a84284bc42886653448882604051610a7c919061161d565b60405180910390a2610a8c611284565b50565b610a9761128d565b610a9f611314565b565b6004602052805f5260405f205f915090505481565b5f5f60149054906101000a900460ff16905090565b610ad361128d565b610adc5f611375565b565b60025481565b610aec61128d565b610af4611436565b565b5f5f5f9054906101000a900473ffffffffffffffffffffffffffffffffffffffff16905090565b610b25611148565b610b2d61118e565b5f8111610b6f576040517f08c379a0000000000000000000000000000000000000000000000000000000008152600401610b6690611a96565b60405180910390fd5b610b78336111cf565b8060035f3373ffffffffffffffffffffffffffffffffffffffff1673ffffffffffffffffffffffffffffffffffffffff1681526020019081526020015f205f015f828254610bc691906118ed565b92505081905550610bd5611498565b65ffffffffffff1660035f3373ffffffffffffffffffffffffffffffffffffffff1673ffffffffffffffffffffffffffffffffffffffff1681526020019081526020015f20600101819055508060025f828254610c3291906118ed565b925050819055507f000000000000000000000000000000000000000000000000000000000000000073ffffffffffffffffffffffffffffffffffffffff166323b872dd3330846040518463ffffffff1660e01b8152600401610c9693929190611a17565b6020604051808303815f875af1158015610cb2573d5f5f3e3d5ffd5b505050506040513d601f19601f82011682018060405250810190610cd691906118c2565b610d15576040517f08c379a0000000000000000000000000000000000000000000000000000000008152600401610d0c9061196a565b60405180910390fd5b3373ffffffffffffffffffffffffffffffffffffffff167f9e71bc8eea02a63969f509818f2dafb9254532904319f9dbda79b67bd34a5f3d82604051610d5b919061161d565b60405180910390a2610d6b611284565b50565b7f000000000000000000000000000000000000000000000000000000000000000081565b610d9a611148565b610da261118e565b8061271061138860035f3373ffffffffffffffffffffffffffffffffffffffff1673ffffffffffffffffffffffffffffffffffffffff1681526020019081526020015f205f0154610df39190611ab4565b610dfd9190611b22565b1015610e3e576040517f08c379a0000000000000000000000000000000000000000000000000000000008152600401610e3590611b9c565b60405180910390fd5b8060045f3373ffffffffffffffffffffffffffffffffffffffff1673ffffffffffffffffffffffffffffffffffffffff1681526020019081526020015f205f828254610e8a91906118ed565b925050819055507f000000000000000000000000000000000000000000000000000000000000000073ffffffffffffffffffffffffffffffffffffffff1663a9059cbb33836040518363ffffffff1660e01b8152600401610eec929190611871565b6020604051808303815f875af1158015610f08573d5f5f3e3d5ffd5b505050506040513d601f19601f82011682018060405250810190610f2c91906118c2565b610f6b576040517f08c379a0000000000000000000000000000000000000000000000000000000008152600401610f629061196a565b60405180910390fd5b3373ffffffffffffffffffffffffffffffffffffffff167fac59582e5396aca512fa873a2047e7f4c80f8f55d4a06cb34a78a0187f62719f82604051610fb1919061161d565b60405180910390a2610fc1611284565b50565b7f000000000000000000000000000000000000000000000000000000000000000081565b61271081565b610ff661128d565b5f73ffffffffffffffffffffffffffffffffffffffff168173ffffffffffffffffffffffffffffffffffffffff1603611066575f6040517f1e4fbdf700000000000000000000000000000000000000000000000000000000815260040161105d91906116cd565b60405180910390fd5b61106f81611375565b50565b5f5f60035f8473ffffffffffffffffffffffffffffffffffffffff1673ffffffffffffffffffffffffffffffffffffffff1681526020019081526020015f2090505f815f0154036110c6575f915050611143565b5f81600101546110d4611498565b65ffffffffffff166110e691906117ff565b90506301e13380612710827f0000000000000000000000000000000000000000000000000000000000000000855f01546111209190611ab4565b61112a9190611ab4565b6111349190611b22565b61113e9190611b22565b925050505b919050565b600260015403611184576040517f3ee5aeb500000000000000000000000000000000000000000000000000000000815260040160405180910390fd5b6002600181905550565b611196610ab6565b156111cd576040517fd93c066500000000000000000000000000000000000000000000000000000000815260040160405180910390fd5b565b6111d881611072565b60035f8373ffffffffffffffffffffffffffffffffffffffff1673ffffffffffffffffffffffffffffffffffffffff1681526020019081526020015f206002015f82825461122691906118ed565b92505081905550611235611498565b65ffffffffffff1660035f8373ffffffffffffffffffffffffffffffffffffffff1673ffffffffffffffffffffffffffffffffffffffff1681526020019081526020015f206001018190555050565b60018081905550565b6112956114a7565b73ffffffffffffffffffffffffffffffffffffffff166112b3610af6565b73ffffffffffffffffffffffffffffffffffffffff1614611312576112d66114a7565b6040517f118cdaa700000000000000000000000000000000000000000000000000000000815260040161130991906116cd565b60405180910390fd5b565b61131c6114ae565b5f5f60146101000a81548160ff0219169083151502179055507f5db9ee0a495bf2e6ff9c91a7834c1ba4fdd244a5e8aa4e537bd38aeae4b073aa61135e6114a7565b60405161136b91906116cd565b60405180910390a1565b5f5f5f9054906101000a900473ffffffffffffffffffffffffffffffffffffffff169050815f5f6101000a81548173ffffffffffffffffffffffffffffffffffffffff021916908373ffffffffffffffffffffffffffffffffffffffff1602179055508173ffffffffffffffffffffffffffffffffffffffff168173ffffffffffffffffffffffffffffffffffffffff167f8be0079c531659141344cd1fd0a4f28419497f9722a3daafe3b4186f6b6457e060405160405180910390a35050565b61143e61118e565b60015f60146101000a81548160ff0219169083151502179055507f62e78cea01bee320cd4e420270b5ea74000d11b0c9f74754ebdbfc544b05a2586114816114a7565b60405161148e91906116cd565b60405180910390a1565b5f6114a2426114ee565b905090565b5f33905090565b6114b6610ab6565b6114ec576040517f8dfc202b00000000000000000000000000000000000000000000000000000000815260040160405180910390fd5b565b5f65ffffffffffff801682111561153f576030826040517f6dfcc650000000000000000000000000000000000000000000000000000000008152600401611536929190611bff565b60405180910390fd5b819050919050565b5f5ffd5b5f73ffffffffffffffffffffffffffffffffffffffff82169050919050565b5f6115748261154b565b9050919050565b6115848161156a565b811461158e575f5ffd5b50565b5f8135905061159f8161157b565b92915050565b5f602082840312156115ba576115b9611547565b5b5f6115c784828501611591565b91505092915050565b5f819050919050565b6115e2816115d0565b82525050565b5f6060820190506115fb5f8301866115d9565b61160860208301856115d9565b61161560408301846115d9565b949350505050565b5f6020820190506116305f8301846115d9565b92915050565b61163f816115d0565b8114611649575f5ffd5b50565b5f8135905061165a81611636565b92915050565b5f6020828403121561167557611674611547565b5b5f6116828482850161164c565b91505092915050565b5f8115159050919050565b61169f8161168b565b82525050565b5f6020820190506116b85f830184611696565b92915050565b6116c78161156a565b82525050565b5f6020820190506116e05f8301846116be565b92915050565b5f819050919050565b5f6117096117046116ff8461154b565b6116e6565b61154b565b9050919050565b5f61171a826116ef565b9050919050565b5f61172b82611710565b9050919050565b61173b81611721565b82525050565b5f6020820190506117545f830184611732565b92915050565b5f82825260208201905092915050565b7f496e73756666696369656e74207374616b6564000000000000000000000000005f82015250565b5f61179e60138361175a565b91506117a98261176a565b602082019050919050565b5f6020820190508181035f8301526117cb81611792565b9050919050565b7f4e487b71000000000000000000000000000000000000000000000000000000005f52601160045260245ffd5b5f611809826115d0565b9150611814836115d0565b925082820390508181111561182c5761182b6117d2565b5b92915050565b5f815190506118408161157b565b92915050565b5f6020828403121561185b5761185a611547565b5b5f61186884828501611832565b91505092915050565b5f6040820190506118845f8301856116be565b61189160208301846115d9565b9392505050565b6118a18161168b565b81146118ab575f5ffd5b50565b5f815190506118bc81611898565b92915050565b5f602082840312156118d7576118d6611547565b5b5f6118e4848285016118ae565b91505092915050565b5f6118f7826115d0565b9150611902836115d0565b925082820190508082111561191a576119196117d2565b5b92915050565b7f5472616e73666572206661696c656400000000000000000000000000000000005f82015250565b5f611954600f8361175a565b915061195f82611920565b602082019050919050565b5f6020820190508181035f83015261198181611948565b9050919050565b5f60408201905061199b5f8301856115d9565b6119a860208301846115d9565b9392505050565b7f4e6f2073756368206465627400000000000000000000000000000000000000005f82015250565b5f6119e3600c8361175a565b91506119ee826119af565b602082019050919050565b5f6020820190508181035f830152611a10816119d7565b9050919050565b5f606082019050611a2a5f8301866116be565b611a3760208301856116be565b611a4460408301846115d9565b949350505050565b7f416d6f756e74206d757374206265203e203000000000000000000000000000005f82015250565b5f611a8060128361175a565b9150611a8b82611a4c565b602082019050919050565b5f6020820190508181035f830152611aad81611a74565b9050919050565b5f611abe826115d0565b9150611ac9836115d0565b9250828202611ad7816115d0565b91508282048414831517611aee57611aed6117d2565b5b5092915050565b7f4e487b71000000000000000000000000000000000000000000000000000000005f52601260045260245ffd5b5f611b2c826115d0565b9150611b37836115d0565b925082611b4757611b46611af5565b5b828204905092915050565b7f496e73756666696369656e7420636f6c6c61746572616c0000000000000000005f82015250565b5f611b8660178361175a565b9150611b9182611b52565b602082019050919050565b5f6020820190508181035f830152611bb381611b7a565b9050919050565b5f819050919050565b5f60ff82169050919050565b5f611be9611be4611bdf84611bba565b6116e6565b611bc3565b9050919050565b611bf981611bcf565b82525050565b5f604082019050611c125f830185611bf0565b611c1f60208301846115d9565b939250505056fea26469706673582212200c0fb5862cefd46336835cf752ee2b7a9ea014ff0d4ca9afa6abff890886930764736f6c63430008210033","linkReferences":{}},"methodIdentifiers":{"BASIS_POINTS()":"e1f1c4a7","COLLATERAL_FACTOR()":"17f49e05","annualRate()":"c0f9b0fb","borrow(uint256)":"c5ebeaec","borrows(address)":"54a5706f","owner()":"8da5cb5b","pause()":"8456cb59","paused()":"5c975abb","pendingReward(address)":"f40f0f52","renounceOwnership()":"715018a6","repay(uint256)":"371fd8e6","stake(uint256)":"a694fc3a","stakes(address)":"16934fc4","totalStaked()":"817b1cd2","transferOwnership(address)":"f2fde38b","unpause()":"3f4ba83a","unstake(uint256)":"2e17de78","urzToken()":"d1f14a59"},"id":46}