{"abi":[{"type":"constructor","inputs":[{"name":"initialOwner","type":"address","internalType":"address"},{"name":"urzTokenAddress","type":"address","internalType":"address"},{"name":"_annualRateBps","type":"uint256","internalType":"uint256"}],"stateMutability":"nonpayable"},{"type":"function","name":"BASIS_POINTS","inputs":[],"outputs":[{"name":"","type":"uint256","internalType":"uint256"}],"stateMutability":"view"},{"type":"function","name":"annualRate","inputs":[],"outputs":[{"name":"","type":"uint256","internalType":"uint256"}],"stateMutability":"view"},{"type":"function","name":"borrow","inputs":[{"name":"amount","type":"uint256","internalType":"uint256"}],"outputs":[],"stateMutability":"nonpayable"},{"type":"function","name":"borrows","inputs":[{"name":"","type":"address","internalType":"address"}],"outputs":[{"name":"","type":"uint256","internalType":"uint256"}],"stateMutability":"view"},{"type":"function","name":"collateralFactor","inputs":[],"outputs":[{"name":"","type":"uint256","internalType":"uint256"}],"stateMutability":"view"},{"type":"function","name":"owner","inputs":[],"outputs":[{"name":"","type":"address","internalType":"address"}],"stateMutability":"view"},{"type":"function","name":"pause","inputs":[],"outputs":[],"stateMutability":"nonpayable"},{"type":"function","name":"paused","inputs":[],"outputs":[{"name":"","type":"bool","internalType":"bool"}],"stateMutability":"view"},{"type":"function","name":"pendingReward","inputs":[{"name":"user","type":"address","internalType":"address"}],"outputs":[{"name":"","type":"uint256","internalType":"uint256"}],"stateMutability":"view"},{"type":"function","name":"renounceOwnership","inputs":[],"outputs":[],"stateMutability":"nonpayable"},{"type":"function","name":"repay","inputs":[{"name":"amount","type":"uint256","internalType":"uint256"}],"outputs":[],"stateMutability":"nonpayable"},{"type":"function","name":"stake","inputs":[{"name":"amount","type":"uint256","internalType":"uint256"}],"outputs":[],"stateMutability":"nonpayable"},{"type":"function","name":"stakes","inputs":[{"name":"","type":"address","internalType":"address"}],"outputs":[{"name":"amount","type":"uint256","internalType":"uint256"},{"name":"timestamp","type":"uint256","internalType":"uint256"},{"name":"rewardDebt","type":"uint256","internalType":"uint256"}],"stateMutability":"view"},{"type":"function","name":"totalStaked","inputs":[],"outputs":[{"name":"","type":"uint256","internalType":"uint256"}],"stateMutability":"view"},{"type":"function","name":"transferOwnership","inputs":[{"name":"newOwner","type":"address","internalType":"address"}],"outputs":[],"stateMutability":"nonpayable"},{"type":"function","name":"unpause","inputs":[],"outputs":[],"stateMutability":"nonpayable"},{"type":"function","name":"unstake","inputs":[{"name":"amount","type":"uint256","internalType":"uint256"}],"outputs":[],"stateMutability":"nonpayable"},{"type":"function","name":"urzToken","inputs":[],"outputs":[{"name":"","type":"address","internalType":"contract IERC20"}],"stateMutability":"view"},{"type":"event","name":"Borrowed","inputs":[{"name":"user","type":"address","indexed":true,"internalType":"address"},{"name":"amount","type":"uint256","indexed":false,"internalType":"uint256"}],"anonymous":false},{"type":"event","name":"OwnershipTransferred","inputs":[{"name":"previousOwner","type":"address","indexed":true,"internalType":"address"},{"name":"newOwner","type":"address","indexed":true,"internalType":"address"}],"anonymous":false},{"type":"event","name":"Paused","inputs":[{"name":"account","type":"address","indexed":false,"internalType":"address"}],"anonymous":false},{"type":"event","name":"Repaid","inputs":[{"name":"user","type":"address","indexed":true,"internalType":"address"},{"name":"amount","type":"uint256","indexed":false,"internalType":"uint256"}],"anonymous":false},{"type":"event","name":"Staked","inputs":[{"name":"user","type":"address","indexed":true,"internalType":"address"},{"name":"amount","type":"uint256","indexed":false,"internalType":"uint256"}],"anonymous":false},{"type":"event","name":"Unpaused","inputs":[{"name":"account","type":"address","indexed":false,"internalType":"address"}],"anonymous":false},{"type":"event","name":"Unstaked","inputs":[{"name":"user","type":"address","indexed":true,"internalType":"address"},{"name":"amount","type":"uint256","indexed":false,"internalType":"uint256"},{"name":"reward","type":"uint256","indexed":false,"internalType":"uint256"}],"anonymous":false},{"type":"error","name":"EnforcedPause","inputs":[]},{"type":"error","name":"ExpectedPause","inputs":[]},{"type":"error","name":"OwnableInvalidOwner","inputs":[{"name":"owner","type":"address","internalType":"address"}]},{"type":"error","name":"OwnableUnauthorizedAccount","inputs":[{"name":"account","type":"address","internalType":"address"}]}],"bytecode":{"object":"0x6080604052611388600655348015610015575f5ffd5b5060405161198138038061198183398181016040528101906100379190610259565b825f73ffffffffffffffffffffffffffffffffffffffff168173ffffffffffffffffffffffffffffffffffffffff16036100a8575f6040517f1e4fbdf700000000000000000000000000000000000000000000000000000000815260040161009f91906102b8565b60405180910390fd5b6100b78161010760201b60201c565b508160015f6101000a81548173ffffffffffffffffffffffffffffffffffffffff021916908373ffffffffffffffffffffffffffffffffffffffff160217905550806003819055505050506102d1565b5f5f5f9054906101000a900473ffffffffffffffffffffffffffffffffffffffff169050815f5f6101000a81548173ffffffffffffffffffffffffffffffffffffffff021916908373ffffffffffffffffffffffffffffffffffffffff1602179055508173ffffffffffffffffffffffffffffffffffffffff168173ffffffffffffffffffffffffffffffffffffffff167f8be0079c531659141344cd1fd0a4f28419497f9722a3daafe3b4186f6b6457e060405160405180910390a35050565b5f5ffd5b5f73ffffffffffffffffffffffffffffffffffffffff82169050919050565b5f6101f5826101cc565b9050919050565b610205816101eb565b811461020f575f5ffd5b50565b5f81519050610220816101fc565b92915050565b5f819050919050565b61023881610226565b8114610242575f5ffd5b50565b5f815190506102538161022f565b92915050565b5f5f5f606084860312156102705761026f6101c8565b5b5f61027d86828701610212565b935050602061028e86828701610212565b925050604061029f86828701610245565b9150509250925092565b6102b2816101eb565b82525050565b5f6020820190506102cb5f8301846102a9565b92915050565b6116a3806102de5f395ff3fe608060405234801561000f575f5ffd5b5060043610610114575f3560e01c80638da5cb5b116100a0578063d1f14a591161006f578063d1f14a5914610280578063df011c411461029e578063e1f1c4a7146102bc578063f2fde38b146102da578063f40f0f52146102f657610114565b80638da5cb5b1461020c578063a694fc3a1461022a578063c0f9b0fb14610246578063c5ebeaec1461026457610114565b806354a5706f116100e757806354a5706f1461018c5780635c975abb146101bc578063715018a6146101da578063817b1cd2146101e45780638456cb591461020257610114565b806316934fc4146101185780632e17de781461014a578063371fd8e6146101665780633f4ba83a14610182575b5f5ffd5b610132600480360381019061012d91906110ff565b610326565b60405161014193929190611142565b60405180910390f35b610164600480360381019061015f91906111a1565b61034c565b005b610180600480360381019061017b91906111a1565b6105d1565b005b61018a61079c565b005b6101a660048036038101906101a191906110ff565b6107ae565b6040516101b391906111cc565b60405180910390f35b6101c46107c3565b6040516101d191906111ff565b60405180910390f35b6101e26107d8565b005b6101ec6107eb565b6040516101f991906111cc565b60405180910390f35b61020a6107f1565b005b610214610803565b6040516102219190611227565b60405180910390f35b610244600480360381019061023f91906111a1565b61082a565b005b61024e610a1f565b60405161025b91906111cc565b60405180910390f35b61027e600480360381019061027991906111a1565b610a25565b005b610288610c0a565b604051610295919061129b565b60405180910390f35b6102a6610c2f565b6040516102b391906111cc565b60405180910390f35b6102c4610c35565b6040516102d191906111cc565b60405180910390f35b6102f460048036038101906102ef91906110ff565b610c3b565b005b610310600480360381019061030b91906110ff565b610cbf565b60405161031d91906111cc565b60405180910390f35b6004602052805f5260405f205f91509050805f0154908060010154908060020154905083565b610354610d68565b8060045f3373ffffffffffffffffffffffffffffffffffffffff1673ffffffffffffffffffffffffffffffffffffffff1681526020019081526020015f205f015410156103d6576040517f08c379a00000000000000000000000000000000000000000000000000000000081526004016103cd9061130e565b60405180910390fd5b6103df33610da9565b8060045f3373ffffffffffffffffffffffffffffffffffffffff1673ffffffffffffffffffffffffffffffffffffffff1681526020019081526020015f205f015f82825461042d9190611359565b925050819055508060025f8282546104459190611359565b925050819055505f60045f3373ffffffffffffffffffffffffffffffffffffffff1673ffffffffffffffffffffffffffffffffffffffff1681526020019081526020015f206002015490505f60045f3373ffffffffffffffffffffffffffffffffffffffff1673ffffffffffffffffffffffffffffffffffffffff1681526020019081526020015f206002018190555060015f9054906101000a900473ffffffffffffffffffffffffffffffffffffffff1673ffffffffffffffffffffffffffffffffffffffff1663a9059cbb33838561051f919061138c565b6040518363ffffffff1660e01b815260040161053c9291906113bf565b6020604051808303815f875af1158015610558573d5f5f3e3d5ffd5b505050506040513d601f19601f8201168201806040525081019061057c9190611410565b503373ffffffffffffffffffffffffffffffffffffffff167f7fc4727e062e336010f2c282598ef5f14facb3de68cf8195c2f23e1454b2b74e83836040516105c592919061143b565b60405180910390a25050565b6105d9610d68565b8060055f3373ffffffffffffffffffffffffffffffffffffffff1673ffffffffffffffffffffffffffffffffffffffff1681526020019081526020015f20541015610659576040517f08c379a0000000000000000000000000000000000000000000000000000000008152600401610650906114ac565b60405180910390fd5b60015f9054906101000a900473ffffffffffffffffffffffffffffffffffffffff1673ffffffffffffffffffffffffffffffffffffffff166323b872dd3330846040518463ffffffff1660e01b81526004016106b7939291906114ca565b6020604051808303815f875af11580156106d3573d5f5f3e3d5ffd5b505050506040513d601f19601f820116820180604052508101906106f79190611410565b508060055f3373ffffffffffffffffffffffffffffffffffffffff1673ffffffffffffffffffffffffffffffffffffffff1681526020019081526020015f205f8282546107449190611359565b925050819055503373ffffffffffffffffffffffffffffffffffffffff167f0516911bcc3a0a7412a44601057c0a0a1ec628bde049a84284bc4288665344888260405161079191906111cc565b60405180910390a250565b6107a4610e4f565b6107ac610ed6565b565b6005602052805f5260405f205f915090505481565b5f5f60149054906101000a900460ff16905090565b6107e0610e4f565b6107e95f610f37565b565b60025481565b6107f9610e4f565b610801610ff8565b565b5f5f5f9054906101000a900473ffffffffffffffffffffffffffffffffffffffff16905090565b610832610d68565b5f8111610874576040517f08c379a000000000000000000000000000000000000000000000000000000000815260040161086b90611549565b60405180910390fd5b60015f9054906101000a900473ffffffffffffffffffffffffffffffffffffffff1673ffffffffffffffffffffffffffffffffffffffff166323b872dd3330846040518463ffffffff1660e01b81526004016108d2939291906114ca565b6020604051808303815f875af11580156108ee573d5f5f3e3d5ffd5b505050506040513d601f19601f820116820180604052508101906109129190611410565b5061091c33610da9565b8060045f3373ffffffffffffffffffffffffffffffffffffffff1673ffffffffffffffffffffffffffffffffffffffff1681526020019081526020015f205f015f82825461096a919061138c565b925050819055504260045f3373ffffffffffffffffffffffffffffffffffffffff1673ffffffffffffffffffffffffffffffffffffffff1681526020019081526020015f20600101819055508060025f8282546109c7919061138c565b925050819055503373ffffffffffffffffffffffffffffffffffffffff167f9e71bc8eea02a63969f509818f2dafb9254532904319f9dbda79b67bd34a5f3d82604051610a1491906111cc565b60405180910390a250565b60035481565b610a2d610d68565b8061271060065460045f3373ffffffffffffffffffffffffffffffffffffffff1673ffffffffffffffffffffffffffffffffffffffff1681526020019081526020015f205f0154610a7e9190611567565b610a8891906115d5565b1015610ac9576040517f08c379a0000000000000000000000000000000000000000000000000000000008152600401610ac09061164f565b60405180910390fd5b8060055f3373ffffffffffffffffffffffffffffffffffffffff1673ffffffffffffffffffffffffffffffffffffffff1681526020019081526020015f205f828254610b15919061138c565b9250508190555060015f9054906101000a900473ffffffffffffffffffffffffffffffffffffffff1673ffffffffffffffffffffffffffffffffffffffff1663a9059cbb33836040518363ffffffff1660e01b8152600401610b789291906113bf565b6020604051808303815f875af1158015610b94573d5f5f3e3d5ffd5b505050506040513d601f19601f82011682018060405250810190610bb89190611410565b503373ffffffffffffffffffffffffffffffffffffffff167fac59582e5396aca512fa873a2047e7f4c80f8f55d4a06cb34a78a0187f62719f82604051610bff91906111cc565b60405180910390a250565b60015f9054906101000a900473ffffffffffffffffffffffffffffffffffffffff1681565b60065481565b61271081565b610c43610e4f565b5f73ffffffffffffffffffffffffffffffffffffffff168173ffffffffffffffffffffffffffffffffffffffff1603610cb3575f6040517f1e4fbdf7000000000000000000000000000000000000000000000000000000008152600401610caa9190611227565b60405180910390fd5b610cbc81610f37565b50565b5f5f60045f8473ffffffffffffffffffffffffffffffffffffffff1673ffffffffffffffffffffffffffffffffffffffff1681526020019081526020015f2090505f815f015403610d13575f915050610d63565b5f816001015442610d249190611359565b90506301e1338061271082600354855f0154610d409190611567565b610d4a9190611567565b610d5491906115d5565b610d5e91906115d5565b925050505b919050565b610d706107c3565b15610da7576040517fd93c066500000000000000000000000000000000000000000000000000000000815260040160405180910390fd5b565b610db281610cbf565b60045f8373ffffffffffffffffffffffffffffffffffffffff1673ffffffffffffffffffffffffffffffffffffffff1681526020019081526020015f206002015f828254610e00919061138c565b925050819055504260045f8373ffffffffffffffffffffffffffffffffffffffff1673ffffffffffffffffffffffffffffffffffffffff1681526020019081526020015f206001018190555050565b610e5761105a565b73ffffffffffffffffffffffffffffffffffffffff16610e75610803565b73ffffffffffffffffffffffffffffffffffffffff1614610ed457610e9861105a565b6040517f118cdaa7000000000000000000000000000000000000000000000000000000008152600401610ecb9190611227565b60405180910390fd5b565b610ede611061565b5f5f60146101000a81548160ff0219169083151502179055507f5db9ee0a495bf2e6ff9c91a7834c1ba4fdd244a5e8aa4e537bd38aeae4b073aa610f2061105a565b604051610f2d9190611227565b60405180910390a1565b5f5f5f9054906101000a900473ffffffffffffffffffffffffffffffffffffffff169050815f5f6101000a81548173ffffffffffffffffffffffffffffffffffffffff021916908373ffffffffffffffffffffffffffffffffffffffff1602179055508173ffffffffffffffffffffffffffffffffffffffff168173ffffffffffffffffffffffffffffffffffffffff167f8be0079c531659141344cd1fd0a4f28419497f9722a3daafe3b4186f6b6457e060405160405180910390a35050565b611000610d68565b60015f60146101000a81548160ff0219169083151502179055507f62e78cea01bee320cd4e420270b5ea74000d11b0c9f74754ebdbfc544b05a25861104361105a565b6040516110509190611227565b60405180910390a1565b5f33905090565b6110696107c3565b61109f576040517f8dfc202b00000000000000000000000000000000000000000000000000000000815260040160405180910390fd5b565b5f5ffd5b5f73ffffffffffffffffffffffffffffffffffffffff82169050919050565b5f6110ce826110a5565b9050919050565b6110de816110c4565b81146110e8575f5ffd5b50565b5f813590506110f9816110d5565b92915050565b5f60208284031215611114576111136110a1565b5b5f611121848285016110eb565b91505092915050565b5f819050919050565b61113c8161112a565b82525050565b5f6060820190506111555f830186611133565b6111626020830185611133565b61116f6040830184611133565b949350505050565b6111808161112a565b811461118a575f5ffd5b50565b5f8135905061119b81611177565b92915050565b5f602082840312156111b6576111b56110a1565b5b5f6111c38482850161118d565b91505092915050565b5f6020820190506111df5f830184611133565b92915050565b5f8115159050919050565b6111f9816111e5565b82525050565b5f6020820190506112125f8301846111f0565b92915050565b611221816110c4565b82525050565b5f60208201905061123a5f830184611218565b92915050565b5f819050919050565b5f61126361125e611259846110a5565b611240565b6110a5565b9050919050565b5f61127482611249565b9050919050565b5f6112858261126a565b9050919050565b6112958161127b565b82525050565b5f6020820190506112ae5f83018461128c565b92915050565b5f82825260208201905092915050565b7f496e73756666696369656e74207374616b6564000000000000000000000000005f82015250565b5f6112f86013836112b4565b9150611303826112c4565b602082019050919050565b5f6020820190508181035f830152611325816112ec565b9050919050565b7f4e487b71000000000000000000000000000000000000000000000000000000005f52601160045260245ffd5b5f6113638261112a565b915061136e8361112a565b92508282039050818111156113865761138561132c565b5b92915050565b5f6113968261112a565b91506113a18361112a565b92508282019050808211156113b9576113b861132c565b5b92915050565b5f6040820190506113d25f830185611218565b6113df6020830184611133565b9392505050565b6113ef816111e5565b81146113f9575f5ffd5b50565b5f8151905061140a816113e6565b92915050565b5f60208284031215611425576114246110a1565b5b5f611432848285016113fc565b91505092915050565b5f60408201905061144e5f830185611133565b61145b6020830184611133565b9392505050565b7f4e6f2073756368206465627400000000000000000000000000000000000000005f82015250565b5f611496600c836112b4565b91506114a182611462565b602082019050919050565b5f6020820190508181035f8301526114c38161148a565b9050919050565b5f6060820190506114dd5f830186611218565b6114ea6020830185611218565b6114f76040830184611133565b949350505050565b7f416d6f756e74206d757374206265203e203000000000000000000000000000005f82015250565b5f6115336012836112b4565b915061153e826114ff565b602082019050919050565b5f6020820190508181035f83015261156081611527565b9050919050565b5f6115718261112a565b915061157c8361112a565b925082820261158a8161112a565b915082820484148315176115a1576115a061132c565b5b5092915050565b7f4e487b71000000000000000000000000000000000000000000000000000000005f52601260045260245ffd5b5f6115df8261112a565b91506115ea8361112a565b9250826115fa576115f96115a8565b5b828204905092915050565b7f496e73756666696369656e7420636f6c6c61746572616c0000000000000000005f82015250565b5f6116396017836112b4565b915061164482611605565b602082019050919050565b5f6020820190508181035f8301526116668161162d565b905091905056fea26469706673582212204f11d446988016e7ddefbeb43fc1cd1f07a9a073c6768144ad6d2975ea3bf47c64736f6c634300081e0033","linkReferences":{}},"methodIdentifiers":{"BASIS_POINTS()":"e1f1c4a7","annualRate()":"c0f9b0fb","borrow(uint256)":"c5ebeaec","borrows(address)":"54a5706f","collateralFactor()":"df011c41","owner()":"8da5cb5b","pause()":"8456cb59","paused()":"5c975abb","pendingReward(address)":"f40f0f52","renounceOwnership()":"715018a6","repay(uint256)":"371fd8e6","stake(uint256)":"a694fc3a","stakes(address)":"16934fc4","totalStaked()":"817b1cd2","transferOwnership(address)":"f2fde38b","unpause()":"3f4ba83a","unstake(uint256)":"2e17de78","urzToken()":"d1f14a59"},"id":32}