{"abi":[{"type":"constructor","inputs":[{"name":"_implementation","type":"address","internalType":"address"}],"stateMutability":"nonpayable"},{"type":"function","name":"createEscrow","inputs":[],"outputs":[{"name":"proxy","type":"address","internalType":"address"}],"stateMutability":"nonpayable"},{"type":"function","name":"implementation","inputs":[],"outputs":[{"name":"","type":"address","internalType":"address"}],"stateMutability":"view"},{"type":"event","name":"EscrowDeployed","inputs":[{"name":"proxy","type":"address","indexed":true,"internalType":"address"},{"name":"creator","type":"address","indexed":true,"internalType":"address"},{"name":"timestamp","type":"uint256","indexed":false,"internalType":"uint256"}],"anonymous":false},{"type":"error","name":"FailedDeployment","inputs":[]},{"type":"error","name":"InsufficientBalance","inputs":[{"name":"balance","type":"uint256","internalType":"uint256"},{"name":"needed","type":"uint256","internalType":"uint256"}]}],"bytecode":{"object":"0x60a060405234801561000f575f5ffd5b5060405161051138038061051183398181016040528101906100319190610137565b5f73ffffffffffffffffffffffffffffffffffffffff168173ffffffffffffffffffffffffffffffffffffffff160361009f576040517f08c379a0000000000000000000000000000000000000000000000000000000008152600401610096906101bc565b60405180910390fd5b8073ffffffffffffffffffffffffffffffffffffffff1660808173ffffffffffffffffffffffffffffffffffffffff1681525050506101da565b5f5ffd5b5f73ffffffffffffffffffffffffffffffffffffffff82169050919050565b5f610106826100dd565b9050919050565b610116816100fc565b8114610120575f5ffd5b50565b5f815190506101318161010d565b92915050565b5f6020828403121561014c5761014b6100d9565b5b5f61015984828501610123565b91505092915050565b5f82825260208201905092915050565b7f496e76616c696420696d706c656d656e746174696f6e206164647265737300005f82015250565b5f6101a6601e83610162565b91506101b182610172565b602082019050919050565b5f6020820190508181035f8301526101d38161019a565b9050919050565b6080516103196101f85f395f8181607a015261010a01526103195ff3fe608060405234801561000f575f5ffd5b5060043610610034575f3560e01c8063560a8d62146100385780635c60da1b14610056575b5f5ffd5b610040610074565b60405161004d9190610272565b60405180910390f35b61005e610108565b60405161006b9190610272565b60405180910390f35b5f61009e7f000000000000000000000000000000000000000000000000000000000000000061012c565b90503373ffffffffffffffffffffffffffffffffffffffff168173ffffffffffffffffffffffffffffffffffffffff167f67a1293150d8768e79d693379b5358258737e16de28e3a8fe630cddca7c380bb426040516100fd91906102a3565b60405180910390a390565b7f000000000000000000000000000000000000000000000000000000000000000081565b5f610137825f61013e565b9050919050565b5f814710156101865747826040517fcf47918100000000000000000000000000000000000000000000000000000000815260040161017d9291906102bc565b60405180910390fd5b763d602d80600a3d3981f3363d3d373d3d3d363d730000008360601b60e81c175f526e5af43d82803e903d91602b57fd5bf38360781b176020526037600983f090505f73ffffffffffffffffffffffffffffffffffffffff168173ffffffffffffffffffffffffffffffffffffffff160361022d576040517fb06ebf3d00000000000000000000000000000000000000000000000000000000815260040160405180910390fd5b92915050565b5f73ffffffffffffffffffffffffffffffffffffffff82169050919050565b5f61025c82610233565b9050919050565b61026c81610252565b82525050565b5f6020820190506102855f830184610263565b92915050565b5f819050919050565b61029d8161028b565b82525050565b5f6020820190506102b65f830184610294565b92915050565b5f6040820190506102cf5f830185610294565b6102dc6020830184610294565b939250505056fea2646970667358221220750b8133490d3e607811ca4d48ae9a2c508de146b594fb6050ba12a3436cf5bc64736f6c634300081e0033","linkReferences":{}},"methodIdentifiers":{"createEscrow()":"560a8d62","implementation()":"5c60da1b"},"id":27}