{"abi":[{"type":"constructor","inputs":[{"name":"_implementation","type":"address","internalType":"address"}],"stateMutability":"nonpayable"},{"type":"function","name":"createEscrow","inputs":[],"outputs":[{"name":"proxy","type":"address","internalType":"address"}],"stateMutability":"nonpayable"},{"type":"function","name":"implementation","inputs":[],"outputs":[{"name":"","type":"address","internalType":"address"}],"stateMutability":"view"},{"type":"event","name":"EscrowDeployed","inputs":[{"name":"proxy","type":"address","indexed":true,"internalType":"address"},{"name":"creator","type":"address","indexed":true,"internalType":"address"},{"name":"timestamp","type":"uint256","indexed":false,"internalType":"uint256"}],"anonymous":false},{"type":"error","name":"FailedDeployment","inputs":[]},{"type":"error","name":"InsufficientBalance","inputs":[{"name":"balance","type":"uint256","internalType":"uint256"},{"name":"needed","type":"uint256","internalType":"uint256"}]},{"type":"error","name":"SafeCastOverflowedUintDowncast","inputs":[{"name":"bits","type":"uint8","internalType":"uint8"},{"name":"value","type":"uint256","internalType":"uint256"}]}],"bytecode":{"object":"0x60a060405234801561000f575f5ffd5b5060405161030838038061030883398101604081905261002e91610099565b6001600160a01b0381166100885760405162461bcd60e51b815260206004820152601e60248201527f496e76616c696420696d706c656d656e746174696f6e20616464726573730000604482015260640160405180910390fd5b6001600160a01b03166080526100c6565b5f602082840312156100a9575f5ffd5b81516001600160a01b03811681146100bf575f5ffd5b9392505050565b6080516102256100e35f395f818160610152608901526102255ff3fe608060405234801561000f575f5ffd5b5060043610610034575f3560e01c8063560a8d62146100385780635c60da1b1461005c575b5f5ffd5b610040610083565b6040516001600160a01b03909116815260200160405180910390f35b6100407f000000000000000000000000000000000000000000000000000000000000000081565b5f6100ad7f0000000000000000000000000000000000000000000000000000000000000000610100565b9050336001600160a01b0382167f67a1293150d8768e79d693379b5358258737e16de28e3a8fe630cddca7c380bb6100e3610111565b60405165ffffffffffff909116815260200160405180910390a390565b5f61010b825f610120565b92915050565b5f61011b426101b9565b905090565b5f814710156101505760405163cf47918160e01b8152476004820152602481018390526044015b60405180910390fd5b763d602d80600a3d3981f3363d3d373d3d3d363d730000008360601b60e81c175f526e5af43d82803e903d91602b57fd5bf38360781b176020526037600983f090506001600160a01b03811661010b5760405163b06ebf3d60e01b815260040160405180910390fd5b5f65ffffffffffff8211156101eb576040516306dfcc6560e41b81526030600482015260248101839052604401610147565b509056fea2646970667358221220c5ad2b8889d64e30e2fde94585524b19dcfafcb9a73b41d7fcbed3ac4075b3eb64736f6c63430008210033","linkReferences":{}},"methodIdentifiers":{"createEscrow()":"560a8d62","implementation()":"5c60da1b"},"id":46}